{
  "contractName": "Axon",
  "abi": [
    {
      "inputs": [
        {
          "internalType": "address",
          "name": "_cortex",
          "type": "address"
        }
      ],
      "stateMutability": "nonpayable",
      "type": "constructor"
    },
    {
      "anonymous": false,
      "inputs": [
        {
          "indexed": true,
          "internalType": "address",
          "name": "previousOwner",
          "type": "address"
        },
        {
          "indexed": true,
          "internalType": "address",
          "name": "newOwner",
          "type": "address"
        }
      ],
      "name": "OwnershipTransferred",
      "type": "event"
    },
    {
      "inputs": [],
      "name": "cortex",
      "outputs": [
        {
          "internalType": "address",
          "name": "",
          "type": "address"
        }
      ],
      "stateMutability": "view",
      "type": "function"
    },
    {
      "inputs": [],
      "name": "isBurner",
      "outputs": [
        {
          "internalType": "bool",
          "name": "",
          "type": "bool"
        }
      ],
      "stateMutability": "view",
      "type": "function"
    },
    {
      "inputs": [],
      "name": "isDelegator",
      "outputs": [
        {
          "internalType": "bool",
          "name": "",
          "type": "bool"
        }
      ],
      "stateMutability": "view",
      "type": "function"
    },
    {
      "inputs": [],
      "name": "isMinter",
      "outputs": [
        {
          "internalType": "bool",
          "name": "",
          "type": "bool"
        }
      ],
      "stateMutability": "view",
      "type": "function"
    },
    {
      "inputs": [],
      "name": "owner",
      "outputs": [
        {
          "internalType": "address",
          "name": "",
          "type": "address"
        }
      ],
      "stateMutability": "view",
      "type": "function"
    },
    {
      "inputs": [],
      "name": "renounceOwnership",
      "outputs": [],
      "stateMutability": "nonpayable",
      "type": "function"
    },
    {
      "inputs": [
        {
          "internalType": "address",
          "name": "newOwner",
          "type": "address"
        }
      ],
      "name": "transferOwnership",
      "outputs": [],
      "stateMutability": "nonpayable",
      "type": "function"
    },
    {
      "inputs": [
        {
          "internalType": "address",
          "name": "",
          "type": "address"
        }
      ],
      "name": "vault",
      "outputs": [
        {
          "internalType": "contract IERC20",
          "name": "token",
          "type": "address"
        },
        {
          "internalType": "address",
          "name": "beneficiary",
          "type": "address"
        },
        {
          "internalType": "uint256",
          "name": "totalAmount",
          "type": "uint256"
        },
        {
          "internalType": "uint256",
          "name": "releaseCycleTime",
          "type": "uint256"
        },
        {
          "internalType": "uint256",
          "name": "amountReleasedPerCycle",
          "type": "uint256"
        },
        {
          "internalType": "uint256",
          "name": "numberOfCycles",
          "type": "uint256"
        },
        {
          "internalType": "uint256",
          "name": "amountClaimed",
          "type": "uint256"
        },
        {
          "internalType": "uint256",
          "name": "creationTimeStamp",
          "type": "uint256"
        }
      ],
      "stateMutability": "view",
      "type": "function"
    },
    {
      "inputs": [
        {
          "internalType": "contract IERC20",
          "name": "_token",
          "type": "address"
        },
        {
          "internalType": "address",
          "name": "_beneficiary",
          "type": "address"
        },
        {
          "internalType": "uint256",
          "name": "_releaseCycleTime",
          "type": "uint256"
        },
        {
          "internalType": "uint256",
          "name": "_totalAmount",
          "type": "uint256"
        },
        {
          "internalType": "uint256",
          "name": "_amountPerCycle",
          "type": "uint256"
        },
        {
          "internalType": "uint256",
          "name": "_numberOfCycles",
          "type": "uint256"
        }
      ],
      "name": "vestTokens",
      "outputs": [],
      "stateMutability": "nonpayable",
      "type": "function"
    },
    {
      "inputs": [],
      "name": "claimVestedTokens",
      "outputs": [],
      "stateMutability": "nonpayable",
      "type": "function"
    },
    {
      "inputs": [
        {
          "internalType": "uint256",
          "name": "_time",
          "type": "uint256"
        },
        {
          "internalType": "uint256",
          "name": "_oneCycle",
          "type": "uint256"
        }
      ],
      "name": "calculateCyclesCompleted",
      "outputs": [
        {
          "internalType": "uint256",
          "name": "",
          "type": "uint256"
        }
      ],
      "stateMutability": "pure",
      "type": "function"
    }
  ],
  "bytecode": "0x608060405234801561001057600080fd5b50604051610add380380610add8339818101604052602081101561003357600080fd5b505160006100486001600160e01b036100b716565b600080546001600160a01b0319166001600160a01b0383169081178255604051929350917f8be0079c531659141344cd1fd0a4f28419497f9722a3daafe3b4186f6b6457e0908290a350600180546001600160a01b0319166001600160a01b03929092169190911790556100bb565b3390565b610a13806100ca6000396000f3fe608060405234801561001057600080fd5b50600436106100a95760003560e01c80638da5cb5b116100715780638da5cb5b1461014857806391bf9de914610150578063e74f3fbb14610158578063f2fde38b14610160578063f815c03d14610186578063f84ceace146101f9576100a9565b8063185ed831146100ae5780631a2fedf5146100ca57806350e59eb314610114578063521914721461011c578063715018a614610140575b600080fd5b6100b661022e565b604080519115158252519081900360200190f35b610112600480360360c08110156100e057600080fd5b506001600160a01b03813581169160208101359091169060408101359060608101359060808101359060a0013561023e565b005b6100b66103e3565b6101246103f3565b604080516001600160a01b039092168252519081900360200190f35b610112610402565b6101246104b6565b6100b66104c5565b6101126104d5565b6101126004803603602081101561017657600080fd5b50356001600160a01b03166105e8565b6101ac6004803603602081101561019c57600080fd5b50356001600160a01b03166106f2565b604080516001600160a01b03998a168152979098166020880152868801959095526060860193909352608085019190915260a084015260c083015260e08201529051908190036101000190f35b61021c6004803603604081101561020f57600080fd5b5080359060200135610744565b60408051918252519081900360200190f35b600054600160b01b900460ff1681565b6001546001600160a01b03163314610298576040805162461bcd60e51b8152602060048201526018602482015277086c2d8d8cae440d2e640dcdee840e8d0ca40c6dee4e8caf60431b604482015290519081900360640190fd5b826102a9838363ffffffff61075f16565b146102fb576040805162461bcd60e51b815260206004820152601a60248201527f4572726f723a20696e707574206e756d62657273206572726f72000000000000604482015290519081900360640190fd5b6040805163a9059cbb60e01b81523060048201526024810185905290516001600160a01b0388169163a9059cbb9160448083019260209291908290030181600087803b15801561034a57600080fd5b505af115801561035e573d6000803e3d6000fd5b505050506040513d602081101561037457600080fd5b505161037f57600080fd5b6001600160a01b0394851660008181526002602081905260409091206001810180546001600160a01b031990811690941790558054909216979096169690961786559385019190915560038401919091556004830155600582015542600790910155565b600054600160a01b900460ff1681565b6001546001600160a01b031681565b61040a6107b8565b6000546001600160a01b0390811691161461046c576040805162461bcd60e51b815260206004820181905260248201527f4f776e61626c653a2063616c6c6572206973206e6f7420746865206f776e6572604482015290519081900360640190fd5b600080546040516001600160a01b03909116907f8be0079c531659141344cd1fd0a4f28419497f9722a3daafe3b4186f6b6457e0908390a3600080546001600160a01b0319169055565b6000546001600160a01b031690565b600054600160a81b900460ff1681565b33600090815260026020526040812060078101549091906104fd90429063ffffffff6107bc16565b9050600061050f828460030154610744565b9050600061052a84600401548361075f90919063ffffffff16565b905060006105458560060154836107bc90919063ffffffff16565b600686015490915061055d908263ffffffff6107fe16565b600686015584546040805163a9059cbb60e01b81523360048201526024810184905290516001600160a01b039092169163a9059cbb916044808201926020929091908290030181600087803b1580156105b557600080fd5b505af11580156105c9573d6000803e3d6000fd5b505050506040513d60208110156105df57600080fd5b50505050505050565b6105f06107b8565b6000546001600160a01b03908116911614610652576040805162461bcd60e51b815260206004820181905260248201527f4f776e61626c653a2063616c6c6572206973206e6f7420746865206f776e6572604482015290519081900360640190fd5b6001600160a01b0381166106975760405162461bcd60e51b81526004018080602001828103825260268152602001806109976026913960400191505060405180910390fd5b600080546040516001600160a01b03808516939216917f8be0079c531659141344cd1fd0a4f28419497f9722a3daafe3b4186f6b6457e091a3600080546001600160a01b0319166001600160a01b0392909216919091179055565b6002602081905260009182526040909120805460018201549282015460038301546004840154600585015460068601546007909601546001600160a01b03958616979095169593949293919290919088565b6000610756838363ffffffff61085816565b90505b92915050565b60008261076e57506000610759565b8282028284828161077b57fe5b04146107565760405162461bcd60e51b81526004018080602001828103825260218152602001806109bd6021913960400191505060405180910390fd5b3390565b600061075683836040518060400160405280601e81526020017f536166654d6174683a207375627472616374696f6e206f766572666c6f77000081525061089a565b600082820183811015610756576040805162461bcd60e51b815260206004820152601b60248201527f536166654d6174683a206164646974696f6e206f766572666c6f770000000000604482015290519081900360640190fd5b600061075683836040518060400160405280601a81526020017f536166654d6174683a206469766973696f6e206279207a65726f000000000000815250610931565b600081848411156109295760405162461bcd60e51b81526004018080602001828103825283818151815260200191508051906020019080838360005b838110156108ee5781810151838201526020016108d6565b50505050905090810190601f16801561091b5780820380516001836020036101000a031916815260200191505b509250505060405180910390fd5b505050900390565b600081836109805760405162461bcd60e51b81526020600482018181528351602484015283519092839260449091019190850190808383600083156108ee5781810151838201526020016108d6565b50600083858161098c57fe5b049594505050505056fe4f776e61626c653a206e6577206f776e657220697320746865207a65726f2061646472657373536166654d6174683a206d756c7469706c69636174696f6e206f766572666c6f77a264697066735822122034ed32230066a5433e49951a512df64eba16912760d7230d170d37d00749a13a64736f6c63430006060033",
  "immutableReferences": {},
  "source": "pragma solidity ^0.6.2;\n\nimport \"../Interfaces/CortexI.sol\";\nimport \"../Interfaces/NeuronI.sol\";\nimport \"@openzeppelin/contracts/access/Ownable.sol\";\nimport \"@openzeppelin/contracts/math/SafeMath.sol\";\nimport \"@openzeppelin/contracts/token/ERC20/IERC20.sol\";\n\n////////////////////////////////////////////////////////////////////////////////////////////\n/// @title Axon\n/// @author Christopher Dixon\n////////////////////////////////////////////////////////////////////////////////////////////\n/**\nThe Axon contract is designed to be a token vesting contract for synapses that a cortex\n      can use through voting in the FrontalLobe\n**/\n\ncontract Axon is Ownable, NeuronI {\n    using SafeMath for uint256;\n\n    /// @notice cortex is the address of the cortex that controls a Axon contract\n    address public cortex;\n    /// @notice vault is a mapping that tracks an address to a Vested struct\n    mapping(address => Vested) public vault;\n    /**\n    @notice Vested is a struct used to store a specific users vesting data\n    @param token is the ERC20 contract being vested\n    @param beneficiary is the beneficiary of the vesting\n    @param totalAmount is the total amount of token alocated to the beneficiary\n    @param releaseCycleTime is the time one release cycle takes to complete in seconds\n    @param amountReleasedPerCycle is the amount of token released to the beneficiary per cycle\n    @param numberOfCycles is the number of cycles for a certain beneficiary\n    @param amountClaimed is the amount of token the beneficiary has claimed\n    @param creationTimeStamp is the time stamp for when a vesting period begins\n    **/\n    struct Vested {\n        IERC20 token;\n        address beneficiary;\n        uint256 totalAmount;\n        uint256 releaseCycleTime;\n        uint256 amountReleasedPerCycle;\n        uint256 numberOfCycles;\n        uint256 amountClaimed;\n        uint256 creationTimeStamp;\n    }\n\n    /// @notice onlyCortex is a modifier that prevents anyone but the cortex from calling a function\n    modifier onlyCortex() {\n        require(msg.sender == cortex, \"Caller is not the cortex\");\n        _;\n    }\n\n    /**\n@notice the constructor function is fired only once during contract creation and is used to set up\n   the Axon contract to Its Cortex\n**/\n    constructor(address _cortex) public {\n        cortex = _cortex;\n    }\n\n    /**\n@notice vestTokens allows a Cortex DAO to lock up an ERC20 token with a release cycle period for a beneficiary\n@param _token is the ERC20 contract being vested\n@param _beneficiary is the beneficiary of the vesting\n@param _releaseCycleTime is the time one release cycle takes to complete in seconds\n@param _totalAmount is the total amount of token alocated to the beneficiary\n@param _amountPerCycle is the amount of token released to the beneficiary per cycle\n@param _numberOfCycles is the number of cycles for a certain beneficiary\n**/\n    function vestTokens(\n        IERC20 _token,\n        address _beneficiary,\n        uint256 _releaseCycleTime,\n        uint256 _totalAmount,\n        uint256 _amountPerCycle,\n        uint256 _numberOfCycles\n    ) public onlyCortex {\n        require(\n            _amountPerCycle.mul(_numberOfCycles) == _totalAmount,\n            \"Error: input numbers error\"\n        );\n        require(_token.transfer(address(this), _totalAmount));\n        Vested storage v = vault[_beneficiary];\n        v.beneficiary = _beneficiary;\n        v.token = _token;\n        v.totalAmount = _totalAmount;\n        v.releaseCycleTime = _releaseCycleTime;\n        v.amountReleasedPerCycle = _amountPerCycle;\n        v.numberOfCycles = _numberOfCycles;\n        v.creationTimeStamp = now;\n    }\n\n    /**\n@notice claimVestedTokens allows a end user to claim the vested tokens owed to the in an axon contract\n@dev this function automagically distributes the appropriate amounts, no input params required!\n**/\n    function claimVestedTokens() public {\n        Vested storage v = vault[msg.sender];\n        uint256 timeSinceCreation = now.sub(v.creationTimeStamp);\n        uint256 cyclesCompleted =\n            calculateCyclesCompleted(timeSinceCreation, v.releaseCycleTime);\n        uint256 amountEarned = cyclesCompleted.mul(v.amountReleasedPerCycle);\n        uint256 amountToPay = amountEarned.sub(v.amountClaimed);\n        v.amountClaimed = v.amountClaimed.add(amountToPay);\n        v.token.transfer(msg.sender, amountToPay);\n    }\n\n    /**\n@notice calculateCyclesCompleted\n@param _time is the amount of time the tokens have been vested\n@param _oneCycle is the amount of time in seconds that one vesting release cycle is scheduled for\n**/\n    function calculateCyclesCompleted(uint256 _time, uint256 _oneCycle)\n        pure\n        public\n        returns (uint256)\n    {\n        return _time.div(_oneCycle);\n    }\n}\n",
  "sourcePath": "/home/stan36/repos/zer0/ZDAO/contracts/CoreNuerons/Axon.sol",
  "compiler": {
    "name": "solc",
    "version": "0.6.6+commit.6c089d02.Emscripten.clang"
  },
  "schemaVersion": "3.3.2",
  "updatedAt": "2021-01-22T01:09:49.283Z",
  "devdoc": {
    "methods": {
      "calculateCyclesCompleted(uint256,uint256)": {
        "params": {
          "_oneCycle": "is the amount of time in seconds that one vesting release cycle is scheduled for*",
          "_time": "is the amount of time the tokens have been vested"
        }
      },
      "claimVestedTokens()": {
        "details": "this function automagically distributes the appropriate amounts, no input params required!*"
      },
      "owner()": {
        "details": "Returns the address of the current owner."
      },
      "renounceOwnership()": {
        "details": "Leaves the contract without owner. It will not be possible to call `onlyOwner` functions anymore. Can only be called by the current owner.     * NOTE: Renouncing ownership will leave the contract without an owner, thereby removing any functionality that is only available to the owner."
      },
      "transferOwnership(address)": {
        "details": "Transfers ownership of the contract to a new account (`newOwner`). Can only be called by the current owner."
      },
      "vestTokens(address,address,uint256,uint256,uint256,uint256)": {
        "params": {
          "_amountPerCycle": "is the amount of token released to the beneficiary per cycle",
          "_beneficiary": "is the beneficiary of the vesting",
          "_numberOfCycles": "is the number of cycles for a certain beneficiary*",
          "_releaseCycleTime": "is the time one release cycle takes to complete in seconds",
          "_token": "is the ERC20 contract being vested",
          "_totalAmount": "is the total amount of token alocated to the beneficiary"
        }
      }
    }
  },
  "userdoc": {
    "methods": {
      "calculateCyclesCompleted(uint256,uint256)": {
        "notice": "calculateCyclesCompleted"
      },
      "claimVestedTokens()": {
        "notice": "claimVestedTokens allows a end user to claim the vested tokens owed to the in an axon contract"
      },
      "constructor": "the constructor function is fired only once during contract creation and is used to set up the Axon contract to Its Cortex*",
      "vestTokens(address,address,uint256,uint256,uint256,uint256)": {
        "notice": "vestTokens allows a Cortex DAO to lock up an ERC20 token with a release cycle period for a beneficiary"
      }
    },
    "notice": "The Axon contract is designed to be a token vesting contract for synapses that a cortex can use through voting in the FrontalLobe*"
  }
}