{
  "contractName": "FrontalLobeFactory",
  "abi": [
    {
      "inputs": [
        {
          "internalType": "address",
          "name": "_DAO",
          "type": "address"
        }
      ],
      "name": "genesis",
      "outputs": [
        {
          "internalType": "address",
          "name": "",
          "type": "address"
        }
      ],
      "stateMutability": "nonpayable",
      "type": "function"
    }
  ],
  "bytecode": "0x608060405234801561001057600080fd5b506119ba806100206000396000f3fe608060405234801561001057600080fd5b506004361061002b5760003560e01c80637722250914610030575b600080fd5b6100566004803603602081101561004657600080fd5b50356001600160a01b0316610072565b604080516001600160a01b039092168252519081900360200190f35b60008082604051610082906100b7565b6001600160a01b03909116815260405190819003602001906000f0801580156100af573d6000803e3d6000fd5b509392505050565b6118c0806100c58339019056fe60806040523480156200001157600080fd5b50604051620018c0380380620018c0833981810160405260208110156200003757600080fd5b505160006200004e6001600160e01b03620000f416565b600080546001600160a01b0319166001600160a01b038316908117825560405192935091600080516020620018a0833981519152908290a3506200009b816001600160e01b03620000f816565b600280546001600160a01b039092166001600160a01b03199092169190911790556000805460ff60b01b1960ff60a81b1960ff60a01b19909216600160a01b1791909116600160a81b1716600160b01b179055620001ff565b3390565b6200010b6001600160e01b03620000f416565b6000546001600160a01b039081169116146200016e576040805162461bcd60e51b815260206004820181905260248201527f4f776e61626c653a2063616c6c6572206973206e6f7420746865206f776e6572604482015290519081900360640190fd5b6001600160a01b038116620001b55760405162461bcd60e51b81526004018080602001828103825260268152602001806200187a6026913960400191505060405180910390fd5b600080546040516001600160a01b0380851693921691600080516020620018a083398151915291a3600080546001600160a01b0319166001600160a01b0392909216919091179055565b61166b806200020f6000396000f3fe6080604052600436106100ed5760003560e01c8063715018a611610085578063715018a6146103665780638da5cb5b1461037b5780638f8ff1b61461039057806391bf9de9146103d7578063998a3d46146103ec578063b1050da514610401578063c1ba4e591461053f578063c9d27afe14610569578063f2fde38b1461059b576100f4565b8063013cf08b146100f95780630d61b519146102655780631703a01814610291578063184a0ae9146102b8578063185ed831146102cd5780632121dc75146102f6578063371fa8541461030b57806350e59eb3146103205780635219147214610335576100f4565b366100f457005b600080fd5b34801561010557600080fd5b506101236004803603602081101561011c57600080fd5b50356105ce565b604051808b6001600160a01b03166001600160a01b031681526020018a6001600160a01b03166001600160a01b0316815260200189815260200188815260200187815260200186815260200185151515158152602001841515151581526020018060200180602001838103835285818151815260200191508051906020019080838360005b838110156101c05781810151838201526020016101a8565b50505050905090810190601f1680156101ed5780820380516001836020036101000a031916815260200191505b50838103825284518152845160209182019186019080838360005b83811015610220578181015183820152602001610208565b50505050905090810190601f16801561024d5780820380516001836020036101000a031916815260200191505b509c5050505050505050505050505060405180910390f35b34801561027157600080fd5b5061028f6004803603602081101561028857600080fd5b5035610746565b005b34801561029d57600080fd5b506102a6610b18565b60408051918252519081900360200190f35b3480156102c457600080fd5b506102a6610b1e565b3480156102d957600080fd5b506102e2610b24565b604080519115158252519081900360200190f35b34801561030257600080fd5b506102e2610b34565b34801561031757600080fd5b506102a6610b3d565b34801561032c57600080fd5b506102e2610b43565b34801561034157600080fd5b5061034a610b53565b604080516001600160a01b039092168252519081900360200190f35b34801561037257600080fd5b5061028f610b62565b34801561038757600080fd5b5061034a610c04565b34801561039c57600080fd5b5061028f600480360360808110156103b357600080fd5b506001600160a01b0381351690602081013590604081013590606001351515610c14565b3480156103e357600080fd5b506102e2610ca7565b3480156103f857600080fd5b5061034a610cb7565b6102a66004803603608081101561041757600080fd5b6001600160a01b0382351691602081013591810190606081016040820135600160201b81111561044657600080fd5b82018360208201111561045857600080fd5b803590602001918460018302840111600160201b8311171561047957600080fd5b91908080601f0160208091040260200160405190810160405280939291908181526020018383808284376000920191909152509295949360208101935035915050600160201b8111156104cb57600080fd5b8201836020820111156104dd57600080fd5b803590602001918460018302840111600160201b831117156104fe57600080fd5b91908080601f016020809104026020016040519081016040528093929190818152602001838380828437600092019190915250929550610cc6945050505050565b34801561054b57600080fd5b5061028f6004803603602081101561056257600080fd5b5035610e23565b34801561057557600080fd5b5061028f6004803603604081101561058c57600080fd5b50803590602001351515610e80565b3480156105a757600080fd5b5061028f600480360360208110156105be57600080fd5b50356001600160a01b03166111cf565b600760208181526000928352604092839020805460018083015460028085015460038601546004870154600588015460068901549a890180548d51610100998216158a026000190190911696909604601f81018c90048c0287018c01909d528c86526001600160a01b039889169c989096169a939992989197909660ff808616979190950490941694919391928301828280156106ac5780601f10610681576101008083540402835291602001916106ac565b820191906000526020600020905b81548152906001019060200180831161068f57829003601f168201915b5050505060088301805460408051602060026001851615610100026000190190941693909304601f810184900484028201840190925281815294959493509083018282801561073c5780601f106107115761010080835404028352916020019161073c565b820191906000526020600020905b81548152906001019060200180831161071f57829003601f168201915b505050505090508a565b600154604080516370a0823160e01b81523360048201529051670de0b6b3a7640000926001600160a01b0316916370a08231916024808301926020929190829003018186803b15801561079857600080fd5b505afa1580156107ac573d6000803e3d6000fd5b505050506040513d60208110156107c257600080fd5b50511015610805576040805162461bcd60e51b815260206004820181905260248201526000805160206115ef833981519152604482015290519081900360640190fd5b600081815260076020908152604080832060015482516318160ddd60e01b815292519194936001600160a01b03909116926318160ddd9260048083019392829003018186803b15801561085757600080fd5b505afa15801561086b573d6000803e3d6000fd5b505050506040513d602081101561088157600080fd5b5051600383015490915060009061089890836112c7565b9050806108e7576040805162461bcd60e51b81526020600482015260186024820152771d9bdd1a5b99c81d1a1c995cda1bdb19081b9bdd081b595d60421b604482015290519081900360640190fd5b600454600284015461090090429063ffffffff61130916565b106109205760068301805461ff001960ff19909116600117169055610b12565b600683015460ff16156109645760405162461bcd60e51b815260040180806020018281038252602781526020018061160f6027913960400191505060405180910390fd5b600080805b856004015481116109cd5760008181526009870160205260409020805460ff16156109ab5760018101546109a490859063ffffffff61135216565b93506109c4565b60018101546109c190849063ffffffff61135216565b92505b50600101610969565b5080821115610af85760028054600187810154600589015460405163024af59b60e61b81526001600160a01b03928316600482018181526024830184905260606044840190815260088e018054600019988116156101000298909801909716989098046064840181905294909616966392bd66c096919593949192909160849091019084908015610a9f5780601f10610a7457610100808354040283529160200191610a9f565b820191906000526020600020905b815481529060010190602001808311610a8257829003601f168201915b5050945050505050600060405180830381600087803b158015610ac157600080fd5b505af1158015610ad5573d6000803e3d6000fd5b50505060068601805461ff001960ff199091166001171661010017905550610b0f565b60068501805461ff001960ff199091166001171690555b50505b50505050565b60055481565b60045481565b600054600160b01b900460ff1681565b60065460ff1681565b60035481565b600054600160a01b900460ff1681565b6002546001600160a01b031681565b610b6a6113ac565b6000546001600160a01b03908116911614610bba576040805162461bcd60e51b815260206004820181905260248201526000805160206115a8833981519152604482015290519081900360640190fd5b600080546040516001600160a01b03909116907f8be0079c531659141344cd1fd0a4f28419497f9722a3daafe3b4186f6b6457e0908390a3600080546001600160a01b0319169055565b6000546001600160a01b03165b90565b610c1c6113ac565b6000546001600160a01b03908116911614610c6c576040805162461bcd60e51b815260206004820181905260248201526000805160206115a8833981519152604482015290519081900360640190fd5b600180546001600160a01b0319166001600160a01b0395909516949094179093556006805460ff191693151593909317909255600555600455565b600054600160a81b900460ff1681565b6001546001600160a01b031681565b600154604080516370a0823160e01b81523360048201529051600092670de0b6b3a7640000926001600160a01b03909116916370a0823191602480820192602092909190829003018186803b158015610d1e57600080fd5b505afa158015610d32573d6000803e3d6000fd5b505050506040513d6020811015610d4857600080fd5b50511015610d8b576040805162461bcd60e51b815260206004820181905260248201526000805160206115ef833981519152604482015290519081900360640190fd5b600380546001908101808355600090815260076020818152604083208054336001600160a01b031991821617825594810180549095166001600160a01b038c161790945593830182905560048301829055600583019190915542600283015585519192610dff929184019190870190611478565b508251610e159060088301906020860190611478565b505060035495945050505050565b610e2b6113ac565b6000546001600160a01b03908116911614610e7b576040805162461bcd60e51b815260206004820181905260248201526000805160206115a8833981519152604482015290519081900360640190fd5b600555565b600154604080516370a0823160e01b81523360048201529051670de0b6b3a7640000926001600160a01b0316916370a08231916024808301926020929190829003018186803b158015610ed257600080fd5b505afa158015610ee6573d6000803e3d6000fd5b505050506040513d6020811015610efc57600080fd5b50511015610f3f576040805162461bcd60e51b815260206004820181905260248201526000805160206115ef833981519152604482015290519081900360640190fd5b6000828152600760209081526040808320338452600a81019092529091205460ff16151560011415610fa25760405162461bcd60e51b81526004018080602001828103825260278152602001806115c86027913960400191505060405180910390fd5b600154604080516370a0823160e01b815233600482015290516000926001600160a01b0316916370a08231916024808301926020929190829003018186803b158015610fed57600080fd5b505afa158015611001573d6000803e3d6000fd5b505050506040513d602081101561101757600080fd5b505160065490915060ff161561112e57600154604080516347a861d160e11b8152336004820152815160009384936001600160a01b0390911692638f50c3a29260248083019392829003018186803b15801561107257600080fd5b505afa158015611086573d6000803e3d6000fd5b505050506040513d604081101561109c57600080fd5b50805160209091015190925090508281146110e85760405162461bcd60e51b815260040180806020018281038252603a81526020018061156e603a913960400191505060405180910390fd5b818460020154101561112b5760405162461bcd60e51b81526004018080602001828103825260378152602001806115376037913960400191505060405180910390fd5b50505b6004820154604080516060810182528515158152336020808301918252828401868152600095865260098801909152929093209051815493516001600160a01b031661010002610100600160a81b031991151560ff1990951694909417169290921782555160019091015560038201546111a89082611352565b600383015550336000908152600a90910160205260409020805460ff191660011790555050565b6111d76113ac565b6000546001600160a01b03908116911614611227576040805162461bcd60e51b815260206004820181905260248201526000805160206115a8833981519152604482015290519081900360640190fd5b6001600160a01b03811661126c5760405162461bcd60e51b81526004018080602001828103825260268152602001806115116026913960400191505060405180910390fd5b600080546040516001600160a01b03808516939216917f8be0079c531659141344cd1fd0a4f28419497f9722a3daafe3b4186f6b6457e091a3600080546001600160a01b0319166001600160a01b0392909216919091179055565b6000806112d6848460026113b0565b9050828414156112ea576001915050611303565b60055481106112fd576001915050611303565b60009150505b92915050565b600061134b83836040518060400160405280601e81526020017f536166654d6174683a207375627472616374696f6e206f766572666c6f7700008152506113e1565b9392505050565b60008282018381101561134b576040805162461bcd60e51b815260206004820152601b60248201527f536166654d6174683a206164646974696f6e206f766572666c6f770000000000604482015290519081900360640190fd5b3390565b60008082600101600a0a850290506000600a8583816113cb57fe5b04600501816113d657fe5b049695505050505050565b600081848411156114705760405162461bcd60e51b81526004018080602001828103825283818151815260200191508051906020019080838360005b8381101561143557818101518382015260200161141d565b50505050905090810190601f1680156114625780820380516001836020036101000a031916815260200191505b509250505060405180910390fd5b505050900390565b828054600181600116156101000203166002900490600052602060002090601f016020900481019282601f106114b957805160ff19168380011785556114e6565b828001600101855582156114e6579182015b828111156114e65782518255916020019190600101906114cb565b506114f29291506114f6565b5090565b610c1191905b808211156114f257600081556001016114fc56fe4f776e61626c653a206e6577206f776e657220697320746865207a65726f206164647265737356696f6c6174696e672052656c617469766974793a2054696d65206572726f7220746f6b656e2074696d657320646f6e74206d6174636856696f6c6174696e672052656c617469766974793a205370616365206572726f7220746f6b656e20616d6f756e747320646f6e74206d617463684f776e61626c653a2063616c6c6572206973206e6f7420746865206f776e6572596f75204861766520616c726561647920766f746564206f6e20746869732070726f706f73616c596f7520617265206e6f742061206d656d626572206f6620746869732044414f546869732070726f706f73616c2068617320616c7265616479206265656e206578656375746564a2646970667358221220790404bae752ac399ef1afc37f2e43de9bc15cf0994b5fe9d4f4602cc1c81db664736f6c634300060600334f776e61626c653a206e6577206f776e657220697320746865207a65726f20616464726573738be0079c531659141344cd1fd0a4f28419497f9722a3daafe3b4186f6b6457e0a264697066735822122064715621d38b2ab56187b9967504d4037f2bb69d36a21d38499512517808f14c64736f6c63430006060033",
  "immutableReferences": {},
  "source": "pragma solidity ^0.6.2;\n\nimport \"../CoreNuerons/FrontalLobe.sol\";\nimport \"../Hippocampus.sol\";\n\n////////////////////////////////////////////////////////////////////////////////////////////\n/// @title FrontalLobeFactory\n/// @author Christopher Dixon\n////////////////////////////////////////////////////////////////////////////////////////////\n/**\nThe FrontalLobeFactory contract is designed to produce individual FrontalLobe contracts\n**/\n\ncontract FrontalLobeFactory {\n    /**\n    @notice genesis is called to create a new FrontalLobe contract\n    @param _DAO is the address of the Cortex DAO that will own the created\n            FrontalLobe\n    **/\n    function genesis(address _DAO) public returns (address) {\n        FrontalLobe fl = new FrontalLobe(_DAO);\n        return address(fl);\n    }\n}\n",
  "sourcePath": "/home/stan36/repos/zer0/ZDAO/contracts/NeuronFactories/FrontalLobeFactory.sol",
  "compiler": {
    "name": "solc",
    "version": "0.6.6+commit.6c089d02.Emscripten.clang"
  },
  "schemaVersion": "3.3.2",
  "updatedAt": "2021-01-22T01:08:56.703Z",
  "devdoc": {
    "methods": {
      "genesis(address)": {
        "params": {
          "_DAO": "is the address of the Cortex DAO that will own the created FrontalLobe*"
        }
      }
    }
  },
  "userdoc": {
    "methods": {
      "genesis(address)": {
        "notice": "genesis is called to create a new FrontalLobe contract"
      }
    },
    "notice": "The FrontalLobeFactory contract is designed to produce individual FrontalLobe contracts*"
  }
}