{
  "contractName": "FrontalLobe",
  "abi": [
    {
      "inputs": [
        {
          "internalType": "address",
          "name": "_DAO",
          "type": "address"
        }
      ],
      "stateMutability": "nonpayable",
      "type": "constructor"
    },
    {
      "anonymous": false,
      "inputs": [
        {
          "indexed": true,
          "internalType": "address",
          "name": "previousOwner",
          "type": "address"
        },
        {
          "indexed": true,
          "internalType": "address",
          "name": "newOwner",
          "type": "address"
        }
      ],
      "name": "OwnershipTransferred",
      "type": "event"
    },
    {
      "inputs": [],
      "name": "cortex",
      "outputs": [
        {
          "internalType": "contract CortexI",
          "name": "",
          "type": "address"
        }
      ],
      "stateMutability": "view",
      "type": "function"
    },
    {
      "inputs": [],
      "name": "isBurner",
      "outputs": [
        {
          "internalType": "bool",
          "name": "",
          "type": "bool"
        }
      ],
      "stateMutability": "view",
      "type": "function"
    },
    {
      "inputs": [],
      "name": "isDelegator",
      "outputs": [
        {
          "internalType": "bool",
          "name": "",
          "type": "bool"
        }
      ],
      "stateMutability": "view",
      "type": "function"
    },
    {
      "inputs": [],
      "name": "isMinter",
      "outputs": [
        {
          "internalType": "bool",
          "name": "",
          "type": "bool"
        }
      ],
      "stateMutability": "view",
      "type": "function"
    },
    {
      "inputs": [],
      "name": "isTransferable",
      "outputs": [
        {
          "internalType": "bool",
          "name": "",
          "type": "bool"
        }
      ],
      "stateMutability": "view",
      "type": "function"
    },
    {
      "inputs": [],
      "name": "owner",
      "outputs": [
        {
          "internalType": "address",
          "name": "",
          "type": "address"
        }
      ],
      "stateMutability": "view",
      "type": "function"
    },
    {
      "inputs": [],
      "name": "proposalID",
      "outputs": [
        {
          "internalType": "uint256",
          "name": "",
          "type": "uint256"
        }
      ],
      "stateMutability": "view",
      "type": "function"
    },
    {
      "inputs": [],
      "name": "proposalTime",
      "outputs": [
        {
          "internalType": "uint256",
          "name": "",
          "type": "uint256"
        }
      ],
      "stateMutability": "view",
      "type": "function"
    },
    {
      "inputs": [
        {
          "internalType": "uint256",
          "name": "",
          "type": "uint256"
        }
      ],
      "name": "proposals",
      "outputs": [
        {
          "internalType": "address",
          "name": "maker",
          "type": "address"
        },
        {
          "internalType": "address payable",
          "name": "target",
          "type": "address"
        },
        {
          "internalType": "uint256",
          "name": "timeCreated",
          "type": "uint256"
        },
        {
          "internalType": "uint256",
          "name": "voteWeights",
          "type": "uint256"
        },
        {
          "internalType": "uint256",
          "name": "voteID",
          "type": "uint256"
        },
        {
          "internalType": "uint256",
          "name": "amount",
          "type": "uint256"
        },
        {
          "internalType": "bool",
          "name": "executed",
          "type": "bool"
        },
        {
          "internalType": "bool",
          "name": "proposalPassed",
          "type": "bool"
        },
        {
          "internalType": "string",
          "name": "proposalHash",
          "type": "string"
        },
        {
          "internalType": "bytes",
          "name": "call_data",
          "type": "bytes"
        }
      ],
      "stateMutability": "view",
      "type": "function"
    },
    {
      "inputs": [],
      "name": "quorum",
      "outputs": [
        {
          "internalType": "uint256",
          "name": "",
          "type": "uint256"
        }
      ],
      "stateMutability": "view",
      "type": "function"
    },
    {
      "inputs": [],
      "name": "renounceOwnership",
      "outputs": [],
      "stateMutability": "nonpayable",
      "type": "function"
    },
    {
      "inputs": [],
      "name": "synaps",
      "outputs": [
        {
          "internalType": "contract Synaps",
          "name": "",
          "type": "address"
        }
      ],
      "stateMutability": "view",
      "type": "function"
    },
    {
      "inputs": [
        {
          "internalType": "address",
          "name": "newOwner",
          "type": "address"
        }
      ],
      "name": "transferOwnership",
      "outputs": [],
      "stateMutability": "nonpayable",
      "type": "function"
    },
    {
      "stateMutability": "payable",
      "type": "receive"
    },
    {
      "inputs": [
        {
          "internalType": "address",
          "name": "_synaps",
          "type": "address"
        },
        {
          "internalType": "uint256",
          "name": "_quorum",
          "type": "uint256"
        },
        {
          "internalType": "uint256",
          "name": "_proposalTime",
          "type": "uint256"
        },
        {
          "internalType": "bool",
          "name": "_transferableRep",
          "type": "bool"
        }
      ],
      "name": "connectNeuron",
      "outputs": [],
      "stateMutability": "nonpayable",
      "type": "function"
    },
    {
      "inputs": [
        {
          "internalType": "address payable",
          "name": "_target",
          "type": "address"
        },
        {
          "internalType": "uint256",
          "name": "_amount",
          "type": "uint256"
        },
        {
          "internalType": "string",
          "name": "_proposalHash",
          "type": "string"
        },
        {
          "internalType": "bytes",
          "name": "_calldata",
          "type": "bytes"
        }
      ],
      "name": "newProposal",
      "outputs": [
        {
          "internalType": "uint256",
          "name": "",
          "type": "uint256"
        }
      ],
      "stateMutability": "payable",
      "type": "function"
    },
    {
      "inputs": [
        {
          "internalType": "uint256",
          "name": "_quorum",
          "type": "uint256"
        }
      ],
      "name": "setQuorum",
      "outputs": [],
      "stateMutability": "nonpayable",
      "type": "function"
    },
    {
      "inputs": [
        {
          "internalType": "uint256",
          "name": "_ProposalID",
          "type": "uint256"
        },
        {
          "internalType": "bool",
          "name": "supportsProposal",
          "type": "bool"
        }
      ],
      "name": "vote",
      "outputs": [],
      "stateMutability": "nonpayable",
      "type": "function"
    },
    {
      "inputs": [
        {
          "internalType": "uint256",
          "name": "_proposalID",
          "type": "uint256"
        }
      ],
      "name": "executeProposal",
      "outputs": [],
      "stateMutability": "nonpayable",
      "type": "function"
    }
  ],
  "bytecode": "0x60806040523480156200001157600080fd5b50604051620018c0380380620018c0833981810160405260208110156200003757600080fd5b505160006200004e6001600160e01b03620000f416565b600080546001600160a01b0319166001600160a01b038316908117825560405192935091600080516020620018a0833981519152908290a3506200009b816001600160e01b03620000f816565b600280546001600160a01b039092166001600160a01b03199092169190911790556000805460ff60b01b1960ff60a81b1960ff60a01b19909216600160a01b1791909116600160a81b1716600160b01b179055620001ff565b3390565b6200010b6001600160e01b03620000f416565b6000546001600160a01b039081169116146200016e576040805162461bcd60e51b815260206004820181905260248201527f4f776e61626c653a2063616c6c6572206973206e6f7420746865206f776e6572604482015290519081900360640190fd5b6001600160a01b038116620001b55760405162461bcd60e51b81526004018080602001828103825260268152602001806200187a6026913960400191505060405180910390fd5b600080546040516001600160a01b0380851693921691600080516020620018a083398151915291a3600080546001600160a01b0319166001600160a01b0392909216919091179055565b61166b806200020f6000396000f3fe6080604052600436106100ed5760003560e01c8063715018a611610085578063715018a6146103665780638da5cb5b1461037b5780638f8ff1b61461039057806391bf9de9146103d7578063998a3d46146103ec578063b1050da514610401578063c1ba4e591461053f578063c9d27afe14610569578063f2fde38b1461059b576100f4565b8063013cf08b146100f95780630d61b519146102655780631703a01814610291578063184a0ae9146102b8578063185ed831146102cd5780632121dc75146102f6578063371fa8541461030b57806350e59eb3146103205780635219147214610335576100f4565b366100f457005b600080fd5b34801561010557600080fd5b506101236004803603602081101561011c57600080fd5b50356105ce565b604051808b6001600160a01b03166001600160a01b031681526020018a6001600160a01b03166001600160a01b0316815260200189815260200188815260200187815260200186815260200185151515158152602001841515151581526020018060200180602001838103835285818151815260200191508051906020019080838360005b838110156101c05781810151838201526020016101a8565b50505050905090810190601f1680156101ed5780820380516001836020036101000a031916815260200191505b50838103825284518152845160209182019186019080838360005b83811015610220578181015183820152602001610208565b50505050905090810190601f16801561024d5780820380516001836020036101000a031916815260200191505b509c5050505050505050505050505060405180910390f35b34801561027157600080fd5b5061028f6004803603602081101561028857600080fd5b5035610746565b005b34801561029d57600080fd5b506102a6610b18565b60408051918252519081900360200190f35b3480156102c457600080fd5b506102a6610b1e565b3480156102d957600080fd5b506102e2610b24565b604080519115158252519081900360200190f35b34801561030257600080fd5b506102e2610b34565b34801561031757600080fd5b506102a6610b3d565b34801561032c57600080fd5b506102e2610b43565b34801561034157600080fd5b5061034a610b53565b604080516001600160a01b039092168252519081900360200190f35b34801561037257600080fd5b5061028f610b62565b34801561038757600080fd5b5061034a610c04565b34801561039c57600080fd5b5061028f600480360360808110156103b357600080fd5b506001600160a01b0381351690602081013590604081013590606001351515610c14565b3480156103e357600080fd5b506102e2610ca7565b3480156103f857600080fd5b5061034a610cb7565b6102a66004803603608081101561041757600080fd5b6001600160a01b0382351691602081013591810190606081016040820135600160201b81111561044657600080fd5b82018360208201111561045857600080fd5b803590602001918460018302840111600160201b8311171561047957600080fd5b91908080601f0160208091040260200160405190810160405280939291908181526020018383808284376000920191909152509295949360208101935035915050600160201b8111156104cb57600080fd5b8201836020820111156104dd57600080fd5b803590602001918460018302840111600160201b831117156104fe57600080fd5b91908080601f016020809104026020016040519081016040528093929190818152602001838380828437600092019190915250929550610cc6945050505050565b34801561054b57600080fd5b5061028f6004803603602081101561056257600080fd5b5035610e23565b34801561057557600080fd5b5061028f6004803603604081101561058c57600080fd5b50803590602001351515610e80565b3480156105a757600080fd5b5061028f600480360360208110156105be57600080fd5b50356001600160a01b03166111cf565b600760208181526000928352604092839020805460018083015460028085015460038601546004870154600588015460068901549a890180548d51610100998216158a026000190190911696909604601f81018c90048c0287018c01909d528c86526001600160a01b039889169c989096169a939992989197909660ff808616979190950490941694919391928301828280156106ac5780601f10610681576101008083540402835291602001916106ac565b820191906000526020600020905b81548152906001019060200180831161068f57829003601f168201915b5050505060088301805460408051602060026001851615610100026000190190941693909304601f810184900484028201840190925281815294959493509083018282801561073c5780601f106107115761010080835404028352916020019161073c565b820191906000526020600020905b81548152906001019060200180831161071f57829003601f168201915b505050505090508a565b600154604080516370a0823160e01b81523360048201529051670de0b6b3a7640000926001600160a01b0316916370a08231916024808301926020929190829003018186803b15801561079857600080fd5b505afa1580156107ac573d6000803e3d6000fd5b505050506040513d60208110156107c257600080fd5b50511015610805576040805162461bcd60e51b815260206004820181905260248201526000805160206115ef833981519152604482015290519081900360640190fd5b600081815260076020908152604080832060015482516318160ddd60e01b815292519194936001600160a01b03909116926318160ddd9260048083019392829003018186803b15801561085757600080fd5b505afa15801561086b573d6000803e3d6000fd5b505050506040513d602081101561088157600080fd5b5051600383015490915060009061089890836112c7565b9050806108e7576040805162461bcd60e51b81526020600482015260186024820152771d9bdd1a5b99c81d1a1c995cda1bdb19081b9bdd081b595d60421b604482015290519081900360640190fd5b600454600284015461090090429063ffffffff61130916565b106109205760068301805461ff001960ff19909116600117169055610b12565b600683015460ff16156109645760405162461bcd60e51b815260040180806020018281038252602781526020018061160f6027913960400191505060405180910390fd5b600080805b856004015481116109cd5760008181526009870160205260409020805460ff16156109ab5760018101546109a490859063ffffffff61135216565b93506109c4565b60018101546109c190849063ffffffff61135216565b92505b50600101610969565b5080821115610af85760028054600187810154600589015460405163024af59b60e61b81526001600160a01b03928316600482018181526024830184905260606044840190815260088e018054600019988116156101000298909801909716989098046064840181905294909616966392bd66c096919593949192909160849091019084908015610a9f5780601f10610a7457610100808354040283529160200191610a9f565b820191906000526020600020905b815481529060010190602001808311610a8257829003601f168201915b5050945050505050600060405180830381600087803b158015610ac157600080fd5b505af1158015610ad5573d6000803e3d6000fd5b50505060068601805461ff001960ff199091166001171661010017905550610b0f565b60068501805461ff001960ff199091166001171690555b50505b50505050565b60055481565b60045481565b600054600160b01b900460ff1681565b60065460ff1681565b60035481565b600054600160a01b900460ff1681565b6002546001600160a01b031681565b610b6a6113ac565b6000546001600160a01b03908116911614610bba576040805162461bcd60e51b815260206004820181905260248201526000805160206115a8833981519152604482015290519081900360640190fd5b600080546040516001600160a01b03909116907f8be0079c531659141344cd1fd0a4f28419497f9722a3daafe3b4186f6b6457e0908390a3600080546001600160a01b0319169055565b6000546001600160a01b03165b90565b610c1c6113ac565b6000546001600160a01b03908116911614610c6c576040805162461bcd60e51b815260206004820181905260248201526000805160206115a8833981519152604482015290519081900360640190fd5b600180546001600160a01b0319166001600160a01b0395909516949094179093556006805460ff191693151593909317909255600555600455565b600054600160a81b900460ff1681565b6001546001600160a01b031681565b600154604080516370a0823160e01b81523360048201529051600092670de0b6b3a7640000926001600160a01b03909116916370a0823191602480820192602092909190829003018186803b158015610d1e57600080fd5b505afa158015610d32573d6000803e3d6000fd5b505050506040513d6020811015610d4857600080fd5b50511015610d8b576040805162461bcd60e51b815260206004820181905260248201526000805160206115ef833981519152604482015290519081900360640190fd5b600380546001908101808355600090815260076020818152604083208054336001600160a01b031991821617825594810180549095166001600160a01b038c161790945593830182905560048301829055600583019190915542600283015585519192610dff929184019190870190611478565b508251610e159060088301906020860190611478565b505060035495945050505050565b610e2b6113ac565b6000546001600160a01b03908116911614610e7b576040805162461bcd60e51b815260206004820181905260248201526000805160206115a8833981519152604482015290519081900360640190fd5b600555565b600154604080516370a0823160e01b81523360048201529051670de0b6b3a7640000926001600160a01b0316916370a08231916024808301926020929190829003018186803b158015610ed257600080fd5b505afa158015610ee6573d6000803e3d6000fd5b505050506040513d6020811015610efc57600080fd5b50511015610f3f576040805162461bcd60e51b815260206004820181905260248201526000805160206115ef833981519152604482015290519081900360640190fd5b6000828152600760209081526040808320338452600a81019092529091205460ff16151560011415610fa25760405162461bcd60e51b81526004018080602001828103825260278152602001806115c86027913960400191505060405180910390fd5b600154604080516370a0823160e01b815233600482015290516000926001600160a01b0316916370a08231916024808301926020929190829003018186803b158015610fed57600080fd5b505afa158015611001573d6000803e3d6000fd5b505050506040513d602081101561101757600080fd5b505160065490915060ff161561112e57600154604080516347a861d160e11b8152336004820152815160009384936001600160a01b0390911692638f50c3a29260248083019392829003018186803b15801561107257600080fd5b505afa158015611086573d6000803e3d6000fd5b505050506040513d604081101561109c57600080fd5b50805160209091015190925090508281146110e85760405162461bcd60e51b815260040180806020018281038252603a81526020018061156e603a913960400191505060405180910390fd5b818460020154101561112b5760405162461bcd60e51b81526004018080602001828103825260378152602001806115376037913960400191505060405180910390fd5b50505b6004820154604080516060810182528515158152336020808301918252828401868152600095865260098801909152929093209051815493516001600160a01b031661010002610100600160a81b031991151560ff1990951694909417169290921782555160019091015560038201546111a89082611352565b600383015550336000908152600a90910160205260409020805460ff191660011790555050565b6111d76113ac565b6000546001600160a01b03908116911614611227576040805162461bcd60e51b815260206004820181905260248201526000805160206115a8833981519152604482015290519081900360640190fd5b6001600160a01b03811661126c5760405162461bcd60e51b81526004018080602001828103825260268152602001806115116026913960400191505060405180910390fd5b600080546040516001600160a01b03808516939216917f8be0079c531659141344cd1fd0a4f28419497f9722a3daafe3b4186f6b6457e091a3600080546001600160a01b0319166001600160a01b0392909216919091179055565b6000806112d6848460026113b0565b9050828414156112ea576001915050611303565b60055481106112fd576001915050611303565b60009150505b92915050565b600061134b83836040518060400160405280601e81526020017f536166654d6174683a207375627472616374696f6e206f766572666c6f7700008152506113e1565b9392505050565b60008282018381101561134b576040805162461bcd60e51b815260206004820152601b60248201527f536166654d6174683a206164646974696f6e206f766572666c6f770000000000604482015290519081900360640190fd5b3390565b60008082600101600a0a850290506000600a8583816113cb57fe5b04600501816113d657fe5b049695505050505050565b600081848411156114705760405162461bcd60e51b81526004018080602001828103825283818151815260200191508051906020019080838360005b8381101561143557818101518382015260200161141d565b50505050905090810190601f1680156114625780820380516001836020036101000a031916815260200191505b509250505060405180910390fd5b505050900390565b828054600181600116156101000203166002900490600052602060002090601f016020900481019282601f106114b957805160ff19168380011785556114e6565b828001600101855582156114e6579182015b828111156114e65782518255916020019190600101906114cb565b506114f29291506114f6565b5090565b610c1191905b808211156114f257600081556001016114fc56fe4f776e61626c653a206e6577206f776e657220697320746865207a65726f206164647265737356696f6c6174696e672052656c617469766974793a2054696d65206572726f7220746f6b656e2074696d657320646f6e74206d6174636856696f6c6174696e672052656c617469766974793a205370616365206572726f7220746f6b656e20616d6f756e747320646f6e74206d617463684f776e61626c653a2063616c6c6572206973206e6f7420746865206f776e6572596f75204861766520616c726561647920766f746564206f6e20746869732070726f706f73616c596f7520617265206e6f742061206d656d626572206f6620746869732044414f546869732070726f706f73616c2068617320616c7265616479206265656e206578656375746564a2646970667358221220790404bae752ac399ef1afc37f2e43de9bc15cf0994b5fe9d4f4602cc1c81db664736f6c634300060600334f776e61626c653a206e6577206f776e657220697320746865207a65726f20616464726573738be0079c531659141344cd1fd0a4f28419497f9722a3daafe3b4186f6b6457e0",
  "immutableReferences": {},
  "source": "pragma solidity ^0.6.2;\n\nimport \"./Synaps.sol\";\nimport \"../Interfaces/CortexI.sol\";\nimport \"../Interfaces/NeuronI.sol\";\nimport \"@openzeppelin/contracts/access/Ownable.sol\";\nimport \"@openzeppelin/contracts/math/SafeMath.sol\";\n\n////////////////////////////////////////////////////////////////////////////////////////////\n/// @title FrontalLobe\n/// @author Christopher Dixon\n////////////////////////////////////////////////////////////////////////////////////////////\n/**\nThe FrontalLobe contract is designed to be a simplistic voting system for a Cortex based DAO. The FrontalLobe\n      uses one synaps(or other ERC20) contract to determine a Cortex DAO members voting power.\n**/\n\ncontract FrontalLobe is Ownable, NeuronI {\n    using SafeMath for uint256;\n    /// @notice synaps is the address of the ERC20 token a zDAO is using for its reputation\n    Synaps public synaps;\n\n    CortexI public cortex;\n    /// @notice proposalID is used to track proposals\n    uint256 public proposalID;\n    /// @notice proposalTime is the time in seconds a proposal is considered active\n    uint256 public proposalTime;\n    /// @notice quorum is the minimum percentage of voteWeight needed for a vote to pass\n    uint256 public quorum;\n    /// @notice transferable is used to determine if a members position needs to be check when voting\n    bool public isTransferable;\n\n    /// @notice Proposal stores proposals\n    mapping(uint256 => Proposal) public proposals;\n\n    /**\n    @notice the modifier onlyMember requires that the function caller must be a member of the DAO to call a function\n    @dev this requires the caller to have atleast 1e18 of a token(standard 1 for ERC20's)\n    **/\n    modifier onlyMember() {\n        require(\n            synaps.balanceOf(msg.sender) >= 1e18,\n            \"You are not a member of this DAO\"\n        );\n        _;\n    }\n\n    /**\n    @notice Proposal struct stores proposal information\n    @param maker is the address of the account that made the proposal\n    @param target is the address that the call_data will be passed to as a function call\n    @param timeCreated is a blockstamp of when a proposal was created\n    @param voteWeights stores the current weight of all votes for a proposal\n    @param amount is used to store an ETH amount to be passed along with a function call\n    @param executed is a bool representing whether or not a proposal has been executed\n    @param proposalHash is an IPFS hash for a file representing a proposal\n    @param call_data is a bytes representing a function call on the target contract\n    @param votes is an array of Vote structs representing a users vote\n    @param voted is a mapping that represents whether or not an account has voted\n    **/\n    struct Proposal {\n        address maker;\n        address payable target;\n        uint256 timeCreated;\n        uint256 voteWeights;\n        uint256 voteID;\n        uint256 amount;\n        bool executed;\n        bool proposalPassed;\n        string proposalHash;\n        bytes call_data;\n        mapping(uint256 => Vote) votes;\n        mapping(address => bool) voted;\n    }\n\n    /**\n    @notice Vote is a struct used to store the information of a specific vote\n    @param inSupport is a bool representing whether a vote supports a proposal or not\n    @param voter is the address of the account that voted\n    @param voteWeight is the weight of the account who voted based off the # of rep tokens it holds\n    **/\n    struct Vote {\n        bool inSupport;\n        address voter;\n        uint256 voteWeight;\n    }\n\n    /**\n@notice the constructor function is fired only once during contract creation and is used to set up\n   the FrontalLobe contract to Its Cortex\n**/\n    constructor(address _DAO) public {\n        transferOwnership(_DAO);\n        cortex = CortexI(_DAO);\n        isMinter = true;\n        isBurner = true;\n        isDelegator = true;\n    }\n\n    /**\n    @notice connectNeuron is used to further set up a neuron\n    @param _synaps is the address of the synaps(or other ERC20) contract this neuron will use for voting rights/weight\n    @param _quorum is the minimum percentage threshold for a vote to pass\n    @param _proposalTime is the amount of time a proposal should remain active\n    @param _transferableRep is a bool representing whether or not the synaps used for rep is a transferable token\n    **/\n    function connectNeuron(\n        address _synaps,\n        uint256 _quorum,\n        uint256 _proposalTime,\n        bool _transferableRep\n    ) public onlyOwner {\n        synaps = Synaps(_synaps);\n        isTransferable = _transferableRep;\n        quorum = _quorum;\n        proposalTime = _proposalTime;\n    }\n\n    ///fallback function so this contract can receive ETH\n    receive() external payable {}\n\n    /**\n    @notice newProposaln allows a user to create a proposal\n    @param _target is the address this proposal is targeting\n    @param _proposalHash is an IPFS hash of a file representing a proposal\n    @param _calldata is a bytes representation of a function call\n    **/\n    function newProposal(\n        address payable _target,\n        uint256 _amount,\n        string memory _proposalHash,\n        bytes memory _calldata\n    ) public payable onlyMember returns (uint256) {\n        proposalID++;\n        Proposal storage p = proposals[proposalID];\n        p.maker = msg.sender;\n        p.target = _target;\n        p.amount = _amount;\n        p.voteWeights = 0;\n        p.voteID = 0;\n        p.amount = 0;\n        p.timeCreated = now;\n        p.proposalHash = _proposalHash;\n        p.call_data = _calldata;\n        return proposalID;\n    }\n\n    /**\n    @notice setQuorum allows the owner of the DAO(normally set as the the DAO itself) to change\n            the quorum used in voting\n    @notice _quorum is the input quarum number being set\n    **/\n    function setQuorum(uint256 _quorum) public onlyOwner {\n        quorum = _quorum;\n    }\n\n    /**\n    @notice percent is an internal function used to calculate the ratio between a given numerator && denominator\n    @param _numerator is the numerator of the equation\n    @param _denominator is the denominator of the equation\n    @param _precision is a precision point to ensure that decimals dont trail outside what the EVM can handle\n    **/\n    function _percent(\n        uint256 _numerator,\n        uint256 _denominator,\n        uint256 _precision\n    ) internal pure returns (uint256 quotient) {\n        // caution, check safe-to-multiply here\n        uint256 numerator = _numerator * 10**(_precision + 1);\n        // with rounding of last digit\n        uint256 _quotient = ((numerator / _denominator) + 5) / 10;\n        return (_quotient);\n    }\n\n    /**\n    @notice _checkThreshold is an internal function used by a vote counts to see if enough of the community has voted\n    @param _numOfvotes is the total  voteWeight a proposal has received\n    @param _numOfTokens is the total supply of the synaps\n    @notice this function returns a bool\n                -true if the threshold is met\n                -false if the threshold is not met\n    **/\n    function _checkThreshold(uint256 _numOfvotes, uint256 _numOfTokens)\n        internal\n        view\n        returns (bool)\n    {\n        uint256 percOfMemVoted = _percent(_numOfvotes, _numOfTokens, 2);\n        if (_numOfvotes == _numOfTokens) {\n            return true;\n        }\n        if (percOfMemVoted >= quorum) {\n            return true;\n        } else {\n            return false;\n        }\n    }\n\n    /**\n    @notice the vote function allows a DAO member to vote on proposals made to the DAO\n    @param _ProposalID is the number ID associated with the particular proposal the user wishes to vote on\n    @param  supportsProposal is a bool value(true or false) representing whether or not a member supports a proposal\n                    -true if they do support the proposal\n                    -false if they do not support the proposal\n    @dev this function will trigger the _checkThreshold function which determines if enough members have voted to\n              fire the executeProposal function.(this is temporarily removed due to what im assuming are the gas block limit)\n    **/\n    function vote(uint256 _ProposalID, bool supportsProposal)\n        public\n        onlyMember\n    {\n        Proposal storage p = proposals[_ProposalID];\n        require(\n            p.voted[msg.sender] != true,\n            \"You Have already voted on this proposal\"\n        );\n        uint256 vw = synaps.balanceOf(msg.sender);\n        if (isTransferable) {\n            (uint256 time, uint256 space) =\n                synaps.getRelativePosition(msg.sender);\n            require(\n                vw == space,\n                \"Violating Relativity: Space error token amounts dont match\"\n            );\n            require(\n                p.timeCreated >= time,\n                \"Violating Relativity: Time error token times dont match\"\n            );\n        }\n        p.voteID = p.voteID++;\n        p.votes[p.voteID] = Vote({\n            inSupport: supportsProposal,\n            voter: msg.sender,\n            voteWeight: vw\n        });\n        p.voteWeights = p.voteWeights.add(vw);\n        p.voted[msg.sender] = true;\n    }\n\n    /**\n    @notice executeProposal is the function that executes the terms of a proposal\n    @dev this function is called by the vote function when the number of votes reaches the quorum\n    @param _proposalID is the ID number of the proposal being executed.\n    **/\n    function executeProposal(uint256 _proposalID) public onlyMember {\n        Proposal storage p = proposals[_proposalID];\n        uint256 ts = synaps.totalSupply();\n        //checks if enough members have voted\n        bool met = _checkThreshold(p.voteWeights, ts);\n        require(met, \"voting threshold not met\");\n        if (now.sub(p.timeCreated) >= proposalTime) {\n            // mark the proposal as executed and failed\n            p.executed = true;\n            p.proposalPassed = false;\n        } else {\n            // sets p equal to the specific proposalNumber\n\n            require(!p.executed, \"This proposal has already been executed\");\n\n            uint256 yea = 0;\n            uint256 nay = 0;\n\n            //this for loop cycles through each members vote and adds its value to the yea or nay tally\n            for (uint256 i = 0; i <= p.voteID; ++i) {\n                Vote storage v = p.votes[i];\n\n                if (v.inSupport) {\n                    yea = yea.add(v.voteWeight);\n                } else {\n                    nay = nay.add(v.voteWeight);\n                }\n            }\n\n            //check if the yea votes outway the nay votes\n            if (yea > nay) {\n                cortex.delegateFunctionCall(p.target, p.amount, p.call_data);\n\n                ///mark the proposal as executed and passed\n                p.executed = true;\n                p.proposalPassed = true;\n            } else {\n                // mark the proposal as executed and failed\n                p.executed = true;\n                p.proposalPassed = false;\n            }\n        }\n    }\n}\n",
  "sourcePath": "/home/stan36/repos/zer0/ZDAO/contracts/CoreNuerons/FrontalLobe.sol",
  "compiler": {
    "name": "solc",
    "version": "0.6.6+commit.6c089d02.Emscripten.clang"
  },
  "schemaVersion": "3.3.2",
  "updatedAt": "2021-01-22T01:08:56.671Z",
  "devdoc": {
    "methods": {
      "connectNeuron(address,uint256,uint256,bool)": {
        "params": {
          "_proposalTime": "is the amount of time a proposal should remain active",
          "_quorum": "is the minimum percentage threshold for a vote to pass",
          "_synaps": "is the address of the synaps(or other ERC20) contract this neuron will use for voting rights/weight",
          "_transferableRep": "is a bool representing whether or not the synaps used for rep is a transferable token*"
        }
      },
      "executeProposal(uint256)": {
        "details": "this function is called by the vote function when the number of votes reaches the quorum",
        "params": {
          "_proposalID": "is the ID number of the proposal being executed.*"
        }
      },
      "newProposal(address,uint256,string,bytes)": {
        "params": {
          "_calldata": "is a bytes representation of a function call*",
          "_proposalHash": "is an IPFS hash of a file representing a proposal",
          "_target": "is the address this proposal is targeting"
        }
      },
      "owner()": {
        "details": "Returns the address of the current owner."
      },
      "renounceOwnership()": {
        "details": "Leaves the contract without owner. It will not be possible to call `onlyOwner` functions anymore. Can only be called by the current owner.     * NOTE: Renouncing ownership will leave the contract without an owner, thereby removing any functionality that is only available to the owner."
      },
      "transferOwnership(address)": {
        "details": "Transfers ownership of the contract to a new account (`newOwner`). Can only be called by the current owner."
      },
      "vote(uint256,bool)": {
        "details": "this function will trigger the _checkThreshold function which determines if enough members have voted to fire the executeProposal function.(this is temporarily removed due to what im assuming are the gas block limit)*",
        "params": {
          "_ProposalID": "is the number ID associated with the particular proposal the user wishes to vote on",
          "supportsProposal": "is a bool value(true or false) representing whether or not a member supports a proposal -true if they do support the proposal -false if they do not support the proposal"
        }
      }
    }
  },
  "userdoc": {
    "methods": {
      "connectNeuron(address,uint256,uint256,bool)": {
        "notice": "connectNeuron is used to further set up a neuron"
      },
      "constructor": "the constructor function is fired only once during contract creation and is used to set up the FrontalLobe contract to Its Cortex*",
      "executeProposal(uint256)": {
        "notice": "executeProposal is the function that executes the terms of a proposal"
      },
      "newProposal(address,uint256,string,bytes)": {
        "notice": "newProposaln allows a user to create a proposal"
      },
      "setQuorum(uint256)": {
        "notice": "setQuorum allows the owner of the DAO(normally set as the the DAO itself) to change the quorum used in voting_quorum is the input quarum number being set*"
      },
      "vote(uint256,bool)": {
        "notice": "the vote function allows a DAO member to vote on proposals made to the DAO"
      }
    },
    "notice": "The FrontalLobe contract is designed to be a simplistic voting system for a Cortex based DAO. The FrontalLobe uses one synaps(or other ERC20) contract to determine a Cortex DAO members voting power.*"
  }
}