{
  "contractName": "Hippocampus",
  "abi": [
    {
      "anonymous": false,
      "inputs": [
        {
          "indexed": true,
          "internalType": "address",
          "name": "previousOwner",
          "type": "address"
        },
        {
          "indexed": true,
          "internalType": "address",
          "name": "newOwner",
          "type": "address"
        }
      ],
      "name": "OwnershipTransferred",
      "type": "event"
    },
    {
      "inputs": [
        {
          "internalType": "uint256",
          "name": "",
          "type": "uint256"
        }
      ],
      "name": "coreNeurons",
      "outputs": [
        {
          "internalType": "address",
          "name": "",
          "type": "address"
        }
      ],
      "stateMutability": "view",
      "type": "function"
    },
    {
      "inputs": [
        {
          "internalType": "address",
          "name": "",
          "type": "address"
        }
      ],
      "name": "isNeuron",
      "outputs": [
        {
          "internalType": "bool",
          "name": "",
          "type": "bool"
        }
      ],
      "stateMutability": "view",
      "type": "function"
    },
    {
      "inputs": [
        {
          "internalType": "address",
          "name": "",
          "type": "address"
        },
        {
          "internalType": "uint256",
          "name": "",
          "type": "uint256"
        }
      ],
      "name": "neuralMapFromCortex",
      "outputs": [
        {
          "internalType": "address",
          "name": "",
          "type": "address"
        }
      ],
      "stateMutability": "view",
      "type": "function"
    },
    {
      "inputs": [
        {
          "internalType": "address",
          "name": "",
          "type": "address"
        }
      ],
      "name": "neuralMapToCortex",
      "outputs": [
        {
          "internalType": "address",
          "name": "",
          "type": "address"
        }
      ],
      "stateMutability": "view",
      "type": "function"
    },
    {
      "inputs": [
        {
          "internalType": "string",
          "name": "",
          "type": "string"
        }
      ],
      "name": "neuralNetwork",
      "outputs": [
        {
          "internalType": "address",
          "name": "",
          "type": "address"
        }
      ],
      "stateMutability": "view",
      "type": "function"
    },
    {
      "inputs": [],
      "name": "owner",
      "outputs": [
        {
          "internalType": "address",
          "name": "",
          "type": "address"
        }
      ],
      "stateMutability": "view",
      "type": "function"
    },
    {
      "inputs": [
        {
          "internalType": "uint256",
          "name": "",
          "type": "uint256"
        }
      ],
      "name": "peripheralNeurons",
      "outputs": [
        {
          "internalType": "address",
          "name": "",
          "type": "address"
        }
      ],
      "stateMutability": "view",
      "type": "function"
    },
    {
      "inputs": [],
      "name": "renounceOwnership",
      "outputs": [],
      "stateMutability": "nonpayable",
      "type": "function"
    },
    {
      "inputs": [
        {
          "internalType": "address",
          "name": "newOwner",
          "type": "address"
        }
      ],
      "name": "transferOwnership",
      "outputs": [],
      "stateMutability": "nonpayable",
      "type": "function"
    },
    {
      "inputs": [
        {
          "internalType": "string",
          "name": "_NeuronName",
          "type": "string"
        },
        {
          "internalType": "address",
          "name": "_neuronFactoryAddress",
          "type": "address"
        }
      ],
      "name": "addCoreNueron",
      "outputs": [],
      "stateMutability": "nonpayable",
      "type": "function"
    },
    {
      "inputs": [
        {
          "internalType": "string",
          "name": "_NeuronName",
          "type": "string"
        },
        {
          "internalType": "address",
          "name": "_neuronFactoryAddress",
          "type": "address"
        }
      ],
      "name": "addPeripheralNueron",
      "outputs": [],
      "stateMutability": "nonpayable",
      "type": "function"
    },
    {
      "inputs": [
        {
          "internalType": "address",
          "name": "_Cortex",
          "type": "address"
        },
        {
          "internalType": "string",
          "name": "_neuronName",
          "type": "string"
        }
      ],
      "name": "_neuroGensis",
      "outputs": [
        {
          "internalType": "address",
          "name": "",
          "type": "address"
        }
      ],
      "stateMutability": "nonpayable",
      "type": "function"
    },
    {
      "inputs": [
        {
          "internalType": "string",
          "name": "_tokenName",
          "type": "string"
        },
        {
          "internalType": "string",
          "name": "_tokenSym",
          "type": "string"
        },
        {
          "internalType": "bool",
          "name": "_isTransferable",
          "type": "bool"
        },
        {
          "internalType": "bool",
          "name": "_isRep",
          "type": "bool"
        },
        {
          "internalType": "address",
          "name": "_Creator",
          "type": "address"
        },
        {
          "internalType": "uint256",
          "name": "_maxSupply",
          "type": "uint256"
        }
      ],
      "name": "createSynaps",
      "outputs": [
        {
          "internalType": "address",
          "name": "",
          "type": "address"
        }
      ],
      "stateMutability": "nonpayable",
      "type": "function"
    }
  ],
  "bytecode": "0x608060405260006100176001600160e01b0361006616565b600080546001600160a01b0319166001600160a01b0383169081178255604051929350917f8be0079c531659141344cd1fd0a4f28419497f9722a3daafe3b4186f6b6457e0908290a35061006a565b3390565b612702806100796000396000f3fe60806040523480156200001157600080fd5b5060043610620000d05760003560e01c80635d70bbe111620000875780635d70bbe1146200042a5780636161e0ad14620004d457806361a6b1f91462000589578063715018a614620005a95780638da5cb5b14620005b3578063bdafc78814620005bd578063f2fde38b14620005fa57620000d0565b8063087c485514620000d557806323128988146200011a5780633b9a0bdd14620001d15780633e60f1c914620001f15780634e09a6ed146200034157806352ba717814620003fb575b600080fd5b620000fe60048036036020811015620000ed57600080fd5b50356001600160a01b031662000623565b604080516001600160a01b039092168252519081900360200190f35b620001cf600480360360408110156200013257600080fd5b810190602081018135600160201b8111156200014d57600080fd5b8201836020820111156200016057600080fd5b803590602001918460018302840111600160201b831117156200018257600080fd5b91908080601f016020809104026020016040519081016040528093929190818152602001838380828437600092019190915250929550505090356001600160a01b031691506200063e9050565b005b620000fe60048036036020811015620001e957600080fd5b503562000830565b620000fe600480360360c08110156200020957600080fd5b810190602081018135600160201b8111156200022457600080fd5b8201836020820111156200023757600080fd5b803590602001918460018302840111600160201b831117156200025957600080fd5b91908080601f0160208091040260200160405190810160405280939291908181526020018383808284376000920191909152509295949360208101935035915050600160201b811115620002ac57600080fd5b820183602082011115620002bf57600080fd5b803590602001918460018302840111600160201b83111715620002e157600080fd5b91908080601f01602080910402602001604051908101604052809392919081815260200183838082843760009201919091525092955050505080351515915060208101351515906001600160a01b03604082013516906060013562000858565b620000fe600480360360408110156200035957600080fd5b6001600160a01b038235169190810190604081016020820135600160201b8111156200038457600080fd5b8201836020820111156200039757600080fd5b803590602001918460018302840111600160201b83111715620003b957600080fd5b91908080601f01602080910402602001604051908101604052809392919081815260200183838082843760009201919091525092955062000998945050505050565b620000fe600480360360408110156200041357600080fd5b506001600160a01b03813516906020013562000acf565b620000fe600480360360208110156200044257600080fd5b810190602081018135600160201b8111156200045d57600080fd5b8201836020820111156200047057600080fd5b803590602001918460018302840111600160201b831117156200049257600080fd5b91908080601f01602080910402602001604051908101604052809392919081815260200183838082843760009201919091525092955062000b05945050505050565b620001cf60048036036040811015620004ec57600080fd5b810190602081018135600160201b8111156200050757600080fd5b8201836020820111156200051a57600080fd5b803590602001918460018302840111600160201b831117156200053c57600080fd5b91908080601f016020809104026020016040519081016040528093929190818152602001838380828437600092019190915250929550505090356001600160a01b0316915062000b2b9050565b620000fe60048036036020811015620005a157600080fd5b503562000cc1565b620001cf62000ccf565b620000fe62000d75565b620005e660048036036020811015620005d557600080fd5b50356001600160a01b031662000d84565b604080519115158252519081900360200190f35b620001cf600480360360208110156200061257600080fd5b50356001600160a01b031662000d99565b6003602052600090815260409020546001600160a01b031681565b6200064862000e97565b6000546001600160a01b039081169116146200069a576040805162461bcd60e51b81526020600482018190526024820152600080516020620026ad833981519152604482015290519081900360640190fd5b6001826040518082805190602001908083835b60208310620006ce5780518252601f199092019160209182019101620006ad565b51815160209384036101000a60001901801990921691161790529201948552506040519384900301909220546001600160a01b0316159150620007559050576040805162461bcd60e51b815260206004820152601860248201527722b93937b91d103732bab937b7103730b6b2903a30b5b2b760411b604482015290519081900360640190fd5b806001836040518082805190602001908083835b602083106200078a5780518252601f19909201916020918201910162000769565b51815160209384036101000a60001901801990921691161790529201948552506040805194859003820190942080546001600160a01b03199081166001600160a01b03978816179091559590941660008181526002909552928420805460ff1916600190811790915560058054918201815590945250507f036b6384b5eca791c62761152d0c79bb0604c104a5fb6f4eb0703f3154bb3db0909101805490921617905550565b600681815481106200083e57fe5b6000918252602090912001546001600160a01b0316905081565b6000808787878787876040516200086f9062000e9b565b841515604082015283151560608201526001600160a01b038316608082015260a0810182905260c08082528751908201528651819060208083019160e08401918b019080838360005b83811015620008d2578181015183820152602001620008b8565b50505050905090810190601f168015620009005780820380516001836020036101000a031916815260200191505b5083810382528851815288516020918201918a019080838360005b83811015620009355781810151838201526020016200091b565b50505050905090810190601f168015620009635780820380516001836020036101000a031916815260200191505b5098505050505050505050604051809103906000f0801580156200098b573d6000803e3d6000fd5b5098975050505050505050565b6000806001836040518082805190602001908083835b60208310620009cf5780518252601f199092019160209182019101620009ae565b51815160209384036101000a600019018019909216911617905292019485525060408051948590038201852054637722250960e01b86526001600160a01b038a8116600488015291519116955060009486945063772225099350602480820193929182900301818787803b15801562000a4757600080fd5b505af115801562000a5c573d6000803e3d6000fd5b505050506040513d602081101562000a7357600080fd5b50516001600160a01b0380821660008181526003602090815260408083208054958c166001600160a01b031996871681179091558352600482528220805460018101825590835291200180549092161790559250505092915050565b6004602052816000526040600020818154811062000ae957fe5b6000918252602090912001546001600160a01b03169150829050565b80516020818301810180516001825292820191909301209152546001600160a01b031681565b6001826040518082805190602001908083835b6020831062000b5f5780518252601f19909201916020918201910162000b3e565b51815160209384036101000a60001901801990921691161790529201948552506040519384900301909220546001600160a01b031615915062000be69050576040805162461bcd60e51b815260206004820152601860248201527722b93937b91d103732bab937b7103730b6b2903a30b5b2b760411b604482015290519081900360640190fd5b806001836040518082805190602001908083835b6020831062000c1b5780518252601f19909201916020918201910162000bfa565b51815160209384036101000a60001901801990921691161790529201948552506040805194859003820190942080546001600160a01b03199081166001600160a01b03978816179091559590941660008181526002909552928420805460ff1916600190811790915560068054918201815590945250507ff652222313e28459528d920b65115c16c04f3efc82aaedc97be59f3f377c0d3f909101805490921617905550565b600581815481106200083e57fe5b62000cd962000e97565b6000546001600160a01b0390811691161462000d2b576040805162461bcd60e51b81526020600482018190526024820152600080516020620026ad833981519152604482015290519081900360640190fd5b600080546040516001600160a01b03909116907f8be0079c531659141344cd1fd0a4f28419497f9722a3daafe3b4186f6b6457e0908390a3600080546001600160a01b0319169055565b6000546001600160a01b031690565b60026020526000908152604090205460ff1681565b62000da362000e97565b6000546001600160a01b0390811691161462000df5576040805162461bcd60e51b81526020600482018190526024820152600080516020620026ad833981519152604482015290519081900360640190fd5b6001600160a01b03811662000e3c5760405162461bcd60e51b8152600401808060200182810382526026815260200180620026876026913960400191505060405180910390fd5b600080546040516001600160a01b03808516939216917f8be0079c531659141344cd1fd0a4f28419497f9722a3daafe3b4186f6b6457e091a3600080546001600160a01b0319166001600160a01b0392909216919091179055565b3390565b6117dd8062000eaa8339019056fe60806040523480156200001157600080fd5b50604051620017dd380380620017dd833981810160405260c08110156200003757600080fd5b81019080805160405193929190846401000000008211156200005857600080fd5b9083019060208201858111156200006e57600080fd5b82516401000000008111828201881017156200008957600080fd5b82525081516020918201929091019080838360005b83811015620000b85781810151838201526020016200009e565b50505050905090810190601f168015620000e65780820380516001836020036101000a031916815260200191505b50604052602001805160405193929190846401000000008211156200010a57600080fd5b9083019060208201858111156200012057600080fd5b82516401000000008111828201881017156200013b57600080fd5b82525081516020918201929091019080838360005b838110156200016a57818101518382015260200162000150565b50505050905090810190601f168015620001985780820380516001836020036101000a031916815260200191505b5060409081526020820151908201516060830151608090930151919450925085856000620001ce6001600160e01b03620002c216565b600080546001600160a01b0319166001600160a01b0383169081178255604051929350917f8be0079c531659141344cd1fd0a4f28419497f9722a3daafe3b4186f6b6457e0908290a35081516200022d906004906020850190620004b4565b50805162000243906005906020840190620004b4565b505060068054601260ff1991821617909155600880549091168615151761ff001916610100861515908102919091179091556007839055600114159050620002b657620002a282670de0b6b3a76400006001600160e01b03620002c716565b620002b6826001600160e01b03620003e316565b50505050505062000556565b335b90565b6001600160a01b03821662000323576040805162461bcd60e51b815260206004820152601f60248201527f45524332303a206d696e7420746f20746865207a65726f206164647265737300604482015290519081900360640190fd5b6200033a600083836001600160e01b036200043216565b62000356816003546200043760201b62000dc91790919060201c565b6003556001600160a01b0382166000908152600160209081526040909120546200038b91839062000dc962000437821b17901c565b6001600160a01b03831660008181526001602090815260408083209490945583518581529351929391927fddf252ad1be2c89b69c2b068fc378daa952ba7f163c4a11628f55a4df523b3ef9281900390910190a35050565b6001600160a01b038116600090815260096020526040812042905562000412826001600160e01b036200049916565b6001600160a01b039092166000908152600a602052604090209190915550565b505050565b60008282018381101562000492576040805162461bcd60e51b815260206004820152601b60248201527f536166654d6174683a206164646974696f6e206f766572666c6f770000000000604482015290519081900360640190fd5b9392505050565b6001600160a01b031660009081526001602052604090205490565b828054600181600116156101000203166002900490600052602060002090601f016020900481019282601f10620004f757805160ff191683800117855562000527565b8280016001018555821562000527579182015b82811115620005275782518255916020019190600101906200050a565b506200053592915062000539565b5090565b620002c491905b8082111562000535576000815560010162000540565b61127780620005666000396000f3fe608060405234801561001057600080fd5b50600436106101425760003560e01c806384612324116100b857806396615aa31161007c57806396615aa3146103c1578063a457c2d7146103ed578063a9059cbb14610419578063d5abeb0114610445578063dd62ed3e1461044d578063f2fde38b1461047b57610142565b806384612324146103285780638da5cb5b1461034e5780638f50c3a21461037257806392ff0d31146103b157806395d89b41146103b957610142565b8063395093511161010a57806339509351146102725780636fcc7d571461029e57806370a08231146102c4578063715018a6146102ea578063782f085d146102f45780637d21ce4d146102fc57610142565b806306fdde0314610147578063095ea7b3146101c457806318160ddd1461020457806323b872dd1461021e578063313ce56714610254575b600080fd5b61014f6104a1565b6040805160208082528351818301528351919283929083019185019080838360005b83811015610189578181015183820152602001610171565b50505050905090810190601f1680156101b65780820380516001836020036101000a031916815260200191505b509250505060405180910390f35b6101f0600480360360408110156101da57600080fd5b506001600160a01b038135169060200135610537565b604080519115158252519081900360200190f35b61020c610555565b60408051918252519081900360200190f35b6101f06004803603606081101561023457600080fd5b506001600160a01b0381358116916020810135909116906040013561055b565b61025c6105e8565b6040805160ff9092168252519081900360200190f35b6101f06004803603604081101561028857600080fd5b506001600160a01b0381351690602001356105f1565b61020c600480360360208110156102b457600080fd5b50356001600160a01b0316610645565b61020c600480360360208110156102da57600080fd5b50356001600160a01b0316610657565b6102f2610672565b005b6101f0610714565b6102f26004803603604081101561031257600080fd5b506001600160a01b038135169060200135610722565b61020c6004803603602081101561033e57600080fd5b50356001600160a01b0316610807565b610356610819565b604080516001600160a01b039092168252519081900360200190f35b6103986004803603602081101561038857600080fd5b50356001600160a01b0316610828565b6040805192835260208301919091528051918290030190f35b6101f0610850565b61014f610859565b6102f2600480360360408110156103d757600080fd5b506001600160a01b0381351690602001356108ba565b6101f06004803603604081101561040357600080fd5b506001600160a01b038135169060200135610925565b6101f06004803603604081101561042f57600080fd5b506001600160a01b038135169060200135610993565b61020c6109c2565b61020c6004803603604081101561046357600080fd5b506001600160a01b03813581169160200135166109c8565b6102f26004803603602081101561049157600080fd5b50356001600160a01b03166109f3565b60048054604080516020601f600260001961010060018816150201909516949094049384018190048102820181019092528281526060939092909183018282801561052d5780601f106105025761010080835404028352916020019161052d565b820191906000526020600020905b81548152906001019060200180831161051057829003601f168201915b5050505050905090565b600061054b610544610aeb565b8484610aef565b5060015b92915050565b60035490565b6000610568848484610bdb565b6105de84610574610aeb565b6105d98560405180606001604052806028815260200161114b602891396001600160a01b038a166000908152600260205260408120906105b2610aeb565b6001600160a01b03168152602081019190915260400160002054919063ffffffff610d3216565b610aef565b5060019392505050565b60065460ff1690565b600061054b6105fe610aeb565b846105d9856002600061060f610aeb565b6001600160a01b03908116825260208083019390935260409182016000908120918c16815292529020549063ffffffff610dc916565b600a6020526000908152604090205481565b6001600160a01b031660009081526001602052604090205490565b61067a610aeb565b6000546001600160a01b039081169116146106ca576040805162461bcd60e51b81526020600482018190526024820152600080516020611173833981519152604482015290519081900360640190fd5b600080546040516001600160a01b03909116907f8be0079c531659141344cd1fd0a4f28419497f9722a3daafe3b4186f6b6457e0908390a3600080546001600160a01b0319169055565b600854610100900460ff1681565b61072a610aeb565b6000546001600160a01b0390811691161461077a576040805162461bcd60e51b81526020600482018190526024820152600080516020611173833981519152604482015290519081900360640190fd5b600754156107f05760075461079d82610791610555565b9063ffffffff610dc916565b11156107f0576040805162461bcd60e51b815260206004820152601e60248201527f4d617820746f74616c20737570706c79206c696d697420726561636865640000604482015290519081900360640190fd5b6107f982610e2a565b6108038282610e6e565b5050565b60096020526000908152604090205481565b6000546001600160a01b031690565b6001600160a01b0316600090815260096020908152604080832054600a909252909120549091565b60085460ff1681565b60058054604080516020601f600260001961010060018816150201909516949094049384018190048102820181019092528281526060939092909183018282801561052d5780601f106105025761010080835404028352916020019161052d565b6108c2610aeb565b6000546001600160a01b03908116911614610912576040805162461bcd60e51b81526020600482018190526024820152600080516020611173833981519152604482015290519081900360640190fd5b61091b82610e2a565b6108038282610f5a565b600061054b610932610aeb565b846105d98560405180606001604052806025815260200161121d602591396002600061095c610aeb565b6001600160a01b03908116825260208083019390935260409182016000908120918d1681529252902054919063ffffffff610d3216565b60085460009060ff166109a85750600061054f565b6109b183610e2a565b6109bb8383610993565b5092915050565b60075481565b6001600160a01b03918216600090815260026020908152604080832093909416825291909152205490565b6109fb610aeb565b6000546001600160a01b03908116911614610a4b576040805162461bcd60e51b81526020600482018190526024820152600080516020611173833981519152604482015290519081900360640190fd5b6001600160a01b038116610a905760405162461bcd60e51b81526004018080602001828103825260268152602001806110dd6026913960400191505060405180910390fd5b600080546040516001600160a01b03808516939216917f8be0079c531659141344cd1fd0a4f28419497f9722a3daafe3b4186f6b6457e091a3600080546001600160a01b0319166001600160a01b0392909216919091179055565b3390565b6001600160a01b038316610b345760405162461bcd60e51b81526004018080602001828103825260248152602001806111f96024913960400191505060405180910390fd5b6001600160a01b038216610b795760405162461bcd60e51b81526004018080602001828103825260228152602001806111036022913960400191505060405180910390fd5b6001600160a01b03808416600081815260026020908152604080832094871680845294825291829020859055815185815291517f8c5be1e5ebec7d5bd14f71427d1e84f3dd0314c0f7b2291e5b200ac8c7c3b9259281900390910190a3505050565b6001600160a01b038316610c205760405162461bcd60e51b81526004018080602001828103825260258152602001806111d46025913960400191505060405180910390fd5b6001600160a01b038216610c655760405162461bcd60e51b81526004018080602001828103825260238152602001806110986023913960400191505060405180910390fd5b610c70838383611050565b610cb381604051806060016040528060268152602001611125602691396001600160a01b038616600090815260016020526040902054919063ffffffff610d3216565b6001600160a01b038085166000908152600160205260408082209390935590841681522054610ce8908263ffffffff610dc916565b6001600160a01b03808416600081815260016020908152604091829020949094558051858152905191939287169260008051602061119383398151915292918290030190a3505050565b60008184841115610dc15760405162461bcd60e51b81526004018080602001828103825283818151815260200191508051906020019080838360005b83811015610d86578181015183820152602001610d6e565b50505050905090810190601f168015610db35780820380516001836020036101000a031916815260200191505b509250505060405180910390fd5b505050900390565b600082820183811015610e23576040805162461bcd60e51b815260206004820152601b60248201527f536166654d6174683a206164646974696f6e206f766572666c6f770000000000604482015290519081900360640190fd5b9392505050565b6001600160a01b0381166000908152600960205260408120429055610e4e82610657565b6001600160a01b039092166000908152600a602052604090209190915550565b6001600160a01b038216610ec9576040805162461bcd60e51b815260206004820152601f60248201527f45524332303a206d696e7420746f20746865207a65726f206164647265737300604482015290519081900360640190fd5b610ed560008383611050565b600354610ee8908263ffffffff610dc916565b6003556001600160a01b038216600090815260016020526040902054610f14908263ffffffff610dc916565b6001600160a01b03831660008181526001602090815260408083209490945583518581529351929391926000805160206111938339815191529281900390910190a35050565b6001600160a01b038216610f9f5760405162461bcd60e51b81526004018080602001828103825260218152602001806111b36021913960400191505060405180910390fd5b610fab82600083611050565b610fee816040518060600160405280602281526020016110bb602291396001600160a01b038516600090815260016020526040902054919063ffffffff610d3216565b6001600160a01b03831660009081526001602052604090205560035461101a908263ffffffff61105516565b6003556040805182815290516000916001600160a01b038516916000805160206111938339815191529181900360200190a35050565b505050565b6000610e2383836040518060400160405280601e81526020017f536166654d6174683a207375627472616374696f6e206f766572666c6f770000815250610d3256fe45524332303a207472616e7366657220746f20746865207a65726f206164647265737345524332303a206275726e20616d6f756e7420657863656564732062616c616e63654f776e61626c653a206e6577206f776e657220697320746865207a65726f206164647265737345524332303a20617070726f766520746f20746865207a65726f206164647265737345524332303a207472616e7366657220616d6f756e7420657863656564732062616c616e636545524332303a207472616e7366657220616d6f756e74206578636565647320616c6c6f77616e63654f776e61626c653a2063616c6c6572206973206e6f7420746865206f776e6572ddf252ad1be2c89b69c2b068fc378daa952ba7f163c4a11628f55a4df523b3ef45524332303a206275726e2066726f6d20746865207a65726f206164647265737345524332303a207472616e736665722066726f6d20746865207a65726f206164647265737345524332303a20617070726f76652066726f6d20746865207a65726f206164647265737345524332303a2064656372656173656420616c6c6f77616e63652062656c6f77207a65726fa26469706673582212202e863fc31b0f8a3369a7ed1a71660fc5f0a9908d30daa44f33ea22e116e59b8864736f6c634300060600334f776e61626c653a206e6577206f776e657220697320746865207a65726f20616464726573734f776e61626c653a2063616c6c6572206973206e6f7420746865206f776e6572a26469706673582212204b9a18f4706643de2d0c760142ee9d77eefba5e4d685bfb43972cf83ca0925e764736f6c63430006060033",
  "immutableReferences": {},
  "source": "pragma solidity ^0.6.2;\n\nimport \"../Interfaces/NeuronFactoryI.sol\";\nimport \"../Cortex/Synaps.sol\";\nimport \"@openzeppelin/contracts/access/Ownable.sol\";\nimport \"@openzeppelin/contracts/math/SafeMath.sol\";\n\n////////////////////////////////////////////////////////////////////////////////////////////\n/// @title Hippocampus\n/// @author Christopher Dixon\n////////////////////////////////////////////////////////////////////////////////////////////\n/**\nThe Hippocampus is designed to track and verify Nueron factory contracts\n**/\n\ncontract Hippocampus is Ownable {\n    using SafeMath for uint256;\n\n\n    ///@notice neuralNetwork is used to track a neuron name to its factories address\n    mapping(string => address) public neuralNetwork;\n    ///@notice isNeuron is a tracking of whether or not an address is a neuron factory\n    mapping(address => bool) public isNeuron;\n    ///@notice neuralMapToCortex maps a neuron address to its cortex address\n    mapping(address => address) public neuralMapToCortex;\n    ///@notice neuralMapFromCortex tracks a cotex address to an array of all neurons it has installed\n    mapping(address => address[]) public neuralMapFromCortex;\n    /// @notice coreNeurons is an array of all core neuron factory addresses\n    address[] public coreNeurons;\n    /// @notice peripheralNeurons is an array of a peripheral neuron factory addresses\n    address[] public peripheralNeurons;\n\n    /**\n    @notice addCoreNueron allows the owner of this contract to add a core neuron to the matrix\n    @param _NeuronName is the name of the neuron being added\n    @param _neuronFactoryAddress is the factory address for the neuron being added\n    **/\n    function addCoreNueron(\n        string memory _NeuronName,\n        address _neuronFactoryAddress\n    ) public onlyOwner {\n        require(\n            neuralNetwork[_NeuronName] ==\n                0x0000000000000000000000000000000000000000,\n            \"Error: neuron name taken\"\n        );\n        neuralNetwork[_NeuronName] = _neuronFactoryAddress;\n        isNeuron[_neuronFactoryAddress] = true;\n        coreNeurons.push(_neuronFactoryAddress);\n    }\n\n    /**\n    @notice addPeripheralNueron allows the owner of this contract to add a peripheral neuron to the matrix\n    @param _NeuronName is the name of the neuron being added\n    @param _neuronFactoryAddress is the factory address for the neuron being added\n    **/\n    function addPeripheralNueron(\n        string memory _NeuronName,\n        address _neuronFactoryAddress\n    ) public {\n        require(\n            neuralNetwork[_NeuronName] ==\n                0x0000000000000000000000000000000000000000,\n            \"Error: neuron name taken\"\n        );\n        neuralNetwork[_NeuronName] = _neuronFactoryAddress;\n        isNeuron[_neuronFactoryAddress] = true;\n        peripheralNeurons.push(_neuronFactoryAddress);\n    }\n\n    /**\n    @notice _neuroGensis is used by a cortex to generate a new neural instance of a neuron\n    @param _Cortex is the address of the cortex who is generating a neuron\n    @param _neuronName is the name of the neuron being generated\n    **/\n    function _neuroGensis(address _Cortex, string memory _neuronName)\n        public\n        returns (address)\n    {\n        NeuronFactoryI neuralF = NeuronFactoryI(neuralNetwork[_neuronName]);\n        address neuron = neuralF.genesis(_Cortex);\n        neuralMapToCortex[neuron] = _Cortex;\n        neuralMapFromCortex[_Cortex].push(neuron);\n        return neuron;\n    }\n\n    /**\n    @notice the createSynaps function allows a user to create their own synaps token\n    @param _tokenName is the name of the token\n    @param _tokenSym is the symbol of the token\n    @param _Creator is the address of the person who created the synaps token.\n    @param _maxSupply is the maximum supply this synaps will be capped at(uncapped == 0)\n    **/\n        function createSynaps(\n          string memory _tokenName,\n          string memory _tokenSym,\n          bool _isTransferable,\n          bool _isRep,\n          address _Creator,\n          uint256 _maxSupply\n        ) public\n        returns(address){\n        address syn = address(new Synaps(\n              _tokenName,\n              _tokenSym,\n              _isTransferable,\n              _isRep,\n              _Creator,\n              _maxSupply\n          ));\n          return syn;\n        }\n}\n",
  "sourcePath": "/home/stan36/repos/zer0/ZDAO/contracts/Matrix/Hippocampus.sol",
  "compiler": {
    "name": "solc",
    "version": "0.6.6+commit.6c089d02.Emscripten.clang"
  },
  "schemaVersion": "3.3.2",
  "updatedAt": "2021-02-04T18:28:39.717Z",
  "devdoc": {
    "methods": {
      "_neuroGensis(address,string)": {
        "params": {
          "_Cortex": "is the address of the cortex who is generating a neuron",
          "_neuronName": "is the name of the neuron being generated*"
        }
      },
      "addCoreNueron(string,address)": {
        "params": {
          "_NeuronName": "is the name of the neuron being added",
          "_neuronFactoryAddress": "is the factory address for the neuron being added*"
        }
      },
      "addPeripheralNueron(string,address)": {
        "params": {
          "_NeuronName": "is the name of the neuron being added",
          "_neuronFactoryAddress": "is the factory address for the neuron being added*"
        }
      },
      "createSynaps(string,string,bool,bool,address,uint256)": {
        "params": {
          "_Creator": "is the address of the person who created the synaps token.",
          "_maxSupply": "is the maximum supply this synaps will be capped at(uncapped == 0)*",
          "_tokenName": "is the name of the token",
          "_tokenSym": "is the symbol of the token"
        }
      },
      "owner()": {
        "details": "Returns the address of the current owner."
      },
      "renounceOwnership()": {
        "details": "Leaves the contract without owner. It will not be possible to call `onlyOwner` functions anymore. Can only be called by the current owner.     * NOTE: Renouncing ownership will leave the contract without an owner, thereby removing any functionality that is only available to the owner."
      },
      "transferOwnership(address)": {
        "details": "Transfers ownership of the contract to a new account (`newOwner`). Can only be called by the current owner."
      }
    }
  },
  "userdoc": {
    "methods": {
      "_neuroGensis(address,string)": {
        "notice": "_neuroGensis is used by a cortex to generate a new neural instance of a neuron"
      },
      "addCoreNueron(string,address)": {
        "notice": "addCoreNueron allows the owner of this contract to add a core neuron to the matrix"
      },
      "addPeripheralNueron(string,address)": {
        "notice": "addPeripheralNueron allows the owner of this contract to add a peripheral neuron to the matrix"
      },
      "createSynaps(string,string,bool,bool,address,uint256)": {
        "notice": "the createSynaps function allows a user to create their own synaps token"
      }
    },
    "notice": "The Hippocampus is designed to track and verify Nueron factory contracts*"
  }
}