{
  "contractName": "Hippocampus",
  "abi": [
    {
      "anonymous": false,
      "inputs": [
        {
          "indexed": true,
          "internalType": "address",
          "name": "previousOwner",
          "type": "address"
        },
        {
          "indexed": true,
          "internalType": "address",
          "name": "newOwner",
          "type": "address"
        }
      ],
      "name": "OwnershipTransferred",
      "type": "event"
    },
    {
      "inputs": [
        {
          "internalType": "uint256",
          "name": "",
          "type": "uint256"
        }
      ],
      "name": "coreNeurons",
      "outputs": [
        {
          "internalType": "address",
          "name": "",
          "type": "address"
        }
      ],
      "stateMutability": "view",
      "type": "function"
    },
    {
      "inputs": [
        {
          "internalType": "address",
          "name": "",
          "type": "address"
        }
      ],
      "name": "isNeuron",
      "outputs": [
        {
          "internalType": "bool",
          "name": "",
          "type": "bool"
        }
      ],
      "stateMutability": "view",
      "type": "function"
    },
    {
      "inputs": [
        {
          "internalType": "uint256",
          "name": "",
          "type": "uint256"
        }
      ],
      "name": "neuralID",
      "outputs": [
        {
          "internalType": "address",
          "name": "",
          "type": "address"
        }
      ],
      "stateMutability": "view",
      "type": "function"
    },
    {
      "inputs": [
        {
          "internalType": "address",
          "name": "",
          "type": "address"
        }
      ],
      "name": "neuralMapFromCortex",
      "outputs": [
        {
          "internalType": "address",
          "name": "",
          "type": "address"
        }
      ],
      "stateMutability": "view",
      "type": "function"
    },
    {
      "inputs": [
        {
          "internalType": "address",
          "name": "",
          "type": "address"
        }
      ],
      "name": "neuralMapToCortex",
      "outputs": [
        {
          "internalType": "address",
          "name": "",
          "type": "address"
        }
      ],
      "stateMutability": "view",
      "type": "function"
    },
    {
      "inputs": [
        {
          "internalType": "string",
          "name": "",
          "type": "string"
        }
      ],
      "name": "neuralNetwork",
      "outputs": [
        {
          "internalType": "address",
          "name": "",
          "type": "address"
        }
      ],
      "stateMutability": "view",
      "type": "function"
    },
    {
      "inputs": [],
      "name": "neuronCount",
      "outputs": [
        {
          "internalType": "uint256",
          "name": "",
          "type": "uint256"
        }
      ],
      "stateMutability": "view",
      "type": "function"
    },
    {
      "inputs": [],
      "name": "owner",
      "outputs": [
        {
          "internalType": "address",
          "name": "",
          "type": "address"
        }
      ],
      "stateMutability": "view",
      "type": "function"
    },
    {
      "inputs": [
        {
          "internalType": "uint256",
          "name": "",
          "type": "uint256"
        }
      ],
      "name": "peripheralNeurons",
      "outputs": [
        {
          "internalType": "address",
          "name": "",
          "type": "address"
        }
      ],
      "stateMutability": "view",
      "type": "function"
    },
    {
      "inputs": [],
      "name": "renounceOwnership",
      "outputs": [],
      "stateMutability": "nonpayable",
      "type": "function"
    },
    {
      "inputs": [
        {
          "internalType": "address",
          "name": "newOwner",
          "type": "address"
        }
      ],
      "name": "transferOwnership",
      "outputs": [],
      "stateMutability": "nonpayable",
      "type": "function"
    },
    {
      "inputs": [
        {
          "internalType": "string",
          "name": "_NeuronName",
          "type": "string"
        },
        {
          "internalType": "address",
          "name": "_neuronInstanceAddress",
          "type": "address"
        }
      ],
      "name": "addCoreNueron",
      "outputs": [],
      "stateMutability": "nonpayable",
      "type": "function"
    },
    {
      "inputs": [
        {
          "internalType": "string",
          "name": "_NeuronName",
          "type": "string"
        },
        {
          "internalType": "address",
          "name": "_neuronInstanceAddress",
          "type": "address"
        }
      ],
      "name": "addPeripheralNueron",
      "outputs": [],
      "stateMutability": "nonpayable",
      "type": "function"
    },
    {
      "inputs": [
        {
          "internalType": "address",
          "name": "_DAO",
          "type": "address"
        },
        {
          "internalType": "string",
          "name": "_neuronName",
          "type": "string"
        }
      ],
      "name": "_neuroGensis",
      "outputs": [
        {
          "internalType": "address",
          "name": "",
          "type": "address"
        }
      ],
      "stateMutability": "nonpayable",
      "type": "function"
    }
  ],
  "bytecode": "0x608060405260006100176001600160e01b0361006616565b600080546001600160a01b0319166001600160a01b0383169081178255604051929350917f8be0079c531659141344cd1fd0a4f28419497f9722a3daafe3b4186f6b6457e0908290a35061006a565b3390565b610c4c806100796000396000f3fe608060405234801561001057600080fd5b50600436106100ca5760003560e01c8063715018a61161007c578063715018a6146104035780637f95064f1461040b5780638da5cb5b14610431578063b3a95d7214610439578063bdafc78814610456578063f2fde38b14610490578063fd746b64146104b6576100ca565b8063087c4855146100cf57806323128988146101115780633b9a0bdd146101c25780634e09a6ed146101df5780635d70bbe1146102935780636161e0ad1461033757806361a6b1f9146103e6575b600080fd5b6100f5600480360360208110156100e557600080fd5b50356001600160a01b03166104d0565b604080516001600160a01b039092168252519081900360200190f35b6101c06004803603604081101561012757600080fd5b810190602081018135600160201b81111561014157600080fd5b82018360208201111561015357600080fd5b803590602001918460018302840111600160201b8311171561017457600080fd5b91908080601f016020809104026020016040519081016040528093929190818152602001838380828437600092019190915250929550505090356001600160a01b031691506104eb9050565b005b6100f5600480360360208110156101d857600080fd5b50356106ef565b6100f5600480360360408110156101f557600080fd5b6001600160a01b038235169190810190604081016020820135600160201b81111561021f57600080fd5b82018360208201111561023157600080fd5b803590602001918460018302840111600160201b8311171561025257600080fd5b91908080601f016020809104026020016040519081016040528093929190818152602001838380828437600092019190915250929550610716945050505050565b6100f5600480360360208110156102a957600080fd5b810190602081018135600160201b8111156102c357600080fd5b8201836020820111156102d557600080fd5b803590602001918460018302840111600160201b831117156102f657600080fd5b91908080601f0160208091040260200160405190810160405280939291908181526020018383808284376000920191909152509295506107f3945050505050565b6101c06004803603604081101561034d57600080fd5b810190602081018135600160201b81111561036757600080fd5b82018360208201111561037957600080fd5b803590602001918460018302840111600160201b8311171561039a57600080fd5b91908080601f016020809104026020016040519081016040528093929190818152602001838380828437600092019190915250929550505090356001600160a01b031691506108199050565b6100f5600480360360208110156103fc57600080fd5b50356109c5565b6101c06109d2565b6100f56004803603602081101561042157600080fd5b50356001600160a01b0316610a74565b6100f5610a8f565b6100f56004803603602081101561044f57600080fd5b5035610a9e565b61047c6004803603602081101561046c57600080fd5b50356001600160a01b0316610ab9565b604080519115158252519081900360200190f35b6101c0600480360360208110156104a657600080fd5b50356001600160a01b0316610ace565b6104be610bc6565b60408051918252519081900360200190f35b6005602052600090815260409020546001600160a01b031681565b6104f3610bcc565b6000546001600160a01b03908116911614610543576040805162461bcd60e51b81526020600482018190526024820152600080516020610bf7833981519152604482015290519081900360640190fd5b6002826040518082805190602001908083835b602083106105755780518252601f199092019160209182019101610556565b51815160209384036101000a60001901801990921691161790529201948552506040519384900301909220546001600160a01b03161591506105fb9050576040805162461bcd60e51b815260206004820152601860248201527722b93937b91d103732bab937b7103730b6b2903a30b5b2b760411b604482015290519081900360640190fd5b806002836040518082805190602001908083835b6020831061062e5780518252601f19909201916020918201910161060f565b51815160209384036101000a60001901801990921691161790529201948552506040805194859003820190942080546001600160a01b03199081166001600160a01b039788161790915595909416600081815260048652848120805460ff19166001908117909155805482526003909652938420805487168217905560078054808701825594527fa66cc928b5edb82af9bd49922954155ab7b0942694bea4ce44661d9a8736c6889093018054909516909217909355508054810190555050565b600881815481106106fc57fe5b6000918252602090912001546001600160a01b0316905081565b6000806002836040518082805190602001908083835b6020831061074b5780518252601f19909201916020918201910161072c565b51815160209384036101000a600019018019909216911617905292019485525060408051948590038201852054637722250960e01b86526001600160a01b038a8116600488015291519116955085946377222509945060248082019450908290030181600087803b1580156107bf57600080fd5b505af11580156107d3573d6000803e3d6000fd5b505050506040513d60208110156107e957600080fd5b5051949350505050565b80516020818301810180516002825292820191909301209152546001600160a01b031681565b6002826040518082805190602001908083835b6020831061084b5780518252601f19909201916020918201910161082c565b51815160209384036101000a60001901801990921691161790529201948552506040519384900301909220546001600160a01b03161591506108d19050576040805162461bcd60e51b815260206004820152601860248201527722b93937b91d103732bab937b7103730b6b2903a30b5b2b760411b604482015290519081900360640190fd5b806002836040518082805190602001908083835b602083106109045780518252601f1990920191602091820191016108e5565b51815160209384036101000a60001901801990921691161790529201948552506040805194859003820190942080546001600160a01b03199081166001600160a01b039788161790915595909416600081815260048652848120805460ff19166001908117909155805482526003909652938420805487168217905560088054808701825594527ff3f7a9fe364faab93b216da50a3214154f22a0a2b415b23a84c8169e8b636ee39093018054909516909217909355508054810190555050565b600781815481106106fc57fe5b6109da610bcc565b6000546001600160a01b03908116911614610a2a576040805162461bcd60e51b81526020600482018190526024820152600080516020610bf7833981519152604482015290519081900360640190fd5b600080546040516001600160a01b03909116907f8be0079c531659141344cd1fd0a4f28419497f9722a3daafe3b4186f6b6457e0908390a3600080546001600160a01b0319169055565b6006602052600090815260409020546001600160a01b031681565b6000546001600160a01b031690565b6003602052600090815260409020546001600160a01b031681565b60046020526000908152604090205460ff1681565b610ad6610bcc565b6000546001600160a01b03908116911614610b26576040805162461bcd60e51b81526020600482018190526024820152600080516020610bf7833981519152604482015290519081900360640190fd5b6001600160a01b038116610b6b5760405162461bcd60e51b8152600401808060200182810382526026815260200180610bd16026913960400191505060405180910390fd5b600080546040516001600160a01b03808516939216917f8be0079c531659141344cd1fd0a4f28419497f9722a3daafe3b4186f6b6457e091a3600080546001600160a01b0319166001600160a01b0392909216919091179055565b60015481565b339056fe4f776e61626c653a206e6577206f776e657220697320746865207a65726f20616464726573734f776e61626c653a2063616c6c6572206973206e6f7420746865206f776e6572a2646970667358221220a0a47367af0979e46aa02624f51cb5c4b634efffd447f2fbe720bf6eeac2374964736f6c63430006060033",
  "immutableReferences": {},
  "source": "pragma solidity ^0.6.2;\n\nimport \"./Interfaces/NeuronFactoryI.sol\";\nimport \"@openzeppelin/contracts/access/Ownable.sol\";\nimport \"@openzeppelin/contracts/math/SafeMath.sol\";\n\n////////////////////////////////////////////////////////////////////////////////////////////\n/// @title Hippocampus\n/// @author Christopher Dixon\n////////////////////////////////////////////////////////////////////////////////////////////\n/**\nThe Hippocampus is designed to track and verify Nueron factory contracts\n**/\n\ncontract Hippocampus is Ownable {\n    using SafeMath for uint256;\n\n    uint256 public neuronCount;\n\n    mapping(string => address) public neuralNetwork;\n    mapping(uint256 => address) public neuralID;\n    mapping(address => bool) public isNeuron;\n    mapping(address => address) public neuralMapToCortex;\n    mapping(address => address) public neuralMapFromCortex;\n\n    address[] public coreNeurons;\n    address[] public peripheralNeurons;\n\n    function addCoreNueron(\n        string memory _NeuronName,\n        address _neuronInstanceAddress\n    ) public onlyOwner {\n        require(\n            neuralNetwork[_NeuronName] ==\n                0x0000000000000000000000000000000000000000,\n            \"Error: neuron name taken\"\n        );\n        neuralNetwork[_NeuronName] = _neuronInstanceAddress;\n        isNeuron[_neuronInstanceAddress] = true;\n        neuralID[neuronCount] = _neuronInstanceAddress;\n        coreNeurons.push(_neuronInstanceAddress);\n        neuronCount++;\n    }\n\n    function addPeripheralNueron(\n        string memory _NeuronName,\n        address _neuronInstanceAddress\n    ) public {\n        require(\n            neuralNetwork[_NeuronName] ==\n                0x0000000000000000000000000000000000000000,\n            \"Error: neuron name taken\"\n        );\n        neuralNetwork[_NeuronName] = _neuronInstanceAddress;\n        isNeuron[_neuronInstanceAddress] = true;\n        neuralID[neuronCount] = _neuronInstanceAddress;\n        peripheralNeurons.push(_neuronInstanceAddress);\n        neuronCount++;\n    }\n\n    function _neuroGensis(address _DAO, string memory _neuronName)\n        public\n        returns (address)\n    {\n        NeuronFactoryI neuralF = NeuronFactoryI(neuralNetwork[_neuronName]);\n        return neuralF.genesis(_DAO);\n    }\n}\n",
  "sourcePath": "/home/stan36/repos/zer0/ZDAO/contracts/Hippocampus.sol",
  "compiler": {
    "name": "solc",
    "version": "0.6.6+commit.6c089d02.Emscripten.clang"
  },
  "schemaVersion": "3.3.2",
  "updatedAt": "2021-01-22T01:08:56.692Z",
  "devdoc": {
    "methods": {
      "owner()": {
        "details": "Returns the address of the current owner."
      },
      "renounceOwnership()": {
        "details": "Leaves the contract without owner. It will not be possible to call `onlyOwner` functions anymore. Can only be called by the current owner.     * NOTE: Renouncing ownership will leave the contract without an owner, thereby removing any functionality that is only available to the owner."
      },
      "transferOwnership(address)": {
        "details": "Transfers ownership of the contract to a new account (`newOwner`). Can only be called by the current owner."
      }
    }
  },
  "userdoc": {
    "methods": {},
    "notice": "The Hippocampus is designed to track and verify Nueron factory contracts*"
  }
}