{
  "contractName": "Hippocampus",
  "abi": [
    {
      "anonymous": false,
      "inputs": [
        {
          "indexed": true,
          "internalType": "address",
          "name": "previousOwner",
          "type": "address"
        },
        {
          "indexed": true,
          "internalType": "address",
          "name": "newOwner",
          "type": "address"
        }
      ],
      "name": "OwnershipTransferred",
      "type": "event"
    },
    {
      "inputs": [
        {
          "internalType": "uint256",
          "name": "",
          "type": "uint256"
        }
      ],
      "name": "coreNeurons",
      "outputs": [
        {
          "internalType": "address",
          "name": "",
          "type": "address"
        }
      ],
      "stateMutability": "view",
      "type": "function"
    },
    {
      "inputs": [
        {
          "internalType": "address",
          "name": "",
          "type": "address"
        }
      ],
      "name": "isNeuron",
      "outputs": [
        {
          "internalType": "bool",
          "name": "",
          "type": "bool"
        }
      ],
      "stateMutability": "view",
      "type": "function"
    },
    {
      "inputs": [
        {
          "internalType": "address",
          "name": "",
          "type": "address"
        },
        {
          "internalType": "uint256",
          "name": "",
          "type": "uint256"
        }
      ],
      "name": "neuralMapFromCortex",
      "outputs": [
        {
          "internalType": "address",
          "name": "",
          "type": "address"
        }
      ],
      "stateMutability": "view",
      "type": "function"
    },
    {
      "inputs": [
        {
          "internalType": "address",
          "name": "",
          "type": "address"
        }
      ],
      "name": "neuralMapToCortex",
      "outputs": [
        {
          "internalType": "address",
          "name": "",
          "type": "address"
        }
      ],
      "stateMutability": "view",
      "type": "function"
    },
    {
      "inputs": [
        {
          "internalType": "string",
          "name": "",
          "type": "string"
        }
      ],
      "name": "neuralNetwork",
      "outputs": [
        {
          "internalType": "address",
          "name": "",
          "type": "address"
        }
      ],
      "stateMutability": "view",
      "type": "function"
    },
    {
      "inputs": [],
      "name": "owner",
      "outputs": [
        {
          "internalType": "address",
          "name": "",
          "type": "address"
        }
      ],
      "stateMutability": "view",
      "type": "function"
    },
    {
      "inputs": [
        {
          "internalType": "uint256",
          "name": "",
          "type": "uint256"
        }
      ],
      "name": "peripheralNeurons",
      "outputs": [
        {
          "internalType": "address",
          "name": "",
          "type": "address"
        }
      ],
      "stateMutability": "view",
      "type": "function"
    },
    {
      "inputs": [],
      "name": "renounceOwnership",
      "outputs": [],
      "stateMutability": "nonpayable",
      "type": "function"
    },
    {
      "inputs": [
        {
          "internalType": "address",
          "name": "newOwner",
          "type": "address"
        }
      ],
      "name": "transferOwnership",
      "outputs": [],
      "stateMutability": "nonpayable",
      "type": "function"
    },
    {
      "inputs": [
        {
          "internalType": "string",
          "name": "_NeuronName",
          "type": "string"
        },
        {
          "internalType": "address",
          "name": "_neuronFactoryAddress",
          "type": "address"
        }
      ],
      "name": "addCoreNueron",
      "outputs": [],
      "stateMutability": "nonpayable",
      "type": "function"
    },
    {
      "inputs": [
        {
          "internalType": "string",
          "name": "_NeuronName",
          "type": "string"
        },
        {
          "internalType": "address",
          "name": "_neuronFactoryAddress",
          "type": "address"
        }
      ],
      "name": "addPeripheralNueron",
      "outputs": [],
      "stateMutability": "nonpayable",
      "type": "function"
    },
    {
      "inputs": [
        {
          "internalType": "address",
          "name": "_Cortex",
          "type": "address"
        },
        {
          "internalType": "string",
          "name": "_neuronName",
          "type": "string"
        }
      ],
      "name": "_neuroGensis",
      "outputs": [
        {
          "internalType": "address",
          "name": "",
          "type": "address"
        }
      ],
      "stateMutability": "nonpayable",
      "type": "function"
    }
  ],
  "bytecode": "0x608060405260006100176001600160e01b0361006616565b600080546001600160a01b0319166001600160a01b0383169081178255604051929350917f8be0079c531659141344cd1fd0a4f28419497f9722a3daafe3b4186f6b6457e0908290a35061006a565b3390565b610c1d806100796000396000f3fe608060405234801561001057600080fd5b50600436106100b45760003560e01c80636161e0ad116100715780636161e0ad1461034d57806361a6b1f9146103fc578063715018a6146104195780638da5cb5b14610421578063bdafc78814610429578063f2fde38b14610463576100b4565b8063087c4855146100b957806323128988146100fb5780633b9a0bdd146101ac5780634e09a6ed146101c957806352ba71781461027d5780635d70bbe1146102a9575b600080fd5b6100df600480360360208110156100cf57600080fd5b50356001600160a01b0316610489565b604080516001600160a01b039092168252519081900360200190f35b6101aa6004803603604081101561011157600080fd5b810190602081018135600160201b81111561012b57600080fd5b82018360208201111561013d57600080fd5b803590602001918460018302840111600160201b8311171561015e57600080fd5b91908080601f016020809104026020016040519081016040528093929190818152602001838380828437600092019190915250929550505090356001600160a01b031691506104a49050565b005b6100df600480360360208110156101c257600080fd5b503561068d565b6100df600480360360408110156101df57600080fd5b6001600160a01b038235169190810190604081016020820135600160201b81111561020957600080fd5b82018360208201111561021b57600080fd5b803590602001918460018302840111600160201b8311171561023c57600080fd5b91908080601f0160208091040260200160405190810160405280939291908181526020018383808284376000920191909152509295506106b4945050505050565b6100df6004803603604081101561029357600080fd5b506001600160a01b0381351690602001356107e6565b6100df600480360360208110156102bf57600080fd5b810190602081018135600160201b8111156102d957600080fd5b8201836020820111156102eb57600080fd5b803590602001918460018302840111600160201b8311171561030c57600080fd5b91908080601f01602080910402602001604051908101604052809392919081815260200183838082843760009201919091525092955061081b945050505050565b6101aa6004803603604081101561036357600080fd5b810190602081018135600160201b81111561037d57600080fd5b82018360208201111561038f57600080fd5b803590602001918460018302840111600160201b831117156103b057600080fd5b91908080601f016020809104026020016040519081016040528093929190818152602001838380828437600092019190915250929550505090356001600160a01b031691506108419050565b6100df6004803603602081101561041257600080fd5b50356109d2565b6101aa6109df565b6100df610a81565b61044f6004803603602081101561043f57600080fd5b50356001600160a01b0316610a90565b604080519115158252519081900360200190f35b6101aa6004803603602081101561047957600080fd5b50356001600160a01b0316610aa5565b6003602052600090815260409020546001600160a01b031681565b6104ac610b9d565b6000546001600160a01b039081169116146104fc576040805162461bcd60e51b81526020600482018190526024820152600080516020610bc8833981519152604482015290519081900360640190fd5b6001826040518082805190602001908083835b6020831061052e5780518252601f19909201916020918201910161050f565b51815160209384036101000a60001901801990921691161790529201948552506040519384900301909220546001600160a01b03161591506105b49050576040805162461bcd60e51b815260206004820152601860248201527722b93937b91d103732bab937b7103730b6b2903a30b5b2b760411b604482015290519081900360640190fd5b806001836040518082805190602001908083835b602083106105e75780518252601f1990920191602091820191016105c8565b51815160209384036101000a60001901801990921691161790529201948552506040805194859003820190942080546001600160a01b03199081166001600160a01b03978816179091559590941660008181526002909552928420805460ff1916600190811790915560058054918201815590945250507f036b6384b5eca791c62761152d0c79bb0604c104a5fb6f4eb0703f3154bb3db0909101805490921617905550565b6006818154811061069a57fe5b6000918252602090912001546001600160a01b0316905081565b6000806001836040518082805190602001908083835b602083106106e95780518252601f1990920191602091820191016106ca565b51815160209384036101000a600019018019909216911617905292019485525060408051948590038201852054637722250960e01b86526001600160a01b038a8116600488015291519116955060009486945063772225099350602480820193929182900301818787803b15801561076057600080fd5b505af1158015610774573d6000803e3d6000fd5b505050506040513d602081101561078a57600080fd5b50516001600160a01b0380821660008181526003602090815260408083208054958c166001600160a01b031996871681179091558352600482528220805460018101825590835291200180549092161790559250505092915050565b600460205281600052604060002081815481106107ff57fe5b6000918252602090912001546001600160a01b03169150829050565b80516020818301810180516001825292820191909301209152546001600160a01b031681565b6001826040518082805190602001908083835b602083106108735780518252601f199092019160209182019101610854565b51815160209384036101000a60001901801990921691161790529201948552506040519384900301909220546001600160a01b03161591506108f99050576040805162461bcd60e51b815260206004820152601860248201527722b93937b91d103732bab937b7103730b6b2903a30b5b2b760411b604482015290519081900360640190fd5b806001836040518082805190602001908083835b6020831061092c5780518252601f19909201916020918201910161090d565b51815160209384036101000a60001901801990921691161790529201948552506040805194859003820190942080546001600160a01b03199081166001600160a01b03978816179091559590941660008181526002909552928420805460ff1916600190811790915560068054918201815590945250507ff652222313e28459528d920b65115c16c04f3efc82aaedc97be59f3f377c0d3f909101805490921617905550565b6005818154811061069a57fe5b6109e7610b9d565b6000546001600160a01b03908116911614610a37576040805162461bcd60e51b81526020600482018190526024820152600080516020610bc8833981519152604482015290519081900360640190fd5b600080546040516001600160a01b03909116907f8be0079c531659141344cd1fd0a4f28419497f9722a3daafe3b4186f6b6457e0908390a3600080546001600160a01b0319169055565b6000546001600160a01b031690565b60026020526000908152604090205460ff1681565b610aad610b9d565b6000546001600160a01b03908116911614610afd576040805162461bcd60e51b81526020600482018190526024820152600080516020610bc8833981519152604482015290519081900360640190fd5b6001600160a01b038116610b425760405162461bcd60e51b8152600401808060200182810382526026815260200180610ba26026913960400191505060405180910390fd5b600080546040516001600160a01b03808516939216917f8be0079c531659141344cd1fd0a4f28419497f9722a3daafe3b4186f6b6457e091a3600080546001600160a01b0319166001600160a01b0392909216919091179055565b339056fe4f776e61626c653a206e6577206f776e657220697320746865207a65726f20616464726573734f776e61626c653a2063616c6c6572206973206e6f7420746865206f776e6572a264697066735822122020db0851e23b287621aa870c2b345af6db37e4944cc7e3c014aa3f07b95660c964736f6c63430006060033",
  "immutableReferences": {},
  "source": "pragma solidity ^0.6.2;\n\nimport \"../Interfaces/NeuronFactoryI.sol\";\nimport \"@openzeppelin/contracts/access/Ownable.sol\";\nimport \"@openzeppelin/contracts/math/SafeMath.sol\";\n\n////////////////////////////////////////////////////////////////////////////////////////////\n/// @title Hippocampus\n/// @author Christopher Dixon\n////////////////////////////////////////////////////////////////////////////////////////////\n/**\nThe Hippocampus is designed to track and verify Nueron factory contracts\n**/\n\ncontract Hippocampus is Ownable {\n    using SafeMath for uint256;\n\n\n    ///@notice neuralNetwork is used to track a neuron name to its factories address\n    mapping(string => address) public neuralNetwork;\n    ///@notice isNeuron is a tracking of whether or not an address is a neuron factory\n    mapping(address => bool) public isNeuron;\n    ///@notice neuralMapToCortex maps a neuron address to its cortex address\n    mapping(address => address) public neuralMapToCortex;\n    ///@notice neuralMapFromCortex tracks a cotex address to an array of all neurons it has installed\n    mapping(address => address[]) public neuralMapFromCortex;\n    /// @notice coreNeurons is an array of all core neuron factory addresses\n    address[] public coreNeurons;\n    /// @notice peripheralNeurons is an array of a peripheral neuron factory addresses\n    address[] public peripheralNeurons;\n\n    /**\n    @notice addCoreNueron allows the owner of this contract to add a core neuron to the matrix\n    @param _NeuronName is the name of the neuron being added\n    @param _neuronFactoryAddress is the factory address for the neuron being added\n    **/\n    function addCoreNueron(\n        string memory _NeuronName,\n        address _neuronFactoryAddress\n    ) public onlyOwner {\n        require(\n            neuralNetwork[_NeuronName] ==\n                0x0000000000000000000000000000000000000000,\n            \"Error: neuron name taken\"\n        );\n        neuralNetwork[_NeuronName] = _neuronFactoryAddress;\n        isNeuron[_neuronFactoryAddress] = true;\n        coreNeurons.push(_neuronFactoryAddress);\n    }\n\n    /**\n    @notice addPeripheralNueron allows the owner of this contract to add a peripheral neuron to the matrix\n    @param _NeuronName is the name of the neuron being added\n    @param _neuronFactoryAddress is the factory address for the neuron being added\n    **/\n    function addPeripheralNueron(\n        string memory _NeuronName,\n        address _neuronFactoryAddress\n    ) public {\n        require(\n            neuralNetwork[_NeuronName] ==\n                0x0000000000000000000000000000000000000000,\n            \"Error: neuron name taken\"\n        );\n        neuralNetwork[_NeuronName] = _neuronFactoryAddress;\n        isNeuron[_neuronFactoryAddress] = true;\n        peripheralNeurons.push(_neuronFactoryAddress);\n    }\n\n    /**\n    @notice _neuroGensis is used by a cortex to generate a new neural instance of a neuron\n    @param _Cortex is the address of the cortex who is generating a neuron\n    @param _neuronName is the name of the neuron being generated\n    **/\n    function _neuroGensis(address _Cortex, string memory _neuronName)\n        public\n        returns (address)\n    {\n        NeuronFactoryI neuralF = NeuronFactoryI(neuralNetwork[_neuronName]);\n        address neuron = neuralF.genesis(_Cortex);\n        neuralMapToCortex[neuron] = _Cortex;\n        neuralMapFromCortex[_Cortex].push(neuron);\n        return neuron;\n    }\n}\n",
  "sourcePath": "/home/stan36/repos/zer0/ZDAO/contracts/Matrix/Hippocampus.sol",
  "compiler": {
    "name": "solc",
    "version": "0.6.6+commit.6c089d02.Emscripten.clang"
  },
  "schemaVersion": "3.3.2",
  "updatedAt": "2021-01-25T23:46:39.308Z",
  "devdoc": {
    "methods": {
      "_neuroGensis(address,string)": {
        "params": {
          "_Cortex": "is the address of the cortex who is generating a neuron",
          "_neuronName": "is the name of the neuron being generated*"
        }
      },
      "addCoreNueron(string,address)": {
        "params": {
          "_NeuronName": "is the name of the neuron being added",
          "_neuronFactoryAddress": "is the factory address for the neuron being added*"
        }
      },
      "addPeripheralNueron(string,address)": {
        "params": {
          "_NeuronName": "is the name of the neuron being added",
          "_neuronFactoryAddress": "is the factory address for the neuron being added*"
        }
      },
      "owner()": {
        "details": "Returns the address of the current owner."
      },
      "renounceOwnership()": {
        "details": "Leaves the contract without owner. It will not be possible to call `onlyOwner` functions anymore. Can only be called by the current owner.     * NOTE: Renouncing ownership will leave the contract without an owner, thereby removing any functionality that is only available to the owner."
      },
      "transferOwnership(address)": {
        "details": "Transfers ownership of the contract to a new account (`newOwner`). Can only be called by the current owner."
      }
    }
  },
  "userdoc": {
    "methods": {
      "_neuroGensis(address,string)": {
        "notice": "_neuroGensis is used by a cortex to generate a new neural instance of a neuron"
      },
      "addCoreNueron(string,address)": {
        "notice": "addCoreNueron allows the owner of this contract to add a core neuron to the matrix"
      },
      "addPeripheralNueron(string,address)": {
        "notice": "addPeripheralNueron allows the owner of this contract to add a peripheral neuron to the matrix"
      }
    },
    "notice": "The Hippocampus is designed to track and verify Nueron factory contracts*"
  }
}