{
  "contractName": "Matrix",
  "abi": [
    {
      "inputs": [
        {
          "internalType": "string[]",
          "name": "_NeuronNames",
          "type": "string[]"
        },
        {
          "internalType": "address[]",
          "name": "_initialCoreNeurons",
          "type": "address[]"
        }
      ],
      "stateMutability": "nonpayable",
      "type": "constructor"
    },
    {
      "anonymous": false,
      "inputs": [
        {
          "indexed": false,
          "internalType": "address",
          "name": "_cortexAdd",
          "type": "address"
        },
        {
          "indexed": false,
          "internalType": "string",
          "name": "_cotexName",
          "type": "string"
        }
      ],
      "name": "CortexCreated",
      "type": "event"
    },
    {
      "anonymous": false,
      "inputs": [
        {
          "indexed": true,
          "internalType": "address",
          "name": "previousOwner",
          "type": "address"
        },
        {
          "indexed": true,
          "internalType": "address",
          "name": "newOwner",
          "type": "address"
        }
      ],
      "name": "OwnershipTransferred",
      "type": "event"
    },
    {
      "inputs": [
        {
          "internalType": "address",
          "name": "_DAO",
          "type": "address"
        },
        {
          "internalType": "string",
          "name": "_neuronName",
          "type": "string"
        }
      ],
      "name": "_neuroGensis",
      "outputs": [
        {
          "internalType": "address",
          "name": "",
          "type": "address"
        }
      ],
      "stateMutability": "nonpayable",
      "type": "function"
    },
    {
      "inputs": [
        {
          "internalType": "string",
          "name": "_NeuronName",
          "type": "string"
        },
        {
          "internalType": "address",
          "name": "_neuronInstanceAddress",
          "type": "address"
        }
      ],
      "name": "addCoreNueron",
      "outputs": [],
      "stateMutability": "nonpayable",
      "type": "function"
    },
    {
      "inputs": [
        {
          "internalType": "string",
          "name": "_NeuronName",
          "type": "string"
        },
        {
          "internalType": "address",
          "name": "_neuronInstanceAddress",
          "type": "address"
        }
      ],
      "name": "addPeripheralNueron",
      "outputs": [],
      "stateMutability": "nonpayable",
      "type": "function"
    },
    {
      "inputs": [
        {
          "internalType": "uint256",
          "name": "",
          "type": "uint256"
        }
      ],
      "name": "coreNeurons",
      "outputs": [
        {
          "internalType": "address",
          "name": "",
          "type": "address"
        }
      ],
      "stateMutability": "view",
      "type": "function"
    },
    {
      "inputs": [
        {
          "internalType": "string",
          "name": "",
          "type": "string"
        }
      ],
      "name": "cortexTracker",
      "outputs": [
        {
          "internalType": "address",
          "name": "",
          "type": "address"
        }
      ],
      "stateMutability": "view",
      "type": "function"
    },
    {
      "inputs": [
        {
          "internalType": "address",
          "name": "",
          "type": "address"
        }
      ],
      "name": "isNeuron",
      "outputs": [
        {
          "internalType": "bool",
          "name": "",
          "type": "bool"
        }
      ],
      "stateMutability": "view",
      "type": "function"
    },
    {
      "inputs": [
        {
          "internalType": "string",
          "name": "",
          "type": "string"
        }
      ],
      "name": "nameTaken",
      "outputs": [
        {
          "internalType": "bool",
          "name": "",
          "type": "bool"
        }
      ],
      "stateMutability": "view",
      "type": "function"
    },
    {
      "inputs": [
        {
          "internalType": "uint256",
          "name": "",
          "type": "uint256"
        }
      ],
      "name": "neuralID",
      "outputs": [
        {
          "internalType": "address",
          "name": "",
          "type": "address"
        }
      ],
      "stateMutability": "view",
      "type": "function"
    },
    {
      "inputs": [
        {
          "internalType": "address",
          "name": "",
          "type": "address"
        }
      ],
      "name": "neuralMapFromCortex",
      "outputs": [
        {
          "internalType": "address",
          "name": "",
          "type": "address"
        }
      ],
      "stateMutability": "view",
      "type": "function"
    },
    {
      "inputs": [
        {
          "internalType": "address",
          "name": "",
          "type": "address"
        }
      ],
      "name": "neuralMapToCortex",
      "outputs": [
        {
          "internalType": "address",
          "name": "",
          "type": "address"
        }
      ],
      "stateMutability": "view",
      "type": "function"
    },
    {
      "inputs": [
        {
          "internalType": "string",
          "name": "",
          "type": "string"
        }
      ],
      "name": "neuralNetwork",
      "outputs": [
        {
          "internalType": "address",
          "name": "",
          "type": "address"
        }
      ],
      "stateMutability": "view",
      "type": "function"
    },
    {
      "inputs": [],
      "name": "neuronCount",
      "outputs": [
        {
          "internalType": "uint256",
          "name": "",
          "type": "uint256"
        }
      ],
      "stateMutability": "view",
      "type": "function"
    },
    {
      "inputs": [],
      "name": "owner",
      "outputs": [
        {
          "internalType": "address",
          "name": "",
          "type": "address"
        }
      ],
      "stateMutability": "view",
      "type": "function"
    },
    {
      "inputs": [
        {
          "internalType": "uint256",
          "name": "",
          "type": "uint256"
        }
      ],
      "name": "peripheralNeurons",
      "outputs": [
        {
          "internalType": "address",
          "name": "",
          "type": "address"
        }
      ],
      "stateMutability": "view",
      "type": "function"
    },
    {
      "inputs": [],
      "name": "renounceOwnership",
      "outputs": [],
      "stateMutability": "nonpayable",
      "type": "function"
    },
    {
      "inputs": [
        {
          "internalType": "address",
          "name": "newOwner",
          "type": "address"
        }
      ],
      "name": "transferOwnership",
      "outputs": [],
      "stateMutability": "nonpayable",
      "type": "function"
    },
    {
      "inputs": [
        {
          "internalType": "string",
          "name": "_CortexName",
          "type": "string"
        },
        {
          "internalType": "string",
          "name": "_tokenName",
          "type": "string"
        },
        {
          "internalType": "string",
          "name": "_tokenSym",
          "type": "string"
        },
        {
          "internalType": "address",
          "name": "_synaps",
          "type": "address"
        },
        {
          "internalType": "bool",
          "name": "_isTransferable",
          "type": "bool"
        },
        {
          "internalType": "uint256",
          "name": "_maxSupply",
          "type": "uint256"
        }
      ],
      "name": "createCortex",
      "outputs": [],
      "stateMutability": "nonpayable",
      "type": "function"
    },
    {
      "inputs": [
        {
          "internalType": "string",
          "name": "_Name",
          "type": "string"
        }
      ],
      "name": "retrieveCortex",
      "outputs": [
        {
          "internalType": "address",
          "name": "",
          "type": "address"
        }
      ],
      "stateMutability": "view",
      "type": "function"
    },
    {
      "inputs": [
        {
          "internalType": "string",
          "name": "_Name",
          "type": "string"
        }
      ],
      "name": "cortexNameTaken",
      "outputs": [
        {
          "internalType": "bool",
          "name": "",
          "type": "bool"
        }
      ],
      "stateMutability": "view",
      "type": "function"
    }
  ],
  "bytecode": "0x60806040523480156200001157600080fd5b5060405162006407380380620064078339810160408190526200003491620002ca565b6000620000496001600160e01b036200023916565b600080546001600160a01b0319166001600160a01b0383169081178255604051929350917f8be0079c531659141344cd1fd0a4f28419497f9722a3daafe3b4186f6b6457e0908290a3508051825114620000c05760405162461bcd60e51b8152600401620000b790620003e3565b60405180910390fd5b60005b81518110156200023057818181518110620000da57fe5b60200260200101516002848381518110620000f157fe5b6020026020010151604051620001089190620003c5565b908152602001604051809103902060006101000a8154816001600160a01b0302191690836001600160a01b031602179055506001600460008484815181106200014d57fe5b60200260200101516001600160a01b03166001600160a01b0316815260200190815260200160002060006101000a81548160ff0219169083151502179055508181815181106200019957fe5b60200260200101516003600083815260200190815260200160002060006101000a8154816001600160a01b0302191690836001600160a01b031602179055506007828281518110620001e757fe5b60209081029190910181015182546001808201855560009485529290932090920180546001600160a01b0319166001600160a01b039093169290921790915581815501620000c3565b505050620004b8565b3390565b600082601f8301126200024e578081fd5b8151620002656200025f8262000441565b6200041a565b8181529150602080830190848101818402860182018710156200028757600080fd5b6000805b85811015620002be5782516001600160a01b0381168114620002ab578283fd5b855293830193918301916001016200028b565b50505050505092915050565b6000806040808486031215620002de578283fd5b83516001600160401b0380821115620002f5578485fd5b81860187601f82011262000307578586fd5b805192506200031a6200025f8462000441565b83815260208082019190838101895b878110156200039257815186018d603f82011262000345578b8cfd5b83810151620003586200025f8262000461565b8181528f8c8385010111156200036c578d8efd5b6200037d828783018e860162000485565b87525050938201939082019060010162000329565b50508901519097509450505080831115620003ab578384fd5b5050620003bb858286016200023d565b9150509250929050565b60008251620003d981846020870162000485565b9190910192915050565b6020808252601c908201527f4572726f723a204172726179204c656e677468204d69736d6174636800000000604082015260600190565b6040518181016001600160401b03811182821017156200043957600080fd5b604052919050565b60006001600160401b0382111562000457578081fd5b5060209081020190565b60006001600160401b0382111562000477578081fd5b50601f01601f191660200190565b60005b83811015620004a257818101518382015260200162000488565b83811115620004b2576000848401525b50505050565b615f3f80620004c86000396000f3fe60806040523480156200001157600080fd5b50600436106200012a5760003560e01c80637f95064f11620000bd578063bdafc788116200007b578063bdafc7881462000280578063c50e154c1462000297578063d0a087c814620002ae578063f2fde38b14620002c5578063fd746b6414620002dc576200012a565b80637f95064f146200020b5780638da5cb5b146200022257806391fc437e146200022c578063a26d91df1462000252578063b3a95d721462000269576200012a565b8063087c4855146200012f57806323128988146200015e5780633b9a0bdd14620001775780633f21672e146200018e5780634e09a6ed14620001a55780635d70bbe114620001bc5780636161e0ad14620001d357806361a6b1f914620001ea578063715018a61462000201575b600080fd5b620001466200014036600462000c9b565b620002f5565b60405162000155919062000eeb565b60405180910390f35b620001756200016f36600462000d6b565b62000310565b005b620001466200018836600462000e86565b62000454565b620001466200019f36600462000d34565b6200047c565b62000146620001b636600462000ce0565b620004a2565b62000146620001cd36600462000d34565b62000552565b62000175620001e436600462000d6b565b62000578565b62000146620001fb36600462000e86565b62000679565b6200017562000687565b620001466200021c36600462000c9b565b6200070b565b6200014662000726565b620002436200023d36600462000d34565b62000735565b60405162000155919062000f25565b620001466200026336600462000d34565b62000755565b620001466200027a36600462000e86565b62000789565b620002436200029136600462000c9b565b620007a4565b62000175620002a836600462000dc1565b620007b9565b62000243620002bf36600462000d34565b62000b15565b62000175620002d636600462000c9b565b62000b43565b620002e662000c01565b604051620001559190620010a1565b6005602052600090815260409020546001600160a01b031681565b6200031a62000c07565b6000546001600160a01b03908116911614620003535760405162461bcd60e51b81526004016200034a9062001022565b60405180910390fd5b60028260405162000365919062000ecd565b908152604051908190036020019020546001600160a01b0316156200039e5760405162461bcd60e51b81526004016200034a9062000ff0565b80600283604051620003b1919062000ecd565b908152604080516020928190038301902080546001600160a01b03199081166001600160a01b039586161790915593909216600081815260048352838120805460ff19166001908117909155805482526003909352928320805485168217905560078054808401825593527fa66cc928b5edb82af9bd49922954155ab7b0942694bea4ce44661d9a8736c688909201805490931690911790915580548101905550565b600881815481106200046257fe5b6000918252602090912001546001600160a01b0316905081565b80516020818301810180516009825292820191909301209152546001600160a01b031681565b600080600283604051620004b7919062000ecd565b90815260405190819003602001812054637722250960e01b82526001600160a01b031691508190637722250990620004f490879060040162000eeb565b602060405180830381600087803b1580156200050f57600080fd5b505af115801562000524573d6000803e3d6000fd5b505050506040513d601f19601f820116820180604052508101906200054a919062000cc1565b949350505050565b80516020818301810180516002825292820191909301209152546001600160a01b031681565b6002826040516200058a919062000ecd565b908152604051908190036020019020546001600160a01b031615620005c35760405162461bcd60e51b81526004016200034a9062000ff0565b80600283604051620005d6919062000ecd565b908152604080516020928190038301902080546001600160a01b03199081166001600160a01b039586161790915593909216600081815260048352838120805460ff19166001908117909155805482526003909352928320805485168217905560088054808401825593527ff3f7a9fe364faab93b216da50a3214154f22a0a2b415b23a84c8169e8b636ee3909201805490931690911790915580548101905550565b600781815481106200046257fe5b6200069162000c07565b6000546001600160a01b03908116911614620006c15760405162461bcd60e51b81526004016200034a9062001022565b600080546040516001600160a01b03909116907f8be0079c531659141344cd1fd0a4f28419497f9722a3daafe3b4186f6b6457e0908390a3600080546001600160a01b0319169055565b6006602052600090815260409020546001600160a01b031681565b6000546001600160a01b031690565b8051602081830181018051600a8252928201919093012091525460ff1681565b600060098260405162000769919062000ecd565b908152604051908190036020019020546001600160a01b03169050919050565b6003602052600090815260409020546001600160a01b031681565b60046020526000908152604090205460ff1681565b600a86604051620007cb919062000ecd565b9081526040519081900360200190205460ff16151560011415620008035760405162461bcd60e51b81526004016200034a9062001057565b60006001600160a01b038416620009be578630878760003388886040516200082b9062000c0b565b6200083e98979695949392919062000f30565b604051809103906000f0801580156200085b573d6000803e3d6000fd5b5090508060098860405162000871919062000ecd565b90815260405190819003602001812080546001600160a01b039384166001600160a01b0319909116179055634c1d96ab60e11b81529082169063983b2d5690620008c090849060040162000eeb565b600060405180830381600087803b158015620008db57600080fd5b505af1158015620008f0573d6000803e3d6000fd5b5050604051637a231bdd60e11b81526001600160a01b038416925063f44637ba91506200092290849060040162000eeb565b600060405180830381600087803b1580156200093d57600080fd5b505af115801562000952573d6000803e3d6000fd5b505060405163f2fde38b60e01b81526001600160a01b038416925063f2fde38b91506200098490339060040162000eeb565b600060405180830381600087803b1580156200099f57600080fd5b505af1158015620009b4573d6000803e3d6000fd5b5050505062000a9e565b8630878787338888604051620009d49062000c0b565b620009e798979695949392919062000f30565b604051809103906000f08015801562000a04573d6000803e3d6000fd5b5090508060098860405162000a1a919062000ecd565b90815260405190819003602001812080546001600160a01b039384166001600160a01b031990911617905563f2fde38b60e01b81529082169063f2fde38b9062000a6990339060040162000eeb565b600060405180830381600087803b15801562000a8457600080fd5b505af115801562000a99573d6000803e3d6000fd5b505050505b6001600a8860405162000ab2919062000ecd565b908152604051908190036020018120805492151560ff19909316929092179091557f6361531792c6d1906d164766ab4d654d52625a08c50ff690efa5935b8de2d0599062000b049083908a9062000eff565b60405180910390a150505050505050565b6000600a8260405162000b29919062000ecd565b9081526040519081900360200190205460ff169050919050565b62000b4d62000c07565b6000546001600160a01b0390811691161462000b7d5760405162461bcd60e51b81526004016200034a9062001022565b6001600160a01b03811662000ba65760405162461bcd60e51b81526004016200034a9062000faa565b600080546040516001600160a01b03808516939216917f8be0079c531659141344cd1fd0a4f28419497f9722a3daafe3b4186f6b6457e091a3600080546001600160a01b0319166001600160a01b0392909216919091179055565b60015481565b3390565b614e1380620010f783390190565b600082601f83011262000c2a578081fd5b813567ffffffffffffffff8082111562000c42578283fd5b604051601f8301601f19168101602001828111828210171562000c63578485fd5b60405282815292508284830160200186101562000c7f57600080fd5b8260208601602083013760006020848301015250505092915050565b60006020828403121562000cad578081fd5b813562000cba81620010dd565b9392505050565b60006020828403121562000cd3578081fd5b815162000cba81620010dd565b6000806040838503121562000cf3578081fd5b823562000d0081620010dd565b9150602083013567ffffffffffffffff81111562000d1c578182fd5b62000d2a8582860162000c19565b9150509250929050565b60006020828403121562000d46578081fd5b813567ffffffffffffffff81111562000d5d578182fd5b6200054a8482850162000c19565b6000806040838503121562000d7e578182fd5b823567ffffffffffffffff81111562000d95578283fd5b62000da38582860162000c19565b925050602083013562000db681620010dd565b809150509250929050565b60008060008060008060c0878903121562000dda578182fd5b863567ffffffffffffffff8082111562000df2578384fd5b62000e008a838b0162000c19565b9750602089013591508082111562000e16578384fd5b62000e248a838b0162000c19565b9650604089013591508082111562000e3a578384fd5b5062000e4989828a0162000c19565b945050606087013562000e5c81620010dd565b92506080870135801515811462000e71578283fd5b8092505060a087013590509295509295509295565b60006020828403121562000e98578081fd5b5035919050565b6000815180845262000eb9816020860160208601620010aa565b601f01601f19169290920160200192915050565b6000825162000ee1818460208701620010aa565b9190910192915050565b6001600160a01b0391909116815260200190565b6001600160a01b03831681526040602082018190526000906200054a9083018462000e9f565b901515815260200190565b600061010080835262000f468184018c62000e9f565b6001600160a01b038b811660208601528482036040860152915062000f6c818b62000e9f565b848103606086015262000f80818b62000e9f565b988316608086015250509490941660a082015291151560c083015260e09091015250949350505050565b60208082526026908201527f4f776e61626c653a206e6577206f776e657220697320746865207a65726f206160408201526564647265737360d01b606082015260800190565b60208082526018908201527722b93937b91d103732bab937b7103730b6b2903a30b5b2b760411b604082015260600190565b6020808252818101527f4f776e61626c653a2063616c6c6572206973206e6f7420746865206f776e6572604082015260600190565b6020808252602a908201527f4e616d65204572726f723a20546869732044414f206e616d6520697320616c7260408201526932b0b23c903a30b5b2b760b11b606082015260800190565b90815260200190565b60005b83811015620010c7578181015183820152602001620010ad565b83811115620010d7576000848401525b50505050565b6001600160a01b0381168114620010f357600080fd5b5056fe60806040523480156200001157600080fd5b5060405162004e1338038062004e1383398181016040526101008110156200003857600080fd5b81019080805160405193929190846401000000008211156200005957600080fd5b9083019060208201858111156200006f57600080fd5b82516401000000008111828201881017156200008a57600080fd5b82525081516020918201929091019080838360005b83811015620000b95781810151838201526020016200009f565b50505050905090810190601f168015620000e75780820380516001836020036101000a031916815260200191505b506040818152602083015192018051929491939192846401000000008211156200011057600080fd5b9083019060208201858111156200012657600080fd5b82516401000000008111828201881017156200014157600080fd5b82525081516020918201929091019080838360005b838110156200017057818101518382015260200162000156565b50505050905090810190601f1680156200019e5780820380516001836020036101000a031916815260200191505b5060405260200180516040519392919084640100000000821115620001c257600080fd5b908301906020820185811115620001d857600080fd5b8251640100000000811182820188101715620001f357600080fd5b82525081516020918201929091019080838360005b838110156200022257818101518382015260200162000208565b50505050905090810190601f168015620002505780820380516001836020036101000a031916815260200191505b506040908152602082015190820151606083015160809093015191945092506000620002846001600160e01b03620004c516565b600080546001600160a01b0319166001600160a01b0383169081178255604051929350917f8be0079c531659141344cd1fd0a4f28419497f9722a3daafe3b4186f6b6457e0908290a3508751620002e39060019060208b0190620004ca565b50600280546001600160a01b0319166001600160a01b038981169190911790915584166200047a578585836001868560405162000320906200054f565b841515604082015283151560608201526001600160a01b038316608082015260a0810182905260c08082528751908201528651819060208083019160e08401918b019080838360005b838110156200038357818101518382015260200162000369565b50505050905090810190601f168015620003b15780820380516001836020036101000a031916815260200191505b5083810382528851815288516020918201918a019080838360005b83811015620003e6578181015183820152602001620003cc565b50505050905090810190601f168015620004145780820380516001836020036101000a031916815260200191505b5098505050505050505050604051809103906000f0801580156200043c573d6000803e3d6000fd5b5060008052600460205260008051602062004df383398151915280546001600160a01b0319166001600160a01b0392909216919091179055620004ad565b60008052600460205260008051602062004df383398151915280546001600160a01b0319166001600160a01b0386161790555b5050600380546001019055506200057a945050505050565b335b90565b828054600181600116156101000203166002900490600052602060002090601f016020900481019282601f106200050d57805160ff19168380011785556200053d565b828001600101855582156200053d579182015b828111156200053d57825182559160200191906001019062000520565b506200054b9291506200055d565b5090565b6117ef806200360483390190565b620004c791905b808211156200054b576000815560010162000564565b61307a806200058a6000396000f3fe608060405260043610620001635760003560e01c80637b1a490911620000c7578063ca1a4a951162000079578063ca1a4a9514620007f1578063da368ac1146200081f578063e71bdf411462000856578063f2fde38b146200088d578063f44637ba1462000856578063fc68a01b14620008c4576200016b565b80637b1a490914620006335780638da5cb5b146200067057806392bd66c01462000688578063983b2d561462000755578063b9d49ca6146200078c578063c00c89aa14620007c3576200016b565b80634897693611620001215780634897693614620003e85780634a8a300a146200047857806363fd71cf14620005c057806367e7646f1462000170578063715018a614620005d85780637a34c2ef14620005f0576200016b565b80630284685814620001705780632f4f326614620001a95780633092afd514620001ec5780633123ca97146200022357806335db86a7146200026e576200016b565b366200016b57005b600080fd5b3480156200017d57600080fd5b50620001a7600480360360208110156200019657600080fd5b50356001600160a01b0316620008ee565b005b348015620001b657600080fd5b50620001a760048036036060811015620001cf57600080fd5b506001600160a01b0381351690602081013590604001356200096b565b348015620001f957600080fd5b50620001a7600480360360208110156200021257600080fd5b50356001600160a01b031662000a41565b3480156200023057600080fd5b506200025a600480360360208110156200024957600080fd5b50356001600160a01b031662000abe565b604080519115158252519081900360200190f35b3480156200027b57600080fd5b50620003cc600480360360c08110156200029457600080fd5b810190602081018135600160201b811115620002af57600080fd5b820183602082011115620002c257600080fd5b803590602001918460018302840111600160201b83111715620002e457600080fd5b91908080601f0160208091040260200160405190810160405280939291908181526020018383808284376000920191909152509295949360208101935035915050600160201b8111156200033757600080fd5b8201836020820111156200034a57600080fd5b803590602001918460018302840111600160201b831117156200036c57600080fd5b91908080601f016020809104026020016040519081016040528093929190818152602001838380828437600092019190915250929550506001600160a01b0383351693505050602081013515159060408101351515906060013562000ad3565b604080516001600160a01b039092168252519081900360200190f35b348015620003f557600080fd5b506200040062000cac565b6040805160208082528351818301528351919283929083019185019080838360005b838110156200043c57818101518382015260200162000422565b50505050905090810190601f1680156200046a5780820380516001836020036101000a031916815260200191505b509250505060405180910390f35b3480156200048557600080fd5b50620001a7600480360360608110156200049e57600080fd5b810190602081018135600160201b811115620004b957600080fd5b820183602082011115620004cc57600080fd5b803590602001918460018302840111600160201b83111715620004ee57600080fd5b91908080601f01602080910402602001604051908101604052809392919081815260200183838082843760009201919091525092958435959094909350604081019250602001359050600160201b8111156200054957600080fd5b8201836020820111156200055c57600080fd5b803590602001918460018302840111600160201b831117156200057e57600080fd5b91908080601f01602080910402602001604051908101604052809392919081815260200183838082843760009201919091525092955062000d3d945050505050565b348015620005cd57600080fd5b50620003cc62001184565b348015620005e557600080fd5b50620001a762001193565b348015620005fd57600080fd5b50620001a7600480360360608110156200061657600080fd5b506001600160a01b03813516906020810135906040013562001239565b3480156200064057600080fd5b50620001a7600480360360408110156200065957600080fd5b506001600160a01b038135169060200135620012f0565b3480156200067d57600080fd5b50620003cc62001388565b3480156200069557600080fd5b50620001a760048036036060811015620006ae57600080fd5b6001600160a01b0382351691602081013591810190606081016040820135600160201b811115620006de57600080fd5b820183602082011115620006f157600080fd5b803590602001918460018302840111600160201b831117156200071357600080fd5b91908080601f01602080910402602001604051908101604052809392919081815260200183838082843760009201919091525092955062001397945050505050565b3480156200076257600080fd5b50620001a7600480360360208110156200077b57600080fd5b50356001600160a01b0316620014e3565b3480156200079957600080fd5b506200025a60048036036020811015620007b257600080fd5b50356001600160a01b031662001563565b348015620007d057600080fd5b50620003cc60048036036020811015620007e957600080fd5b503562001578565b348015620007fe57600080fd5b50620003cc600480360360208110156200081757600080fd5b5035620015a0565b3480156200082c57600080fd5b506200025a600480360360208110156200084557600080fd5b50356001600160a01b0316620015bb565b3480156200086357600080fd5b50620001a7600480360360208110156200087c57600080fd5b50356001600160a01b0316620015d0565b3480156200089a57600080fd5b50620001a760048036036020811015620008b357600080fd5b50356001600160a01b031662001650565b348015620008d157600080fd5b50620008dc6200174e565b60408051918252519081900360200190f35b620008f862001754565b6000546001600160a01b039081169116146200094a576040805162461bcd60e51b8152602060048201819052602482015260008051602062002ffd833981519152604482015290519081900360640190fd5b6001600160a01b03166000908152600660205260409020805460ff19169055565b3360009081526006602052604090205460ff161515600114620009c05760405162461bcd60e51b81526004018080602001828103825260288152602001806200301d6028913960400191505060405180910390fd5b60008181526004602081905260408083205481516396615aa360e01b81526001600160a01b038881169482019490945260248101879052915192169283926396615aa392604480820193929182900301818387803b15801562000a2257600080fd5b505af115801562000a37573d6000803e3d6000fd5b5050505050505050565b62000a4b62001754565b6000546001600160a01b0390811691161462000a9d576040805162461bcd60e51b8152602060048201819052602482015260008051602062002ffd833981519152604482015290519081900360640190fd5b6001600160a01b03166000908152600560205260409020805460ff19169055565b60056020526000908152604090205460ff1681565b600062000adf62001754565b6000546001600160a01b0390811691161462000b31576040805162461bcd60e51b8152602060048201819052602482015260008051602062002ffd833981519152604482015290519081900360640190fd5b86868585888660405162000b459062001758565b841515604082015283151560608201526001600160a01b038316608082015260a0810182905260c08082528751908201528651819060208083019160e08401918b019080838360005b8381101562000ba857818101518382015260200162000b8e565b50505050905090810190601f16801562000bd65780820380516001836020036101000a031916815260200191505b5083810382528851815288516020918201918a019080838360005b8381101562000c0b57818101518382015260200162000bf1565b50505050905090810190601f16801562000c395780820380516001836020036101000a031916815260200191505b5098505050505050505050604051809103906000f08015801562000c61573d6000803e3d6000fd5b506003805460009081526004602052604080822080546001600160a01b0319166001600160a01b03958616179055825480835291205460019190910190915516979650505050505050565b60018054604080516020600284861615610100026000190190941693909304601f8101849004840282018401909252818152929183018282801562000d355780601f1062000d095761010080835404028352916020019162000d35565b820191906000526020600020905b81548152906001019060200180831162000d1757829003601f168201915b505050505081565b62000d4762001754565b6000546001600160a01b0390811691161462000d99576040805162461bcd60e51b8152602060048201819052602482015260008051602062002ffd833981519152604482015290519081900360640190fd5b60025460408051634e09a6ed60e01b81523060048201818152602483019384528751604484015287516000956001600160a01b031694634e09a6ed948a939260649091019060208501908083838c5b8381101562000e0257818101518382015260200162000de8565b50505050905090810190601f16801562000e305780820380516001836020036101000a031916815260200191505b509350505050602060405180830381600087803b15801562000e5157600080fd5b505af115801562000e66573d6000803e3d6000fd5b505050506040513d602081101562000e7d57600080fd5b5051604051835191925082916000916060916001600160a01b038516918891889190819060208401908083835b6020831062000ecb5780518252601f19909201916020918201910162000eaa565b6001836020036101000a03801982511681845116808217855250505050505090500191505060006040518083038185875af1925050503d806000811462000f2f576040519150601f19603f3d011682016040523d82523d6000602084013e62000f34565b606091505b50915091508162000f8c576040805162461bcd60e51b815260206004820152601c60248201527f6661696c65642063616c6c696e6720636f6e6e6563744e6575726f6e00000000604482015290519081900360640190fd5b6060819050846001600160a01b03166350e59eb36040518163ffffffff1660e01b815260040160206040518083038186803b15801562000fcb57600080fd5b505afa15801562000fe0573d6000803e3d6000fd5b505050506040513d602081101562000ff757600080fd5b50516001600160a01b038616600081815260056020908152604091829020805460ff19169415159490941790935580516391bf9de960e01b8152905191926391bf9de992600480840193829003018186803b1580156200105657600080fd5b505afa1580156200106b573d6000803e3d6000fd5b505050506040513d60208110156200108257600080fd5b50516001600160a01b038616600081815260066020908152604091829020805460ff191694151594909417909355805163185ed83160e01b81529051919263185ed83192600480840193829003018186803b158015620010e157600080fd5b505afa158015620010f6573d6000803e3d6000fd5b505050506040513d60208110156200110d57600080fd5b50516001600160a01b03959095166000818152600760205260408120805460ff1916971515979097179096556008805460018101825596527ff3f7a9fe364faab93b216da50a3214154f22a0a2b415b23a84c8169e8b636ee390950180546001600160a01b03191690951790945550505050505050565b6002546001600160a01b031681565b6200119d62001754565b6000546001600160a01b03908116911614620011ef576040805162461bcd60e51b8152602060048201819052602482015260008051602062002ffd833981519152604482015290519081900360640190fd5b600080546040516001600160a01b03909116907f8be0079c531659141344cd1fd0a4f28419497f9722a3daafe3b4186f6b6457e0908390a3600080546001600160a01b0319169055565b3360009081526005602052604090205460ff1615156001146200128e5760405162461bcd60e51b815260040180806020018281038252602881526020018062002fab6028913960400191505060405180910390fd5b6000818152600460208190526040808320548151637d21ce4d60e01b81526001600160a01b03888116948201949094526024810187905291519216928392637d21ce4d92604480820193929182900301818387803b15801562000a2257600080fd5b620012fa62001754565b6000546001600160a01b039081169116146200134c576040805162461bcd60e51b8152602060048201819052602482015260008051602062002ffd833981519152604482015290519081900360640190fd5b6040516001600160a01b0383169082156108fc029083906000818181858888f1935050505015801562001383573d6000803e3d6000fd5b505050565b6000546001600160a01b031690565b3360009081526007602052604090205460ff161515600114620013ec5760405162461bcd60e51b815260040180806020018281038252602a81526020018062002fd3602a913960400191505060405180910390fd5b60006060846001600160a01b031684846040518082805190602001908083835b602083106200142d5780518252601f1990920191602091820191016200140c565b6001836020036101000a03801982511681845116808217855250505050505090500191505060006040518083038185875af1925050503d806000811462001491576040519150601f19603f3d011682016040523d82523d6000602084013e62001496565b606091505b5090925090508082620014db5760405162461bcd60e51b815260040180806020018281038252602f81526020018062002f7c602f913960400191505060405180910390fd5b505050505050565b620014ed62001754565b6000546001600160a01b039081169116146200153f576040805162461bcd60e51b8152602060048201819052602482015260008051602062002ffd833981519152604482015290519081900360640190fd5b6001600160a01b03166000908152600560205260409020805460ff19166001179055565b60076020526000908152604090205460ff1681565b600881815481106200158657fe5b6000918252602090912001546001600160a01b0316905081565b6004602052600090815260409020546001600160a01b031681565b60066020526000908152604090205460ff1681565b620015da62001754565b6000546001600160a01b039081169116146200162c576040805162461bcd60e51b8152602060048201819052602482015260008051602062002ffd833981519152604482015290519081900360640190fd5b6001600160a01b03166000908152600660205260409020805460ff19166001179055565b6200165a62001754565b6000546001600160a01b03908116911614620016ac576040805162461bcd60e51b8152602060048201819052602482015260008051602062002ffd833981519152604482015290519081900360640190fd5b6001600160a01b038116620016f35760405162461bcd60e51b815260040180806020018281038252602681526020018062002f566026913960400191505060405180910390fd5b600080546040516001600160a01b03808516939216917f8be0079c531659141344cd1fd0a4f28419497f9722a3daafe3b4186f6b6457e091a3600080546001600160a01b0319166001600160a01b0392909216919091179055565b60035481565b3390565b6117ef80620017678339019056fe60806040523480156200001157600080fd5b50604051620017ef380380620017ef833981810160405260c08110156200003757600080fd5b81019080805160405193929190846401000000008211156200005857600080fd5b9083019060208201858111156200006e57600080fd5b82516401000000008111828201881017156200008957600080fd5b82525081516020918201929091019080838360005b83811015620000b85781810151838201526020016200009e565b50505050905090810190601f168015620000e65780820380516001836020036101000a031916815260200191505b50604052602001805160405193929190846401000000008211156200010a57600080fd5b9083019060208201858111156200012057600080fd5b82516401000000008111828201881017156200013b57600080fd5b82525081516020918201929091019080838360005b838110156200016a57818101518382015260200162000150565b50505050905090810190601f168015620001985780820380516001836020036101000a031916815260200191505b5060409081526020820151908201516060830151608090930151919450925085856000620001ce6001600160e01b03620002d416565b600080546001600160a01b0319166001600160a01b0383169081178255604051929350917f8be0079c531659141344cd1fd0a4f28419497f9722a3daafe3b4186f6b6457e0908290a35081516200022d906004906020850190620004c6565b50805162000243906005906020840190620004c6565b505060068054601260ff1991821617909155600880549091168615151761ff00191661010086151502179055506007819055336001600160a01b038316148015906200029157506001831515145b15620002c857620002b482670de0b6b3a76400006001600160e01b03620002d916565b620002c8826001600160e01b03620003f516565b50505050505062000568565b335b90565b6001600160a01b03821662000335576040805162461bcd60e51b815260206004820152601f60248201527f45524332303a206d696e7420746f20746865207a65726f206164647265737300604482015290519081900360640190fd5b6200034c600083836001600160e01b036200044416565b62000368816003546200044960201b62000dc91790919060201c565b6003556001600160a01b0382166000908152600160209081526040909120546200039d91839062000dc962000449821b17901c565b6001600160a01b03831660008181526001602090815260408083209490945583518581529351929391927fddf252ad1be2c89b69c2b068fc378daa952ba7f163c4a11628f55a4df523b3ef9281900390910190a35050565b6001600160a01b038116600090815260096020526040812042905562000424826001600160e01b03620004ab16565b6001600160a01b039092166000908152600a602052604090209190915550565b505050565b600082820183811015620004a4576040805162461bcd60e51b815260206004820152601b60248201527f536166654d6174683a206164646974696f6e206f766572666c6f770000000000604482015290519081900360640190fd5b9392505050565b6001600160a01b031660009081526001602052604090205490565b828054600181600116156101000203166002900490600052602060002090601f016020900481019282601f106200050957805160ff191683800117855562000539565b8280016001018555821562000539579182015b82811115620005395782518255916020019190600101906200051c565b50620005479291506200054b565b5090565b620002d691905b8082111562000547576000815560010162000552565b61127780620005786000396000f3fe608060405234801561001057600080fd5b50600436106101425760003560e01c806384612324116100b857806396615aa31161007c57806396615aa3146103c1578063a457c2d7146103ed578063a9059cbb14610419578063d5abeb0114610445578063dd62ed3e1461044d578063f2fde38b1461047b57610142565b806384612324146103285780638da5cb5b1461034e5780638f50c3a21461037257806392ff0d31146103b157806395d89b41146103b957610142565b8063395093511161010a57806339509351146102725780636fcc7d571461029e57806370a08231146102c4578063715018a6146102ea578063782f085d146102f45780637d21ce4d146102fc57610142565b806306fdde0314610147578063095ea7b3146101c457806318160ddd1461020457806323b872dd1461021e578063313ce56714610254575b600080fd5b61014f6104a1565b6040805160208082528351818301528351919283929083019185019080838360005b83811015610189578181015183820152602001610171565b50505050905090810190601f1680156101b65780820380516001836020036101000a031916815260200191505b509250505060405180910390f35b6101f0600480360360408110156101da57600080fd5b506001600160a01b038135169060200135610537565b604080519115158252519081900360200190f35b61020c610555565b60408051918252519081900360200190f35b6101f06004803603606081101561023457600080fd5b506001600160a01b0381358116916020810135909116906040013561055b565b61025c6105e8565b6040805160ff9092168252519081900360200190f35b6101f06004803603604081101561028857600080fd5b506001600160a01b0381351690602001356105f1565b61020c600480360360208110156102b457600080fd5b50356001600160a01b0316610645565b61020c600480360360208110156102da57600080fd5b50356001600160a01b0316610657565b6102f2610672565b005b6101f0610714565b6102f26004803603604081101561031257600080fd5b506001600160a01b038135169060200135610722565b61020c6004803603602081101561033e57600080fd5b50356001600160a01b0316610807565b610356610819565b604080516001600160a01b039092168252519081900360200190f35b6103986004803603602081101561038857600080fd5b50356001600160a01b0316610828565b6040805192835260208301919091528051918290030190f35b6101f0610850565b61014f610859565b6102f2600480360360408110156103d757600080fd5b506001600160a01b0381351690602001356108ba565b6101f06004803603604081101561040357600080fd5b506001600160a01b038135169060200135610925565b6101f06004803603604081101561042f57600080fd5b506001600160a01b038135169060200135610993565b61020c6109c2565b61020c6004803603604081101561046357600080fd5b506001600160a01b03813581169160200135166109c8565b6102f26004803603602081101561049157600080fd5b50356001600160a01b03166109f3565b60048054604080516020601f600260001961010060018816150201909516949094049384018190048102820181019092528281526060939092909183018282801561052d5780601f106105025761010080835404028352916020019161052d565b820191906000526020600020905b81548152906001019060200180831161051057829003601f168201915b5050505050905090565b600061054b610544610aeb565b8484610aef565b5060015b92915050565b60035490565b6000610568848484610bdb565b6105de84610574610aeb565b6105d98560405180606001604052806028815260200161114b602891396001600160a01b038a166000908152600260205260408120906105b2610aeb565b6001600160a01b03168152602081019190915260400160002054919063ffffffff610d3216565b610aef565b5060019392505050565b60065460ff1690565b600061054b6105fe610aeb565b846105d9856002600061060f610aeb565b6001600160a01b03908116825260208083019390935260409182016000908120918c16815292529020549063ffffffff610dc916565b600a6020526000908152604090205481565b6001600160a01b031660009081526001602052604090205490565b61067a610aeb565b6000546001600160a01b039081169116146106ca576040805162461bcd60e51b81526020600482018190526024820152600080516020611173833981519152604482015290519081900360640190fd5b600080546040516001600160a01b03909116907f8be0079c531659141344cd1fd0a4f28419497f9722a3daafe3b4186f6b6457e0908390a3600080546001600160a01b0319169055565b600854610100900460ff1681565b61072a610aeb565b6000546001600160a01b0390811691161461077a576040805162461bcd60e51b81526020600482018190526024820152600080516020611173833981519152604482015290519081900360640190fd5b600754156107f05760075461079d82610791610555565b9063ffffffff610dc916565b11156107f0576040805162461bcd60e51b815260206004820152601e60248201527f4d617820746f74616c20737570706c79206c696d697420726561636865640000604482015290519081900360640190fd5b6107f982610e2a565b6108038282610e6e565b5050565b60096020526000908152604090205481565b6000546001600160a01b031690565b6001600160a01b0316600090815260096020908152604080832054600a909252909120549091565b60085460ff1681565b60058054604080516020601f600260001961010060018816150201909516949094049384018190048102820181019092528281526060939092909183018282801561052d5780601f106105025761010080835404028352916020019161052d565b6108c2610aeb565b6000546001600160a01b03908116911614610912576040805162461bcd60e51b81526020600482018190526024820152600080516020611173833981519152604482015290519081900360640190fd5b61091b82610e2a565b6108038282610f5a565b600061054b610932610aeb565b846105d98560405180606001604052806025815260200161121d602591396002600061095c610aeb565b6001600160a01b03908116825260208083019390935260409182016000908120918d1681529252902054919063ffffffff610d3216565b60085460009060ff166109a85750600061054f565b6109b183610e2a565b6109bb8383610993565b5092915050565b60075481565b6001600160a01b03918216600090815260026020908152604080832093909416825291909152205490565b6109fb610aeb565b6000546001600160a01b03908116911614610a4b576040805162461bcd60e51b81526020600482018190526024820152600080516020611173833981519152604482015290519081900360640190fd5b6001600160a01b038116610a905760405162461bcd60e51b81526004018080602001828103825260268152602001806110dd6026913960400191505060405180910390fd5b600080546040516001600160a01b03808516939216917f8be0079c531659141344cd1fd0a4f28419497f9722a3daafe3b4186f6b6457e091a3600080546001600160a01b0319166001600160a01b0392909216919091179055565b3390565b6001600160a01b038316610b345760405162461bcd60e51b81526004018080602001828103825260248152602001806111f96024913960400191505060405180910390fd5b6001600160a01b038216610b795760405162461bcd60e51b81526004018080602001828103825260228152602001806111036022913960400191505060405180910390fd5b6001600160a01b03808416600081815260026020908152604080832094871680845294825291829020859055815185815291517f8c5be1e5ebec7d5bd14f71427d1e84f3dd0314c0f7b2291e5b200ac8c7c3b9259281900390910190a3505050565b6001600160a01b038316610c205760405162461bcd60e51b81526004018080602001828103825260258152602001806111d46025913960400191505060405180910390fd5b6001600160a01b038216610c655760405162461bcd60e51b81526004018080602001828103825260238152602001806110986023913960400191505060405180910390fd5b610c70838383611050565b610cb381604051806060016040528060268152602001611125602691396001600160a01b038616600090815260016020526040902054919063ffffffff610d3216565b6001600160a01b038085166000908152600160205260408082209390935590841681522054610ce8908263ffffffff610dc916565b6001600160a01b03808416600081815260016020908152604091829020949094558051858152905191939287169260008051602061119383398151915292918290030190a3505050565b60008184841115610dc15760405162461bcd60e51b81526004018080602001828103825283818151815260200191508051906020019080838360005b83811015610d86578181015183820152602001610d6e565b50505050905090810190601f168015610db35780820380516001836020036101000a031916815260200191505b509250505060405180910390fd5b505050900390565b600082820183811015610e23576040805162461bcd60e51b815260206004820152601b60248201527f536166654d6174683a206164646974696f6e206f766572666c6f770000000000604482015290519081900360640190fd5b9392505050565b6001600160a01b0381166000908152600960205260408120429055610e4e82610657565b6001600160a01b039092166000908152600a602052604090209190915550565b6001600160a01b038216610ec9576040805162461bcd60e51b815260206004820152601f60248201527f45524332303a206d696e7420746f20746865207a65726f206164647265737300604482015290519081900360640190fd5b610ed560008383611050565b600354610ee8908263ffffffff610dc916565b6003556001600160a01b038216600090815260016020526040902054610f14908263ffffffff610dc916565b6001600160a01b03831660008181526001602090815260408083209490945583518581529351929391926000805160206111938339815191529281900390910190a35050565b6001600160a01b038216610f9f5760405162461bcd60e51b81526004018080602001828103825260218152602001806111b36021913960400191505060405180910390fd5b610fab82600083611050565b610fee816040518060600160405280602281526020016110bb602291396001600160a01b038516600090815260016020526040902054919063ffffffff610d3216565b6001600160a01b03831660009081526001602052604090205560035461101a908263ffffffff61105516565b6003556040805182815290516000916001600160a01b038516916000805160206111938339815191529181900360200190a35050565b505050565b6000610e2383836040518060400160405280601e81526020017f536166654d6174683a207375627472616374696f6e206f766572666c6f770000815250610d3256fe45524332303a207472616e7366657220746f20746865207a65726f206164647265737345524332303a206275726e20616d6f756e7420657863656564732062616c616e63654f776e61626c653a206e6577206f776e657220697320746865207a65726f206164647265737345524332303a20617070726f766520746f20746865207a65726f206164647265737345524332303a207472616e7366657220616d6f756e7420657863656564732062616c616e636545524332303a207472616e7366657220616d6f756e74206578636565647320616c6c6f77616e63654f776e61626c653a2063616c6c6572206973206e6f7420746865206f776e6572ddf252ad1be2c89b69c2b068fc378daa952ba7f163c4a11628f55a4df523b3ef45524332303a206275726e2066726f6d20746865207a65726f206164647265737345524332303a207472616e736665722066726f6d20746865207a65726f206164647265737345524332303a20617070726f76652066726f6d20746865207a65726f206164647265737345524332303a2064656372656173656420616c6c6f77616e63652062656c6f77207a65726fa26469706673582212207aafde04c608989a2c2a4d5eaafc51a1cf8ab756e1571cb1d1ef70730b3fc95064736f6c634300060600334f776e61626c653a206e6577206f776e657220697320746865207a65726f206164647265737364656c656761746546756e6374696f6e43616c6c204661696c65643a207374696c6c206e6f7420737572652077687943616c6c6572206973206e6f7420616e20617070726f766564204d696e746572206164647265737343616c6c6572206973206e6f7420616e20617070726f7665642044656c656761746520616464726573734f776e61626c653a2063616c6c6572206973206e6f7420746865206f776e657243616c6c6572206973206e6f7420616e20617070726f766564204275726e65722061646472657373a26469706673582212201351a6331eb1047c0a1db44469cfc4554fb9ec41d2627bec48b5d3f46ae91f5064736f6c6343000606003360806040523480156200001157600080fd5b50604051620017ef380380620017ef833981810160405260c08110156200003757600080fd5b81019080805160405193929190846401000000008211156200005857600080fd5b9083019060208201858111156200006e57600080fd5b82516401000000008111828201881017156200008957600080fd5b82525081516020918201929091019080838360005b83811015620000b85781810151838201526020016200009e565b50505050905090810190601f168015620000e65780820380516001836020036101000a031916815260200191505b50604052602001805160405193929190846401000000008211156200010a57600080fd5b9083019060208201858111156200012057600080fd5b82516401000000008111828201881017156200013b57600080fd5b82525081516020918201929091019080838360005b838110156200016a57818101518382015260200162000150565b50505050905090810190601f168015620001985780820380516001836020036101000a031916815260200191505b5060409081526020820151908201516060830151608090930151919450925085856000620001ce6001600160e01b03620002d416565b600080546001600160a01b0319166001600160a01b0383169081178255604051929350917f8be0079c531659141344cd1fd0a4f28419497f9722a3daafe3b4186f6b6457e0908290a35081516200022d906004906020850190620004c6565b50805162000243906005906020840190620004c6565b505060068054601260ff1991821617909155600880549091168615151761ff00191661010086151502179055506007819055336001600160a01b038316148015906200029157506001831515145b15620002c857620002b482670de0b6b3a76400006001600160e01b03620002d916565b620002c8826001600160e01b03620003f516565b50505050505062000568565b335b90565b6001600160a01b03821662000335576040805162461bcd60e51b815260206004820152601f60248201527f45524332303a206d696e7420746f20746865207a65726f206164647265737300604482015290519081900360640190fd5b6200034c600083836001600160e01b036200044416565b62000368816003546200044960201b62000dc91790919060201c565b6003556001600160a01b0382166000908152600160209081526040909120546200039d91839062000dc962000449821b17901c565b6001600160a01b03831660008181526001602090815260408083209490945583518581529351929391927fddf252ad1be2c89b69c2b068fc378daa952ba7f163c4a11628f55a4df523b3ef9281900390910190a35050565b6001600160a01b038116600090815260096020526040812042905562000424826001600160e01b03620004ab16565b6001600160a01b039092166000908152600a602052604090209190915550565b505050565b600082820183811015620004a4576040805162461bcd60e51b815260206004820152601b60248201527f536166654d6174683a206164646974696f6e206f766572666c6f770000000000604482015290519081900360640190fd5b9392505050565b6001600160a01b031660009081526001602052604090205490565b828054600181600116156101000203166002900490600052602060002090601f016020900481019282601f106200050957805160ff191683800117855562000539565b8280016001018555821562000539579182015b82811115620005395782518255916020019190600101906200051c565b50620005479291506200054b565b5090565b620002d691905b8082111562000547576000815560010162000552565b61127780620005786000396000f3fe608060405234801561001057600080fd5b50600436106101425760003560e01c806384612324116100b857806396615aa31161007c57806396615aa3146103c1578063a457c2d7146103ed578063a9059cbb14610419578063d5abeb0114610445578063dd62ed3e1461044d578063f2fde38b1461047b57610142565b806384612324146103285780638da5cb5b1461034e5780638f50c3a21461037257806392ff0d31146103b157806395d89b41146103b957610142565b8063395093511161010a57806339509351146102725780636fcc7d571461029e57806370a08231146102c4578063715018a6146102ea578063782f085d146102f45780637d21ce4d146102fc57610142565b806306fdde0314610147578063095ea7b3146101c457806318160ddd1461020457806323b872dd1461021e578063313ce56714610254575b600080fd5b61014f6104a1565b6040805160208082528351818301528351919283929083019185019080838360005b83811015610189578181015183820152602001610171565b50505050905090810190601f1680156101b65780820380516001836020036101000a031916815260200191505b509250505060405180910390f35b6101f0600480360360408110156101da57600080fd5b506001600160a01b038135169060200135610537565b604080519115158252519081900360200190f35b61020c610555565b60408051918252519081900360200190f35b6101f06004803603606081101561023457600080fd5b506001600160a01b0381358116916020810135909116906040013561055b565b61025c6105e8565b6040805160ff9092168252519081900360200190f35b6101f06004803603604081101561028857600080fd5b506001600160a01b0381351690602001356105f1565b61020c600480360360208110156102b457600080fd5b50356001600160a01b0316610645565b61020c600480360360208110156102da57600080fd5b50356001600160a01b0316610657565b6102f2610672565b005b6101f0610714565b6102f26004803603604081101561031257600080fd5b506001600160a01b038135169060200135610722565b61020c6004803603602081101561033e57600080fd5b50356001600160a01b0316610807565b610356610819565b604080516001600160a01b039092168252519081900360200190f35b6103986004803603602081101561038857600080fd5b50356001600160a01b0316610828565b6040805192835260208301919091528051918290030190f35b6101f0610850565b61014f610859565b6102f2600480360360408110156103d757600080fd5b506001600160a01b0381351690602001356108ba565b6101f06004803603604081101561040357600080fd5b506001600160a01b038135169060200135610925565b6101f06004803603604081101561042f57600080fd5b506001600160a01b038135169060200135610993565b61020c6109c2565b61020c6004803603604081101561046357600080fd5b506001600160a01b03813581169160200135166109c8565b6102f26004803603602081101561049157600080fd5b50356001600160a01b03166109f3565b60048054604080516020601f600260001961010060018816150201909516949094049384018190048102820181019092528281526060939092909183018282801561052d5780601f106105025761010080835404028352916020019161052d565b820191906000526020600020905b81548152906001019060200180831161051057829003601f168201915b5050505050905090565b600061054b610544610aeb565b8484610aef565b5060015b92915050565b60035490565b6000610568848484610bdb565b6105de84610574610aeb565b6105d98560405180606001604052806028815260200161114b602891396001600160a01b038a166000908152600260205260408120906105b2610aeb565b6001600160a01b03168152602081019190915260400160002054919063ffffffff610d3216565b610aef565b5060019392505050565b60065460ff1690565b600061054b6105fe610aeb565b846105d9856002600061060f610aeb565b6001600160a01b03908116825260208083019390935260409182016000908120918c16815292529020549063ffffffff610dc916565b600a6020526000908152604090205481565b6001600160a01b031660009081526001602052604090205490565b61067a610aeb565b6000546001600160a01b039081169116146106ca576040805162461bcd60e51b81526020600482018190526024820152600080516020611173833981519152604482015290519081900360640190fd5b600080546040516001600160a01b03909116907f8be0079c531659141344cd1fd0a4f28419497f9722a3daafe3b4186f6b6457e0908390a3600080546001600160a01b0319169055565b600854610100900460ff1681565b61072a610aeb565b6000546001600160a01b0390811691161461077a576040805162461bcd60e51b81526020600482018190526024820152600080516020611173833981519152604482015290519081900360640190fd5b600754156107f05760075461079d82610791610555565b9063ffffffff610dc916565b11156107f0576040805162461bcd60e51b815260206004820152601e60248201527f4d617820746f74616c20737570706c79206c696d697420726561636865640000604482015290519081900360640190fd5b6107f982610e2a565b6108038282610e6e565b5050565b60096020526000908152604090205481565b6000546001600160a01b031690565b6001600160a01b0316600090815260096020908152604080832054600a909252909120549091565b60085460ff1681565b60058054604080516020601f600260001961010060018816150201909516949094049384018190048102820181019092528281526060939092909183018282801561052d5780601f106105025761010080835404028352916020019161052d565b6108c2610aeb565b6000546001600160a01b03908116911614610912576040805162461bcd60e51b81526020600482018190526024820152600080516020611173833981519152604482015290519081900360640190fd5b61091b82610e2a565b6108038282610f5a565b600061054b610932610aeb565b846105d98560405180606001604052806025815260200161121d602591396002600061095c610aeb565b6001600160a01b03908116825260208083019390935260409182016000908120918d1681529252902054919063ffffffff610d3216565b60085460009060ff166109a85750600061054f565b6109b183610e2a565b6109bb8383610993565b5092915050565b60075481565b6001600160a01b03918216600090815260026020908152604080832093909416825291909152205490565b6109fb610aeb565b6000546001600160a01b03908116911614610a4b576040805162461bcd60e51b81526020600482018190526024820152600080516020611173833981519152604482015290519081900360640190fd5b6001600160a01b038116610a905760405162461bcd60e51b81526004018080602001828103825260268152602001806110dd6026913960400191505060405180910390fd5b600080546040516001600160a01b03808516939216917f8be0079c531659141344cd1fd0a4f28419497f9722a3daafe3b4186f6b6457e091a3600080546001600160a01b0319166001600160a01b0392909216919091179055565b3390565b6001600160a01b038316610b345760405162461bcd60e51b81526004018080602001828103825260248152602001806111f96024913960400191505060405180910390fd5b6001600160a01b038216610b795760405162461bcd60e51b81526004018080602001828103825260228152602001806111036022913960400191505060405180910390fd5b6001600160a01b03808416600081815260026020908152604080832094871680845294825291829020859055815185815291517f8c5be1e5ebec7d5bd14f71427d1e84f3dd0314c0f7b2291e5b200ac8c7c3b9259281900390910190a3505050565b6001600160a01b038316610c205760405162461bcd60e51b81526004018080602001828103825260258152602001806111d46025913960400191505060405180910390fd5b6001600160a01b038216610c655760405162461bcd60e51b81526004018080602001828103825260238152602001806110986023913960400191505060405180910390fd5b610c70838383611050565b610cb381604051806060016040528060268152602001611125602691396001600160a01b038616600090815260016020526040902054919063ffffffff610d3216565b6001600160a01b038085166000908152600160205260408082209390935590841681522054610ce8908263ffffffff610dc916565b6001600160a01b03808416600081815260016020908152604091829020949094558051858152905191939287169260008051602061119383398151915292918290030190a3505050565b60008184841115610dc15760405162461bcd60e51b81526004018080602001828103825283818151815260200191508051906020019080838360005b83811015610d86578181015183820152602001610d6e565b50505050905090810190601f168015610db35780820380516001836020036101000a031916815260200191505b509250505060405180910390fd5b505050900390565b600082820183811015610e23576040805162461bcd60e51b815260206004820152601b60248201527f536166654d6174683a206164646974696f6e206f766572666c6f770000000000604482015290519081900360640190fd5b9392505050565b6001600160a01b0381166000908152600960205260408120429055610e4e82610657565b6001600160a01b039092166000908152600a602052604090209190915550565b6001600160a01b038216610ec9576040805162461bcd60e51b815260206004820152601f60248201527f45524332303a206d696e7420746f20746865207a65726f206164647265737300604482015290519081900360640190fd5b610ed560008383611050565b600354610ee8908263ffffffff610dc916565b6003556001600160a01b038216600090815260016020526040902054610f14908263ffffffff610dc916565b6001600160a01b03831660008181526001602090815260408083209490945583518581529351929391926000805160206111938339815191529281900390910190a35050565b6001600160a01b038216610f9f5760405162461bcd60e51b81526004018080602001828103825260218152602001806111b36021913960400191505060405180910390fd5b610fab82600083611050565b610fee816040518060600160405280602281526020016110bb602291396001600160a01b038516600090815260016020526040902054919063ffffffff610d3216565b6001600160a01b03831660009081526001602052604090205560035461101a908263ffffffff61105516565b6003556040805182815290516000916001600160a01b038516916000805160206111938339815191529181900360200190a35050565b505050565b6000610e2383836040518060400160405280601e81526020017f536166654d6174683a207375627472616374696f6e206f766572666c6f770000815250610d3256fe45524332303a207472616e7366657220746f20746865207a65726f206164647265737345524332303a206275726e20616d6f756e7420657863656564732062616c616e63654f776e61626c653a206e6577206f776e657220697320746865207a65726f206164647265737345524332303a20617070726f766520746f20746865207a65726f206164647265737345524332303a207472616e7366657220616d6f756e7420657863656564732062616c616e636545524332303a207472616e7366657220616d6f756e74206578636565647320616c6c6f77616e63654f776e61626c653a2063616c6c6572206973206e6f7420746865206f776e6572ddf252ad1be2c89b69c2b068fc378daa952ba7f163c4a11628f55a4df523b3ef45524332303a206275726e2066726f6d20746865207a65726f206164647265737345524332303a207472616e736665722066726f6d20746865207a65726f206164647265737345524332303a20617070726f76652066726f6d20746865207a65726f206164647265737345524332303a2064656372656173656420616c6c6f77616e63652062656c6f77207a65726fa26469706673582212207aafde04c608989a2c2a4d5eaafc51a1cf8ab756e1571cb1d1ef70730b3fc95064736f6c6343000606003317ef568e3e12ab5b9c7254a8d58478811de00f9e6eb34345acd53bf8fd09d3eca2646970667358221220615d9289d83424009a27893a03bb308c52f2debd26df0f256a8f8332156665aa64736f6c63430006060033",
  "immutableReferences": {},
  "source": "pragma solidity ^0.6.2;\npragma experimental ABIEncoderV2;\n\nimport \"./Cortex.sol\";\nimport \"./Hippocampus.sol\";\nimport \"@openzeppelin/contracts/access/Ownable.sol\";\n\n////////////////////////////////////////////////////////////////////////////////////////////\n/// @title Matrix\n/// @author Christopher Dixon\n////////////////////////////////////////////////////////////////////////////////////////////\n/**\nThe Matrix contract is designed to produce and track individual ZDAO contracts\n**/\n\ncontract Matrix is Ownable, Hippocampus {\n    /// @notice cortexTracker is used to track a DAO's name to its address\n    mapping(string => address) public cortexTracker;\n    /// @notice nameTaken is used to track whether or not a DAO exists with a certain name\n    mapping(string => bool) public nameTaken;\n\n    event CortexCreated(address _cortexAdd, string _cotexName);\n\n    /**\n    @notice the constructor is fired only once during contract creation and is used to set up variables in the contract\n    @param _NeuronNames is an array of all availible core neuron names availible at deployment time\n    @param _initialCoreNeurons is an array of all availible core neuron addresses availible at deployment time\n    **/\n    constructor(\n        string[] memory _NeuronNames,\n        address[] memory _initialCoreNeurons\n    ) public {\n        require(\n            _NeuronNames.length == _initialCoreNeurons.length,\n            \"Error: Array Length Mismatch\"\n        );\n        for (uint256 i = 0; i < _initialCoreNeurons.length; ++i) {\n            neuralNetwork[_NeuronNames[i]] = _initialCoreNeurons[i];\n            isNeuron[_initialCoreNeurons[i]] = true;\n            neuralID[i] = _initialCoreNeurons[i];\n            coreNeurons.push(_initialCoreNeurons[i]);\n            neuronCount = i;\n        }\n    }\n\n    /**\n     @notice createCortex is a public function that allows a user to create their own zDAO\n     @dev this function can create a rep token for the new DAO OR use an existing ERC20 token\n     @param _CortexName is the name of the DAO being created\n     @param _tokenName is the name of the DAO's rep token(leave blank if using an existing token)\n     @param _tokenSym is the symbol of the DAO's rep token(leave blank if using an existing token)\n     @param _synaps is the address of an existing ERC20 token that can represent the DAO's rep\n                (this would be set to 0x0 if not applicapble)\n     @param _isTransferable is a bool representing whether or not the rep token is transferable\n    **/\n    function createCortex(\n        string memory _CortexName,\n        string memory _tokenName,\n        string memory _tokenSym,\n        address _synaps,\n        bool _isTransferable,\n        uint256 _maxSupply\n    ) public {\n        require(\n            nameTaken[_CortexName] != true,\n            \"Name Error: This DAO name is already taken\"\n        );\n\n        Cortex newCortex;\n\n        if (_synaps == 0x0000000000000000000000000000000000000000) {\n            newCortex = new Cortex(\n                _CortexName,\n                address(this),\n                _tokenName,\n                _tokenSym,\n                0x0000000000000000000000000000000000000000,\n                msg.sender,\n                _isTransferable,\n                _maxSupply\n            );\n            cortexTracker[_CortexName] = address(newCortex);\n            newCortex.addMinter(address(newCortex));\n            newCortex.addBurner(address(newCortex));\n            newCortex.transferOwnership(msg.sender);\n        } else {\n            newCortex = new Cortex(\n                _CortexName,\n                address(this),\n                _tokenName,\n                _tokenSym,\n                _synaps,\n                msg.sender,\n                _isTransferable,\n                _maxSupply\n            );\n            cortexTracker[_CortexName] = address(newCortex);\n            newCortex.transferOwnership(msg.sender);\n        }\n\n        nameTaken[_CortexName] = true;\n        emit CortexCreated(address(newCortex), _CortexName);\n    }\n\n    /**\n     @notice retrieveCortex is used to retrieve a Cortex's address by its name\n     @dev this is a view only function for front end use\n     @param _Name is the name of the Cortex who's address is being retrieved\n     @return the address of the Cortex\n    **/\n    function retrieveCortex(string memory _Name) public view returns (address) {\n        return cortexTracker[_Name];\n    }\n\n    /**\n     @notice cortexNameTaken is used to determine if a name for a Cortex is currently in use\n     @dev this is a view only function for front end use\n     @param _Name is the proposed name of a Cortex\n     @return a bool(true/false) for whether or not a Cortex with the input name exists\n    **/\n    function cortexNameTaken(string memory _Name) public view returns (bool) {\n        return nameTaken[_Name];\n    }\n}\n",
  "sourcePath": "/home/stan36/repos/zer0/ZDAO/contracts/Matrix.sol",
  "compiler": {
    "name": "solc",
    "version": "0.6.6+commit.6c089d02.Emscripten.clang"
  },
  "schemaVersion": "3.3.2",
  "updatedAt": "2021-01-22T01:11:09.211Z",
  "devdoc": {
    "methods": {
      "constructor": {
        "params": {
          "_NeuronNames": "is an array of all availible core neuron names availible at deployment time",
          "_initialCoreNeurons": "is an array of all availible core neuron addresses availible at deployment time*"
        }
      },
      "cortexNameTaken(string)": {
        "details": "this is a view only function for front end use",
        "params": {
          "_Name": "is the proposed name of a Cortex"
        },
        "returns": {
          "_0": "a bool(true/false) for whether or not a Cortex with the input name exists*"
        }
      },
      "createCortex(string,string,string,address,bool,uint256)": {
        "details": "this function can create a rep token for the new DAO OR use an existing ERC20 token",
        "params": {
          "_CortexName": "is the name of the DAO being created",
          "_isTransferable": "is a bool representing whether or not the rep token is transferable*",
          "_synaps": "is the address of an existing ERC20 token that can represent the DAO's rep (this would be set to 0x0 if not applicapble)",
          "_tokenName": "is the name of the DAO's rep token(leave blank if using an existing token)",
          "_tokenSym": "is the symbol of the DAO's rep token(leave blank if using an existing token)"
        }
      },
      "owner()": {
        "details": "Returns the address of the current owner."
      },
      "renounceOwnership()": {
        "details": "Leaves the contract without owner. It will not be possible to call `onlyOwner` functions anymore. Can only be called by the current owner.     * NOTE: Renouncing ownership will leave the contract without an owner, thereby removing any functionality that is only available to the owner."
      },
      "retrieveCortex(string)": {
        "details": "this is a view only function for front end use",
        "params": {
          "_Name": "is the name of the Cortex who's address is being retrieved"
        },
        "returns": {
          "_0": "the address of the Cortex*"
        }
      },
      "transferOwnership(address)": {
        "details": "Transfers ownership of the contract to a new account (`newOwner`). Can only be called by the current owner."
      }
    }
  },
  "userdoc": {
    "methods": {
      "constructor": "the constructor is fired only once during contract creation and is used to set up variables in the contract",
      "cortexNameTaken(string)": {
        "notice": "cortexNameTaken is used to determine if a name for a Cortex is currently in use"
      },
      "createCortex(string,string,string,address,bool,uint256)": {
        "notice": "createCortex is a public function that allows a user to create their own zDAO"
      },
      "retrieveCortex(string)": {
        "notice": "retrieveCortex is used to retrieve a Cortex's address by its name"
      }
    },
    "notice": "The Matrix contract is designed to produce and track individual ZDAO contracts*"
  }
}