{
  "contractName": "Matrix",
  "abi": [
    {
      "inputs": [
        {
          "internalType": "string[]",
          "name": "_NeuronNames",
          "type": "string[]"
        },
        {
          "internalType": "address[]",
          "name": "_initialCoreNeurons",
          "type": "address[]"
        }
      ],
      "stateMutability": "nonpayable",
      "type": "constructor"
    },
    {
      "anonymous": false,
      "inputs": [
        {
          "indexed": false,
          "internalType": "address",
          "name": "_cortexAdd",
          "type": "address"
        },
        {
          "indexed": false,
          "internalType": "string",
          "name": "_cotexName",
          "type": "string"
        }
      ],
      "name": "CortexCreated",
      "type": "event"
    },
    {
      "anonymous": false,
      "inputs": [
        {
          "indexed": true,
          "internalType": "address",
          "name": "previousOwner",
          "type": "address"
        },
        {
          "indexed": true,
          "internalType": "address",
          "name": "newOwner",
          "type": "address"
        }
      ],
      "name": "OwnershipTransferred",
      "type": "event"
    },
    {
      "inputs": [
        {
          "internalType": "address",
          "name": "_Cortex",
          "type": "address"
        },
        {
          "internalType": "string",
          "name": "_neuronName",
          "type": "string"
        }
      ],
      "name": "_neuroGensis",
      "outputs": [
        {
          "internalType": "address",
          "name": "",
          "type": "address"
        }
      ],
      "stateMutability": "nonpayable",
      "type": "function"
    },
    {
      "inputs": [
        {
          "internalType": "string",
          "name": "_NeuronName",
          "type": "string"
        },
        {
          "internalType": "address",
          "name": "_neuronFactoryAddress",
          "type": "address"
        }
      ],
      "name": "addCoreNueron",
      "outputs": [],
      "stateMutability": "nonpayable",
      "type": "function"
    },
    {
      "inputs": [
        {
          "internalType": "string",
          "name": "_NeuronName",
          "type": "string"
        },
        {
          "internalType": "address",
          "name": "_neuronFactoryAddress",
          "type": "address"
        }
      ],
      "name": "addPeripheralNueron",
      "outputs": [],
      "stateMutability": "nonpayable",
      "type": "function"
    },
    {
      "inputs": [
        {
          "internalType": "uint256",
          "name": "",
          "type": "uint256"
        }
      ],
      "name": "coreNeurons",
      "outputs": [
        {
          "internalType": "address",
          "name": "",
          "type": "address"
        }
      ],
      "stateMutability": "view",
      "type": "function"
    },
    {
      "inputs": [
        {
          "internalType": "string",
          "name": "",
          "type": "string"
        }
      ],
      "name": "cortexTracker",
      "outputs": [
        {
          "internalType": "address",
          "name": "",
          "type": "address"
        }
      ],
      "stateMutability": "view",
      "type": "function"
    },
    {
      "inputs": [
        {
          "internalType": "address",
          "name": "",
          "type": "address"
        }
      ],
      "name": "isNeuron",
      "outputs": [
        {
          "internalType": "bool",
          "name": "",
          "type": "bool"
        }
      ],
      "stateMutability": "view",
      "type": "function"
    },
    {
      "inputs": [
        {
          "internalType": "string",
          "name": "",
          "type": "string"
        }
      ],
      "name": "nameTaken",
      "outputs": [
        {
          "internalType": "bool",
          "name": "",
          "type": "bool"
        }
      ],
      "stateMutability": "view",
      "type": "function"
    },
    {
      "inputs": [
        {
          "internalType": "address",
          "name": "",
          "type": "address"
        },
        {
          "internalType": "uint256",
          "name": "",
          "type": "uint256"
        }
      ],
      "name": "neuralMapFromCortex",
      "outputs": [
        {
          "internalType": "address",
          "name": "",
          "type": "address"
        }
      ],
      "stateMutability": "view",
      "type": "function"
    },
    {
      "inputs": [
        {
          "internalType": "address",
          "name": "",
          "type": "address"
        }
      ],
      "name": "neuralMapToCortex",
      "outputs": [
        {
          "internalType": "address",
          "name": "",
          "type": "address"
        }
      ],
      "stateMutability": "view",
      "type": "function"
    },
    {
      "inputs": [
        {
          "internalType": "string",
          "name": "",
          "type": "string"
        }
      ],
      "name": "neuralNetwork",
      "outputs": [
        {
          "internalType": "address",
          "name": "",
          "type": "address"
        }
      ],
      "stateMutability": "view",
      "type": "function"
    },
    {
      "inputs": [],
      "name": "owner",
      "outputs": [
        {
          "internalType": "address",
          "name": "",
          "type": "address"
        }
      ],
      "stateMutability": "view",
      "type": "function"
    },
    {
      "inputs": [
        {
          "internalType": "uint256",
          "name": "",
          "type": "uint256"
        }
      ],
      "name": "peripheralNeurons",
      "outputs": [
        {
          "internalType": "address",
          "name": "",
          "type": "address"
        }
      ],
      "stateMutability": "view",
      "type": "function"
    },
    {
      "inputs": [],
      "name": "renounceOwnership",
      "outputs": [],
      "stateMutability": "nonpayable",
      "type": "function"
    },
    {
      "inputs": [
        {
          "internalType": "address",
          "name": "newOwner",
          "type": "address"
        }
      ],
      "name": "transferOwnership",
      "outputs": [],
      "stateMutability": "nonpayable",
      "type": "function"
    },
    {
      "inputs": [
        {
          "internalType": "string",
          "name": "_CortexName",
          "type": "string"
        },
        {
          "internalType": "string",
          "name": "_tokenName",
          "type": "string"
        },
        {
          "internalType": "string",
          "name": "_tokenSym",
          "type": "string"
        },
        {
          "internalType": "address",
          "name": "_synaps",
          "type": "address"
        },
        {
          "internalType": "bool",
          "name": "_isTransferable",
          "type": "bool"
        },
        {
          "internalType": "uint256",
          "name": "_maxSupply",
          "type": "uint256"
        }
      ],
      "name": "createCortex",
      "outputs": [],
      "stateMutability": "nonpayable",
      "type": "function"
    },
    {
      "inputs": [
        {
          "internalType": "string",
          "name": "_Name",
          "type": "string"
        }
      ],
      "name": "retrieveCortex",
      "outputs": [
        {
          "internalType": "address",
          "name": "",
          "type": "address"
        }
      ],
      "stateMutability": "view",
      "type": "function"
    },
    {
      "inputs": [
        {
          "internalType": "string",
          "name": "_Name",
          "type": "string"
        }
      ],
      "name": "cortexNameTaken",
      "outputs": [
        {
          "internalType": "bool",
          "name": "",
          "type": "bool"
        }
      ],
      "stateMutability": "view",
      "type": "function"
    },
    {
      "inputs": [
        {
          "internalType": "string",
          "name": "_tokenName",
          "type": "string"
        },
        {
          "internalType": "string",
          "name": "_tokenSym",
          "type": "string"
        },
        {
          "internalType": "address",
          "name": "_Creator",
          "type": "address"
        },
        {
          "internalType": "address",
          "name": "_bondingCurve",
          "type": "address"
        },
        {
          "internalType": "uint256",
          "name": "_maxSupply",
          "type": "uint256"
        }
      ],
      "name": "createSynaps",
      "outputs": [],
      "stateMutability": "nonpayable",
      "type": "function"
    }
  ],
  "bytecode": "0x60806040523480156200001157600080fd5b50604051620093f5380380620093f583398101604081905262000034916200027b565b6000620000496001600160e01b03620001ea16565b600080546001600160a01b0319166001600160a01b0383169081178255604051929350917f8be0079c531659141344cd1fd0a4f28419497f9722a3daafe3b4186f6b6457e0908290a3508051825114620000c05760405162461bcd60e51b8152600401620000b79062000394565b60405180910390fd5b60005b8151811015620001e157818181518110620000da57fe5b60200260200101516001848381518110620000f157fe5b602002602001015160405162000108919062000376565b908152602001604051809103902060006101000a8154816001600160a01b0302191690836001600160a01b031602179055506001600260008484815181106200014d57fe5b60200260200101516001600160a01b03166001600160a01b0316815260200190815260200160002060006101000a81548160ff02191690831515021790555060058282815181106200019b57fe5b60209081029190910181015182546001808201855560009485529290932090920180546001600160a01b0319166001600160a01b039093169290921790915501620000c3565b50505062000469565b3390565b600082601f830112620001ff578081fd5b8151620002166200021082620003f2565b620003cb565b8181529150602080830190848101818402860182018710156200023857600080fd5b6000805b858110156200026f5782516001600160a01b03811681146200025c578283fd5b855293830193918301916001016200023c565b50505050505092915050565b60008060408084860312156200028f578283fd5b83516001600160401b0380821115620002a6578485fd5b81860187601f820112620002b8578586fd5b80519250620002cb6200021084620003f2565b83815260208082019190838101895b878110156200034357815186018d603f820112620002f6578b8cfd5b8381015162000309620002108262000412565b8181528f8c8385010111156200031d578d8efd5b6200032e828783018e860162000436565b875250509382019390820190600101620002da565b505089015190975094505050808311156200035c578384fd5b50506200036c85828601620001ee565b9150509250929050565b600082516200038a81846020870162000436565b9190910192915050565b6020808252601c908201527f4572726f723a204172726179204c656e677468204d69736d6174636800000000604082015260600190565b6040518181016001600160401b0381118282101715620003ea57600080fd5b604052919050565b60006001600160401b0382111562000408578081fd5b5060209081020190565b60006001600160401b0382111562000428578081fd5b50601f01601f191660200190565b60005b838110156200045357818101518382015260200162000439565b8381111562000463576000848401525b50505050565b618f7c80620004796000396000f3fe60806040523480156200001157600080fd5b50600436106200010c5760003560e01c8063715018a6116200009f578063715018a614620001fa5780637ae79ff314620002045780638da5cb5b146200021b57806391fc437e1462000225578063a26d91df146200024b578063bdafc7881462000262578063c50e154c1462000279578063d0a087c81462000290578063f2fde38b14620002a7576200010c565b8063087c485514620001115780632312898814620001405780633b9a0bdd14620001595780633f21672e14620001705780634e09a6ed146200018757806352ba7178146200019e5780635d70bbe114620001b55780636161e0ad14620001cc57806361a6b1f914620001e3575b600080fd5b620001286200012236600462000c12565b620002be565b60405162000137919062000f31565b60405180910390f35b620001576200015136600462000d18565b620002d9565b005b620001286200016a36600462000ecc565b62000400565b620001286200018136600462000cd9565b62000428565b620001286200019836600462000c57565b6200044e565b62000128620001af36600462000cab565b62000553565b62000128620001c636600462000cd9565b62000589565b62000157620001dd36600462000d18565b620005af565b62000128620001f436600462000ecc565b62000693565b62000157620006a1565b620001576200021536600462000d6e565b62000725565b6200012862000774565b6200023c6200023636600462000cd9565b62000783565b60405162000137919062000f6b565b620001286200025c36600462000cd9565b620007a3565b6200023c6200027336600462000c12565b620007d7565b620001576200028a36600462000e07565b620007ec565b6200023c620002a136600462000cd9565b62000a84565b62000157620002b836600462000c12565b62000ab2565b6003602052600090815260409020546001600160a01b031681565b620002e362000b70565b6000546001600160a01b039081169116146200031c5760405162461bcd60e51b81526004016200031390620010c6565b60405180910390fd5b6001826040516200032e919062000f13565b908152604051908190036020019020546001600160a01b031615620003675760405162461bcd60e51b8152600401620003139062001094565b806001836040516200037a919062000f13565b908152604080516020928190038301902080546001600160a01b03199081166001600160a01b03958616179091559390921660008181526002909252918120805460ff191660019081179091556005805491820181559091527f036b6384b5eca791c62761152d0c79bb0604c104a5fb6f4eb0703f3154bb3db001805490921617905550565b600681815481106200040e57fe5b6000918252602090912001546001600160a01b0316905081565b80516020818301810180516007825292820191909301209152546001600160a01b031681565b60008060018360405162000463919062000f13565b90815260405190819003602001812054637722250960e01b82526001600160a01b031691506000908290637722250990620004a390889060040162000f31565b602060405180830381600087803b158015620004be57600080fd5b505af1158015620004d3573d6000803e3d6000fd5b505050506040513d601f19601f82011682018060405250810190620004f9919062000c38565b6001600160a01b0380821660008181526003602090815260408083208054958c166001600160a01b031996871681179091558352600482528220805460018101825590835291200180549092161790559250505092915050565b600460205281600052604060002081815481106200056d57fe5b6000918252602090912001546001600160a01b03169150829050565b80516020818301810180516001825292820191909301209152546001600160a01b031681565b600182604051620005c1919062000f13565b908152604051908190036020019020546001600160a01b031615620005fa5760405162461bcd60e51b8152600401620003139062001094565b806001836040516200060d919062000f13565b908152604080516020928190038301902080546001600160a01b03199081166001600160a01b03958616179091559390921660008181526002909252918120805460ff191660019081179091556006805491820181559091527ff652222313e28459528d920b65115c16c04f3efc82aaedc97be59f3f377c0d3f01805490921617905550565b600581815481106200040e57fe5b620006ab62000b70565b6000546001600160a01b03908116911614620006db5760405162461bcd60e51b81526004016200031390620010c6565b600080546040516001600160a01b03909116907f8be0079c531659141344cd1fd0a4f28419497f9722a3daafe3b4186f6b6457e0908390a3600080546001600160a01b0319169055565b8484600160008686866040516200073c9062000b74565b6200074e979695949392919062000ff0565b604051809103906000f0801580156200076b573d6000803e3d6000fd5b50505050505050565b6000546001600160a01b031690565b805160208183018101805160088252928201919093012091525460ff1681565b6000600782604051620007b7919062000f13565b908152604051908190036020019020546001600160a01b03169050919050565b60026020526000908152604090205460ff1681565b600886604051620007fe919062000f13565b9081526040519081900360200190205460ff16151560011415620008365760405162461bcd60e51b81526004016200031390620010fb565b60006001600160a01b0384166200092d578630878760003388886040516200085e9062000b82565b6200087198979695949392919062000f76565b604051809103906000f0801580156200088e573d6000803e3d6000fd5b50905080600788604051620008a4919062000f13565b90815260405190819003602001812080546001600160a01b039384166001600160a01b031990911617905563f2fde38b60e01b81529082169063f2fde38b90620008f390339060040162000f31565b600060405180830381600087803b1580156200090e57600080fd5b505af115801562000923573d6000803e3d6000fd5b5050505062000a0d565b8630878787338888604051620009439062000b82565b6200095698979695949392919062000f76565b604051809103906000f08015801562000973573d6000803e3d6000fd5b5090508060078860405162000989919062000f13565b90815260405190819003602001812080546001600160a01b039384166001600160a01b031990911617905563f2fde38b60e01b81529082169063f2fde38b90620009d890339060040162000f31565b600060405180830381600087803b158015620009f357600080fd5b505af115801562000a08573d6000803e3d6000fd5b505050505b600160088860405162000a21919062000f13565b908152604051908190036020018120805492151560ff19909316929092179091557f6361531792c6d1906d164766ab4d654d52625a08c50ff690efa5935b8de2d0599062000a739083908a9062000f45565b60405180910390a150505050505050565b600060088260405162000a98919062000f13565b9081526040519081900360200190205460ff169050919050565b62000abc62000b70565b6000546001600160a01b0390811691161462000aec5760405162461bcd60e51b81526004016200031390620010c6565b6001600160a01b03811662000b155760405162461bcd60e51b815260040162000313906200104e565b600080546040516001600160a01b03808516939216917f8be0079c531659141344cd1fd0a4f28419497f9722a3daafe3b4186f6b6457e091a3600080546001600160a01b0319166001600160a01b0392909216919091179055565b3390565b611969806200119283390190565b61644c8062002afb83390190565b600082601f83011262000ba1578081fd5b813567ffffffffffffffff8082111562000bb9578283fd5b604051601f8301601f19168101602001828111828210171562000bda578485fd5b60405282815292508284830160200186101562000bf657600080fd5b8260208601602083013760006020848301015250505092915050565b60006020828403121562000c24578081fd5b813562000c318162001178565b9392505050565b60006020828403121562000c4a578081fd5b815162000c318162001178565b6000806040838503121562000c6a578081fd5b823562000c778162001178565b9150602083013567ffffffffffffffff81111562000c93578182fd5b62000ca18582860162000b90565b9150509250929050565b6000806040838503121562000cbe578182fd5b823562000ccb8162001178565b946020939093013593505050565b60006020828403121562000ceb578081fd5b813567ffffffffffffffff81111562000d02578182fd5b62000d108482850162000b90565b949350505050565b6000806040838503121562000d2b578182fd5b823567ffffffffffffffff81111562000d42578283fd5b62000d508582860162000b90565b925050602083013562000d638162001178565b809150509250929050565b600080600080600060a0868803121562000d86578081fd5b853567ffffffffffffffff8082111562000d9e578283fd5b62000dac89838a0162000b90565b9650602088013591508082111562000dc2578283fd5b5062000dd18882890162000b90565b945050604086013562000de48162001178565b9250606086013562000df68162001178565b949793965091946080013592915050565b60008060008060008060c0878903121562000e20578081fd5b863567ffffffffffffffff8082111562000e38578283fd5b62000e468a838b0162000b90565b9750602089013591508082111562000e5c578283fd5b62000e6a8a838b0162000b90565b9650604089013591508082111562000e80578283fd5b5062000e8f89828a0162000b90565b945050606087013562000ea28162001178565b92506080870135801515811462000eb7578182fd5b8092505060a087013590509295509295509295565b60006020828403121562000ede578081fd5b5035919050565b6000815180845262000eff81602086016020860162001145565b601f01601f19169290920160200192915050565b6000825162000f2781846020870162001145565b9190910192915050565b6001600160a01b0391909116815260200190565b6001600160a01b038316815260406020820181905260009062000d109083018462000ee5565b901515815260200190565b600061010080835262000f8c8184018c62000ee5565b6001600160a01b038b811660208601528482036040860152915062000fb2818b62000ee5565b848103606086015262000fc6818b62000ee5565b988316608086015250509490941660a082015291151560c083015260e09091015250949350505050565b600060e082526200100560e083018a62000ee5565b828103602084015262001019818a62000ee5565b9715156040840152505093151560608501526001600160a01b039283166080850152911660a083015260c09091015292915050565b60208082526026908201527f4f776e61626c653a206e6577206f776e657220697320746865207a65726f206160408201526564647265737360d01b606082015260800190565b60208082526018908201527722b93937b91d103732bab937b7103730b6b2903a30b5b2b760411b604082015260600190565b6020808252818101527f4f776e61626c653a2063616c6c6572206973206e6f7420746865206f776e6572604082015260600190565b6020808252602a908201527f4e616d65204572726f723a20546869732044414f206e616d6520697320616c7260408201526932b0b23c903a30b5b2b760b11b606082015260800190565b60005b838110156200116257818101518382015260200162001148565b8381111562001172576000848401525b50505050565b6001600160a01b03811681146200118e57600080fd5b5056fe60806040523480156200001157600080fd5b506040516200196938038062001969833981810160405260e08110156200003757600080fd5b81019080805160405193929190846401000000008211156200005857600080fd5b9083019060208201858111156200006e57600080fd5b82516401000000008111828201881017156200008957600080fd5b82525081516020918201929091019080838360005b83811015620000b85781810151838201526020016200009e565b50505050905090810190601f168015620000e65780820380516001836020036101000a031916815260200191505b50604052602001805160405193929190846401000000008211156200010a57600080fd5b9083019060208201858111156200012057600080fd5b82516401000000008111828201881017156200013b57600080fd5b82525081516020918201929091019080838360005b838110156200016a57818101518382015260200162000150565b50505050905090810190601f168015620001985780820380516001836020036101000a031916815260200191505b5060409081526020820151908201516060830151608084015160a090940151929550909350919086866000620001d66001600160e01b036200030116565b600080546001600160a01b0319166001600160a01b03831690811782556040519293509160008051602062001949833981519152908290a350815162000224906004906020850190620005fa565b5080516200023a906005906020840190620005fa565b505060068054601260ff1991821617909155600880549091168715151761ff001916610100871515908102919091179091556007839055600114159050620002b3576200029983670de0b6b3a76400006001600160e01b036200030616565b620002ad836001600160e01b036200042216565b620002f4565b6001600160a01b03821615620002f457620002e082670de0b6b3a76400006001600160e01b036200030616565b620002f4826001600160e01b036200047116565b505050505050506200069c565b335b90565b6001600160a01b03821662000362576040805162461bcd60e51b815260206004820152601f60248201527f45524332303a206d696e7420746f20746865207a65726f206164647265737300604482015290519081900360640190fd5b62000379600083836001600160e01b036200057816565b62000395816003546200057d60201b62000dc91790919060201c565b6003556001600160a01b038216600090815260016020908152604090912054620003ca91839062000dc96200057d821b17901c565b6001600160a01b03831660008181526001602090815260408083209490945583518581529351929391927fddf252ad1be2c89b69c2b068fc378daa952ba7f163c4a11628f55a4df523b3ef9281900390910190a35050565b6001600160a01b038116600090815260096020526040812042905562000451826001600160e01b03620005df16565b6001600160a01b039092166000908152600a602052604090209190915550565b620004846001600160e01b036200030116565b6000546001600160a01b03908116911614620004e7576040805162461bcd60e51b815260206004820181905260248201527f4f776e61626c653a2063616c6c6572206973206e6f7420746865206f776e6572604482015290519081900360640190fd5b6001600160a01b0381166200052e5760405162461bcd60e51b8152600401808060200182810382526026815260200180620019236026913960400191505060405180910390fd5b600080546040516001600160a01b03808516939216916000805160206200194983398151915291a3600080546001600160a01b0319166001600160a01b0392909216919091179055565b505050565b600082820183811015620005d8576040805162461bcd60e51b815260206004820152601b60248201527f536166654d6174683a206164646974696f6e206f766572666c6f770000000000604482015290519081900360640190fd5b9392505050565b6001600160a01b031660009081526001602052604090205490565b828054600181600116156101000203166002900490600052602060002090601f016020900481019282601f106200063d57805160ff19168380011785556200066d565b828001600101855582156200066d579182015b828111156200066d57825182559160200191906001019062000650565b506200067b9291506200067f565b5090565b6200030391905b808211156200067b576000815560010162000686565b61127780620006ac6000396000f3fe608060405234801561001057600080fd5b50600436106101425760003560e01c806384612324116100b857806396615aa31161007c57806396615aa3146103c1578063a457c2d7146103ed578063a9059cbb14610419578063d5abeb0114610445578063dd62ed3e1461044d578063f2fde38b1461047b57610142565b806384612324146103285780638da5cb5b1461034e5780638f50c3a21461037257806392ff0d31146103b157806395d89b41146103b957610142565b8063395093511161010a57806339509351146102725780636fcc7d571461029e57806370a08231146102c4578063715018a6146102ea578063782f085d146102f45780637d21ce4d146102fc57610142565b806306fdde0314610147578063095ea7b3146101c457806318160ddd1461020457806323b872dd1461021e578063313ce56714610254575b600080fd5b61014f6104a1565b6040805160208082528351818301528351919283929083019185019080838360005b83811015610189578181015183820152602001610171565b50505050905090810190601f1680156101b65780820380516001836020036101000a031916815260200191505b509250505060405180910390f35b6101f0600480360360408110156101da57600080fd5b506001600160a01b038135169060200135610537565b604080519115158252519081900360200190f35b61020c610555565b60408051918252519081900360200190f35b6101f06004803603606081101561023457600080fd5b506001600160a01b0381358116916020810135909116906040013561055b565b61025c6105e8565b6040805160ff9092168252519081900360200190f35b6101f06004803603604081101561028857600080fd5b506001600160a01b0381351690602001356105f1565b61020c600480360360208110156102b457600080fd5b50356001600160a01b0316610645565b61020c600480360360208110156102da57600080fd5b50356001600160a01b0316610657565b6102f2610672565b005b6101f0610714565b6102f26004803603604081101561031257600080fd5b506001600160a01b038135169060200135610722565b61020c6004803603602081101561033e57600080fd5b50356001600160a01b0316610807565b610356610819565b604080516001600160a01b039092168252519081900360200190f35b6103986004803603602081101561038857600080fd5b50356001600160a01b0316610828565b6040805192835260208301919091528051918290030190f35b6101f0610850565b61014f610859565b6102f2600480360360408110156103d757600080fd5b506001600160a01b0381351690602001356108ba565b6101f06004803603604081101561040357600080fd5b506001600160a01b038135169060200135610925565b6101f06004803603604081101561042f57600080fd5b506001600160a01b038135169060200135610993565b61020c6109c2565b61020c6004803603604081101561046357600080fd5b506001600160a01b03813581169160200135166109c8565b6102f26004803603602081101561049157600080fd5b50356001600160a01b03166109f3565b60048054604080516020601f600260001961010060018816150201909516949094049384018190048102820181019092528281526060939092909183018282801561052d5780601f106105025761010080835404028352916020019161052d565b820191906000526020600020905b81548152906001019060200180831161051057829003601f168201915b5050505050905090565b600061054b610544610aeb565b8484610aef565b5060015b92915050565b60035490565b6000610568848484610bdb565b6105de84610574610aeb565b6105d98560405180606001604052806028815260200161114b602891396001600160a01b038a166000908152600260205260408120906105b2610aeb565b6001600160a01b03168152602081019190915260400160002054919063ffffffff610d3216565b610aef565b5060019392505050565b60065460ff1690565b600061054b6105fe610aeb565b846105d9856002600061060f610aeb565b6001600160a01b03908116825260208083019390935260409182016000908120918c16815292529020549063ffffffff610dc916565b600a6020526000908152604090205481565b6001600160a01b031660009081526001602052604090205490565b61067a610aeb565b6000546001600160a01b039081169116146106ca576040805162461bcd60e51b81526020600482018190526024820152600080516020611173833981519152604482015290519081900360640190fd5b600080546040516001600160a01b03909116907f8be0079c531659141344cd1fd0a4f28419497f9722a3daafe3b4186f6b6457e0908390a3600080546001600160a01b0319169055565b600854610100900460ff1681565b61072a610aeb565b6000546001600160a01b0390811691161461077a576040805162461bcd60e51b81526020600482018190526024820152600080516020611173833981519152604482015290519081900360640190fd5b600754156107f05760075461079d82610791610555565b9063ffffffff610dc916565b11156107f0576040805162461bcd60e51b815260206004820152601e60248201527f4d617820746f74616c20737570706c79206c696d697420726561636865640000604482015290519081900360640190fd5b6107f982610e2a565b6108038282610e6e565b5050565b60096020526000908152604090205481565b6000546001600160a01b031690565b6001600160a01b0316600090815260096020908152604080832054600a909252909120549091565b60085460ff1681565b60058054604080516020601f600260001961010060018816150201909516949094049384018190048102820181019092528281526060939092909183018282801561052d5780601f106105025761010080835404028352916020019161052d565b6108c2610aeb565b6000546001600160a01b03908116911614610912576040805162461bcd60e51b81526020600482018190526024820152600080516020611173833981519152604482015290519081900360640190fd5b61091b82610e2a565b6108038282610f5a565b600061054b610932610aeb565b846105d98560405180606001604052806025815260200161121d602591396002600061095c610aeb565b6001600160a01b03908116825260208083019390935260409182016000908120918d1681529252902054919063ffffffff610d3216565b60085460009060ff166109a85750600061054f565b6109b183610e2a565b6109bb8383610993565b5092915050565b60075481565b6001600160a01b03918216600090815260026020908152604080832093909416825291909152205490565b6109fb610aeb565b6000546001600160a01b03908116911614610a4b576040805162461bcd60e51b81526020600482018190526024820152600080516020611173833981519152604482015290519081900360640190fd5b6001600160a01b038116610a905760405162461bcd60e51b81526004018080602001828103825260268152602001806110dd6026913960400191505060405180910390fd5b600080546040516001600160a01b03808516939216917f8be0079c531659141344cd1fd0a4f28419497f9722a3daafe3b4186f6b6457e091a3600080546001600160a01b0319166001600160a01b0392909216919091179055565b3390565b6001600160a01b038316610b345760405162461bcd60e51b81526004018080602001828103825260248152602001806111f96024913960400191505060405180910390fd5b6001600160a01b038216610b795760405162461bcd60e51b81526004018080602001828103825260228152602001806111036022913960400191505060405180910390fd5b6001600160a01b03808416600081815260026020908152604080832094871680845294825291829020859055815185815291517f8c5be1e5ebec7d5bd14f71427d1e84f3dd0314c0f7b2291e5b200ac8c7c3b9259281900390910190a3505050565b6001600160a01b038316610c205760405162461bcd60e51b81526004018080602001828103825260258152602001806111d46025913960400191505060405180910390fd5b6001600160a01b038216610c655760405162461bcd60e51b81526004018080602001828103825260238152602001806110986023913960400191505060405180910390fd5b610c70838383611050565b610cb381604051806060016040528060268152602001611125602691396001600160a01b038616600090815260016020526040902054919063ffffffff610d3216565b6001600160a01b038085166000908152600160205260408082209390935590841681522054610ce8908263ffffffff610dc916565b6001600160a01b03808416600081815260016020908152604091829020949094558051858152905191939287169260008051602061119383398151915292918290030190a3505050565b60008184841115610dc15760405162461bcd60e51b81526004018080602001828103825283818151815260200191508051906020019080838360005b83811015610d86578181015183820152602001610d6e565b50505050905090810190601f168015610db35780820380516001836020036101000a031916815260200191505b509250505060405180910390fd5b505050900390565b600082820183811015610e23576040805162461bcd60e51b815260206004820152601b60248201527f536166654d6174683a206164646974696f6e206f766572666c6f770000000000604482015290519081900360640190fd5b9392505050565b6001600160a01b0381166000908152600960205260408120429055610e4e82610657565b6001600160a01b039092166000908152600a602052604090209190915550565b6001600160a01b038216610ec9576040805162461bcd60e51b815260206004820152601f60248201527f45524332303a206d696e7420746f20746865207a65726f206164647265737300604482015290519081900360640190fd5b610ed560008383611050565b600354610ee8908263ffffffff610dc916565b6003556001600160a01b038216600090815260016020526040902054610f14908263ffffffff610dc916565b6001600160a01b03831660008181526001602090815260408083209490945583518581529351929391926000805160206111938339815191529281900390910190a35050565b6001600160a01b038216610f9f5760405162461bcd60e51b81526004018080602001828103825260218152602001806111b36021913960400191505060405180910390fd5b610fab82600083611050565b610fee816040518060600160405280602281526020016110bb602291396001600160a01b038516600090815260016020526040902054919063ffffffff610d3216565b6001600160a01b03831660009081526001602052604090205560035461101a908263ffffffff61105516565b6003556040805182815290516000916001600160a01b038516916000805160206111938339815191529181900360200190a35050565b505050565b6000610e2383836040518060400160405280601e81526020017f536166654d6174683a207375627472616374696f6e206f766572666c6f770000815250610d3256fe45524332303a207472616e7366657220746f20746865207a65726f206164647265737345524332303a206275726e20616d6f756e7420657863656564732062616c616e63654f776e61626c653a206e6577206f776e657220697320746865207a65726f206164647265737345524332303a20617070726f766520746f20746865207a65726f206164647265737345524332303a207472616e7366657220616d6f756e7420657863656564732062616c616e636545524332303a207472616e7366657220616d6f756e74206578636565647320616c6c6f77616e63654f776e61626c653a2063616c6c6572206973206e6f7420746865206f776e6572ddf252ad1be2c89b69c2b068fc378daa952ba7f163c4a11628f55a4df523b3ef45524332303a206275726e2066726f6d20746865207a65726f206164647265737345524332303a207472616e736665722066726f6d20746865207a65726f206164647265737345524332303a20617070726f76652066726f6d20746865207a65726f206164647265737345524332303a2064656372656173656420616c6c6f77616e63652062656c6f77207a65726fa26469706673582212201ddacb18a81c85ba7e6336766dbc6e76c1dbccc365c5452f05edd67467ccaad664736f6c634300060600334f776e61626c653a206e6577206f776e657220697320746865207a65726f20616464726573738be0079c531659141344cd1fd0a4f28419497f9722a3daafe3b4186f6b6457e060806040523480156200001157600080fd5b506040516200644c3803806200644c83398181016040526101008110156200003857600080fd5b81019080805160405193929190846401000000008211156200005957600080fd5b9083019060208201858111156200006f57600080fd5b82516401000000008111828201881017156200008a57600080fd5b82525081516020918201929091019080838360005b83811015620000b95781810151838201526020016200009f565b50505050905090810190601f168015620000e75780820380516001836020036101000a031916815260200191505b506040818152602083015192018051929491939192846401000000008211156200011057600080fd5b9083019060208201858111156200012657600080fd5b82516401000000008111828201881017156200014157600080fd5b82525081516020918201929091019080838360005b838110156200017057818101518382015260200162000156565b50505050905090810190601f1680156200019e5780820380516001836020036101000a031916815260200191505b5060405260200180516040519392919084640100000000821115620001c257600080fd5b908301906020820185811115620001d857600080fd5b8251640100000000811182820188101715620001f357600080fd5b82525081516020918201929091019080838360005b838110156200022257818101518382015260200162000208565b50505050905090810190601f168015620002505780820380516001836020036101000a031916815260200191505b506040908152602082015190820151606083015160809093015191945092506000620002846001600160e01b036200068016565b600080546001600160a01b0319166001600160a01b0383169081178255604051929350917f8be0079c531659141344cd1fd0a4f28419497f9722a3daafe3b4186f6b6457e0908290a3508751620002e39060019060208b019062000685565b50600280546001600160a01b0319166001600160a01b03898116919091179091558416620004865785858360018660008660405162000322906200070a565b851515604082015284151560608201526001600160a01b038085166080830152831660a082015260c0810182905260e0808252885190820152875181906020808301916101008401918c019080838360005b838110156200038e57818101518382015260200162000374565b50505050905090810190601f168015620003bc5780820380516001836020036101000a031916815260200191505b5083810382528951815289516020918201918b019080838360005b83811015620003f1578181015183820152602001620003d7565b50505050905090810190601f1680156200041f5780820380516001836020036101000a031916815260200191505b509950505050505050505050604051809103906000f08015801562000448573d6000803e3d6000fd5b506000805260046020526000805160206200642c83398151915280546001600160a01b0319166001600160a01b0392909216919091179055620004b9565b6000805260046020526000805160206200642c83398151915280546001600160a01b0319166001600160a01b0386161790555b6003805460010190556040516000903090620004d59062000718565b6001600160a01b03909116815260405190819003602001906000f08015801562000503573d6000803e3d6000fd5b506000808052600460208190526000805160206200642c83398151915254604080516347c7f8db60e11b81526001600160a01b03928316938101939093526032602484015262093a806044840152871515606484015251939450841692638f8ff1b69260848084019391929182900301818387803b1580156200058557600080fd5b505af11580156200059a573d6000803e3d6000fd5b50505050806001600160a01b031663185ed8316040518163ffffffff1660e01b815260040160206040518083038186803b158015620005d857600080fd5b505afa158015620005ed573d6000803e3d6000fd5b505050506040513d60208110156200060457600080fd5b50516001600160a01b03919091166000818152600560205260408120805460ff1916931515939093179092556006805460018101825592527ff652222313e28459528d920b65115c16c04f3efc82aaedc97be59f3f377c0d3f90910180546001600160a01b031916909117905550620007439650505050505050565b335b90565b828054600181600116156101000203166002900490600052602060002090601f016020900481019282601f10620006c857805160ff1916838001178555620006f8565b82800160010185558215620006f8579182015b82811115620006f8578251825591602001919060010190620006db565b506200070692915062000726565b5090565b611969806200333783390190565b61178c8062004ca083390190565b6200068291905b808211156200070657600081556001016200072d565b612be480620007536000396000f3fe608060405260043610620000df5760003560e01c80638da5cb5b11620000855780638da5cb5b14620004ec57806392bd66c01462000504578063b9d49ca614620005d1578063c00c89aa146200061c578063ca1a4a95146200064a578063e71bdf411462000678578063f2fde38b14620006af578063fc68a01b14620006e657620000e7565b80632d681cfa14620000ec57806348976936146200026e5780634a8a300a14620002fe57806363fd71cf146200044857806367e7646f1462000460578063715018a614620004975780637b1a490914620004af57620000e7565b36620000e757005b600080fd5b348015620000f957600080fd5b5062000252600480360360e08110156200011257600080fd5b810190602081018135600160201b8111156200012d57600080fd5b8201836020820111156200014057600080fd5b803590602001918460018302840111600160201b831117156200016257600080fd5b91908080601f0160208091040260200160405190810160405280939291908181526020018383808284376000920191909152509295949360208101935035915050600160201b811115620001b557600080fd5b820183602082011115620001c857600080fd5b803590602001918460018302840111600160201b83111715620001ea57600080fd5b91908080601f016020809104026020016040519081016040528093929190818152602001838380828437600092019190915250929550506001600160a01b03833581169450602084013516926040810135151592506060810135151591506080013562000710565b604080516001600160a01b039092168252519081900360200190f35b3480156200027b57600080fd5b5062000286620008f5565b6040805160208082528351818301528351919283929083019185019080838360005b83811015620002c2578181015183820152602001620002a8565b50505050905090810190601f168015620002f05780820380516001836020036101000a031916815260200191505b509250505060405180910390f35b3480156200030b57600080fd5b5062000446600480360360608110156200032457600080fd5b810190602081018135600160201b8111156200033f57600080fd5b8201836020820111156200035257600080fd5b803590602001918460018302840111600160201b831117156200037457600080fd5b91908080601f01602080910402602001604051908101604052809392919081815260200183838082843760009201919091525092958435959094909350604081019250602001359050600160201b811115620003cf57600080fd5b820183602082011115620003e257600080fd5b803590602001918460018302840111600160201b831117156200040457600080fd5b91908080601f01602080910402602001604051908101604052809392919081815260200183838082843760009201919091525092955062000986945050505050565b005b3480156200045557600080fd5b506200025262000cb1565b3480156200046d57600080fd5b5062000446600480360360208110156200048657600080fd5b50356001600160a01b031662000cc0565b348015620004a457600080fd5b506200044662000d3d565b348015620004bc57600080fd5b506200044660048036036040811015620004d557600080fd5b506001600160a01b03813516906020013562000de3565b348015620004f957600080fd5b506200025262000e7b565b3480156200051157600080fd5b5062000446600480360360608110156200052a57600080fd5b6001600160a01b0382351691602081013591810190606081016040820135600160201b8111156200055a57600080fd5b8201836020820111156200056d57600080fd5b803590602001918460018302840111600160201b831117156200058f57600080fd5b91908080601f01602080910402602001604051908101604052809392919081815260200183838082843760009201919091525092955062000e8a945050505050565b348015620005de57600080fd5b506200060860048036036020811015620005f757600080fd5b50356001600160a01b031662000fe8565b604080519115158252519081900360200190f35b3480156200062957600080fd5b5062000252600480360360208110156200064257600080fd5b503562000ffd565b3480156200065757600080fd5b5062000252600480360360208110156200067057600080fd5b503562001025565b3480156200068557600080fd5b5062000446600480360360208110156200069e57600080fd5b50356001600160a01b031662001040565b348015620006bc57600080fd5b506200044660048036036020811015620006d557600080fd5b50356001600160a01b0316620010c0565b348015620006f357600080fd5b50620006fe620011be565b60408051918252519081900360200190f35b60006200071c620011c4565b6000546001600160a01b039081169116146200076e576040805162461bcd60e51b8152602060048201819052602482015260008051602062002b8f833981519152604482015290519081900360640190fd5b878785858989876040516200078390620011c8565b851515604082015284151560608201526001600160a01b038085166080830152831660a082015260c0810182905260e0808252885190820152875181906020808301916101008401918c019080838360005b83811015620007ef578181015183820152602001620007d5565b50505050905090810190601f1680156200081d5780820380516001836020036101000a031916815260200191505b5083810382528951815289516020918201918b019080838360005b838110156200085257818101518382015260200162000838565b50505050905090810190601f168015620008805780820380516001836020036101000a031916815260200191505b509950505050505050505050604051809103906000f080158015620008a9573d6000803e3d6000fd5b506003805460009081526004602052604080822080546001600160a01b0319166001600160a01b0395861617905582548083529120546001919091019091551698975050505050505050565b60018054604080516020600284861615610100026000190190941693909304601f810184900484028201840190925281815292918301828280156200097e5780601f1062000952576101008083540402835291602001916200097e565b820191906000526020600020905b8154815290600101906020018083116200096057829003601f168201915b505050505081565b62000990620011c4565b6000546001600160a01b03908116911614620009e2576040805162461bcd60e51b8152602060048201819052602482015260008051602062002b8f833981519152604482015290519081900360640190fd5b60025460408051634e09a6ed60e01b81523060048201818152602483019384528751604484015287516000956001600160a01b031694634e09a6ed948a939260649091019060208501908083838c5b8381101562000a4b57818101518382015260200162000a31565b50505050905090810190601f16801562000a795780820380516001836020036101000a031916815260200191505b509350505050602060405180830381600087803b15801562000a9a57600080fd5b505af115801562000aaf573d6000803e3d6000fd5b505050506040513d602081101562000ac657600080fd5b5051604051835191925082916000916060916001600160a01b038516918891889190819060208401908083835b6020831062000b145780518252601f19909201916020918201910162000af3565b6001836020036101000a03801982511681845116808217855250505050505090500191505060006040518083038185875af1925050503d806000811462000b78576040519150601f19603f3d011682016040523d82523d6000602084013e62000b7d565b606091505b50915091508162000bd5576040805162461bcd60e51b815260206004820152601c60248201527f6661696c65642063616c6c696e6720636f6e6e6563744e6575726f6e00000000604482015290519081900360640190fd5b836001600160a01b031663185ed8316040518163ffffffff1660e01b815260040160206040518083038186803b15801562000c0f57600080fd5b505afa15801562000c24573d6000803e3d6000fd5b505050506040513d602081101562000c3b57600080fd5b50516001600160a01b03949094166000818152600560205260408120805460ff1916961515969096179095556006805460018101825595527ff652222313e28459528d920b65115c16c04f3efc82aaedc97be59f3f377c0d3f90940180546001600160a01b031916909417909355505050505050565b6002546001600160a01b031681565b62000cca620011c4565b6000546001600160a01b0390811691161462000d1c576040805162461bcd60e51b8152602060048201819052602482015260008051602062002b8f833981519152604482015290519081900360640190fd5b6001600160a01b03166000908152600560205260409020805460ff19169055565b62000d47620011c4565b6000546001600160a01b0390811691161462000d99576040805162461bcd60e51b8152602060048201819052602482015260008051602062002b8f833981519152604482015290519081900360640190fd5b600080546040516001600160a01b03909116907f8be0079c531659141344cd1fd0a4f28419497f9722a3daafe3b4186f6b6457e0908390a3600080546001600160a01b0319169055565b62000ded620011c4565b6000546001600160a01b0390811691161462000e3f576040805162461bcd60e51b8152602060048201819052602482015260008051602062002b8f833981519152604482015290519081900360640190fd5b6040516001600160a01b0383169082156108fc029083906000818181858888f1935050505015801562000e76573d6000803e3d6000fd5b505050565b6000546001600160a01b031690565b3360009081526005602052604090205460ff16151560011462000edf5760405162461bcd60e51b815260040180806020018281038252602981526020018062002b666029913960400191505060405180910390fd5b60006060846001600160a01b031684846040518082805190602001908083835b6020831062000f205780518252601f19909201916020918201910162000eff565b6001836020036101000a03801982511681845116808217855250505050505090500191505060006040518083038185875af1925050503d806000811462000f84576040519150601f19603f3d011682016040523d82523d6000602084013e62000f89565b606091505b50915091508162000fe1576040805162461bcd60e51b815260206004820152601b60248201527f64656c656761746546756e6374696f6e43616c6c204661696c65640000000000604482015290519081900360640190fd5b5050505050565b60056020526000908152604090205460ff1681565b600681815481106200100b57fe5b6000918252602090912001546001600160a01b0316905081565b6004602052600090815260409020546001600160a01b031681565b6200104a620011c4565b6000546001600160a01b039081169116146200109c576040805162461bcd60e51b8152602060048201819052602482015260008051602062002b8f833981519152604482015290519081900360640190fd5b6001600160a01b03166000908152600560205260409020805460ff19166001179055565b620010ca620011c4565b6000546001600160a01b039081169116146200111c576040805162461bcd60e51b8152602060048201819052602482015260008051602062002b8f833981519152604482015290519081900360640190fd5b6001600160a01b038116620011635760405162461bcd60e51b815260040180806020018281038252602681526020018062002b406026913960400191505060405180910390fd5b600080546040516001600160a01b03808516939216917f8be0079c531659141344cd1fd0a4f28419497f9722a3daafe3b4186f6b6457e091a3600080546001600160a01b0319166001600160a01b0392909216919091179055565b60035481565b3390565b61196980620011d78339019056fe60806040523480156200001157600080fd5b506040516200196938038062001969833981810160405260e08110156200003757600080fd5b81019080805160405193929190846401000000008211156200005857600080fd5b9083019060208201858111156200006e57600080fd5b82516401000000008111828201881017156200008957600080fd5b82525081516020918201929091019080838360005b83811015620000b85781810151838201526020016200009e565b50505050905090810190601f168015620000e65780820380516001836020036101000a031916815260200191505b50604052602001805160405193929190846401000000008211156200010a57600080fd5b9083019060208201858111156200012057600080fd5b82516401000000008111828201881017156200013b57600080fd5b82525081516020918201929091019080838360005b838110156200016a57818101518382015260200162000150565b50505050905090810190601f168015620001985780820380516001836020036101000a031916815260200191505b5060409081526020820151908201516060830151608084015160a090940151929550909350919086866000620001d66001600160e01b036200030116565b600080546001600160a01b0319166001600160a01b03831690811782556040519293509160008051602062001949833981519152908290a350815162000224906004906020850190620005fa565b5080516200023a906005906020840190620005fa565b505060068054601260ff1991821617909155600880549091168715151761ff001916610100871515908102919091179091556007839055600114159050620002b3576200029983670de0b6b3a76400006001600160e01b036200030616565b620002ad836001600160e01b036200042216565b620002f4565b6001600160a01b03821615620002f457620002e082670de0b6b3a76400006001600160e01b036200030616565b620002f4826001600160e01b036200047116565b505050505050506200069c565b335b90565b6001600160a01b03821662000362576040805162461bcd60e51b815260206004820152601f60248201527f45524332303a206d696e7420746f20746865207a65726f206164647265737300604482015290519081900360640190fd5b62000379600083836001600160e01b036200057816565b62000395816003546200057d60201b62000dc91790919060201c565b6003556001600160a01b038216600090815260016020908152604090912054620003ca91839062000dc96200057d821b17901c565b6001600160a01b03831660008181526001602090815260408083209490945583518581529351929391927fddf252ad1be2c89b69c2b068fc378daa952ba7f163c4a11628f55a4df523b3ef9281900390910190a35050565b6001600160a01b038116600090815260096020526040812042905562000451826001600160e01b03620005df16565b6001600160a01b039092166000908152600a602052604090209190915550565b620004846001600160e01b036200030116565b6000546001600160a01b03908116911614620004e7576040805162461bcd60e51b815260206004820181905260248201527f4f776e61626c653a2063616c6c6572206973206e6f7420746865206f776e6572604482015290519081900360640190fd5b6001600160a01b0381166200052e5760405162461bcd60e51b8152600401808060200182810382526026815260200180620019236026913960400191505060405180910390fd5b600080546040516001600160a01b03808516939216916000805160206200194983398151915291a3600080546001600160a01b0319166001600160a01b0392909216919091179055565b505050565b600082820183811015620005d8576040805162461bcd60e51b815260206004820152601b60248201527f536166654d6174683a206164646974696f6e206f766572666c6f770000000000604482015290519081900360640190fd5b9392505050565b6001600160a01b031660009081526001602052604090205490565b828054600181600116156101000203166002900490600052602060002090601f016020900481019282601f106200063d57805160ff19168380011785556200066d565b828001600101855582156200066d579182015b828111156200066d57825182559160200191906001019062000650565b506200067b9291506200067f565b5090565b6200030391905b808211156200067b576000815560010162000686565b61127780620006ac6000396000f3fe608060405234801561001057600080fd5b50600436106101425760003560e01c806384612324116100b857806396615aa31161007c57806396615aa3146103c1578063a457c2d7146103ed578063a9059cbb14610419578063d5abeb0114610445578063dd62ed3e1461044d578063f2fde38b1461047b57610142565b806384612324146103285780638da5cb5b1461034e5780638f50c3a21461037257806392ff0d31146103b157806395d89b41146103b957610142565b8063395093511161010a57806339509351146102725780636fcc7d571461029e57806370a08231146102c4578063715018a6146102ea578063782f085d146102f45780637d21ce4d146102fc57610142565b806306fdde0314610147578063095ea7b3146101c457806318160ddd1461020457806323b872dd1461021e578063313ce56714610254575b600080fd5b61014f6104a1565b6040805160208082528351818301528351919283929083019185019080838360005b83811015610189578181015183820152602001610171565b50505050905090810190601f1680156101b65780820380516001836020036101000a031916815260200191505b509250505060405180910390f35b6101f0600480360360408110156101da57600080fd5b506001600160a01b038135169060200135610537565b604080519115158252519081900360200190f35b61020c610555565b60408051918252519081900360200190f35b6101f06004803603606081101561023457600080fd5b506001600160a01b0381358116916020810135909116906040013561055b565b61025c6105e8565b6040805160ff9092168252519081900360200190f35b6101f06004803603604081101561028857600080fd5b506001600160a01b0381351690602001356105f1565b61020c600480360360208110156102b457600080fd5b50356001600160a01b0316610645565b61020c600480360360208110156102da57600080fd5b50356001600160a01b0316610657565b6102f2610672565b005b6101f0610714565b6102f26004803603604081101561031257600080fd5b506001600160a01b038135169060200135610722565b61020c6004803603602081101561033e57600080fd5b50356001600160a01b0316610807565b610356610819565b604080516001600160a01b039092168252519081900360200190f35b6103986004803603602081101561038857600080fd5b50356001600160a01b0316610828565b6040805192835260208301919091528051918290030190f35b6101f0610850565b61014f610859565b6102f2600480360360408110156103d757600080fd5b506001600160a01b0381351690602001356108ba565b6101f06004803603604081101561040357600080fd5b506001600160a01b038135169060200135610925565b6101f06004803603604081101561042f57600080fd5b506001600160a01b038135169060200135610993565b61020c6109c2565b61020c6004803603604081101561046357600080fd5b506001600160a01b03813581169160200135166109c8565b6102f26004803603602081101561049157600080fd5b50356001600160a01b03166109f3565b60048054604080516020601f600260001961010060018816150201909516949094049384018190048102820181019092528281526060939092909183018282801561052d5780601f106105025761010080835404028352916020019161052d565b820191906000526020600020905b81548152906001019060200180831161051057829003601f168201915b5050505050905090565b600061054b610544610aeb565b8484610aef565b5060015b92915050565b60035490565b6000610568848484610bdb565b6105de84610574610aeb565b6105d98560405180606001604052806028815260200161114b602891396001600160a01b038a166000908152600260205260408120906105b2610aeb565b6001600160a01b03168152602081019190915260400160002054919063ffffffff610d3216565b610aef565b5060019392505050565b60065460ff1690565b600061054b6105fe610aeb565b846105d9856002600061060f610aeb565b6001600160a01b03908116825260208083019390935260409182016000908120918c16815292529020549063ffffffff610dc916565b600a6020526000908152604090205481565b6001600160a01b031660009081526001602052604090205490565b61067a610aeb565b6000546001600160a01b039081169116146106ca576040805162461bcd60e51b81526020600482018190526024820152600080516020611173833981519152604482015290519081900360640190fd5b600080546040516001600160a01b03909116907f8be0079c531659141344cd1fd0a4f28419497f9722a3daafe3b4186f6b6457e0908390a3600080546001600160a01b0319169055565b600854610100900460ff1681565b61072a610aeb565b6000546001600160a01b0390811691161461077a576040805162461bcd60e51b81526020600482018190526024820152600080516020611173833981519152604482015290519081900360640190fd5b600754156107f05760075461079d82610791610555565b9063ffffffff610dc916565b11156107f0576040805162461bcd60e51b815260206004820152601e60248201527f4d617820746f74616c20737570706c79206c696d697420726561636865640000604482015290519081900360640190fd5b6107f982610e2a565b6108038282610e6e565b5050565b60096020526000908152604090205481565b6000546001600160a01b031690565b6001600160a01b0316600090815260096020908152604080832054600a909252909120549091565b60085460ff1681565b60058054604080516020601f600260001961010060018816150201909516949094049384018190048102820181019092528281526060939092909183018282801561052d5780601f106105025761010080835404028352916020019161052d565b6108c2610aeb565b6000546001600160a01b03908116911614610912576040805162461bcd60e51b81526020600482018190526024820152600080516020611173833981519152604482015290519081900360640190fd5b61091b82610e2a565b6108038282610f5a565b600061054b610932610aeb565b846105d98560405180606001604052806025815260200161121d602591396002600061095c610aeb565b6001600160a01b03908116825260208083019390935260409182016000908120918d1681529252902054919063ffffffff610d3216565b60085460009060ff166109a85750600061054f565b6109b183610e2a565b6109bb8383610993565b5092915050565b60075481565b6001600160a01b03918216600090815260026020908152604080832093909416825291909152205490565b6109fb610aeb565b6000546001600160a01b03908116911614610a4b576040805162461bcd60e51b81526020600482018190526024820152600080516020611173833981519152604482015290519081900360640190fd5b6001600160a01b038116610a905760405162461bcd60e51b81526004018080602001828103825260268152602001806110dd6026913960400191505060405180910390fd5b600080546040516001600160a01b03808516939216917f8be0079c531659141344cd1fd0a4f28419497f9722a3daafe3b4186f6b6457e091a3600080546001600160a01b0319166001600160a01b0392909216919091179055565b3390565b6001600160a01b038316610b345760405162461bcd60e51b81526004018080602001828103825260248152602001806111f96024913960400191505060405180910390fd5b6001600160a01b038216610b795760405162461bcd60e51b81526004018080602001828103825260228152602001806111036022913960400191505060405180910390fd5b6001600160a01b03808416600081815260026020908152604080832094871680845294825291829020859055815185815291517f8c5be1e5ebec7d5bd14f71427d1e84f3dd0314c0f7b2291e5b200ac8c7c3b9259281900390910190a3505050565b6001600160a01b038316610c205760405162461bcd60e51b81526004018080602001828103825260258152602001806111d46025913960400191505060405180910390fd5b6001600160a01b038216610c655760405162461bcd60e51b81526004018080602001828103825260238152602001806110986023913960400191505060405180910390fd5b610c70838383611050565b610cb381604051806060016040528060268152602001611125602691396001600160a01b038616600090815260016020526040902054919063ffffffff610d3216565b6001600160a01b038085166000908152600160205260408082209390935590841681522054610ce8908263ffffffff610dc916565b6001600160a01b03808416600081815260016020908152604091829020949094558051858152905191939287169260008051602061119383398151915292918290030190a3505050565b60008184841115610dc15760405162461bcd60e51b81526004018080602001828103825283818151815260200191508051906020019080838360005b83811015610d86578181015183820152602001610d6e565b50505050905090810190601f168015610db35780820380516001836020036101000a031916815260200191505b509250505060405180910390fd5b505050900390565b600082820183811015610e23576040805162461bcd60e51b815260206004820152601b60248201527f536166654d6174683a206164646974696f6e206f766572666c6f770000000000604482015290519081900360640190fd5b9392505050565b6001600160a01b0381166000908152600960205260408120429055610e4e82610657565b6001600160a01b039092166000908152600a602052604090209190915550565b6001600160a01b038216610ec9576040805162461bcd60e51b815260206004820152601f60248201527f45524332303a206d696e7420746f20746865207a65726f206164647265737300604482015290519081900360640190fd5b610ed560008383611050565b600354610ee8908263ffffffff610dc916565b6003556001600160a01b038216600090815260016020526040902054610f14908263ffffffff610dc916565b6001600160a01b03831660008181526001602090815260408083209490945583518581529351929391926000805160206111938339815191529281900390910190a35050565b6001600160a01b038216610f9f5760405162461bcd60e51b81526004018080602001828103825260218152602001806111b36021913960400191505060405180910390fd5b610fab82600083611050565b610fee816040518060600160405280602281526020016110bb602291396001600160a01b038516600090815260016020526040902054919063ffffffff610d3216565b6001600160a01b03831660009081526001602052604090205560035461101a908263ffffffff61105516565b6003556040805182815290516000916001600160a01b038516916000805160206111938339815191529181900360200190a35050565b505050565b6000610e2383836040518060400160405280601e81526020017f536166654d6174683a207375627472616374696f6e206f766572666c6f770000815250610d3256fe45524332303a207472616e7366657220746f20746865207a65726f206164647265737345524332303a206275726e20616d6f756e7420657863656564732062616c616e63654f776e61626c653a206e6577206f776e657220697320746865207a65726f206164647265737345524332303a20617070726f766520746f20746865207a65726f206164647265737345524332303a207472616e7366657220616d6f756e7420657863656564732062616c616e636545524332303a207472616e7366657220616d6f756e74206578636565647320616c6c6f77616e63654f776e61626c653a2063616c6c6572206973206e6f7420746865206f776e6572ddf252ad1be2c89b69c2b068fc378daa952ba7f163c4a11628f55a4df523b3ef45524332303a206275726e2066726f6d20746865207a65726f206164647265737345524332303a207472616e736665722066726f6d20746865207a65726f206164647265737345524332303a20617070726f76652066726f6d20746865207a65726f206164647265737345524332303a2064656372656173656420616c6c6f77616e63652062656c6f77207a65726fa26469706673582212201ddacb18a81c85ba7e6336766dbc6e76c1dbccc365c5452f05edd67467ccaad664736f6c634300060600334f776e61626c653a206e6577206f776e657220697320746865207a65726f20616464726573738be0079c531659141344cd1fd0a4f28419497f9722a3daafe3b4186f6b6457e04f776e61626c653a206e6577206f776e657220697320746865207a65726f206164647265737343616c6c6572206973206e6f7420616e20617070726f7665642044656c6567617420616464726573734f776e61626c653a2063616c6c6572206973206e6f7420746865206f776e6572a2646970667358221220bfe284479423f5b11515f2c3d76a0f0ecd8a3ba3bdf50ea81f0e74ad54b4757664736f6c6343000606003360806040523480156200001157600080fd5b506040516200196938038062001969833981810160405260e08110156200003757600080fd5b81019080805160405193929190846401000000008211156200005857600080fd5b9083019060208201858111156200006e57600080fd5b82516401000000008111828201881017156200008957600080fd5b82525081516020918201929091019080838360005b83811015620000b85781810151838201526020016200009e565b50505050905090810190601f168015620000e65780820380516001836020036101000a031916815260200191505b50604052602001805160405193929190846401000000008211156200010a57600080fd5b9083019060208201858111156200012057600080fd5b82516401000000008111828201881017156200013b57600080fd5b82525081516020918201929091019080838360005b838110156200016a57818101518382015260200162000150565b50505050905090810190601f168015620001985780820380516001836020036101000a031916815260200191505b5060409081526020820151908201516060830151608084015160a090940151929550909350919086866000620001d66001600160e01b036200030116565b600080546001600160a01b0319166001600160a01b03831690811782556040519293509160008051602062001949833981519152908290a350815162000224906004906020850190620005fa565b5080516200023a906005906020840190620005fa565b505060068054601260ff1991821617909155600880549091168715151761ff001916610100871515908102919091179091556007839055600114159050620002b3576200029983670de0b6b3a76400006001600160e01b036200030616565b620002ad836001600160e01b036200042216565b620002f4565b6001600160a01b03821615620002f457620002e082670de0b6b3a76400006001600160e01b036200030616565b620002f4826001600160e01b036200047116565b505050505050506200069c565b335b90565b6001600160a01b03821662000362576040805162461bcd60e51b815260206004820152601f60248201527f45524332303a206d696e7420746f20746865207a65726f206164647265737300604482015290519081900360640190fd5b62000379600083836001600160e01b036200057816565b62000395816003546200057d60201b62000dc91790919060201c565b6003556001600160a01b038216600090815260016020908152604090912054620003ca91839062000dc96200057d821b17901c565b6001600160a01b03831660008181526001602090815260408083209490945583518581529351929391927fddf252ad1be2c89b69c2b068fc378daa952ba7f163c4a11628f55a4df523b3ef9281900390910190a35050565b6001600160a01b038116600090815260096020526040812042905562000451826001600160e01b03620005df16565b6001600160a01b039092166000908152600a602052604090209190915550565b620004846001600160e01b036200030116565b6000546001600160a01b03908116911614620004e7576040805162461bcd60e51b815260206004820181905260248201527f4f776e61626c653a2063616c6c6572206973206e6f7420746865206f776e6572604482015290519081900360640190fd5b6001600160a01b0381166200052e5760405162461bcd60e51b8152600401808060200182810382526026815260200180620019236026913960400191505060405180910390fd5b600080546040516001600160a01b03808516939216916000805160206200194983398151915291a3600080546001600160a01b0319166001600160a01b0392909216919091179055565b505050565b600082820183811015620005d8576040805162461bcd60e51b815260206004820152601b60248201527f536166654d6174683a206164646974696f6e206f766572666c6f770000000000604482015290519081900360640190fd5b9392505050565b6001600160a01b031660009081526001602052604090205490565b828054600181600116156101000203166002900490600052602060002090601f016020900481019282601f106200063d57805160ff19168380011785556200066d565b828001600101855582156200066d579182015b828111156200066d57825182559160200191906001019062000650565b506200067b9291506200067f565b5090565b6200030391905b808211156200067b576000815560010162000686565b61127780620006ac6000396000f3fe608060405234801561001057600080fd5b50600436106101425760003560e01c806384612324116100b857806396615aa31161007c57806396615aa3146103c1578063a457c2d7146103ed578063a9059cbb14610419578063d5abeb0114610445578063dd62ed3e1461044d578063f2fde38b1461047b57610142565b806384612324146103285780638da5cb5b1461034e5780638f50c3a21461037257806392ff0d31146103b157806395d89b41146103b957610142565b8063395093511161010a57806339509351146102725780636fcc7d571461029e57806370a08231146102c4578063715018a6146102ea578063782f085d146102f45780637d21ce4d146102fc57610142565b806306fdde0314610147578063095ea7b3146101c457806318160ddd1461020457806323b872dd1461021e578063313ce56714610254575b600080fd5b61014f6104a1565b6040805160208082528351818301528351919283929083019185019080838360005b83811015610189578181015183820152602001610171565b50505050905090810190601f1680156101b65780820380516001836020036101000a031916815260200191505b509250505060405180910390f35b6101f0600480360360408110156101da57600080fd5b506001600160a01b038135169060200135610537565b604080519115158252519081900360200190f35b61020c610555565b60408051918252519081900360200190f35b6101f06004803603606081101561023457600080fd5b506001600160a01b0381358116916020810135909116906040013561055b565b61025c6105e8565b6040805160ff9092168252519081900360200190f35b6101f06004803603604081101561028857600080fd5b506001600160a01b0381351690602001356105f1565b61020c600480360360208110156102b457600080fd5b50356001600160a01b0316610645565b61020c600480360360208110156102da57600080fd5b50356001600160a01b0316610657565b6102f2610672565b005b6101f0610714565b6102f26004803603604081101561031257600080fd5b506001600160a01b038135169060200135610722565b61020c6004803603602081101561033e57600080fd5b50356001600160a01b0316610807565b610356610819565b604080516001600160a01b039092168252519081900360200190f35b6103986004803603602081101561038857600080fd5b50356001600160a01b0316610828565b6040805192835260208301919091528051918290030190f35b6101f0610850565b61014f610859565b6102f2600480360360408110156103d757600080fd5b506001600160a01b0381351690602001356108ba565b6101f06004803603604081101561040357600080fd5b506001600160a01b038135169060200135610925565b6101f06004803603604081101561042f57600080fd5b506001600160a01b038135169060200135610993565b61020c6109c2565b61020c6004803603604081101561046357600080fd5b506001600160a01b03813581169160200135166109c8565b6102f26004803603602081101561049157600080fd5b50356001600160a01b03166109f3565b60048054604080516020601f600260001961010060018816150201909516949094049384018190048102820181019092528281526060939092909183018282801561052d5780601f106105025761010080835404028352916020019161052d565b820191906000526020600020905b81548152906001019060200180831161051057829003601f168201915b5050505050905090565b600061054b610544610aeb565b8484610aef565b5060015b92915050565b60035490565b6000610568848484610bdb565b6105de84610574610aeb565b6105d98560405180606001604052806028815260200161114b602891396001600160a01b038a166000908152600260205260408120906105b2610aeb565b6001600160a01b03168152602081019190915260400160002054919063ffffffff610d3216565b610aef565b5060019392505050565b60065460ff1690565b600061054b6105fe610aeb565b846105d9856002600061060f610aeb565b6001600160a01b03908116825260208083019390935260409182016000908120918c16815292529020549063ffffffff610dc916565b600a6020526000908152604090205481565b6001600160a01b031660009081526001602052604090205490565b61067a610aeb565b6000546001600160a01b039081169116146106ca576040805162461bcd60e51b81526020600482018190526024820152600080516020611173833981519152604482015290519081900360640190fd5b600080546040516001600160a01b03909116907f8be0079c531659141344cd1fd0a4f28419497f9722a3daafe3b4186f6b6457e0908390a3600080546001600160a01b0319169055565b600854610100900460ff1681565b61072a610aeb565b6000546001600160a01b0390811691161461077a576040805162461bcd60e51b81526020600482018190526024820152600080516020611173833981519152604482015290519081900360640190fd5b600754156107f05760075461079d82610791610555565b9063ffffffff610dc916565b11156107f0576040805162461bcd60e51b815260206004820152601e60248201527f4d617820746f74616c20737570706c79206c696d697420726561636865640000604482015290519081900360640190fd5b6107f982610e2a565b6108038282610e6e565b5050565b60096020526000908152604090205481565b6000546001600160a01b031690565b6001600160a01b0316600090815260096020908152604080832054600a909252909120549091565b60085460ff1681565b60058054604080516020601f600260001961010060018816150201909516949094049384018190048102820181019092528281526060939092909183018282801561052d5780601f106105025761010080835404028352916020019161052d565b6108c2610aeb565b6000546001600160a01b03908116911614610912576040805162461bcd60e51b81526020600482018190526024820152600080516020611173833981519152604482015290519081900360640190fd5b61091b82610e2a565b6108038282610f5a565b600061054b610932610aeb565b846105d98560405180606001604052806025815260200161121d602591396002600061095c610aeb565b6001600160a01b03908116825260208083019390935260409182016000908120918d1681529252902054919063ffffffff610d3216565b60085460009060ff166109a85750600061054f565b6109b183610e2a565b6109bb8383610993565b5092915050565b60075481565b6001600160a01b03918216600090815260026020908152604080832093909416825291909152205490565b6109fb610aeb565b6000546001600160a01b03908116911614610a4b576040805162461bcd60e51b81526020600482018190526024820152600080516020611173833981519152604482015290519081900360640190fd5b6001600160a01b038116610a905760405162461bcd60e51b81526004018080602001828103825260268152602001806110dd6026913960400191505060405180910390fd5b600080546040516001600160a01b03808516939216917f8be0079c531659141344cd1fd0a4f28419497f9722a3daafe3b4186f6b6457e091a3600080546001600160a01b0319166001600160a01b0392909216919091179055565b3390565b6001600160a01b038316610b345760405162461bcd60e51b81526004018080602001828103825260248152602001806111f96024913960400191505060405180910390fd5b6001600160a01b038216610b795760405162461bcd60e51b81526004018080602001828103825260228152602001806111036022913960400191505060405180910390fd5b6001600160a01b03808416600081815260026020908152604080832094871680845294825291829020859055815185815291517f8c5be1e5ebec7d5bd14f71427d1e84f3dd0314c0f7b2291e5b200ac8c7c3b9259281900390910190a3505050565b6001600160a01b038316610c205760405162461bcd60e51b81526004018080602001828103825260258152602001806111d46025913960400191505060405180910390fd5b6001600160a01b038216610c655760405162461bcd60e51b81526004018080602001828103825260238152602001806110986023913960400191505060405180910390fd5b610c70838383611050565b610cb381604051806060016040528060268152602001611125602691396001600160a01b038616600090815260016020526040902054919063ffffffff610d3216565b6001600160a01b038085166000908152600160205260408082209390935590841681522054610ce8908263ffffffff610dc916565b6001600160a01b03808416600081815260016020908152604091829020949094558051858152905191939287169260008051602061119383398151915292918290030190a3505050565b60008184841115610dc15760405162461bcd60e51b81526004018080602001828103825283818151815260200191508051906020019080838360005b83811015610d86578181015183820152602001610d6e565b50505050905090810190601f168015610db35780820380516001836020036101000a031916815260200191505b509250505060405180910390fd5b505050900390565b600082820183811015610e23576040805162461bcd60e51b815260206004820152601b60248201527f536166654d6174683a206164646974696f6e206f766572666c6f770000000000604482015290519081900360640190fd5b9392505050565b6001600160a01b0381166000908152600960205260408120429055610e4e82610657565b6001600160a01b039092166000908152600a602052604090209190915550565b6001600160a01b038216610ec9576040805162461bcd60e51b815260206004820152601f60248201527f45524332303a206d696e7420746f20746865207a65726f206164647265737300604482015290519081900360640190fd5b610ed560008383611050565b600354610ee8908263ffffffff610dc916565b6003556001600160a01b038216600090815260016020526040902054610f14908263ffffffff610dc916565b6001600160a01b03831660008181526001602090815260408083209490945583518581529351929391926000805160206111938339815191529281900390910190a35050565b6001600160a01b038216610f9f5760405162461bcd60e51b81526004018080602001828103825260218152602001806111b36021913960400191505060405180910390fd5b610fab82600083611050565b610fee816040518060600160405280602281526020016110bb602291396001600160a01b038516600090815260016020526040902054919063ffffffff610d3216565b6001600160a01b03831660009081526001602052604090205560035461101a908263ffffffff61105516565b6003556040805182815290516000916001600160a01b038516916000805160206111938339815191529181900360200190a35050565b505050565b6000610e2383836040518060400160405280601e81526020017f536166654d6174683a207375627472616374696f6e206f766572666c6f770000815250610d3256fe45524332303a207472616e7366657220746f20746865207a65726f206164647265737345524332303a206275726e20616d6f756e7420657863656564732062616c616e63654f776e61626c653a206e6577206f776e657220697320746865207a65726f206164647265737345524332303a20617070726f766520746f20746865207a65726f206164647265737345524332303a207472616e7366657220616d6f756e7420657863656564732062616c616e636545524332303a207472616e7366657220616d6f756e74206578636565647320616c6c6f77616e63654f776e61626c653a2063616c6c6572206973206e6f7420746865206f776e6572ddf252ad1be2c89b69c2b068fc378daa952ba7f163c4a11628f55a4df523b3ef45524332303a206275726e2066726f6d20746865207a65726f206164647265737345524332303a207472616e736665722066726f6d20746865207a65726f206164647265737345524332303a20617070726f76652066726f6d20746865207a65726f206164647265737345524332303a2064656372656173656420616c6c6f77616e63652062656c6f77207a65726fa26469706673582212201ddacb18a81c85ba7e6336766dbc6e76c1dbccc365c5452f05edd67467ccaad664736f6c634300060600334f776e61626c653a206e6577206f776e657220697320746865207a65726f20616464726573738be0079c531659141344cd1fd0a4f28419497f9722a3daafe3b4186f6b6457e060806040523480156200001157600080fd5b506040516200178c3803806200178c833981810160405260208110156200003757600080fd5b505160006200004e6001600160e01b03620000f416565b600080546001600160a01b0319166001600160a01b0383169081178255604051929350916000805160206200176c833981519152908290a3506200009b816001600160e01b03620000f816565b600280546001600160a01b039092166001600160a01b03199092169190911790556000805460ff60b01b1960ff60a81b1960ff60a01b19909216600160a01b1791909116600160a81b1716600160b01b179055620001ff565b3390565b6200010b6001600160e01b03620000f416565b6000546001600160a01b039081169116146200016e576040805162461bcd60e51b815260206004820181905260248201527f4f776e61626c653a2063616c6c6572206973206e6f7420746865206f776e6572604482015290519081900360640190fd5b6001600160a01b038116620001b55760405162461bcd60e51b8152600401808060200182810382526026815260200180620017466026913960400191505060405180910390fd5b600080546040516001600160a01b03808516939216916000805160206200176c83398151915291a3600080546001600160a01b0319166001600160a01b0392909216919091179055565b611537806200020f6000396000f3fe6080604052600436106100e25760003560e01c8063715018a611610085578063715018a61461032f5780638da5cb5b146103465780638f8ff1b61461035b57806391bf9de9146103a2578063998a3d46146103b7578063b1050da5146103cc578063c1ba4e591461050a578063c9d27afe14610534578063f2fde38b14610566576100e9565b8063013cf08b146100ee5780631703a0181461025a578063184a0ae914610281578063185ed831146102965780632121dc75146102bf578063371fa854146102d457806350e59eb3146102e957806352191472146102fe576100e9565b366100e957005b600080fd5b3480156100fa57600080fd5b506101186004803603602081101561011157600080fd5b5035610599565b604051808b6001600160a01b03166001600160a01b031681526020018a6001600160a01b03166001600160a01b0316815260200189815260200188815260200187815260200186815260200185151515158152602001841515151581526020018060200180602001838103835285818151815260200191508051906020019080838360005b838110156101b557818101518382015260200161019d565b50505050905090810190601f1680156101e25780820380516001836020036101000a031916815260200191505b50838103825284518152845160209182019186019080838360005b838110156102155781810151838201526020016101fd565b50505050905090810190601f1680156102425780820380516001836020036101000a031916815260200191505b509c5050505050505050505050505060405180910390f35b34801561026657600080fd5b5061026f610711565b60408051918252519081900360200190f35b34801561028d57600080fd5b5061026f610717565b3480156102a257600080fd5b506102ab61071d565b604080519115158252519081900360200190f35b3480156102cb57600080fd5b506102ab61072d565b3480156102e057600080fd5b5061026f610736565b3480156102f557600080fd5b506102ab61073c565b34801561030a57600080fd5b5061031361074c565b604080516001600160a01b039092168252519081900360200190f35b34801561033b57600080fd5b5061034461075b565b005b34801561035257600080fd5b506103136107fd565b34801561036757600080fd5b506103446004803603608081101561037e57600080fd5b506001600160a01b038135169060208101359060408101359060600135151561080d565b3480156103ae57600080fd5b506102ab6108a0565b3480156103c357600080fd5b506103136108b0565b61026f600480360360808110156103e257600080fd5b6001600160a01b0382351691602081013591810190606081016040820135600160201b81111561041157600080fd5b82018360208201111561042357600080fd5b803590602001918460018302840111600160201b8311171561044457600080fd5b91908080601f0160208091040260200160405190810160405280939291908181526020018383808284376000920191909152509295949360208101935035915050600160201b81111561049657600080fd5b8201836020820111156104a857600080fd5b803590602001918460018302840111600160201b831117156104c957600080fd5b91908080601f0160208091040260200160405190810160405280939291908181526020018383808284376000920191909152509295506108bf945050505050565b34801561051657600080fd5b506103446004803603602081101561052d57600080fd5b5035610a2e565b34801561054057600080fd5b506103446004803603604081101561055757600080fd5b50803590602001351515610a8b565b34801561057257600080fd5b506103446004803603602081101561058957600080fd5b50356001600160a01b0316610e83565b600760208181526000928352604092839020805460018083015460028085015460038601546004870154600588015460068901549a890180548d51610100998216158a026000190190911696909604601f81018c90048c0287018c01909d528c86526001600160a01b039889169c989096169a939992989197909660ff808616979190950490941694919391928301828280156106775780601f1061064c57610100808354040283529160200191610677565b820191906000526020600020905b81548152906001019060200180831161065a57829003601f168201915b5050505060088301805460408051602060026001851615610100026000190190941693909304601f81018490048402820184019092528181529495949350908301828280156107075780601f106106dc57610100808354040283529160200191610707565b820191906000526020600020905b8154815290600101906020018083116106ea57829003601f168201915b505050505090508a565b60055481565b60045481565b600054600160b01b900460ff1681565b60065460ff1681565b60035481565b600054600160a01b900460ff1681565b6002546001600160a01b031681565b610763610f7b565b6000546001600160a01b039081169116146107b3576040805162461bcd60e51b81526020600482018190526024820152600080516020611494833981519152604482015290519081900360640190fd5b600080546040516001600160a01b03909116907f8be0079c531659141344cd1fd0a4f28419497f9722a3daafe3b4186f6b6457e0908390a3600080546001600160a01b0319169055565b6000546001600160a01b03165b90565b610815610f7b565b6000546001600160a01b03908116911614610865576040805162461bcd60e51b81526020600482018190526024820152600080516020611494833981519152604482015290519081900360640190fd5b600180546001600160a01b0319166001600160a01b0395909516949094179093556006805460ff191693151593909317909255600555600455565b600054600160a81b900460ff1681565b6001546001600160a01b031681565b600154604080516370a0823160e01b81523360048201529051600092670de0b6b3a7640000926001600160a01b03909116916370a0823191602480820192602092909190829003018186803b15801561091757600080fd5b505afa15801561092b573d6000803e3d6000fd5b505050506040513d602081101561094157600080fd5b50511015610996576040805162461bcd60e51b815260206004820181905260248201527f596f7520617265206e6f742061206d656d626572206f6620746869732044414f604482015290519081900360640190fd5b600380546001908101808355600090815260076020818152604083208054336001600160a01b031991821617825594810180549095166001600160a01b038c161790945593830182905560048301829055600583019190915542600283015585519192610a0a929184019190870190611364565b508251610a209060088301906020860190611364565b505060035495945050505050565b610a36610f7b565b6000546001600160a01b03908116911614610a86576040805162461bcd60e51b81526020600482018190526024820152600080516020611494833981519152604482015290519081900360640190fd5b600555565b600154604080516370a0823160e01b81523360048201529051670de0b6b3a7640000926001600160a01b0316916370a08231916024808301926020929190829003018186803b158015610add57600080fd5b505afa158015610af1573d6000803e3d6000fd5b505050506040513d6020811015610b0757600080fd5b50511015610b5c576040805162461bcd60e51b815260206004820181905260248201527f596f7520617265206e6f742061206d656d626572206f6620746869732044414f604482015290519081900360640190fd5b6000828152600760209081526040808320338452600a81019092529091205460ff16151560011415610bbf5760405162461bcd60e51b81526004018080602001828103825260278152602001806114b46027913960400191505060405180910390fd5b600154604080516370a0823160e01b815233600482015290516000926001600160a01b0316916370a08231916024808301926020929190829003018186803b158015610c0a57600080fd5b505afa158015610c1e573d6000803e3d6000fd5b505050506040513d6020811015610c3457600080fd5b505160065490915060ff1615610d4b57600154604080516347a861d160e11b8152336004820152815160009384936001600160a01b0390911692638f50c3a29260248083019392829003018186803b158015610c8f57600080fd5b505afa158015610ca3573d6000803e3d6000fd5b505050506040513d6040811015610cb957600080fd5b5080516020909101519092509050828114610d055760405162461bcd60e51b815260040180806020018281038252603a81526020018061145a603a913960400191505060405180910390fd5b8184600201541015610d485760405162461bcd60e51b81526004018080602001828103825260378152602001806114236037913960400191505060405180910390fd5b50505b6004820154604080516060810182528515158152336020808301918252828401868152600095865260098801909152929093209051815493516001600160a01b031661010002610100600160a81b031991151560ff199095169490941716929092178255516001909101556003820154610dc59082610f7f565b6003830155336000908152600a830160209081526040808320805460ff191660019081179091555481516318160ddd60e01b815291516001600160a01b0391909116926318160ddd9260048082019391829003018186803b158015610e2957600080fd5b505afa158015610e3d573d6000803e3d6000fd5b505050506040513d6020811015610e5357600080fd5b50516003840154909150600090610e6a9083610fe2565b90508015610e7b57610e7b86611022565b505050505050565b610e8b610f7b565b6000546001600160a01b03908116911614610edb576040805162461bcd60e51b81526020600482018190526024820152600080516020611494833981519152604482015290519081900360640190fd5b6001600160a01b038116610f205760405162461bcd60e51b81526004018080602001828103825260268152602001806113fd6026913960400191505060405180910390fd5b600080546040516001600160a01b03808516939216917f8be0079c531659141344cd1fd0a4f28419497f9722a3daafe3b4186f6b6457e091a3600080546001600160a01b0319166001600160a01b0392909216919091179055565b3390565b600082820183811015610fd9576040805162461bcd60e51b815260206004820152601b60248201527f536166654d6174683a206164646974696f6e206f766572666c6f770000000000604482015290519081900360640190fd5b90505b92915050565b600080610ff18484600261125f565b905082841415611005576001915050610fdc565b6005548110611018576001915050610fdc565b6000915050610fdc565b6000818152600760205260409020600454600282015461104990429063ffffffff61129016565b106110695760068101805461ff001960ff1990911660011716905561125b565b600681015460ff16156110ad5760405162461bcd60e51b81526004018080602001828103825260278152602001806114db6027913960400191505060405180910390fd5b600080805b836004015481116111165760008181526009850160205260409020805460ff16156110f45760018101546110ed90859063ffffffff610f7f16565b935061110d565b600181015461110a90849063ffffffff610f7f16565b92505b506001016110b2565b50808211156112415760028054600185810154600587015460405163024af59b60e61b81526001600160a01b03928316600482018181526024830184905260606044840190815260088c018054600019988116156101000298909801909716989098046064840181905294909616966392bd66c0969195939491929091608490910190849080156111e85780601f106111bd576101008083540402835291602001916111e8565b820191906000526020600020905b8154815290600101906020018083116111cb57829003601f168201915b5050945050505050600060405180830381600087803b15801561120a57600080fd5b505af115801561121e573d6000803e3d6000fd5b50505060068401805461ff001960ff199091166001171661010017905550611258565b60068301805461ff001960ff199091166001171690555b50505b5050565b60008082600101600a0a850290506000600a85838161127a57fe5b046005018161128557fe5b049695505050505050565b6000610fd983836040518060400160405280601e81526020017f536166654d6174683a207375627472616374696f6e206f766572666c6f7700008152506000818484111561135c5760405162461bcd60e51b81526004018080602001828103825283818151815260200191508051906020019080838360005b83811015611321578181015183820152602001611309565b50505050905090810190601f16801561134e5780820380516001836020036101000a031916815260200191505b509250505060405180910390fd5b505050900390565b828054600181600116156101000203166002900490600052602060002090601f016020900481019282601f106113a557805160ff19168380011785556113d2565b828001600101855582156113d2579182015b828111156113d25782518255916020019190600101906113b7565b506113de9291506113e2565b5090565b61080a91905b808211156113de57600081556001016113e856fe4f776e61626c653a206e6577206f776e657220697320746865207a65726f206164647265737356696f6c6174696e672052656c617469766974793a2054696d65206572726f7220746f6b656e2074696d657320646f6e74206d6174636856696f6c6174696e672052656c617469766974793a205370616365206572726f7220746f6b656e20616d6f756e747320646f6e74206d617463684f776e61626c653a2063616c6c6572206973206e6f7420746865206f776e6572596f75204861766520616c726561647920766f746564206f6e20746869732070726f706f73616c546869732070726f706f73616c2068617320616c7265616479206265656e206578656375746564a2646970667358221220fe8f48ce82d4acb192abe61392ee97cb1b81233e4a7b88b0be9f15d9d1aa9d0264736f6c634300060600334f776e61626c653a206e6577206f776e657220697320746865207a65726f20616464726573738be0079c531659141344cd1fd0a4f28419497f9722a3daafe3b4186f6b6457e017ef568e3e12ab5b9c7254a8d58478811de00f9e6eb34345acd53bf8fd09d3eca26469706673582212200b48da7f33f0912730d45933b8df1afd8a4c8f94ade0abbba58b1dfc8e134b1764736f6c63430006060033",
  "immutableReferences": {},
  "source": "pragma solidity ^0.6.2;\npragma experimental ABIEncoderV2;\n\nimport \"../Cortex/Cortex.sol\";\nimport \"../Cortex/Synaps.sol\";\nimport \"./Hippocampus.sol\";\nimport \"@openzeppelin/contracts/access/Ownable.sol\";\n\n////////////////////////////////////////////////////////////////////////////////////////////\n/// @title Matrix\n/// @author Christopher Dixon\n////////////////////////////////////////////////////////////////////////////////////////////\n/**\nThe Matrix contract is designed to produce and track individual ZDAO contracts\n**/\n\ncontract Matrix is Ownable, Hippocampus {\n    /// @notice cortexTracker is used to track a DAO's name to its address\n    mapping(string => address) public cortexTracker;\n    /// @notice nameTaken is used to track whether or not a DAO exists with a certain name\n    mapping(string => bool) public nameTaken;\n\n    event CortexCreated(address _cortexAdd, string _cotexName);\n\n    /**\n    @notice the constructor is fired only once during contract creation and is used to set up variables in the contract\n    @param _NeuronNames is an array of all availible core neuron names availible at deployment time\n    @param _initialCoreNeurons is an array of all availible core neuron addresses availible at deployment time\n    **/\n    constructor(\n        string[] memory _NeuronNames,\n        address[] memory _initialCoreNeurons\n    ) public {\n        require(\n            _NeuronNames.length == _initialCoreNeurons.length,\n            \"Error: Array Length Mismatch\"\n        );\n        //loop through and store neuron info\n        for (uint256 i = 0; i < _initialCoreNeurons.length; ++i) {\n            neuralNetwork[_NeuronNames[i]] = _initialCoreNeurons[i];\n            isNeuron[_initialCoreNeurons[i]] = true;\n            coreNeurons.push(_initialCoreNeurons[i]);\n        }\n    }\n\n    /**\n     @notice createCortex is a public function that allows a user to create their own zDAO\n     @dev this function can create a rep token for the new DAO OR use an existing ERC20 token\n     @param _CortexName is the name of the DAO being created\n     @param _tokenName is the name of the DAO's rep token(leave blank if using an existing token)\n     @param _tokenSym is the symbol of the DAO's rep token(leave blank if using an existing token)\n     @param _synaps is the address of an existing ERC20 token that can represent the DAO's rep\n                (this would be set to 0x0 if not applicapble)\n     @param _isTransferable is a bool representing whether or not the rep token is transferable\n    **/\n    function createCortex(\n        string memory _CortexName,\n        string memory _tokenName,\n        string memory _tokenSym,\n        address _synaps,\n        bool _isTransferable,\n        uint256 _maxSupply\n    ) public {\n        require(\n            nameTaken[_CortexName] != true,\n            \"Name Error: This DAO name is already taken\"\n        );\n\n        Cortex newCortex;\n        ///if we are not using an existing token\n        if (_synaps == 0x0000000000000000000000000000000000000000) {\n            newCortex = new Cortex(\n                _CortexName,\n                address(this),\n                _tokenName,\n                _tokenSym,\n                0x0000000000000000000000000000000000000000,\n                msg.sender,\n                _isTransferable,\n                _maxSupply\n            );\n            cortexTracker[_CortexName] = address(newCortex);\n            newCortex.transferOwnership(msg.sender);\n        } else {\n          ///if we are using and existing token\n            newCortex = new Cortex(\n                _CortexName,\n                address(this),\n                _tokenName,\n                _tokenSym,\n                _synaps,\n                msg.sender,\n                _isTransferable,\n                _maxSupply\n            );\n            cortexTracker[_CortexName] = address(newCortex);\n            newCortex.transferOwnership(msg.sender);\n        }\n\n        nameTaken[_CortexName] = true;\n        emit CortexCreated(address(newCortex), _CortexName);\n    }\n\n    /**\n     @notice retrieveCortex is used to retrieve a Cortex's address by its name\n     @dev this is a view only function for front end use\n     @param _Name is the name of the Cortex who's address is being retrieved\n     @return the address of the Cortex\n    **/\n    function retrieveCortex(string memory _Name) public view returns (address) {\n        return cortexTracker[_Name];\n    }\n\n    /**\n     @notice cortexNameTaken is used to determine if a name for a Cortex is currently in use\n     @dev this is a view only function for front end use\n     @param _Name is the proposed name of a Cortex\n     @return a bool(true/false) for whether or not a Cortex with the input name exists\n    **/\n    function cortexNameTaken(string memory _Name) public view returns (bool) {\n        return nameTaken[_Name];\n    }\n\n/**\n@notice the createSynaps function allows a user to create their own synaps token\n@param _tokenName is the name of the token\n@param _tokenSym is the symbol of the token\n@param _Creator is the address of the person who created the synaps token.\n@param _bondingCurve allows a bonding curve contract to own the created synaps\n@param _maxSupply is the maximum supply this synaps will be capped at(uncapped == 0)\n**/\n    function createSynaps(\n      string memory _tokenName,\n      string memory _tokenSym,\n      address _Creator,\n      address _bondingCurve,\n      uint256 _maxSupply\n    ) public {\n      new Synaps(\n          _tokenName,\n          _tokenSym,\n          true,\n          false,\n          _Creator,\n          _bondingCurve,\n          _maxSupply\n      );\n    }\n}\n",
  "sourcePath": "/home/stan36/repos/zer0/ZDAO/contracts/Matrix/Matrix.sol",
  "compiler": {
    "name": "solc",
    "version": "0.6.6+commit.6c089d02.Emscripten.clang"
  },
  "schemaVersion": "3.3.2",
  "updatedAt": "2021-02-01T21:34:42.503Z",
  "devdoc": {
    "methods": {
      "_neuroGensis(address,string)": {
        "params": {
          "_Cortex": "is the address of the cortex who is generating a neuron",
          "_neuronName": "is the name of the neuron being generated*"
        }
      },
      "addCoreNueron(string,address)": {
        "params": {
          "_NeuronName": "is the name of the neuron being added",
          "_neuronFactoryAddress": "is the factory address for the neuron being added*"
        }
      },
      "addPeripheralNueron(string,address)": {
        "params": {
          "_NeuronName": "is the name of the neuron being added",
          "_neuronFactoryAddress": "is the factory address for the neuron being added*"
        }
      },
      "constructor": {
        "params": {
          "_NeuronNames": "is an array of all availible core neuron names availible at deployment time",
          "_initialCoreNeurons": "is an array of all availible core neuron addresses availible at deployment time*"
        }
      },
      "cortexNameTaken(string)": {
        "details": "this is a view only function for front end use",
        "params": {
          "_Name": "is the proposed name of a Cortex"
        },
        "returns": {
          "_0": "a bool(true/false) for whether or not a Cortex with the input name exists*"
        }
      },
      "createCortex(string,string,string,address,bool,uint256)": {
        "details": "this function can create a rep token for the new DAO OR use an existing ERC20 token",
        "params": {
          "_CortexName": "is the name of the DAO being created",
          "_isTransferable": "is a bool representing whether or not the rep token is transferable*",
          "_synaps": "is the address of an existing ERC20 token that can represent the DAO's rep (this would be set to 0x0 if not applicapble)",
          "_tokenName": "is the name of the DAO's rep token(leave blank if using an existing token)",
          "_tokenSym": "is the symbol of the DAO's rep token(leave blank if using an existing token)"
        }
      },
      "createSynaps(string,string,address,address,uint256)": {
        "params": {
          "_Creator": "is the address of the person who created the synaps token.",
          "_bondingCurve": "allows a bonding curve contract to own the created synaps",
          "_maxSupply": "is the maximum supply this synaps will be capped at(uncapped == 0)*",
          "_tokenName": "is the name of the token",
          "_tokenSym": "is the symbol of the token"
        }
      },
      "owner()": {
        "details": "Returns the address of the current owner."
      },
      "renounceOwnership()": {
        "details": "Leaves the contract without owner. It will not be possible to call `onlyOwner` functions anymore. Can only be called by the current owner.     * NOTE: Renouncing ownership will leave the contract without an owner, thereby removing any functionality that is only available to the owner."
      },
      "retrieveCortex(string)": {
        "details": "this is a view only function for front end use",
        "params": {
          "_Name": "is the name of the Cortex who's address is being retrieved"
        },
        "returns": {
          "_0": "the address of the Cortex*"
        }
      },
      "transferOwnership(address)": {
        "details": "Transfers ownership of the contract to a new account (`newOwner`). Can only be called by the current owner."
      }
    }
  },
  "userdoc": {
    "methods": {
      "_neuroGensis(address,string)": {
        "notice": "_neuroGensis is used by a cortex to generate a new neural instance of a neuron"
      },
      "addCoreNueron(string,address)": {
        "notice": "addCoreNueron allows the owner of this contract to add a core neuron to the matrix"
      },
      "addPeripheralNueron(string,address)": {
        "notice": "addPeripheralNueron allows the owner of this contract to add a peripheral neuron to the matrix"
      },
      "constructor": "the constructor is fired only once during contract creation and is used to set up variables in the contract",
      "cortexNameTaken(string)": {
        "notice": "cortexNameTaken is used to determine if a name for a Cortex is currently in use"
      },
      "createCortex(string,string,string,address,bool,uint256)": {
        "notice": "createCortex is a public function that allows a user to create their own zDAO"
      },
      "createSynaps(string,string,address,address,uint256)": {
        "notice": "the createSynaps function allows a user to create their own synaps token"
      },
      "retrieveCortex(string)": {
        "notice": "retrieveCortex is used to retrieve a Cortex's address by its name"
      }
    },
    "notice": "The Matrix contract is designed to produce and track individual ZDAO contracts*"
  }
}