{
  "contractName": "Matrix",
  "abi": [
    {
      "constant": true,
      "inputs": [
        {
          "name": "",
          "type": "address"
        }
      ],
      "name": "neuralMapToCortex",
      "outputs": [
        {
          "name": "",
          "type": "address"
        }
      ],
      "payable": false,
      "stateMutability": "view",
      "type": "function"
    },
    {
      "constant": true,
      "inputs": [
        {
          "name": "_salt",
          "type": "uint256"
        },
        {
          "name": "_logic",
          "type": "address"
        },
        {
          "name": "_admin",
          "type": "address"
        },
        {
          "name": "_data",
          "type": "bytes"
        },
        {
          "name": "_signature",
          "type": "bytes"
        }
      ],
      "name": "getSigner",
      "outputs": [
        {
          "name": "",
          "type": "address"
        }
      ],
      "payable": false,
      "stateMutability": "view",
      "type": "function"
    },
    {
      "constant": false,
      "inputs": [
        {
          "name": "_salt",
          "type": "uint256"
        },
        {
          "name": "_logic",
          "type": "address"
        },
        {
          "name": "_admin",
          "type": "address"
        },
        {
          "name": "_data",
          "type": "bytes"
        },
        {
          "name": "_signature",
          "type": "bytes"
        }
      ],
      "name": "deploySigned",
      "outputs": [
        {
          "name": "",
          "type": "address"
        }
      ],
      "payable": false,
      "stateMutability": "nonpayable",
      "type": "function"
    },
    {
      "constant": true,
      "inputs": [
        {
          "name": "",
          "type": "uint256"
        }
      ],
      "name": "peripheralNeurons",
      "outputs": [
        {
          "name": "",
          "type": "address"
        }
      ],
      "payable": false,
      "stateMutability": "view",
      "type": "function"
    },
    {
      "constant": true,
      "inputs": [
        {
          "name": "",
          "type": "address"
        },
        {
          "name": "",
          "type": "uint256"
        }
      ],
      "name": "neuralMapFromCortex",
      "outputs": [
        {
          "name": "",
          "type": "address"
        }
      ],
      "payable": false,
      "stateMutability": "view",
      "type": "function"
    },
    {
      "constant": false,
      "inputs": [
        {
          "name": "_salt",
          "type": "uint256"
        },
        {
          "name": "_logic",
          "type": "address"
        },
        {
          "name": "_admin",
          "type": "address"
        },
        {
          "name": "_data",
          "type": "bytes"
        }
      ],
      "name": "deploy",
      "outputs": [
        {
          "name": "",
          "type": "address"
        }
      ],
      "payable": false,
      "stateMutability": "nonpayable",
      "type": "function"
    },
    {
      "constant": true,
      "inputs": [
        {
          "name": "",
          "type": "uint256"
        }
      ],
      "name": "coreNeurons",
      "outputs": [
        {
          "name": "",
          "type": "address"
        }
      ],
      "payable": false,
      "stateMutability": "view",
      "type": "function"
    },
    {
      "constant": false,
      "inputs": [],
      "name": "renounceOwnership",
      "outputs": [],
      "payable": false,
      "stateMutability": "nonpayable",
      "type": "function"
    },
    {
      "constant": true,
      "inputs": [],
      "name": "synapsInstance",
      "outputs": [
        {
          "name": "",
          "type": "address"
        }
      ],
      "payable": false,
      "stateMutability": "view",
      "type": "function"
    },
    {
      "constant": true,
      "inputs": [
        {
          "name": "_salt",
          "type": "uint256"
        },
        {
          "name": "_sender",
          "type": "address"
        }
      ],
      "name": "getDeploymentAddress",
      "outputs": [
        {
          "name": "",
          "type": "address"
        }
      ],
      "payable": false,
      "stateMutability": "view",
      "type": "function"
    },
    {
      "constant": true,
      "inputs": [],
      "name": "owner",
      "outputs": [
        {
          "name": "",
          "type": "address"
        }
      ],
      "payable": false,
      "stateMutability": "view",
      "type": "function"
    },
    {
      "constant": true,
      "inputs": [],
      "name": "isOwner",
      "outputs": [
        {
          "name": "",
          "type": "bool"
        }
      ],
      "payable": false,
      "stateMutability": "view",
      "type": "function"
    },
    {
      "constant": false,
      "inputs": [
        {
          "name": "_logic",
          "type": "address"
        },
        {
          "name": "_data",
          "type": "bytes"
        }
      ],
      "name": "deployMinimal",
      "outputs": [
        {
          "name": "proxy",
          "type": "address"
        }
      ],
      "payable": false,
      "stateMutability": "nonpayable",
      "type": "function"
    },
    {
      "constant": true,
      "inputs": [],
      "name": "cortexInstance",
      "outputs": [
        {
          "name": "",
          "type": "address"
        }
      ],
      "payable": false,
      "stateMutability": "view",
      "type": "function"
    },
    {
      "constant": true,
      "inputs": [
        {
          "name": "",
          "type": "address"
        }
      ],
      "name": "isNeuron",
      "outputs": [
        {
          "name": "",
          "type": "bool"
        }
      ],
      "payable": false,
      "stateMutability": "view",
      "type": "function"
    },
    {
      "constant": false,
      "inputs": [
        {
          "name": "newOwner",
          "type": "address"
        }
      ],
      "name": "transferOwnership",
      "outputs": [],
      "payable": false,
      "stateMutability": "nonpayable",
      "type": "function"
    },
    {
      "anonymous": false,
      "inputs": [
        {
          "indexed": false,
          "name": "_cortexAdd",
          "type": "address"
        },
        {
          "indexed": false,
          "name": "_cotexName",
          "type": "string"
        }
      ],
      "name": "CortexCreated",
      "type": "event"
    },
    {
      "anonymous": false,
      "inputs": [
        {
          "indexed": false,
          "name": "proxy",
          "type": "address"
        }
      ],
      "name": "ProxyCreated",
      "type": "event"
    },
    {
      "anonymous": false,
      "inputs": [
        {
          "indexed": true,
          "name": "previousOwner",
          "type": "address"
        },
        {
          "indexed": true,
          "name": "newOwner",
          "type": "address"
        }
      ],
      "name": "OwnershipTransferred",
      "type": "event"
    },
    {
      "constant": false,
      "inputs": [
        {
          "name": "_cortexInstance",
          "type": "address"
        },
        {
          "name": "_synapsInstance",
          "type": "address"
        },
        {
          "name": "_NeuronNames",
          "type": "string[]"
        },
        {
          "name": "_initialCoreNeurons",
          "type": "address[]"
        }
      ],
      "name": "initialize",
      "outputs": [],
      "payable": false,
      "stateMutability": "nonpayable",
      "type": "function"
    },
    {
      "constant": false,
      "inputs": [
        {
          "name": "sender",
          "type": "address"
        }
      ],
      "name": "initialize",
      "outputs": [],
      "payable": false,
      "stateMutability": "nonpayable",
      "type": "function"
    },
    {
      "constant": false,
      "inputs": [
        {
          "name": "_CortexName",
          "type": "string"
        },
        {
          "name": "_tokenName",
          "type": "string"
        },
        {
          "name": "_tokenSym",
          "type": "string"
        },
        {
          "name": "_synaps",
          "type": "address"
        },
        {
          "name": "_isTransferable",
          "type": "bool"
        },
        {
          "name": "_maxSupply",
          "type": "uint256"
        }
      ],
      "name": "createCortex",
      "outputs": [],
      "payable": false,
      "stateMutability": "nonpayable",
      "type": "function"
    },
    {
      "constant": true,
      "inputs": [
        {
          "name": "_Name",
          "type": "string"
        }
      ],
      "name": "retrieveCortex",
      "outputs": [
        {
          "name": "",
          "type": "address"
        }
      ],
      "payable": false,
      "stateMutability": "view",
      "type": "function"
    },
    {
      "constant": true,
      "inputs": [
        {
          "name": "_Name",
          "type": "string"
        }
      ],
      "name": "cortexNameTaken",
      "outputs": [
        {
          "name": "",
          "type": "bool"
        }
      ],
      "payable": false,
      "stateMutability": "view",
      "type": "function"
    },
    {
      "constant": false,
      "inputs": [
        {
          "name": "_NeuronName",
          "type": "string"
        },
        {
          "name": "_neuronFactoryAddress",
          "type": "address"
        }
      ],
      "name": "addCoreNueron",
      "outputs": [],
      "payable": false,
      "stateMutability": "nonpayable",
      "type": "function"
    },
    {
      "constant": false,
      "inputs": [
        {
          "name": "_NeuronName",
          "type": "string"
        },
        {
          "name": "_neuronFactoryAddress",
          "type": "address"
        }
      ],
      "name": "addPeripheralNueron",
      "outputs": [],
      "payable": false,
      "stateMutability": "nonpayable",
      "type": "function"
    },
    {
      "constant": false,
      "inputs": [
        {
          "name": "_Cortex",
          "type": "address"
        },
        {
          "name": "_neuronName",
          "type": "string"
        }
      ],
      "name": "_neuroGensis",
      "outputs": [
        {
          "name": "",
          "type": "address"
        }
      ],
      "payable": false,
      "stateMutability": "nonpayable",
      "type": "function"
    },
    {
      "constant": false,
      "inputs": [
        {
          "name": "_tokenName",
          "type": "string"
        },
        {
          "name": "_tokenSym",
          "type": "string"
        },
        {
          "name": "_isTransferable",
          "type": "bool"
        },
        {
          "name": "_isRep",
          "type": "bool"
        },
        {
          "name": "_Creator",
          "type": "address"
        },
        {
          "name": "_maxSupply",
          "type": "uint256"
        }
      ],
      "name": "createSynaps",
      "outputs": [
        {
          "name": "",
          "type": "address"
        }
      ],
      "payable": false,
      "stateMutability": "nonpayable",
      "type": "function"
    }
  ],
  "bytecode": "0x6080604081905261001060a061002c565b818103601f190182526040528051602090910120606655610039565b61098a80612c8083390190565b612c38806100486000396000f3fe608060405234801561001057600080fd5b5060043610610180576000357c0100000000000000000000000000000000000000000000000000000000900480637d9ef10a116100eb578063b3eeb5e2116100a4578063b3eeb5e2146102d4578063bb160fc7146102e7578063bdafc788146102ef578063c4d66de814610302578063c50e154c14610315578063d0a087c814610328578063f2fde38b1461033b57610180565b80637d9ef10a1461027657806381ae1f5b1461027e57806385289225146102915780638da5cb5b146102a45780638f32d59b146102ac578063a26d91df146102c157610180565b80634e09a6ed1161013d5780634e09a6ed1461020f57806352ba7178146102225780636150864c146102355780636161e0ad1461024857806361a6b1f91461025b578063715018a61461026e57610180565b8063087c48551461018557806323128988146101ae578063290f8f56146101c3578063332d6626146101d65780633b9a0bdd146101e95780633e60f1c9146101fc575b600080fd5b610198610193366004611902565b61034e565b6040516101a59190611fab565b60405180910390f35b6101c16101bc366004611a8e565b610369565b005b6101986101d1366004611ce5565b6104ff565b6101986101e4366004611ce5565b6105f7565b6101986101f7366004611c3b565b610641565b61019861020a366004611ad5565b610669565b61019861021d3660046119d7565b6106f4565b610198610230366004611a29565b61084a565b610198610243366004611c78565b610881565b6101c1610256366004611a8e565b610899565b610198610269366004611c3b565b6109fd565b6101c1610a0b565b610198610a6c565b61019861028c366004611c59565b610a7b565b6101c161029f366004611946565b610afa565b610198610d3c565b6102b4610d4b565b6040516101a59190612014565b6101986102cf366004611a59565b610d71565b6101986102e23660046119d7565b610de2565b610198610f43565b6102b46102fd366004611902565b610f52565b6101c1610310366004611902565b610f67565b6101c1610323366004611b8b565b61102d565b6102b4610336366004611a59565b6113d9565b6101c1610349366004611902565b611444565b606d60205260009081526040902054600160a060020a031681565b610371610d4b565b151561039b5760405160e560020a62461bcd0281526004016103929061212a565b60405180910390fd5b606b826040518082805190602001908083835b602083106103cd5780518252601f1990920191602091820191016103ae565b51815160209384036101000a6000190180199092169116179052920194855250604051938490030190922054600160a060020a031615915061042690505760405160e560020a62461bcd0281526004016103929061211a565b80606b836040518082805190602001908083835b602083106104595780518252601f19909201916020918201910161043a565b51815160209384036101000a6000190180199092169116179052920194855250604080519485900382019094208054600160a060020a0319908116600160a060020a0397881617909155959094166000818152606c909552928420805460ff19166001908117909155606f8054918201815590945250507f39f2babe526038520877fc7c33d81accf578af4a06c5fa6b0d038cae36e12711909101805490921617905550565b6000806105e087878787306040516020018086815260200185600160a060020a0316600160a060020a0316606060020a02815260140184600160a060020a0316600160a060020a0316606060020a02815260140183805190602001908083835b6020831061057e5780518252601f19909201916020918201910161055f565b6001836020036101000a03801982511681845116808217855250505050505090500182600160a060020a0316600160a060020a0316606060020a0281526014019550505050505060405160208183030381529060405280519060200120611479565b90506105ec81846114ca565b979650505050505050565b60008061060787878787876104ff565b9050600160a060020a03811615156106345760405160e560020a62461bcd0281526004016103929061210a565b6105ec87878787856115b9565b607080548290811061064f57fe5b600091825260209091200154600160a060020a0316905081565b6000606087878787878760405160240161068896959493929190612022565b60408051601f19818403018152919052602081018051600160e060020a03167f0898d385000000000000000000000000000000000000000000000000000000001790526068549091506000906106e790600160a060020a031683610de2565b9998505050505050505050565b600080606b836040518082805190602001908083835b602083106107295780518252601f19909201916020918201910161070a565b51815160209384036101000a600019018019909216911617905292019485525060405193849003018320547f77222509000000000000000000000000000000000000000000000000000000008452600160a060020a031693506000928492506377222509915061079d908890600401611fab565b602060405180830381600087803b1580156107b757600080fd5b505af11580156107cb573d6000803e3d6000fd5b505050506040513d601f19601f820116820180604052506107ef9190810190611928565b600160a060020a038082166000818152606d602090815260408083208054958c16600160a060020a031996871681179091558352606e8252822080546001810182559083529120018054909216179055925050505b92915050565b606e6020528160005260406000208181548110151561086557fe5b600091825260209091200154600160a060020a03169150829050565b600061089085858585336115b9565b95945050505050565b606b826040518082805190602001908083835b602083106108cb5780518252601f1990920191602091820191016108ac565b51815160209384036101000a6000190180199092169116179052920194855250604051938490030190922054600160a060020a031615915061092490505760405160e560020a62461bcd0281526004016103929061211a565b80606b836040518082805190602001908083835b602083106109575780518252601f199092019160209182019101610938565b51815160209384036101000a6000190180199092169116179052920194855250604080519485900382019094208054600160a060020a0319908116600160a060020a0397881617909155959094166000818152606c909552928420805460ff1916600190811790915560708054918201815590945250507f8f6b23ffa15f0465e3176e15ca644cf24f86dc1312fe715484e3c4aead5eb78b909101805490921617905550565b606f80548290811061064f57fe5b610a13610d4b565b1515610a345760405160e560020a62461bcd0281526004016103929061212a565b603354604051600091600160a060020a031690600080516020612bdf833981519152908390a360338054600160a060020a0319169055565b606854600160a060020a031681565b600080610a888484611684565b606654604080517fff00000000000000000000000000000000000000000000000000000000000000602080830191909152606060020a30810260218401526035830195909552605580830194909452825180830390940184526075909101909152815191012081020491505092915050565b600054610100900460ff1680610b135750610b136116c0565b80610b21575060005460ff16155b1515610b425760405160e560020a62461bcd0281526004016103929061213a565b600054610100900460ff16158015610b6d576000805460ff1961ff0019909116610100171660011790555b610b7633610f67565b60678054600160a060020a03808816600160a060020a03199283161790925560688054928716929091169190911790558151835114610bca5760405160e560020a62461bcd0281526004016103929061214a565b60005b8251811015610d22578281815181101515610be457fe5b90602001906020020151606b8583815181101515610bfe57fe5b906020019060200201516040518082805190602001908083835b60208310610c375780518252601f199092019160209182019101610c18565b51815160209384036101000a600019018019909216911617905292019485525060405193849003019092208054600160a060020a031916600160a060020a03949094169390931790925550508251600190606c90600090869085908110610c9a57fe5b602090810291909101810151600160a060020a03168252810191909152604001600020805460ff19169115159190911790558251606f90849083908110610cdd57fe5b6020908102919091018101518254600180820185556000948552929093209092018054600160a060020a031916600160a060020a039093169290921790915501610bcd565b508015610d35576000805461ff00191690555b5050505050565b603354600160a060020a031690565b603354600090600160a060020a0316610d626116c6565b600160a060020a031614905090565b60006069826040518082805190602001908083835b60208310610da55780518252601f199092019160209182019101610d86565b51815160209384036101000a6000190180199092169116179052920194855250604051938490030190922054600160a060020a0316949350505050565b6040517f3d602d80600a3d3981f3363d3d373d3d3d363d730000000000000000000000008152606060020a8302601482018190527f5af43d82803e903d91602b57fd5bf30000000000000000000000000000000000602883015260009160378184f09250507efffc2da0b561cae30d9826d37709e9421c4725faebc226cbbb7ef5fc5e734982604051610e759190611fab565b60405180910390a1600083511115610f3c57600082600160a060020a0316846040518082805190602001908083835b60208310610ec35780518252601f199092019160209182019101610ea4565b6001836020036101000a0380198251168184511680821785525050505050509050019150506000604051808303816000865af19150503d8060008114610f25576040519150601f19603f3d011682016040523d82523d6000602084013e610f2a565b606091505b50509050801515610f3a57600080fd5b505b5092915050565b606754600160a060020a031681565b606c6020526000908152604090205460ff1681565b600054610100900460ff1680610f805750610f806116c0565b80610f8e575060005460ff16155b1515610faf5760405160e560020a62461bcd0281526004016103929061213a565b600054610100900460ff16158015610fda576000805460ff1961ff0019909116610100171660011790555b60338054600160a060020a031916600160a060020a038481169190911791829055604051911690600090600080516020612bdf833981519152908290a38015611029576000805461ff00191690555b5050565b606a866040518082805190602001908083835b6020831061105f5780518252601f199092019160209182019101611040565b51815160001960209485036101000a0190811690199190911617905292019485525060405193849003019092205460ff1615156001141591506110b990505760405160e560020a62461bcd0281526004016103929061215a565b6000600160a060020a03841615156111fd57604080517f566f74696e6741707000000000000000000000000000000000000000000000008152606b600982015290519081900360290181205460609161112f918a918a918a916000913391600160a060020a03909116908b908b9060240161207d565b60408051601f19818403018152919052602081018051600160e060020a031660e460020a6309b436c70217905260675490915061117590600160a060020a031682610de2565b9150816069896040518082805190602001908083835b602083106111aa5780518252601f19909201916020918201910161118b565b51815160209384036101000a600019018019909216911617905292019485525060405193849003019092208054600160a060020a031916600160a060020a03949094169390931790925550611329915050565b604080517f566f74696e6741707000000000000000000000000000000000000000000000008152606b6009820152905190819003602901812054606091611260918a918a918a918a913391600160a060020a03909116908b908b9060240161207d565b60408051601f19818403018152919052602081018051600160e060020a031660e460020a6309b436c7021790526067549091506112a690600160a060020a031682610de2565b9150816069896040518082805190602001908083835b602083106112db5780518252601f1990920191602091820191016112bc565b51815160209384036101000a600019018019909216911617905292019485525060405193849003019092208054600160a060020a031916600160a060020a0394909416939093179092555050505b6001606a886040518082805190602001908083835b6020831061135d5780518252601f19909201916020918201910161133e565b51815160209384036101000a600019018019909216911617905292019485525060405193849003018320805460ff191694151594909417909355507f6361531792c6d1906d164766ab4d654d52625a08c50ff690efa5935b8de2d05991506113c89083908a90611ff4565b60405180910390a150505050505050565b6000606a826040518082805190602001908083835b6020831061140d5780518252601f1990920191602091820191016113ee565b51815160209384036101000a600019018019909216911617905292019485525060405193849003019092205460ff16949350505050565b61144c610d4b565b151561146d5760405160e560020a62461bcd0281526004016103929061212a565b611476816116ca565b50565b604080517f19457468657265756d205369676e6564204d6573736167653a0a333200000000602080830191909152603c8083019490945282518083039094018452605c909101909152815191012090565b80516000906041146114de57506000610844565b60208201516040830151606084015160001a7f7fffffffffffffffffffffffffffffff5d576e7357a4501ddfe92f46681b20a08211156115245760009350505050610844565b8060ff16601b1415801561153c57508060ff16601c14155b1561154d5760009350505050610844565b6040805160008152602080820180845289905260ff8416828401526060820186905260808201859052915160019260a0808401939192601f1981019281900390910190855afa1580156115a4573d6000803e3d6000fd5b5050604051601f190151979650505050505050565b6000806115c6878461173f565b90507efffc2da0b561cae30d9826d37709e9421c4725faebc226cbbb7ef5fc5e7349816040516115f69190611fb9565b60405180910390a16040517fcf7a1d77000000000000000000000000000000000000000000000000000000008152600160a060020a0382169063cf7a1d779061164790899089908990600401611fc7565b600060405180830381600087803b15801561166157600080fd5b505af1158015611675573d6000803e3d6000fd5b50929998505050505050505050565b60408051602080820194909452600160a060020a0392909216606060020a02828201528051808303603401815260549092019052805191012090565b303b1590565b3390565b600160a060020a03811615156116f55760405160e560020a62461bcd028152600401610392906120fa565b603354604051600160a060020a03808416921690600080516020612bdf83398151915290600090a360338054600160a060020a031916600160a060020a0392909216919091179055565b60008060606040518060200161175490611793565b601f198282030182526040529050600061176e8686611684565b9050808251602084016000f59250823b151561178957600080fd5b5090949350505050565b61098a8061225583390190565b60006117ac82356121de565b9392505050565b60006117ac82516121de565b6000601f820183136117d057600080fd5b81356117e36117de82612191565b61216a565b9150818183526020840193506020810190508385602084028201111561180857600080fd5b60005b83811015611834578161181e88826117a0565b845250602092830192919091019060010161180b565b5050505092915050565b6000601f8201831361184f57600080fd5b813561185d6117de82612191565b81815260209384019390925082018360005b83811015611834578135860161188588826118a7565b845250602092830192919091019060010161186f565b60006117ac82356121e9565b6000601f820183136118b857600080fd5b81356118c66117de826121b2565b915080825260208301602083018583830111156118e257600080fd5b6118ed83828461220e565b50505092915050565b60006117ac82356121fa565b60006020828403121561191457600080fd5b600061192084846117a0565b949350505050565b60006020828403121561193a57600080fd5b600061192084846117b3565b6000806000806080858703121561195c57600080fd5b600061196887876117a0565b9450506020611979878288016117a0565b935050604085013567ffffffffffffffff81111561199657600080fd5b6119a28782880161183e565b925050606085013567ffffffffffffffff8111156119bf57600080fd5b6119cb878288016117bf565b91505092959194509250565b600080604083850312156119ea57600080fd5b60006119f685856117a0565b925050602083013567ffffffffffffffff811115611a1357600080fd5b611a1f858286016118a7565b9150509250929050565b60008060408385031215611a3c57600080fd5b6000611a4885856117a0565b9250506020611a1f858286016118f6565b600060208284031215611a6b57600080fd5b813567ffffffffffffffff811115611a8257600080fd5b611920848285016118a7565b60008060408385031215611aa157600080fd5b823567ffffffffffffffff811115611ab857600080fd5b611ac4858286016118a7565b9250506020611a1f858286016117a0565b60008060008060008060c08789031215611aee57600080fd5b863567ffffffffffffffff811115611b0557600080fd5b611b1189828a016118a7565b965050602087013567ffffffffffffffff811115611b2e57600080fd5b611b3a89828a016118a7565b9550506040611b4b89828a0161189b565b9450506060611b5c89828a0161189b565b9350506080611b6d89828a016117a0565b92505060a0611b7e89828a016118f6565b9150509295509295509295565b60008060008060008060c08789031215611ba457600080fd5b863567ffffffffffffffff811115611bbb57600080fd5b611bc789828a016118a7565b965050602087013567ffffffffffffffff811115611be457600080fd5b611bf089828a016118a7565b955050604087013567ffffffffffffffff811115611c0d57600080fd5b611c1989828a016118a7565b9450506060611c2a89828a016117a0565b9350506080611b6d89828a0161189b565b600060208284031215611c4d57600080fd5b600061192084846118f6565b60008060408385031215611c6c57600080fd5b6000611ac485856118f6565b60008060008060808587031215611c8e57600080fd5b6000611c9a87876118f6565b9450506020611cab878288016117a0565b9350506040611cbc878288016117a0565b925050606085013567ffffffffffffffff811115611cd957600080fd5b6119cb878288016118a7565b600080600080600060a08688031215611cfd57600080fd5b6000611d0988886118f6565b9550506020611d1a888289016117a0565b9450506040611d2b888289016117a0565b935050606086013567ffffffffffffffff811115611d4857600080fd5b611d54888289016118a7565b925050608086013567ffffffffffffffff811115611d7157600080fd5b611d7d888289016118a7565b9150509295509295909350565b611d93816121fd565b82525050565b611d93816121de565b611d93816121e9565b6000611db6826121da565b808452611dca81602086016020860161221a565b611dd38161224a565b9093016020019392505050565b602681527f4f776e61626c653a206e6577206f776e657220697320746865207a65726f206160208201527f6464726573730000000000000000000000000000000000000000000000000000604082015260600190565b601181527f496e76616c6964207369676e6174757265000000000000000000000000000000602082015260400190565b601881527f4572726f723a206e6575726f6e206e616d652074616b656e0000000000000000602082015260400190565b60208082527f4f776e61626c653a2063616c6c6572206973206e6f7420746865206f776e65729082015260400190565b602e81527f436f6e747261637420696e7374616e63652068617320616c726561647920626560208201527f656e20696e697469616c697a6564000000000000000000000000000000000000604082015260600190565b601c81527f4572726f723a204172726179204c656e677468204d69736d6174636800000000602082015260400190565b602a81527f4e616d65204572726f723a20546869732044414f206e616d6520697320616c7260208201527f656164792074616b656e00000000000000000000000000000000000000000000604082015260600190565b611d93816121fa565b602081016108448284611d99565b602081016108448284611d8a565b60608101611fd58286611d99565b611fe26020830185611d99565b81810360408301526108908184611dab565b604081016120028285611d99565b81810360208301526119208184611dab565b602081016108448284611da2565b60c080825281016120338189611dab565b905081810360208301526120478188611dab565b90506120566040830187611da2565b6120636060830186611da2565b6120706080830185611d99565b6105ec60a0830184611fa2565b610100808252810161208f818b611dab565b905081810360208301526120a3818a611dab565b905081810360408301526120b78189611dab565b90506120c66060830188611d99565b6120d36080830187611d99565b6120e060a0830186611d99565b6120ed60c0830185611da2565b6106e760e0830184611fa2565b6020808252810161084481611de0565b6020808252810161084481611e36565b6020808252810161084481611e66565b6020808252810161084481611e96565b6020808252810161084481611ec6565b6020808252810161084481611f1c565b6020808252810161084481611f4c565b60405181810167ffffffffffffffff8111828210171561218957600080fd5b604052919050565b600067ffffffffffffffff8211156121a857600080fd5b5060209081020190565b600067ffffffffffffffff8211156121c957600080fd5b506020601f91909101601f19160190565b5190565b6000610844826121ee565b151590565b600160a060020a031690565b90565b6000610844826000610844826121de565b82818337506000910152565b60005b8381101561223557818101518382015260200161221d565b83811115612244576000848401525b50505050565b601f01601f19169056fe608060405234801561001057600080fd5b5061096a806100206000396000f3fe60806040526004361061007c577c010000000000000000000000000000000000000000000000000000000060003504633659cfe681146100865780634f1ef286146100b95780635c60da1b146101395780638f2839701461016a578063cf7a1d771461019d578063d1f578941461025c578063f851a44014610312575b610084610327565b005b34801561009257600080fd5b50610084600480360360208110156100a957600080fd5b5035600160a060020a0316610341565b610084600480360360408110156100cf57600080fd5b600160a060020a0382351691908101906040810160208201356401000000008111156100fa57600080fd5b82018360208201111561010c57600080fd5b8035906020019184600183028401116401000000008311171561012e57600080fd5b50909250905061037b565b34801561014557600080fd5b5061014e61042a565b60408051600160a060020a039092168252519081900360200190f35b34801561017657600080fd5b506100846004803603602081101561018d57600080fd5b5035600160a060020a0316610467565b610084600480360360608110156101b357600080fd5b600160a060020a0382358116926020810135909116918101906060810160408201356401000000008111156101e757600080fd5b8201836020820111156101f957600080fd5b8035906020019184600183028401116401000000008311171561021b57600080fd5b91908080601f016020809104026020016040519081016040528093929190818152602001838380828437600092019190915250929550610526945050505050565b6100846004803603604081101561027257600080fd5b600160a060020a03823516919081019060408101602082013564010000000081111561029d57600080fd5b8201836020820111156102af57600080fd5b803590602001918460018302840111640100000000831117156102d157600080fd5b91908080601f0160208091040260200160405190810160405280939291908181526020018383808284376000920191909152509295506105a4945050505050565b34801561031e57600080fd5b5061014e6106d7565b61032f610702565b61033f61033a61075c565b61076f565b565b610349610793565b600160a060020a031633600160a060020a031614156103705761036b816107a6565b610378565b610378610327565b50565b610383610793565b600160a060020a031633600160a060020a0316141561041d576103a5836107a6565b600083600160a060020a031683836040518083838082843760405192019450600093509091505080830381855af49150503d8060008114610402576040519150601f19603f3d011682016040523d82523d6000602084013e610407565b606091505b5050905080151561041757600080fd5b50610425565b610425610327565b505050565b6000610434610793565b600160a060020a031633600160a060020a0316141561045c5761045561075c565b9050610464565b610464610327565b90565b61046f610793565b600160a060020a031633600160a060020a0316141561037057600160a060020a03811615156104d25760405160e560020a62461bcd02815260040180806020018281038252603681526020018061088e6036913960400191505060405180910390fd5b7f7e644d79422f17c01e4894b5f4f588d331ebfa28653d42ae832dc59e38c9798f6104fb610793565b60408051600160a060020a03928316815291841660208301528051918290030190a161036b816107e6565b600061053061075c565b600160a060020a03161461054357600080fd5b61054d83826105a4565b604080517f656970313936372e70726f78792e61646d696e00000000000000000000000000815290519081900360130190206000805160206108c48339815191526000199091011461059b57fe5b610425826107e6565b60006105ae61075c565b600160a060020a0316146105c157600080fd5b604080517f656970313936372e70726f78792e696d706c656d656e746174696f6e000000008152905190819003601c0190206000805160206108e48339815191526000199091011461060f57fe5b610618826107f8565b6000815111156106d357600082600160a060020a0316826040518082805190602001908083835b6020831061065e5780518252601f19909201916020918201910161063f565b6001836020036101000a038019825116818451168082178552505050505050905001915050600060405180830381855af49150503d80600081146106be576040519150601f19603f3d011682016040523d82523d6000602084013e6106c3565b606091505b5050905080151561042557600080fd5b5050565b60006106e1610793565b600160a060020a031633600160a060020a0316141561045c57610455610793565b61070a610793565b600160a060020a03163314156107545760405160e560020a62461bcd02815260040180806020018281038252603281526020018061085c6032913960400191505060405180910390fd5b61033f61033f565b6000805160206108e48339815191525490565b3660008037600080366000845af43d6000803e80801561078e573d6000f35b3d6000fd5b6000805160206108c48339815191525490565b6107af816107f8565b604051600160a060020a038216907fbc7cd75a20ee27fd9adebab32041f755214dbc6bffa90cc0225b39da2e5c2d3b90600090a250565b6000805160206108c483398151915255565b61080181610853565b15156108415760405160e560020a62461bcd02815260040180806020018281038252603b815260200180610904603b913960400191505060405180910390fd5b6000805160206108e483398151915255565b6000903b119056fe43616e6e6f742063616c6c2066616c6c6261636b2066756e6374696f6e2066726f6d207468652070726f78792061646d696e43616e6e6f74206368616e6765207468652061646d696e206f6620612070726f787920746f20746865207a65726f2061646472657373b53127684a568b3173ae13b9f8a6016e243e63b6e8ee1178d6a717850b5d6103360894a13ba1a3210667c828492db98dca3e2076cc3735a920a3ca505d382bbc43616e6e6f742073657420612070726f787920696d706c656d656e746174696f6e20746f2061206e6f6e2d636f6e74726163742061646472657373a165627a7a72305820ea329dc3282934e7818225b822eefad1ce16ff1ab9e1362e9ed72221f03b980f00298be0079c531659141344cd1fd0a4f28419497f9722a3daafe3b4186f6b6457e0a265627a7a723058205df6acbd9f4d87926af8562abdb0ac7cf89d9b06e67c904884408f4eddb09f426c6578706572696d656e74616cf50037608060405234801561001057600080fd5b5061096a806100206000396000f3fe60806040526004361061007c577c010000000000000000000000000000000000000000000000000000000060003504633659cfe681146100865780634f1ef286146100b95780635c60da1b146101395780638f2839701461016a578063cf7a1d771461019d578063d1f578941461025c578063f851a44014610312575b610084610327565b005b34801561009257600080fd5b50610084600480360360208110156100a957600080fd5b5035600160a060020a0316610341565b610084600480360360408110156100cf57600080fd5b600160a060020a0382351691908101906040810160208201356401000000008111156100fa57600080fd5b82018360208201111561010c57600080fd5b8035906020019184600183028401116401000000008311171561012e57600080fd5b50909250905061037b565b34801561014557600080fd5b5061014e61042a565b60408051600160a060020a039092168252519081900360200190f35b34801561017657600080fd5b506100846004803603602081101561018d57600080fd5b5035600160a060020a0316610467565b610084600480360360608110156101b357600080fd5b600160a060020a0382358116926020810135909116918101906060810160408201356401000000008111156101e757600080fd5b8201836020820111156101f957600080fd5b8035906020019184600183028401116401000000008311171561021b57600080fd5b91908080601f016020809104026020016040519081016040528093929190818152602001838380828437600092019190915250929550610526945050505050565b6100846004803603604081101561027257600080fd5b600160a060020a03823516919081019060408101602082013564010000000081111561029d57600080fd5b8201836020820111156102af57600080fd5b803590602001918460018302840111640100000000831117156102d157600080fd5b91908080601f0160208091040260200160405190810160405280939291908181526020018383808284376000920191909152509295506105a4945050505050565b34801561031e57600080fd5b5061014e6106d7565b61032f610702565b61033f61033a61075c565b61076f565b565b610349610793565b600160a060020a031633600160a060020a031614156103705761036b816107a6565b610378565b610378610327565b50565b610383610793565b600160a060020a031633600160a060020a0316141561041d576103a5836107a6565b600083600160a060020a031683836040518083838082843760405192019450600093509091505080830381855af49150503d8060008114610402576040519150601f19603f3d011682016040523d82523d6000602084013e610407565b606091505b5050905080151561041757600080fd5b50610425565b610425610327565b505050565b6000610434610793565b600160a060020a031633600160a060020a0316141561045c5761045561075c565b9050610464565b610464610327565b90565b61046f610793565b600160a060020a031633600160a060020a0316141561037057600160a060020a03811615156104d25760405160e560020a62461bcd02815260040180806020018281038252603681526020018061088e6036913960400191505060405180910390fd5b7f7e644d79422f17c01e4894b5f4f588d331ebfa28653d42ae832dc59e38c9798f6104fb610793565b60408051600160a060020a03928316815291841660208301528051918290030190a161036b816107e6565b600061053061075c565b600160a060020a03161461054357600080fd5b61054d83826105a4565b604080517f656970313936372e70726f78792e61646d696e00000000000000000000000000815290519081900360130190206000805160206108c48339815191526000199091011461059b57fe5b610425826107e6565b60006105ae61075c565b600160a060020a0316146105c157600080fd5b604080517f656970313936372e70726f78792e696d706c656d656e746174696f6e000000008152905190819003601c0190206000805160206108e48339815191526000199091011461060f57fe5b610618826107f8565b6000815111156106d357600082600160a060020a0316826040518082805190602001908083835b6020831061065e5780518252601f19909201916020918201910161063f565b6001836020036101000a038019825116818451168082178552505050505050905001915050600060405180830381855af49150503d80600081146106be576040519150601f19603f3d011682016040523d82523d6000602084013e6106c3565b606091505b5050905080151561042557600080fd5b5050565b60006106e1610793565b600160a060020a031633600160a060020a0316141561045c57610455610793565b61070a610793565b600160a060020a03163314156107545760405160e560020a62461bcd02815260040180806020018281038252603281526020018061085c6032913960400191505060405180910390fd5b61033f61033f565b6000805160206108e48339815191525490565b3660008037600080366000845af43d6000803e80801561078e573d6000f35b3d6000fd5b6000805160206108c48339815191525490565b6107af816107f8565b604051600160a060020a038216907fbc7cd75a20ee27fd9adebab32041f755214dbc6bffa90cc0225b39da2e5c2d3b90600090a250565b6000805160206108c483398151915255565b61080181610853565b15156108415760405160e560020a62461bcd02815260040180806020018281038252603b815260200180610904603b913960400191505060405180910390fd5b6000805160206108e483398151915255565b6000903b119056fe43616e6e6f742063616c6c2066616c6c6261636b2066756e6374696f6e2066726f6d207468652070726f78792061646d696e43616e6e6f74206368616e6765207468652061646d696e206f6620612070726f787920746f20746865207a65726f2061646472657373b53127684a568b3173ae13b9f8a6016e243e63b6e8ee1178d6a717850b5d6103360894a13ba1a3210667c828492db98dca3e2076cc3735a920a3ca505d382bbc43616e6e6f742073657420612070726f787920696d706c656d656e746174696f6e20746f2061206e6f6e2d636f6e74726163742061646472657373a165627a7a72305820ea329dc3282934e7818225b822eefad1ce16ff1ab9e1362e9ed72221f03b980f0029",
  "source": "pragma solidity ^0.5.3;\npragma experimental ABIEncoderV2;\n\nimport \"../Interfaces/CortexI.sol\";\nimport \"../Interfaces/NeuronFactoryI.sol\";\nimport \"@openzeppelin/contracts-ethereum-package/contracts/ownership/Ownable.sol\";\nimport \"@openzeppelin/upgrades/contracts/Initializable.sol\";\nimport '@openzeppelin/upgrades/contracts/upgradeability/ProxyFactory.sol';\n\n////////////////////////////////////////////////////////////////////////////////////////////\n/// @title Matrix\n/// @author Christopher Dixon\n////////////////////////////////////////////////////////////////////////////////////////////\n/**\nThe Matrix contract is designed to produce and track individual ZDAO contracts\n**/\n\ncontract Matrix is Initializable, Ownable, ProxyFactory {\n\n    address public cortexInstance;\n    address public synapsInstance;\n    /// @notice cortexTracker is used to track a DAO's name to its address\n    mapping(string => address) private cortexTracker;\n    /// @notice nameTaken is used to track whether or not a DAO exists with a certain name\n    mapping(string => bool) private nameTaken;\n    ///@notice neuralNetwork is used to track a neuron name to its factories address\n    mapping(string => address) private neuralNetwork;\n    ///@notice isNeuron is a tracking of whether or not an address is a neuron factory\n    mapping(address => bool) public isNeuron;\n    ///@notice neuralMapToCortex maps a neuron address to its cortex address\n    mapping(address => address) public neuralMapToCortex;\n    ///@notice neuralMapFromCortex tracks a cotex address to an array of all neurons it has installed\n    mapping(address => address[]) public neuralMapFromCortex;\n    /// @notice coreNeurons is an array of all core neuron factory addresses\n    address[] public coreNeurons;\n    /// @notice peripheralNeurons is an array of a peripheral neuron factory addresses\n    address[] public peripheralNeurons;\n\n\n    event CortexCreated(address _cortexAdd, string _cotexName);\n\n    /**\n    @notice the initialize is fired only once during contract creation and is used to set up variables in the contract\n    @param _NeuronNames is an array of all availible core neuron names availible at deployment time\n    @param _initialCoreNeurons is an array of all availible core neuron addresses availible at deployment time\n    **/\n    function initialize(\n      address _cortexInstance,\n      address _synapsInstance,\n      string[] memory _NeuronNames,\n      address[] memory _initialCoreNeurons\n    ) initializer\n      public {\n        Ownable.initialize(msg.sender);\n        cortexInstance = _cortexInstance;\n        synapsInstance = _synapsInstance;\n        require(\n            _NeuronNames.length == _initialCoreNeurons.length,\n            \"Error: Array Length Mismatch\"\n        );\n        //loop through and store neuron info\n        for (uint256 i = 0; i < _initialCoreNeurons.length; ++i) {\n            neuralNetwork[_NeuronNames[i]] = _initialCoreNeurons[i];\n            isNeuron[_initialCoreNeurons[i]] = true;\n            coreNeurons.push(_initialCoreNeurons[i]);\n        }\n    }\n\n    /**\n     @notice createCortex is a public function that allows a user to create their own zDAO\n     @dev this function can create a rep token for the new DAO OR use an existing ERC20 token\n     @param _CortexName is the name of the DAO being created\n     @param _tokenName is the name of the DAO's rep token(leave blank if using an existing token)\n     @param _tokenSym is the symbol of the DAO's rep token(leave blank if using an existing token)\n     @param _synaps is the address of an existing ERC20 token that can represent the DAO's rep\n                (this would be set to 0x0 if not applicapble)\n     @param _isTransferable is a bool representing whether or not the rep token is transferable\n    **/\n    function createCortex(\n        string memory _CortexName,\n        string memory _tokenName,\n        string memory _tokenSym,\n        address _synaps,\n        bool _isTransferable,\n        uint256 _maxSupply\n    ) public {\n        require(\n            nameTaken[_CortexName] != true,\n            \"Name Error: This DAO name is already taken\"\n        );\n\n        CortexI newCortex;\n        ///if we are not using an existing token\n        if (_synaps == 0x0000000000000000000000000000000000000000) {\n          bytes memory payload = abi.encodeWithSignature(\"initialize(string,string,string,address,address,address,bool,uint256)\",\n          _CortexName,\n          _tokenName,\n          _tokenSym,\n          0x0000000000000000000000000000000000000000,\n          msg.sender,\n          neuralNetwork[\"VotingApp\"],\n          _isTransferable,\n          _maxSupply\n        );\n            newCortex = CortexI(deployMinimal(cortexInstance, payload));\n            cortexTracker[_CortexName] = address(newCortex);\n\n        } else {\n\n          bytes memory payload = abi.encodeWithSignature(\"initialize(string,string,string,address,address,address,bool,uint256)\",\n          _CortexName,\n          _tokenName,\n          _tokenSym,\n          _synaps,\n          msg.sender,\n          neuralNetwork[\"VotingApp\"],\n          _isTransferable,\n          _maxSupply\n        );\n          ///if we are using and existing token\n            newCortex = CortexI(deployMinimal(cortexInstance, payload));\n            cortexTracker[_CortexName] = address(newCortex);\n        }\n\n        nameTaken[_CortexName] = true;\n        emit CortexCreated(address(newCortex), _CortexName);\n    }\n\n    /**\n     @notice retrieveCortex is used to retrieve a Cortex's address by its name\n     @dev this is a view only function for front end use\n     @param _Name is the name of the Cortex who's address is being retrieved\n     @return the address of the Cortex\n    **/\n    function retrieveCortex(string memory _Name) public view returns (address) {\n        return cortexTracker[_Name];\n    }\n\n    /**\n     @notice cortexNameTaken is used to determine if a name for a Cortex is currently in use\n     @dev this is a view only function for front end use\n     @param _Name is the proposed name of a Cortex\n     @return a bool(true/false) for whether or not a Cortex with the input name exists\n    **/\n    function cortexNameTaken(string memory _Name) public view returns (bool) {\n        return nameTaken[_Name];\n    }\n\n    /**\n    @notice addCoreNueron allows the owner of this contract to add a core neuron to the matrix\n    @param _NeuronName is the name of the neuron being added\n    @param _neuronFactoryAddress is the factory address for the neuron being added\n    **/\n    function addCoreNueron(\n        string memory _NeuronName,\n        address _neuronFactoryAddress\n    ) public onlyOwner {\n        require(\n            neuralNetwork[_NeuronName] ==\n                0x0000000000000000000000000000000000000000,\n            \"Error: neuron name taken\"\n        );\n        neuralNetwork[_NeuronName] = _neuronFactoryAddress;\n        isNeuron[_neuronFactoryAddress] = true;\n        coreNeurons.push(_neuronFactoryAddress);\n    }\n\n    /**\n    @notice addPeripheralNueron allows the owner of this contract to add a peripheral neuron to the matrix\n    @param _NeuronName is the name of the neuron being added\n    @param _neuronFactoryAddress is the factory address for the neuron being added\n    **/\n    function addPeripheralNueron(\n        string memory _NeuronName,\n        address _neuronFactoryAddress\n    ) public {\n        require(\n            neuralNetwork[_NeuronName] ==\n                0x0000000000000000000000000000000000000000,\n            \"Error: neuron name taken\"\n        );\n        neuralNetwork[_NeuronName] = _neuronFactoryAddress;\n        isNeuron[_neuronFactoryAddress] = true;\n        peripheralNeurons.push(_neuronFactoryAddress);\n    }\n\n    /**\n    @notice _neuroGensis is used by a cortex to generate a new neural instance of a neuron\n    @param _Cortex is the address of the cortex who is generating a neuron\n    @param _neuronName is the name of the neuron being generated\n    **/\n    function _neuroGensis(address _Cortex, string memory _neuronName)\n        public\n        returns (address)\n    {\n        NeuronFactoryI neuralF = NeuronFactoryI(neuralNetwork[_neuronName]);\n        address neuron = neuralF.genesis(_Cortex);\n        neuralMapToCortex[neuron] = _Cortex;\n        neuralMapFromCortex[_Cortex].push(neuron);\n        return neuron;\n    }\n\n    /**\n    @notice the createSynaps function allows a user to create their own synaps token\n    @param _tokenName is the name of the token\n    @param _tokenSym is the symbol of the token\n    @param _Creator is the address of the person who created the synaps token.\n    @param _maxSupply is the maximum supply this synaps will be capped at(uncapped == 0)\n    **/\n        function createSynaps(\n          string memory _tokenName,\n          string memory _tokenSym,\n          bool _isTransferable,\n          bool _isRep,\n          address _Creator,\n          uint256 _maxSupply\n        ) public\n        returns(address){\n        bytes memory payload = abi.encodeWithSignature(\"initialize(string,string,bool,bool,address,uint256)\",\n        _tokenName,\n        _tokenSym,\n        _isTransferable,\n        _isRep,\n        _Creator,\n        _maxSupply\n      );\n        address syn = deployMinimal(synapsInstance, payload);\n          return syn;\n        }\n}\n",
  "sourcePath": "/home/stan36/repos/zer0/ZDAO/contracts/Matrix/Matrix.sol",
  "compiler": {
    "name": "solc",
    "version": "0.5.3+commit.10d17f24.Emscripten.clang"
  },
  "schemaVersion": "3.3.2",
  "updatedAt": "2021-02-25T00:58:00.197Z",
  "networkType": "ethereum",
  "devdoc": {
    "methods": {
      "_neuroGensis(address,string)": {
        "params": {
          "_Cortex": "is the address of the cortex who is generating a neuron",
          "_neuronName": "is the name of the neuron being generated*"
        }
      },
      "addCoreNueron(string,address)": {
        "params": {
          "_NeuronName": "is the name of the neuron being added",
          "_neuronFactoryAddress": "is the factory address for the neuron being added*"
        }
      },
      "addPeripheralNueron(string,address)": {
        "params": {
          "_NeuronName": "is the name of the neuron being added",
          "_neuronFactoryAddress": "is the factory address for the neuron being added*"
        }
      },
      "cortexNameTaken(string)": {
        "details": "this is a view only function for front end use",
        "params": {
          "_Name": "is the proposed name of a Cortex"
        },
        "return": "a bool(true/false) for whether or not a Cortex with the input name exists*"
      },
      "createCortex(string,string,string,address,bool,uint256)": {
        "details": "this function can create a rep token for the new DAO OR use an existing ERC20 token",
        "params": {
          "_CortexName": "is the name of the DAO being created",
          "_isTransferable": "is a bool representing whether or not the rep token is transferable*",
          "_synaps": "is the address of an existing ERC20 token that can represent the DAO's rep (this would be set to 0x0 if not applicapble)",
          "_tokenName": "is the name of the DAO's rep token(leave blank if using an existing token)",
          "_tokenSym": "is the symbol of the DAO's rep token(leave blank if using an existing token)"
        }
      },
      "createSynaps(string,string,bool,bool,address,uint256)": {
        "params": {
          "_Creator": "is the address of the person who created the synaps token.",
          "_maxSupply": "is the maximum supply this synaps will be capped at(uncapped == 0)*",
          "_tokenName": "is the name of the token",
          "_tokenSym": "is the symbol of the token"
        }
      },
      "initialize(address)": {
        "details": "Initializes the contract setting the deployer as the initial owner."
      },
      "initialize(address,address,string[],address[])": {
        "params": {
          "_NeuronNames": "is an array of all availible core neuron names availible at deployment time",
          "_initialCoreNeurons": "is an array of all availible core neuron addresses availible at deployment time*"
        }
      },
      "isOwner()": {
        "details": "Returns true if the caller is the current owner."
      },
      "owner()": {
        "details": "Returns the address of the current owner."
      },
      "renounceOwnership()": {
        "details": "Leaves the contract without owner. It will not be possible to call `onlyOwner` functions anymore. Can only be called by the current owner.     * > Note: Renouncing ownership will leave the contract without an owner, thereby removing any functionality that is only available to the owner."
      },
      "retrieveCortex(string)": {
        "details": "this is a view only function for front end use",
        "params": {
          "_Name": "is the name of the Cortex who's address is being retrieved"
        },
        "return": "the address of the Cortex*"
      },
      "transferOwnership(address)": {
        "details": "Transfers ownership of the contract to a new account (`newOwner`). Can only be called by the current owner."
      }
    }
  },
  "userdoc": {
    "methods": {
      "_neuroGensis(address,string)": {
        "notice": "_neuroGensis is used by a cortex to generate a new neural instance of a neuron"
      },
      "addCoreNueron(string,address)": {
        "notice": "addCoreNueron allows the owner of this contract to add a core neuron to the matrix"
      },
      "addPeripheralNueron(string,address)": {
        "notice": "addPeripheralNueron allows the owner of this contract to add a peripheral neuron to the matrix"
      },
      "cortexNameTaken(string)": {
        "notice": "cortexNameTaken is used to determine if a name for a Cortex is currently in use"
      },
      "createCortex(string,string,string,address,bool,uint256)": {
        "notice": "createCortex is a public function that allows a user to create their own zDAO"
      },
      "createSynaps(string,string,bool,bool,address,uint256)": {
        "notice": "the createSynaps function allows a user to create their own synaps token"
      },
      "initialize(address,address,string[],address[])": {
        "notice": "the initialize is fired only once during contract creation and is used to set up variables in the contract"
      },
      "retrieveCortex(string)": {
        "notice": "retrieveCortex is used to retrieve a Cortex's address by its name"
      }
    },
    "notice": "The Matrix contract is designed to produce and track individual ZDAO contracts*"
  }
}