{
  "contractName": "ProxyFactory",
  "abi": [
    {
      "inputs": [],
      "payable": false,
      "stateMutability": "nonpayable",
      "type": "constructor"
    },
    {
      "anonymous": false,
      "inputs": [
        {
          "indexed": false,
          "name": "proxy",
          "type": "address"
        }
      ],
      "name": "ProxyCreated",
      "type": "event"
    },
    {
      "constant": false,
      "inputs": [
        {
          "name": "_logic",
          "type": "address"
        },
        {
          "name": "_data",
          "type": "bytes"
        }
      ],
      "name": "deployMinimal",
      "outputs": [
        {
          "name": "proxy",
          "type": "address"
        }
      ],
      "payable": false,
      "stateMutability": "nonpayable",
      "type": "function"
    },
    {
      "constant": false,
      "inputs": [
        {
          "name": "_salt",
          "type": "uint256"
        },
        {
          "name": "_logic",
          "type": "address"
        },
        {
          "name": "_admin",
          "type": "address"
        },
        {
          "name": "_data",
          "type": "bytes"
        }
      ],
      "name": "deploy",
      "outputs": [
        {
          "name": "",
          "type": "address"
        }
      ],
      "payable": false,
      "stateMutability": "nonpayable",
      "type": "function"
    },
    {
      "constant": false,
      "inputs": [
        {
          "name": "_salt",
          "type": "uint256"
        },
        {
          "name": "_logic",
          "type": "address"
        },
        {
          "name": "_admin",
          "type": "address"
        },
        {
          "name": "_data",
          "type": "bytes"
        },
        {
          "name": "_signature",
          "type": "bytes"
        }
      ],
      "name": "deploySigned",
      "outputs": [
        {
          "name": "",
          "type": "address"
        }
      ],
      "payable": false,
      "stateMutability": "nonpayable",
      "type": "function"
    },
    {
      "constant": true,
      "inputs": [
        {
          "name": "_salt",
          "type": "uint256"
        },
        {
          "name": "_sender",
          "type": "address"
        }
      ],
      "name": "getDeploymentAddress",
      "outputs": [
        {
          "name": "",
          "type": "address"
        }
      ],
      "payable": false,
      "stateMutability": "view",
      "type": "function"
    },
    {
      "constant": true,
      "inputs": [
        {
          "name": "_salt",
          "type": "uint256"
        },
        {
          "name": "_logic",
          "type": "address"
        },
        {
          "name": "_admin",
          "type": "address"
        },
        {
          "name": "_data",
          "type": "bytes"
        },
        {
          "name": "_signature",
          "type": "bytes"
        }
      ],
      "name": "getSigner",
      "outputs": [
        {
          "name": "",
          "type": "address"
        }
      ],
      "payable": false,
      "stateMutability": "view",
      "type": "function"
    }
  ],
  "bytecode": "0x608060405234801561001057600080fd5b506040516100206020820161003c565b818103601f190182526040528051602090910120600055610049565b61098a8061159883390190565b611540806100586000396000f3fe608060405234801561001057600080fd5b5060043610610073577c01000000000000000000000000000000000000000000000000000000006000350463290f8f568114610078578063332d6626146101e15780636150864c1461032e57806381ae1f5b146103f4578063b3eeb5e214610420575b600080fd5b6101c5600480360360a081101561008e57600080fd5b813591600160a060020a036020820135811692604083013590911691908101906080810160608201356401000000008111156100c957600080fd5b8201836020820111156100db57600080fd5b803590602001918460018302840111640100000000831117156100fd57600080fd5b91908080601f016020809104026020016040519081016040528093929190818152602001838380828437600092019190915250929594936020810193503591505064010000000081111561015057600080fd5b82018360208201111561016257600080fd5b8035906020019184600183028401116401000000008311171561018457600080fd5b91908080601f0160208091040260200160405190810160405280939291908181526020018383808284376000920191909152509295506104d6945050505050565b60408051600160a060020a039092168252519081900360200190f35b6101c5600480360360a08110156101f757600080fd5b813591600160a060020a0360208201358116926040830135909116919081019060808101606082013564010000000081111561023257600080fd5b82018360208201111561024457600080fd5b8035906020019184600183028401116401000000008311171561026657600080fd5b91908080601f01602080910402602001604051908101604052809392919081815260200183838082843760009201919091525092959493602081019350359150506401000000008111156102b957600080fd5b8201836020820111156102cb57600080fd5b803590602001918460018302840111640100000000831117156102ed57600080fd5b91908080601f0160208091040260200160405190810160405280939291908181526020018383808284376000920191909152509295506105ce945050505050565b6101c56004803603608081101561034457600080fd5b813591600160a060020a0360208201358116926040830135909116919081019060808101606082013564010000000081111561037f57600080fd5b82018360208201111561039157600080fd5b803590602001918460018302840111640100000000831117156103b357600080fd5b91908080601f016020809104026020016040519081016040528093929190818152602001838380828437600092019190915250929550610664945050505050565b6101c56004803603604081101561040a57600080fd5b5080359060200135600160a060020a031661067c565b6101c56004803603604081101561043657600080fd5b600160a060020a03823516919081019060408101602082013564010000000081111561046157600080fd5b82018360208201111561047357600080fd5b8035906020019184600183028401116401000000008311171561049557600080fd5b91908080601f0160208091040260200160405190810160405280939291908181526020018383808284376000920191909152509295506106fc945050505050565b6000806105b787878787306040516020018086815260200185600160a060020a0316600160a060020a0316606060020a02815260140184600160a060020a0316600160a060020a0316606060020a02815260140183805190602001908083835b602083106105555780518252601f199092019160209182019101610536565b6001836020036101000a03801982511681845116808217855250505050505090500182600160a060020a0316600160a060020a0316606060020a0281526014019550505050505060405160208183030381529060405280519060200120610863565b90506105c381846108b4565b979650505050505050565b6000806105de87878787876104d6565b9050600160a060020a038116151561065757604080517f08c379a000000000000000000000000000000000000000000000000000000000815260206004820152601160248201527f496e76616c6964207369676e6174757265000000000000000000000000000000604482015290519081900360640190fd5b6105c387878787856109a3565b600061067385858585336109a3565b95945050505050565b6000806106898484610aed565b600054604080517fff00000000000000000000000000000000000000000000000000000000000000602080830191909152606060020a3081026021840152603583019590955260558083019490945282518083039094018452607590910190915281519101208102049150505b92915050565b6040517f3d602d80600a3d3981f3363d3d373d3d3d363d730000000000000000000000008152606060020a8302601482018190527f5af43d82803e903d91602b57fd5bf30000000000000000000000000000000000602883015260009160378184f060408051600160a060020a038316815290519194507efffc2da0b561cae30d9826d37709e9421c4725faebc226cbbb7ef5fc5e7349925081900360200190a160008351111561085c57600082600160a060020a0316846040518082805190602001908083835b602083106107e35780518252601f1990920191602091820191016107c4565b6001836020036101000a0380198251168184511680821785525050505050509050019150506000604051808303816000865af19150503d8060008114610845576040519150601f19603f3d011682016040523d82523d6000602084013e61084a565b606091505b5050905080151561085a57600080fd5b505b5092915050565b604080517f19457468657265756d205369676e6564204d6573736167653a0a333200000000602080830191909152603c8083019490945282518083039094018452605c909101909152815191012090565b80516000906041146108c8575060006106f6565b60208201516040830151606084015160001a7f7fffffffffffffffffffffffffffffff5d576e7357a4501ddfe92f46681b20a082111561090e57600093505050506106f6565b8060ff16601b1415801561092657508060ff16601c14155b1561093757600093505050506106f6565b6040805160008152602080820180845289905260ff8416828401526060820186905260808201859052915160019260a0808401939192601f1981019281900390910190855afa15801561098e573d6000803e3d6000fd5b5050604051601f190151979650505050505050565b6000806109b08784610b29565b60408051600160a060020a038316815290519192507efffc2da0b561cae30d9826d37709e9421c4725faebc226cbbb7ef5fc5e7349919081900360200190a16040517fcf7a1d77000000000000000000000000000000000000000000000000000000008152600160a060020a038781166004830190815287821660248401526060604484019081528751606485015287519285169363cf7a1d77938b938b938b939192909160840190602085019080838360005b83811015610a7c578181015183820152602001610a64565b50505050905090810190601f168015610aa95780820380516001836020036101000a031916815260200191505b50945050505050600060405180830381600087803b158015610aca57600080fd5b505af1158015610ade573d6000803e3d6000fd5b50929998505050505050505050565b60408051602080820194909452600160a060020a0392909216606060020a02828201528051808303603401815260549092019052805191012090565b600080606060405180602001610b3e90610b7d565b601f1982820301825260405290506000610b588686610aed565b9050808251602084016000f59250823b1515610b7357600080fd5b5090949350505050565b61098a80610b8b8339019056fe608060405234801561001057600080fd5b5061096a806100206000396000f3fe60806040526004361061007c577c010000000000000000000000000000000000000000000000000000000060003504633659cfe681146100865780634f1ef286146100b95780635c60da1b146101395780638f2839701461016a578063cf7a1d771461019d578063d1f578941461025c578063f851a44014610312575b610084610327565b005b34801561009257600080fd5b50610084600480360360208110156100a957600080fd5b5035600160a060020a0316610341565b610084600480360360408110156100cf57600080fd5b600160a060020a0382351691908101906040810160208201356401000000008111156100fa57600080fd5b82018360208201111561010c57600080fd5b8035906020019184600183028401116401000000008311171561012e57600080fd5b50909250905061037b565b34801561014557600080fd5b5061014e61042a565b60408051600160a060020a039092168252519081900360200190f35b34801561017657600080fd5b506100846004803603602081101561018d57600080fd5b5035600160a060020a0316610467565b610084600480360360608110156101b357600080fd5b600160a060020a0382358116926020810135909116918101906060810160408201356401000000008111156101e757600080fd5b8201836020820111156101f957600080fd5b8035906020019184600183028401116401000000008311171561021b57600080fd5b91908080601f016020809104026020016040519081016040528093929190818152602001838380828437600092019190915250929550610526945050505050565b6100846004803603604081101561027257600080fd5b600160a060020a03823516919081019060408101602082013564010000000081111561029d57600080fd5b8201836020820111156102af57600080fd5b803590602001918460018302840111640100000000831117156102d157600080fd5b91908080601f0160208091040260200160405190810160405280939291908181526020018383808284376000920191909152509295506105a4945050505050565b34801561031e57600080fd5b5061014e6106d7565b61032f610702565b61033f61033a61075c565b61076f565b565b610349610793565b600160a060020a031633600160a060020a031614156103705761036b816107a6565b610378565b610378610327565b50565b610383610793565b600160a060020a031633600160a060020a0316141561041d576103a5836107a6565b600083600160a060020a031683836040518083838082843760405192019450600093509091505080830381855af49150503d8060008114610402576040519150601f19603f3d011682016040523d82523d6000602084013e610407565b606091505b5050905080151561041757600080fd5b50610425565b610425610327565b505050565b6000610434610793565b600160a060020a031633600160a060020a0316141561045c5761045561075c565b9050610464565b610464610327565b90565b61046f610793565b600160a060020a031633600160a060020a0316141561037057600160a060020a03811615156104d25760405160e560020a62461bcd02815260040180806020018281038252603681526020018061088e6036913960400191505060405180910390fd5b7f7e644d79422f17c01e4894b5f4f588d331ebfa28653d42ae832dc59e38c9798f6104fb610793565b60408051600160a060020a03928316815291841660208301528051918290030190a161036b816107e6565b600061053061075c565b600160a060020a03161461054357600080fd5b61054d83826105a4565b604080517f656970313936372e70726f78792e61646d696e00000000000000000000000000815290519081900360130190206000805160206108c48339815191526000199091011461059b57fe5b610425826107e6565b60006105ae61075c565b600160a060020a0316146105c157600080fd5b604080517f656970313936372e70726f78792e696d706c656d656e746174696f6e000000008152905190819003601c0190206000805160206108e48339815191526000199091011461060f57fe5b610618826107f8565b6000815111156106d357600082600160a060020a0316826040518082805190602001908083835b6020831061065e5780518252601f19909201916020918201910161063f565b6001836020036101000a038019825116818451168082178552505050505050905001915050600060405180830381855af49150503d80600081146106be576040519150601f19603f3d011682016040523d82523d6000602084013e6106c3565b606091505b5050905080151561042557600080fd5b5050565b60006106e1610793565b600160a060020a031633600160a060020a0316141561045c57610455610793565b61070a610793565b600160a060020a03163314156107545760405160e560020a62461bcd02815260040180806020018281038252603281526020018061085c6032913960400191505060405180910390fd5b61033f61033f565b6000805160206108e48339815191525490565b3660008037600080366000845af43d6000803e80801561078e573d6000f35b3d6000fd5b6000805160206108c48339815191525490565b6107af816107f8565b604051600160a060020a038216907fbc7cd75a20ee27fd9adebab32041f755214dbc6bffa90cc0225b39da2e5c2d3b90600090a250565b6000805160206108c483398151915255565b61080181610853565b15156108415760405160e560020a62461bcd02815260040180806020018281038252603b815260200180610904603b913960400191505060405180910390fd5b6000805160206108e483398151915255565b6000903b119056fe43616e6e6f742063616c6c2066616c6c6261636b2066756e6374696f6e2066726f6d207468652070726f78792061646d696e43616e6e6f74206368616e6765207468652061646d696e206f6620612070726f787920746f20746865207a65726f2061646472657373b53127684a568b3173ae13b9f8a6016e243e63b6e8ee1178d6a717850b5d6103360894a13ba1a3210667c828492db98dca3e2076cc3735a920a3ca505d382bbc43616e6e6f742073657420612070726f787920696d706c656d656e746174696f6e20746f2061206e6f6e2d636f6e74726163742061646472657373a165627a7a72305820ea329dc3282934e7818225b822eefad1ce16ff1ab9e1362e9ed72221f03b980f0029a165627a7a7230582089fea989384cda7692811be62bcfac221282a7f33f851145048cf05eaf6f26c30029608060405234801561001057600080fd5b5061096a806100206000396000f3fe60806040526004361061007c577c010000000000000000000000000000000000000000000000000000000060003504633659cfe681146100865780634f1ef286146100b95780635c60da1b146101395780638f2839701461016a578063cf7a1d771461019d578063d1f578941461025c578063f851a44014610312575b610084610327565b005b34801561009257600080fd5b50610084600480360360208110156100a957600080fd5b5035600160a060020a0316610341565b610084600480360360408110156100cf57600080fd5b600160a060020a0382351691908101906040810160208201356401000000008111156100fa57600080fd5b82018360208201111561010c57600080fd5b8035906020019184600183028401116401000000008311171561012e57600080fd5b50909250905061037b565b34801561014557600080fd5b5061014e61042a565b60408051600160a060020a039092168252519081900360200190f35b34801561017657600080fd5b506100846004803603602081101561018d57600080fd5b5035600160a060020a0316610467565b610084600480360360608110156101b357600080fd5b600160a060020a0382358116926020810135909116918101906060810160408201356401000000008111156101e757600080fd5b8201836020820111156101f957600080fd5b8035906020019184600183028401116401000000008311171561021b57600080fd5b91908080601f016020809104026020016040519081016040528093929190818152602001838380828437600092019190915250929550610526945050505050565b6100846004803603604081101561027257600080fd5b600160a060020a03823516919081019060408101602082013564010000000081111561029d57600080fd5b8201836020820111156102af57600080fd5b803590602001918460018302840111640100000000831117156102d157600080fd5b91908080601f0160208091040260200160405190810160405280939291908181526020018383808284376000920191909152509295506105a4945050505050565b34801561031e57600080fd5b5061014e6106d7565b61032f610702565b61033f61033a61075c565b61076f565b565b610349610793565b600160a060020a031633600160a060020a031614156103705761036b816107a6565b610378565b610378610327565b50565b610383610793565b600160a060020a031633600160a060020a0316141561041d576103a5836107a6565b600083600160a060020a031683836040518083838082843760405192019450600093509091505080830381855af49150503d8060008114610402576040519150601f19603f3d011682016040523d82523d6000602084013e610407565b606091505b5050905080151561041757600080fd5b50610425565b610425610327565b505050565b6000610434610793565b600160a060020a031633600160a060020a0316141561045c5761045561075c565b9050610464565b610464610327565b90565b61046f610793565b600160a060020a031633600160a060020a0316141561037057600160a060020a03811615156104d25760405160e560020a62461bcd02815260040180806020018281038252603681526020018061088e6036913960400191505060405180910390fd5b7f7e644d79422f17c01e4894b5f4f588d331ebfa28653d42ae832dc59e38c9798f6104fb610793565b60408051600160a060020a03928316815291841660208301528051918290030190a161036b816107e6565b600061053061075c565b600160a060020a03161461054357600080fd5b61054d83826105a4565b604080517f656970313936372e70726f78792e61646d696e00000000000000000000000000815290519081900360130190206000805160206108c48339815191526000199091011461059b57fe5b610425826107e6565b60006105ae61075c565b600160a060020a0316146105c157600080fd5b604080517f656970313936372e70726f78792e696d706c656d656e746174696f6e000000008152905190819003601c0190206000805160206108e48339815191526000199091011461060f57fe5b610618826107f8565b6000815111156106d357600082600160a060020a0316826040518082805190602001908083835b6020831061065e5780518252601f19909201916020918201910161063f565b6001836020036101000a038019825116818451168082178552505050505050905001915050600060405180830381855af49150503d80600081146106be576040519150601f19603f3d011682016040523d82523d6000602084013e6106c3565b606091505b5050905080151561042557600080fd5b5050565b60006106e1610793565b600160a060020a031633600160a060020a0316141561045c57610455610793565b61070a610793565b600160a060020a03163314156107545760405160e560020a62461bcd02815260040180806020018281038252603281526020018061085c6032913960400191505060405180910390fd5b61033f61033f565b6000805160206108e48339815191525490565b3660008037600080366000845af43d6000803e80801561078e573d6000f35b3d6000fd5b6000805160206108c48339815191525490565b6107af816107f8565b604051600160a060020a038216907fbc7cd75a20ee27fd9adebab32041f755214dbc6bffa90cc0225b39da2e5c2d3b90600090a250565b6000805160206108c483398151915255565b61080181610853565b15156108415760405160e560020a62461bcd02815260040180806020018281038252603b815260200180610904603b913960400191505060405180910390fd5b6000805160206108e483398151915255565b6000903b119056fe43616e6e6f742063616c6c2066616c6c6261636b2066756e6374696f6e2066726f6d207468652070726f78792061646d696e43616e6e6f74206368616e6765207468652061646d696e206f6620612070726f787920746f20746865207a65726f2061646472657373b53127684a568b3173ae13b9f8a6016e243e63b6e8ee1178d6a717850b5d6103360894a13ba1a3210667c828492db98dca3e2076cc3735a920a3ca505d382bbc43616e6e6f742073657420612070726f787920696d706c656d656e746174696f6e20746f2061206e6f6e2d636f6e74726163742061646472657373a165627a7a72305820ea329dc3282934e7818225b822eefad1ce16ff1ab9e1362e9ed72221f03b980f0029",
  "source": "pragma solidity ^0.5.3;\n\nimport \"./InitializableAdminUpgradeabilityProxy.sol\";\nimport \"../cryptography/ECDSA.sol\";\n\ncontract ProxyFactory {\n  \n  event ProxyCreated(address proxy);\n\n  bytes32 private contractCodeHash;\n\n  constructor() public {\n    contractCodeHash = keccak256(\n      type(InitializableAdminUpgradeabilityProxy).creationCode\n    );\n  }\n\n  function deployMinimal(address _logic, bytes memory _data) public returns (address proxy) {\n    // Adapted from https://github.com/optionality/clone-factory/blob/32782f82dfc5a00d103a7e61a17a5dedbd1e8e9d/contracts/CloneFactory.sol\n    bytes20 targetBytes = bytes20(_logic);\n    assembly {\n      let clone := mload(0x40)\n      mstore(clone, 0x3d602d80600a3d3981f3363d3d373d3d3d363d73000000000000000000000000)\n      mstore(add(clone, 0x14), targetBytes)\n      mstore(add(clone, 0x28), 0x5af43d82803e903d91602b57fd5bf30000000000000000000000000000000000)\n      proxy := create(0, clone, 0x37)\n    }\n    \n    emit ProxyCreated(address(proxy));\n\n    if(_data.length > 0) {\n      (bool success,) = proxy.call(_data);\n      require(success);\n    }    \n  }\n\n  function deploy(uint256 _salt, address _logic, address _admin, bytes memory _data) public returns (address) {\n    return _deployProxy(_salt, _logic, _admin, _data, msg.sender);\n  }\n\n  function deploySigned(uint256 _salt, address _logic, address _admin, bytes memory _data, bytes memory _signature) public returns (address) {\n    address signer = getSigner(_salt, _logic, _admin, _data, _signature);\n    require(signer != address(0), \"Invalid signature\");\n    return _deployProxy(_salt, _logic, _admin, _data, signer);\n  }\n\n  function getDeploymentAddress(uint256 _salt, address _sender) public view returns (address) {\n    // Adapted from https://github.com/archanova/solidity/blob/08f8f6bedc6e71c24758d20219b7d0749d75919d/contracts/contractCreator/ContractCreator.sol\n    bytes32 salt = _getSalt(_salt, _sender);\n    bytes32 rawAddress = keccak256(\n      abi.encodePacked(\n        bytes1(0xff),\n        address(this),\n        salt,\n        contractCodeHash\n      )\n    );\n\n    return address(bytes20(rawAddress << 96));\n  }\n\n  function getSigner(uint256 _salt, address _logic, address _admin, bytes memory _data, bytes memory _signature) public view returns (address) {\n    bytes32 msgHash = OpenZeppelinUpgradesECDSA.toEthSignedMessageHash(\n      keccak256(\n        abi.encodePacked(\n          _salt, _logic, _admin, _data, address(this)\n        )\n      )\n    );\n\n    return OpenZeppelinUpgradesECDSA.recover(msgHash, _signature);\n  }\n\n  function _deployProxy(uint256 _salt, address _logic, address _admin, bytes memory _data, address _sender) internal returns (address) {\n    InitializableAdminUpgradeabilityProxy proxy = _createProxy(_salt, _sender);\n    emit ProxyCreated(address(proxy));\n    proxy.initialize(_logic, _admin, _data);\n    return address(proxy);\n  }\n\n  function _createProxy(uint256 _salt, address _sender) internal returns (InitializableAdminUpgradeabilityProxy) {\n    address payable addr;\n    bytes memory code = type(InitializableAdminUpgradeabilityProxy).creationCode;\n    bytes32 salt = _getSalt(_salt, _sender);\n\n    assembly {\n      addr := create2(0, add(code, 0x20), mload(code), salt)\n      if iszero(extcodesize(addr)) {\n        revert(0, 0)\n      }\n    }\n\n    return InitializableAdminUpgradeabilityProxy(addr);\n  }\n\n  function _getSalt(uint256 _salt, address _sender) internal pure returns (bytes32) {\n    return keccak256(abi.encodePacked(_salt, _sender)); \n  }\n}\n",
  "sourcePath": "@openzeppelin/upgrades/contracts/upgradeability/ProxyFactory.sol",
  "compiler": {
    "name": "solc",
    "version": "0.5.3+commit.10d17f24.Emscripten.clang"
  },
  "schemaVersion": "3.3.2",
  "updatedAt": "2021-02-25T00:55:11.406Z",
  "devdoc": {
    "methods": {}
  },
  "userdoc": {
    "methods": {}
  }
}