{
  "contractName": "Synaps",
  "abi": [
    {
      "inputs": [
        {
          "internalType": "string",
          "name": "_tokenName",
          "type": "string"
        },
        {
          "internalType": "string",
          "name": "_tokenSym",
          "type": "string"
        },
        {
          "internalType": "bool",
          "name": "_isTransferable",
          "type": "bool"
        },
        {
          "internalType": "bool",
          "name": "_isRep",
          "type": "bool"
        },
        {
          "internalType": "address",
          "name": "_DAOcreator",
          "type": "address"
        },
        {
          "internalType": "address",
          "name": "_bondingCurve",
          "type": "address"
        },
        {
          "internalType": "uint256",
          "name": "_maxSupply",
          "type": "uint256"
        }
      ],
      "stateMutability": "nonpayable",
      "type": "constructor"
    },
    {
      "anonymous": false,
      "inputs": [
        {
          "indexed": true,
          "internalType": "address",
          "name": "owner",
          "type": "address"
        },
        {
          "indexed": true,
          "internalType": "address",
          "name": "spender",
          "type": "address"
        },
        {
          "indexed": false,
          "internalType": "uint256",
          "name": "value",
          "type": "uint256"
        }
      ],
      "name": "Approval",
      "type": "event"
    },
    {
      "anonymous": false,
      "inputs": [
        {
          "indexed": true,
          "internalType": "address",
          "name": "previousOwner",
          "type": "address"
        },
        {
          "indexed": true,
          "internalType": "address",
          "name": "newOwner",
          "type": "address"
        }
      ],
      "name": "OwnershipTransferred",
      "type": "event"
    },
    {
      "anonymous": false,
      "inputs": [
        {
          "indexed": true,
          "internalType": "address",
          "name": "from",
          "type": "address"
        },
        {
          "indexed": true,
          "internalType": "address",
          "name": "to",
          "type": "address"
        },
        {
          "indexed": false,
          "internalType": "uint256",
          "name": "value",
          "type": "uint256"
        }
      ],
      "name": "Transfer",
      "type": "event"
    },
    {
      "inputs": [
        {
          "internalType": "address",
          "name": "owner",
          "type": "address"
        },
        {
          "internalType": "address",
          "name": "spender",
          "type": "address"
        }
      ],
      "name": "allowance",
      "outputs": [
        {
          "internalType": "uint256",
          "name": "",
          "type": "uint256"
        }
      ],
      "stateMutability": "view",
      "type": "function"
    },
    {
      "inputs": [
        {
          "internalType": "address",
          "name": "spender",
          "type": "address"
        },
        {
          "internalType": "uint256",
          "name": "amount",
          "type": "uint256"
        }
      ],
      "name": "approve",
      "outputs": [
        {
          "internalType": "bool",
          "name": "",
          "type": "bool"
        }
      ],
      "stateMutability": "nonpayable",
      "type": "function"
    },
    {
      "inputs": [
        {
          "internalType": "address",
          "name": "account",
          "type": "address"
        }
      ],
      "name": "balanceOf",
      "outputs": [
        {
          "internalType": "uint256",
          "name": "",
          "type": "uint256"
        }
      ],
      "stateMutability": "view",
      "type": "function"
    },
    {
      "inputs": [],
      "name": "decimals",
      "outputs": [
        {
          "internalType": "uint8",
          "name": "",
          "type": "uint8"
        }
      ],
      "stateMutability": "view",
      "type": "function"
    },
    {
      "inputs": [
        {
          "internalType": "address",
          "name": "spender",
          "type": "address"
        },
        {
          "internalType": "uint256",
          "name": "subtractedValue",
          "type": "uint256"
        }
      ],
      "name": "decreaseAllowance",
      "outputs": [
        {
          "internalType": "bool",
          "name": "",
          "type": "bool"
        }
      ],
      "stateMutability": "nonpayable",
      "type": "function"
    },
    {
      "inputs": [
        {
          "internalType": "address",
          "name": "spender",
          "type": "address"
        },
        {
          "internalType": "uint256",
          "name": "addedValue",
          "type": "uint256"
        }
      ],
      "name": "increaseAllowance",
      "outputs": [
        {
          "internalType": "bool",
          "name": "",
          "type": "bool"
        }
      ],
      "stateMutability": "nonpayable",
      "type": "function"
    },
    {
      "inputs": [],
      "name": "isRep",
      "outputs": [
        {
          "internalType": "bool",
          "name": "",
          "type": "bool"
        }
      ],
      "stateMutability": "view",
      "type": "function"
    },
    {
      "inputs": [],
      "name": "maxSupply",
      "outputs": [
        {
          "internalType": "uint256",
          "name": "",
          "type": "uint256"
        }
      ],
      "stateMutability": "view",
      "type": "function"
    },
    {
      "inputs": [],
      "name": "name",
      "outputs": [
        {
          "internalType": "string",
          "name": "",
          "type": "string"
        }
      ],
      "stateMutability": "view",
      "type": "function"
    },
    {
      "inputs": [],
      "name": "owner",
      "outputs": [
        {
          "internalType": "address",
          "name": "",
          "type": "address"
        }
      ],
      "stateMutability": "view",
      "type": "function"
    },
    {
      "inputs": [],
      "name": "renounceOwnership",
      "outputs": [],
      "stateMutability": "nonpayable",
      "type": "function"
    },
    {
      "inputs": [],
      "name": "symbol",
      "outputs": [
        {
          "internalType": "string",
          "name": "",
          "type": "string"
        }
      ],
      "stateMutability": "view",
      "type": "function"
    },
    {
      "inputs": [
        {
          "internalType": "address",
          "name": "",
          "type": "address"
        }
      ],
      "name": "tokenSpaceTracker",
      "outputs": [
        {
          "internalType": "uint256",
          "name": "",
          "type": "uint256"
        }
      ],
      "stateMutability": "view",
      "type": "function"
    },
    {
      "inputs": [
        {
          "internalType": "address",
          "name": "",
          "type": "address"
        }
      ],
      "name": "tokenTimeTracker",
      "outputs": [
        {
          "internalType": "uint256",
          "name": "",
          "type": "uint256"
        }
      ],
      "stateMutability": "view",
      "type": "function"
    },
    {
      "inputs": [],
      "name": "totalSupply",
      "outputs": [
        {
          "internalType": "uint256",
          "name": "",
          "type": "uint256"
        }
      ],
      "stateMutability": "view",
      "type": "function"
    },
    {
      "inputs": [
        {
          "internalType": "address",
          "name": "sender",
          "type": "address"
        },
        {
          "internalType": "address",
          "name": "recipient",
          "type": "address"
        },
        {
          "internalType": "uint256",
          "name": "amount",
          "type": "uint256"
        }
      ],
      "name": "transferFrom",
      "outputs": [
        {
          "internalType": "bool",
          "name": "",
          "type": "bool"
        }
      ],
      "stateMutability": "nonpayable",
      "type": "function"
    },
    {
      "inputs": [
        {
          "internalType": "address",
          "name": "newOwner",
          "type": "address"
        }
      ],
      "name": "transferOwnership",
      "outputs": [],
      "stateMutability": "nonpayable",
      "type": "function"
    },
    {
      "inputs": [],
      "name": "transferable",
      "outputs": [
        {
          "internalType": "bool",
          "name": "",
          "type": "bool"
        }
      ],
      "stateMutability": "view",
      "type": "function"
    },
    {
      "inputs": [
        {
          "internalType": "address",
          "name": "recipient",
          "type": "address"
        },
        {
          "internalType": "uint256",
          "name": "amount",
          "type": "uint256"
        }
      ],
      "name": "transfer",
      "outputs": [
        {
          "internalType": "bool",
          "name": "",
          "type": "bool"
        }
      ],
      "stateMutability": "nonpayable",
      "type": "function"
    },
    {
      "inputs": [
        {
          "internalType": "address",
          "name": "_to",
          "type": "address"
        },
        {
          "internalType": "uint256",
          "name": "_amount",
          "type": "uint256"
        }
      ],
      "name": "_Mint",
      "outputs": [],
      "stateMutability": "nonpayable",
      "type": "function"
    },
    {
      "inputs": [
        {
          "internalType": "address",
          "name": "_from",
          "type": "address"
        },
        {
          "internalType": "uint256",
          "name": "_amount",
          "type": "uint256"
        }
      ],
      "name": "_Burn",
      "outputs": [],
      "stateMutability": "nonpayable",
      "type": "function"
    },
    {
      "inputs": [
        {
          "internalType": "address",
          "name": "_account",
          "type": "address"
        }
      ],
      "name": "getRelativePosition",
      "outputs": [
        {
          "internalType": "uint256",
          "name": "time",
          "type": "uint256"
        },
        {
          "internalType": "uint256",
          "name": "space",
          "type": "uint256"
        }
      ],
      "stateMutability": "view",
      "type": "function"
    }
  ],
  "bytecode": "0x60806040523480156200001157600080fd5b506040516200196938038062001969833981810160405260e08110156200003757600080fd5b81019080805160405193929190846401000000008211156200005857600080fd5b9083019060208201858111156200006e57600080fd5b82516401000000008111828201881017156200008957600080fd5b82525081516020918201929091019080838360005b83811015620000b85781810151838201526020016200009e565b50505050905090810190601f168015620000e65780820380516001836020036101000a031916815260200191505b50604052602001805160405193929190846401000000008211156200010a57600080fd5b9083019060208201858111156200012057600080fd5b82516401000000008111828201881017156200013b57600080fd5b82525081516020918201929091019080838360005b838110156200016a57818101518382015260200162000150565b50505050905090810190601f168015620001985780820380516001836020036101000a031916815260200191505b5060409081526020820151908201516060830151608084015160a090940151929550909350919086866000620001d66001600160e01b036200030116565b600080546001600160a01b0319166001600160a01b03831690811782556040519293509160008051602062001949833981519152908290a350815162000224906004906020850190620005fa565b5080516200023a906005906020840190620005fa565b505060068054601260ff1991821617909155600880549091168715151761ff001916610100871515908102919091179091556007839055600114159050620002b3576200029983670de0b6b3a76400006001600160e01b036200030616565b620002ad836001600160e01b036200042216565b620002f4565b6001600160a01b03821615620002f457620002e082670de0b6b3a76400006001600160e01b036200030616565b620002f4826001600160e01b036200047116565b505050505050506200069c565b335b90565b6001600160a01b03821662000362576040805162461bcd60e51b815260206004820152601f60248201527f45524332303a206d696e7420746f20746865207a65726f206164647265737300604482015290519081900360640190fd5b62000379600083836001600160e01b036200057816565b62000395816003546200057d60201b62000dc91790919060201c565b6003556001600160a01b038216600090815260016020908152604090912054620003ca91839062000dc96200057d821b17901c565b6001600160a01b03831660008181526001602090815260408083209490945583518581529351929391927fddf252ad1be2c89b69c2b068fc378daa952ba7f163c4a11628f55a4df523b3ef9281900390910190a35050565b6001600160a01b038116600090815260096020526040812042905562000451826001600160e01b03620005df16565b6001600160a01b039092166000908152600a602052604090209190915550565b620004846001600160e01b036200030116565b6000546001600160a01b03908116911614620004e7576040805162461bcd60e51b815260206004820181905260248201527f4f776e61626c653a2063616c6c6572206973206e6f7420746865206f776e6572604482015290519081900360640190fd5b6001600160a01b0381166200052e5760405162461bcd60e51b8152600401808060200182810382526026815260200180620019236026913960400191505060405180910390fd5b600080546040516001600160a01b03808516939216916000805160206200194983398151915291a3600080546001600160a01b0319166001600160a01b0392909216919091179055565b505050565b600082820183811015620005d8576040805162461bcd60e51b815260206004820152601b60248201527f536166654d6174683a206164646974696f6e206f766572666c6f770000000000604482015290519081900360640190fd5b9392505050565b6001600160a01b031660009081526001602052604090205490565b828054600181600116156101000203166002900490600052602060002090601f016020900481019282601f106200063d57805160ff19168380011785556200066d565b828001600101855582156200066d579182015b828111156200066d57825182559160200191906001019062000650565b506200067b9291506200067f565b5090565b6200030391905b808211156200067b576000815560010162000686565b61127780620006ac6000396000f3fe608060405234801561001057600080fd5b50600436106101425760003560e01c806384612324116100b857806396615aa31161007c57806396615aa3146103c1578063a457c2d7146103ed578063a9059cbb14610419578063d5abeb0114610445578063dd62ed3e1461044d578063f2fde38b1461047b57610142565b806384612324146103285780638da5cb5b1461034e5780638f50c3a21461037257806392ff0d31146103b157806395d89b41146103b957610142565b8063395093511161010a57806339509351146102725780636fcc7d571461029e57806370a08231146102c4578063715018a6146102ea578063782f085d146102f45780637d21ce4d146102fc57610142565b806306fdde0314610147578063095ea7b3146101c457806318160ddd1461020457806323b872dd1461021e578063313ce56714610254575b600080fd5b61014f6104a1565b6040805160208082528351818301528351919283929083019185019080838360005b83811015610189578181015183820152602001610171565b50505050905090810190601f1680156101b65780820380516001836020036101000a031916815260200191505b509250505060405180910390f35b6101f0600480360360408110156101da57600080fd5b506001600160a01b038135169060200135610537565b604080519115158252519081900360200190f35b61020c610555565b60408051918252519081900360200190f35b6101f06004803603606081101561023457600080fd5b506001600160a01b0381358116916020810135909116906040013561055b565b61025c6105e8565b6040805160ff9092168252519081900360200190f35b6101f06004803603604081101561028857600080fd5b506001600160a01b0381351690602001356105f1565b61020c600480360360208110156102b457600080fd5b50356001600160a01b0316610645565b61020c600480360360208110156102da57600080fd5b50356001600160a01b0316610657565b6102f2610672565b005b6101f0610714565b6102f26004803603604081101561031257600080fd5b506001600160a01b038135169060200135610722565b61020c6004803603602081101561033e57600080fd5b50356001600160a01b0316610807565b610356610819565b604080516001600160a01b039092168252519081900360200190f35b6103986004803603602081101561038857600080fd5b50356001600160a01b0316610828565b6040805192835260208301919091528051918290030190f35b6101f0610850565b61014f610859565b6102f2600480360360408110156103d757600080fd5b506001600160a01b0381351690602001356108ba565b6101f06004803603604081101561040357600080fd5b506001600160a01b038135169060200135610925565b6101f06004803603604081101561042f57600080fd5b506001600160a01b038135169060200135610993565b61020c6109c2565b61020c6004803603604081101561046357600080fd5b506001600160a01b03813581169160200135166109c8565b6102f26004803603602081101561049157600080fd5b50356001600160a01b03166109f3565b60048054604080516020601f600260001961010060018816150201909516949094049384018190048102820181019092528281526060939092909183018282801561052d5780601f106105025761010080835404028352916020019161052d565b820191906000526020600020905b81548152906001019060200180831161051057829003601f168201915b5050505050905090565b600061054b610544610aeb565b8484610aef565b5060015b92915050565b60035490565b6000610568848484610bdb565b6105de84610574610aeb565b6105d98560405180606001604052806028815260200161114b602891396001600160a01b038a166000908152600260205260408120906105b2610aeb565b6001600160a01b03168152602081019190915260400160002054919063ffffffff610d3216565b610aef565b5060019392505050565b60065460ff1690565b600061054b6105fe610aeb565b846105d9856002600061060f610aeb565b6001600160a01b03908116825260208083019390935260409182016000908120918c16815292529020549063ffffffff610dc916565b600a6020526000908152604090205481565b6001600160a01b031660009081526001602052604090205490565b61067a610aeb565b6000546001600160a01b039081169116146106ca576040805162461bcd60e51b81526020600482018190526024820152600080516020611173833981519152604482015290519081900360640190fd5b600080546040516001600160a01b03909116907f8be0079c531659141344cd1fd0a4f28419497f9722a3daafe3b4186f6b6457e0908390a3600080546001600160a01b0319169055565b600854610100900460ff1681565b61072a610aeb565b6000546001600160a01b0390811691161461077a576040805162461bcd60e51b81526020600482018190526024820152600080516020611173833981519152604482015290519081900360640190fd5b600754156107f05760075461079d82610791610555565b9063ffffffff610dc916565b11156107f0576040805162461bcd60e51b815260206004820152601e60248201527f4d617820746f74616c20737570706c79206c696d697420726561636865640000604482015290519081900360640190fd5b6107f982610e2a565b6108038282610e6e565b5050565b60096020526000908152604090205481565b6000546001600160a01b031690565b6001600160a01b0316600090815260096020908152604080832054600a909252909120549091565b60085460ff1681565b60058054604080516020601f600260001961010060018816150201909516949094049384018190048102820181019092528281526060939092909183018282801561052d5780601f106105025761010080835404028352916020019161052d565b6108c2610aeb565b6000546001600160a01b03908116911614610912576040805162461bcd60e51b81526020600482018190526024820152600080516020611173833981519152604482015290519081900360640190fd5b61091b82610e2a565b6108038282610f5a565b600061054b610932610aeb565b846105d98560405180606001604052806025815260200161121d602591396002600061095c610aeb565b6001600160a01b03908116825260208083019390935260409182016000908120918d1681529252902054919063ffffffff610d3216565b60085460009060ff166109a85750600061054f565b6109b183610e2a565b6109bb8383610993565b5092915050565b60075481565b6001600160a01b03918216600090815260026020908152604080832093909416825291909152205490565b6109fb610aeb565b6000546001600160a01b03908116911614610a4b576040805162461bcd60e51b81526020600482018190526024820152600080516020611173833981519152604482015290519081900360640190fd5b6001600160a01b038116610a905760405162461bcd60e51b81526004018080602001828103825260268152602001806110dd6026913960400191505060405180910390fd5b600080546040516001600160a01b03808516939216917f8be0079c531659141344cd1fd0a4f28419497f9722a3daafe3b4186f6b6457e091a3600080546001600160a01b0319166001600160a01b0392909216919091179055565b3390565b6001600160a01b038316610b345760405162461bcd60e51b81526004018080602001828103825260248152602001806111f96024913960400191505060405180910390fd5b6001600160a01b038216610b795760405162461bcd60e51b81526004018080602001828103825260228152602001806111036022913960400191505060405180910390fd5b6001600160a01b03808416600081815260026020908152604080832094871680845294825291829020859055815185815291517f8c5be1e5ebec7d5bd14f71427d1e84f3dd0314c0f7b2291e5b200ac8c7c3b9259281900390910190a3505050565b6001600160a01b038316610c205760405162461bcd60e51b81526004018080602001828103825260258152602001806111d46025913960400191505060405180910390fd5b6001600160a01b038216610c655760405162461bcd60e51b81526004018080602001828103825260238152602001806110986023913960400191505060405180910390fd5b610c70838383611050565b610cb381604051806060016040528060268152602001611125602691396001600160a01b038616600090815260016020526040902054919063ffffffff610d3216565b6001600160a01b038085166000908152600160205260408082209390935590841681522054610ce8908263ffffffff610dc916565b6001600160a01b03808416600081815260016020908152604091829020949094558051858152905191939287169260008051602061119383398151915292918290030190a3505050565b60008184841115610dc15760405162461bcd60e51b81526004018080602001828103825283818151815260200191508051906020019080838360005b83811015610d86578181015183820152602001610d6e565b50505050905090810190601f168015610db35780820380516001836020036101000a031916815260200191505b509250505060405180910390fd5b505050900390565b600082820183811015610e23576040805162461bcd60e51b815260206004820152601b60248201527f536166654d6174683a206164646974696f6e206f766572666c6f770000000000604482015290519081900360640190fd5b9392505050565b6001600160a01b0381166000908152600960205260408120429055610e4e82610657565b6001600160a01b039092166000908152600a602052604090209190915550565b6001600160a01b038216610ec9576040805162461bcd60e51b815260206004820152601f60248201527f45524332303a206d696e7420746f20746865207a65726f206164647265737300604482015290519081900360640190fd5b610ed560008383611050565b600354610ee8908263ffffffff610dc916565b6003556001600160a01b038216600090815260016020526040902054610f14908263ffffffff610dc916565b6001600160a01b03831660008181526001602090815260408083209490945583518581529351929391926000805160206111938339815191529281900390910190a35050565b6001600160a01b038216610f9f5760405162461bcd60e51b81526004018080602001828103825260218152602001806111b36021913960400191505060405180910390fd5b610fab82600083611050565b610fee816040518060600160405280602281526020016110bb602291396001600160a01b038516600090815260016020526040902054919063ffffffff610d3216565b6001600160a01b03831660009081526001602052604090205560035461101a908263ffffffff61105516565b6003556040805182815290516000916001600160a01b038516916000805160206111938339815191529181900360200190a35050565b505050565b6000610e2383836040518060400160405280601e81526020017f536166654d6174683a207375627472616374696f6e206f766572666c6f770000815250610d3256fe45524332303a207472616e7366657220746f20746865207a65726f206164647265737345524332303a206275726e20616d6f756e7420657863656564732062616c616e63654f776e61626c653a206e6577206f776e657220697320746865207a65726f206164647265737345524332303a20617070726f766520746f20746865207a65726f206164647265737345524332303a207472616e7366657220616d6f756e7420657863656564732062616c616e636545524332303a207472616e7366657220616d6f756e74206578636565647320616c6c6f77616e63654f776e61626c653a2063616c6c6572206973206e6f7420746865206f776e6572ddf252ad1be2c89b69c2b068fc378daa952ba7f163c4a11628f55a4df523b3ef45524332303a206275726e2066726f6d20746865207a65726f206164647265737345524332303a207472616e736665722066726f6d20746865207a65726f206164647265737345524332303a20617070726f76652066726f6d20746865207a65726f206164647265737345524332303a2064656372656173656420616c6c6f77616e63652062656c6f77207a65726fa26469706673582212201ddacb18a81c85ba7e6336766dbc6e76c1dbccc365c5452f05edd67467ccaad664736f6c634300060600334f776e61626c653a206e6577206f776e657220697320746865207a65726f20616464726573738be0079c531659141344cd1fd0a4f28419497f9722a3daafe3b4186f6b6457e0",
  "immutableReferences": {},
  "source": "pragma solidity ^0.6.2;\n\nimport \"@openzeppelin/contracts/access/Ownable.sol\";\nimport \"@openzeppelin/contracts/math/SafeMath.sol\";\nimport \"@openzeppelin/contracts/token/ERC20/ERC20.sol\";\n\n////////////////////////////////////////////////////////////////////////////////////////////\n/// @title Synaps\n/// @author Christopher Dixon\n////////////////////////////////////////////////////////////////////////////////////////////\n/**\nThe Synaps is designed to be a flexible ERC20 token that can be used by a ZDAO in multiple ways.\n**/\n\ncontract Synaps is Ownable, ERC20 {\n    using SafeMath for uint256;\n\n    /// @notice maxSupply is used as a cap on the tokens totalSupply\n    uint256 public maxSupply;\n    /// @notice transferable is a bool representing whether or not this rep token can be transfered by its owner\n    bool public transferable;\n    ///@notice isRep signafies whether or not the synaps being created will be used as a DAO's rep token\n    bool public isRep;\n    /// @notice tokenTimeTracker is responsible for tracking when tokens are transfered from one account to another\n    /// @dev this is important for making sure proposal voting cant be done with the same tokens using multiple\n    ///       accounts\n    mapping(address => uint256) public tokenTimeTracker;\n    /// @notice tokenSpaceTracker is used to track the amount of tokens an account has when its time is tracked by\n    ///    tokenTimeTracker\n    mapping(address => uint256) public tokenSpaceTracker;\n\n    /**\n     @notice the constructor function is fired only once during contract creation and is used to set up\n                the ZDAO rep token\n     @dev this function mints one token to the DAO creator so that they can install neurons on the DAO after\n                its creation\n     @param _tokenName is the name of the token\n     @param _tokenSym is the symbol of the token\n     @param _isTransferable is a bool representing whether of not this token is transferable\n     @param _isRep is a bool representing whether or not this token will be used as a DAO repToken\n     @param _DAOcreator is the address of the person who created the DAO that is creating this token.\n     @dev if _DAOcreator is equal to the DAO(the msg.sender) and the token is not being used as a rep token\n                then the constructor will not mint a first token\n     @param _maxSupply is the maximum supply this synaps will be capped at(uncapped == 0)\n     **/\n    constructor(\n        string memory _tokenName,\n        string memory _tokenSym,\n        bool _isTransferable,\n        bool _isRep,\n        address _DAOcreator,\n        address _bondingCurve,\n        uint256 _maxSupply\n    ) public ERC20(_tokenName, _tokenSym) {\n        transferable = _isTransferable;\n        isRep = _isRep;\n        maxSupply = _maxSupply;\n        if (_isRep == true) {\n            _mint(_DAOcreator, 1e18);\n            tokenRelativity(_DAOcreator);\n        } else if(_bondingCurve != 0x0000000000000000000000000000000000000000){\n            _mint(_bondingCurve, 1e18);\n          transferOwnership(_bondingCurve);\n        }\n    }\n\n    /**\n    @notice tokenRelativity is used to track which tokens where in an account when\n    @param recipient is address being localized\n    **/\n    function tokenRelativity(address recipient) internal {\n        tokenTimeTracker[recipient] = now;\n        uint256 currentHodl = balanceOf(recipient);\n        tokenSpaceTracker[recipient] = currentHodl;\n    }\n\n    /**\n     @notice transfer is an override function for the standard ERC20 transfer function\n     @dev this override function is used to check if a token allows for transfers\n     @param recipient is the address the tokens are being transfered to\n     @param amount is the amount of token being transfered\n     @return is a bool representing whether or not the transfer was successful\n    **/\n    function transfer(address recipient, uint256 amount)\n        public\n        override\n        returns (bool)\n    {\n        if (!transferable) {\n            return false;\n        } else {\n            tokenRelativity(recipient);\n            transfer(recipient, amount);\n        }\n    }\n\n    /**\n     @notice _Mint allows the owner of this token contract to mint new tokens\n     @dev this function will fail if called by anyone who isnt the contract owner\n     @param _to is the address tokens are being minted to\n     @param _amount is the amount of tokens being minted\n    **/\n    function _Mint(address _to, uint256 _amount) public onlyOwner {\n        if (maxSupply > 0) {\n            require(\n                totalSupply().add(_amount) <= maxSupply,\n                \"Max total supply limit reached\"\n            );\n        }\n        tokenRelativity(_to);\n        _mint(_to, _amount);\n    }\n\n    /**\n     @notice _Burn allows the owner of this token contract to burn tokens from an account\n     @dev this function will fail if called by anyone other than the owner\n     @param _from is the address the tokens are being burnt from\n     @param _amount is the amount of tokens being burnt\n    **/\n    function _Burn(address _from, uint256 _amount) public onlyOwner {\n        tokenRelativity(_from);\n        _burn(_from, _amount);\n    }\n\n    /**\n    @notice getRelativePosition is used by the DAO to determine the voting status of an account in DAO's where\n            the rep is transferable.\n    @dev this is needed to ensure on person cant vote multiple times by transfering his rep to seperate accounts\n    @param _account is the account whos position is being calculated\n    **/\n    function getRelativePosition(address _account)\n        public\n        view\n        returns (uint256 time, uint256 space)\n    {\n        time = tokenTimeTracker[_account];\n        space = tokenSpaceTracker[_account];\n    }\n}\n",
  "sourcePath": "/home/stan36/repos/zer0/ZDAO/contracts/Cortex/Synaps.sol",
  "compiler": {
    "name": "solc",
    "version": "0.6.6+commit.6c089d02.Emscripten.clang"
  },
  "schemaVersion": "3.3.2",
  "updatedAt": "2021-02-01T21:25:09.227Z",
  "devdoc": {
    "methods": {
      "_Burn(address,uint256)": {
        "details": "this function will fail if called by anyone other than the owner",
        "params": {
          "_amount": "is the amount of tokens being burnt*",
          "_from": "is the address the tokens are being burnt from"
        }
      },
      "_Mint(address,uint256)": {
        "details": "this function will fail if called by anyone who isnt the contract owner",
        "params": {
          "_amount": "is the amount of tokens being minted*",
          "_to": "is the address tokens are being minted to"
        }
      },
      "allowance(address,address)": {
        "details": "See {IERC20-allowance}."
      },
      "approve(address,uint256)": {
        "details": "See {IERC20-approve}.     * Requirements:     * - `spender` cannot be the zero address."
      },
      "balanceOf(address)": {
        "details": "See {IERC20-balanceOf}."
      },
      "constructor": {
        "details": "this function mints one token to the DAO creator so that they can install neurons on the DAO after its creationif _DAOcreator is equal to the DAO(the msg.sender) and the token is not being used as a rep token then the constructor will not mint a first token",
        "params": {
          "_DAOcreator": "is the address of the person who created the DAO that is creating this token.",
          "_isRep": "is a bool representing whether or not this token will be used as a DAO repToken",
          "_isTransferable": "is a bool representing whether of not this token is transferable",
          "_maxSupply": "is the maximum supply this synaps will be capped at(uncapped == 0)*",
          "_tokenName": "is the name of the token",
          "_tokenSym": "is the symbol of the token"
        }
      },
      "decimals()": {
        "details": "Returns the number of decimals used to get its user representation. For example, if `decimals` equals `2`, a balance of `505` tokens should be displayed to a user as `5,05` (`505 / 10 ** 2`).     * Tokens usually opt for a value of 18, imitating the relationship between Ether and Wei. This is the value {ERC20} uses, unless {_setupDecimals} is called.     * NOTE: This information is only used for _display_ purposes: it in no way affects any of the arithmetic of the contract, including {IERC20-balanceOf} and {IERC20-transfer}."
      },
      "decreaseAllowance(address,uint256)": {
        "details": "Atomically decreases the allowance granted to `spender` by the caller.     * This is an alternative to {approve} that can be used as a mitigation for problems described in {IERC20-approve}.     * Emits an {Approval} event indicating the updated allowance.     * Requirements:     * - `spender` cannot be the zero address. - `spender` must have allowance for the caller of at least `subtractedValue`."
      },
      "getRelativePosition(address)": {
        "details": "this is needed to ensure on person cant vote multiple times by transfering his rep to seperate accounts",
        "params": {
          "_account": "is the account whos position is being calculated*"
        }
      },
      "increaseAllowance(address,uint256)": {
        "details": "Atomically increases the allowance granted to `spender` by the caller.     * This is an alternative to {approve} that can be used as a mitigation for problems described in {IERC20-approve}.     * Emits an {Approval} event indicating the updated allowance.     * Requirements:     * - `spender` cannot be the zero address."
      },
      "name()": {
        "details": "Returns the name of the token."
      },
      "owner()": {
        "details": "Returns the address of the current owner."
      },
      "renounceOwnership()": {
        "details": "Leaves the contract without owner. It will not be possible to call `onlyOwner` functions anymore. Can only be called by the current owner.     * NOTE: Renouncing ownership will leave the contract without an owner, thereby removing any functionality that is only available to the owner."
      },
      "symbol()": {
        "details": "Returns the symbol of the token, usually a shorter version of the name."
      },
      "totalSupply()": {
        "details": "See {IERC20-totalSupply}."
      },
      "transfer(address,uint256)": {
        "details": "this override function is used to check if a token allows for transfers",
        "params": {
          "amount": "is the amount of token being transfered",
          "recipient": "is the address the tokens are being transfered to"
        },
        "returns": {
          "_0": "is a bool representing whether or not the transfer was successful*"
        }
      },
      "transferFrom(address,address,uint256)": {
        "details": "See {IERC20-transferFrom}.     * Emits an {Approval} event indicating the updated allowance. This is not required by the EIP. See the note at the beginning of {ERC20}.     * Requirements:     * - `sender` and `recipient` cannot be the zero address. - `sender` must have a balance of at least `amount`. - the caller must have allowance for ``sender``'s tokens of at least `amount`."
      },
      "transferOwnership(address)": {
        "details": "Transfers ownership of the contract to a new account (`newOwner`). Can only be called by the current owner."
      }
    }
  },
  "userdoc": {
    "methods": {
      "_Burn(address,uint256)": {
        "notice": "_Burn allows the owner of this token contract to burn tokens from an account"
      },
      "_Mint(address,uint256)": {
        "notice": "_Mint allows the owner of this token contract to mint new tokens"
      },
      "constructor": "the constructor function is fired only once during contract creation and is used to set up the ZDAO rep token",
      "getRelativePosition(address)": {
        "notice": "getRelativePosition is used by the DAO to determine the voting status of an account in DAO's where the rep is transferable."
      },
      "transfer(address,uint256)": {
        "notice": "transfer is an override function for the standard ERC20 transfer function"
      }
    },
    "notice": "The Synaps is designed to be a flexible ERC20 token that can be used by a ZDAO in multiple ways.*"
  }
}