{
  "contractName": "Synaps",
  "abi": [
    {
      "constant": true,
      "inputs": [],
      "name": "name",
      "outputs": [
        {
          "name": "",
          "type": "string"
        }
      ],
      "payable": false,
      "stateMutability": "view",
      "type": "function"
    },
    {
      "constant": false,
      "inputs": [
        {
          "name": "spender",
          "type": "address"
        },
        {
          "name": "amount",
          "type": "uint256"
        }
      ],
      "name": "approve",
      "outputs": [
        {
          "name": "",
          "type": "bool"
        }
      ],
      "payable": false,
      "stateMutability": "nonpayable",
      "type": "function"
    },
    {
      "constant": true,
      "inputs": [],
      "name": "totalSupply",
      "outputs": [
        {
          "name": "",
          "type": "uint256"
        }
      ],
      "payable": false,
      "stateMutability": "view",
      "type": "function"
    },
    {
      "constant": false,
      "inputs": [
        {
          "name": "sender",
          "type": "address"
        },
        {
          "name": "recipient",
          "type": "address"
        },
        {
          "name": "amount",
          "type": "uint256"
        }
      ],
      "name": "transferFrom",
      "outputs": [
        {
          "name": "",
          "type": "bool"
        }
      ],
      "payable": false,
      "stateMutability": "nonpayable",
      "type": "function"
    },
    {
      "constant": true,
      "inputs": [],
      "name": "decimals",
      "outputs": [
        {
          "name": "",
          "type": "uint8"
        }
      ],
      "payable": false,
      "stateMutability": "view",
      "type": "function"
    },
    {
      "constant": false,
      "inputs": [
        {
          "name": "spender",
          "type": "address"
        },
        {
          "name": "addedValue",
          "type": "uint256"
        }
      ],
      "name": "increaseAllowance",
      "outputs": [
        {
          "name": "",
          "type": "bool"
        }
      ],
      "payable": false,
      "stateMutability": "nonpayable",
      "type": "function"
    },
    {
      "constant": true,
      "inputs": [
        {
          "name": "",
          "type": "address"
        }
      ],
      "name": "tokenSpaceTracker",
      "outputs": [
        {
          "name": "",
          "type": "uint256"
        }
      ],
      "payable": false,
      "stateMutability": "view",
      "type": "function"
    },
    {
      "constant": true,
      "inputs": [
        {
          "name": "account",
          "type": "address"
        }
      ],
      "name": "balanceOf",
      "outputs": [
        {
          "name": "",
          "type": "uint256"
        }
      ],
      "payable": false,
      "stateMutability": "view",
      "type": "function"
    },
    {
      "constant": false,
      "inputs": [],
      "name": "renounceOwnership",
      "outputs": [],
      "payable": false,
      "stateMutability": "nonpayable",
      "type": "function"
    },
    {
      "constant": true,
      "inputs": [],
      "name": "isRep",
      "outputs": [
        {
          "name": "",
          "type": "bool"
        }
      ],
      "payable": false,
      "stateMutability": "view",
      "type": "function"
    },
    {
      "constant": true,
      "inputs": [
        {
          "name": "",
          "type": "address"
        }
      ],
      "name": "tokenTimeTracker",
      "outputs": [
        {
          "name": "",
          "type": "uint256"
        }
      ],
      "payable": false,
      "stateMutability": "view",
      "type": "function"
    },
    {
      "constant": true,
      "inputs": [],
      "name": "owner",
      "outputs": [
        {
          "name": "",
          "type": "address"
        }
      ],
      "payable": false,
      "stateMutability": "view",
      "type": "function"
    },
    {
      "constant": true,
      "inputs": [],
      "name": "isOwner",
      "outputs": [
        {
          "name": "",
          "type": "bool"
        }
      ],
      "payable": false,
      "stateMutability": "view",
      "type": "function"
    },
    {
      "constant": true,
      "inputs": [],
      "name": "transferable",
      "outputs": [
        {
          "name": "",
          "type": "bool"
        }
      ],
      "payable": false,
      "stateMutability": "view",
      "type": "function"
    },
    {
      "constant": true,
      "inputs": [],
      "name": "symbol",
      "outputs": [
        {
          "name": "",
          "type": "string"
        }
      ],
      "payable": false,
      "stateMutability": "view",
      "type": "function"
    },
    {
      "constant": false,
      "inputs": [
        {
          "name": "spender",
          "type": "address"
        },
        {
          "name": "subtractedValue",
          "type": "uint256"
        }
      ],
      "name": "decreaseAllowance",
      "outputs": [
        {
          "name": "",
          "type": "bool"
        }
      ],
      "payable": false,
      "stateMutability": "nonpayable",
      "type": "function"
    },
    {
      "constant": true,
      "inputs": [],
      "name": "maxSupply",
      "outputs": [
        {
          "name": "",
          "type": "uint256"
        }
      ],
      "payable": false,
      "stateMutability": "view",
      "type": "function"
    },
    {
      "constant": true,
      "inputs": [
        {
          "name": "owner",
          "type": "address"
        },
        {
          "name": "spender",
          "type": "address"
        }
      ],
      "name": "allowance",
      "outputs": [
        {
          "name": "",
          "type": "uint256"
        }
      ],
      "payable": false,
      "stateMutability": "view",
      "type": "function"
    },
    {
      "constant": false,
      "inputs": [
        {
          "name": "newOwner",
          "type": "address"
        }
      ],
      "name": "transferOwnership",
      "outputs": [],
      "payable": false,
      "stateMutability": "nonpayable",
      "type": "function"
    },
    {
      "anonymous": false,
      "inputs": [
        {
          "indexed": true,
          "name": "previousOwner",
          "type": "address"
        },
        {
          "indexed": true,
          "name": "newOwner",
          "type": "address"
        }
      ],
      "name": "OwnershipTransferred",
      "type": "event"
    },
    {
      "anonymous": false,
      "inputs": [
        {
          "indexed": true,
          "name": "from",
          "type": "address"
        },
        {
          "indexed": true,
          "name": "to",
          "type": "address"
        },
        {
          "indexed": false,
          "name": "value",
          "type": "uint256"
        }
      ],
      "name": "Transfer",
      "type": "event"
    },
    {
      "anonymous": false,
      "inputs": [
        {
          "indexed": true,
          "name": "owner",
          "type": "address"
        },
        {
          "indexed": true,
          "name": "spender",
          "type": "address"
        },
        {
          "indexed": false,
          "name": "value",
          "type": "uint256"
        }
      ],
      "name": "Approval",
      "type": "event"
    },
    {
      "constant": false,
      "inputs": [
        {
          "name": "_tokenName",
          "type": "string"
        },
        {
          "name": "_tokenSym",
          "type": "string"
        },
        {
          "name": "_isTransferable",
          "type": "bool"
        },
        {
          "name": "_isRep",
          "type": "bool"
        },
        {
          "name": "_DAOcreator",
          "type": "address"
        },
        {
          "name": "_maxSupply",
          "type": "uint256"
        }
      ],
      "name": "initialize",
      "outputs": [],
      "payable": false,
      "stateMutability": "nonpayable",
      "type": "function"
    },
    {
      "constant": false,
      "inputs": [
        {
          "name": "name",
          "type": "string"
        },
        {
          "name": "symbol",
          "type": "string"
        },
        {
          "name": "decimals",
          "type": "uint8"
        }
      ],
      "name": "initialize",
      "outputs": [],
      "payable": false,
      "stateMutability": "nonpayable",
      "type": "function"
    },
    {
      "constant": false,
      "inputs": [
        {
          "name": "sender",
          "type": "address"
        }
      ],
      "name": "initialize",
      "outputs": [],
      "payable": false,
      "stateMutability": "nonpayable",
      "type": "function"
    },
    {
      "constant": false,
      "inputs": [
        {
          "name": "recipient",
          "type": "address"
        },
        {
          "name": "amount",
          "type": "uint256"
        }
      ],
      "name": "transfer",
      "outputs": [
        {
          "name": "",
          "type": "bool"
        }
      ],
      "payable": false,
      "stateMutability": "nonpayable",
      "type": "function"
    },
    {
      "constant": false,
      "inputs": [
        {
          "name": "_to",
          "type": "address"
        },
        {
          "name": "_amount",
          "type": "uint256"
        }
      ],
      "name": "_Mint",
      "outputs": [],
      "payable": false,
      "stateMutability": "nonpayable",
      "type": "function"
    },
    {
      "constant": false,
      "inputs": [
        {
          "name": "_from",
          "type": "address"
        },
        {
          "name": "_amount",
          "type": "uint256"
        }
      ],
      "name": "_Burn",
      "outputs": [],
      "payable": false,
      "stateMutability": "nonpayable",
      "type": "function"
    },
    {
      "constant": true,
      "inputs": [
        {
          "name": "_account",
          "type": "address"
        }
      ],
      "name": "getRelativePosition",
      "outputs": [
        {
          "name": "time",
          "type": "uint256"
        },
        {
          "name": "space",
          "type": "uint256"
        }
      ],
      "payable": false,
      "stateMutability": "view",
      "type": "function"
    }
  ],
  "bytecode": "0x6080604052611928806100136000396000f3fe608060405234801561001057600080fd5b506004361061018b576000357c01000000000000000000000000000000000000000000000000000000009004806384612324116100eb57806396615aa3116100a457806396615aa31461068f578063a457c2d7146106bb578063a9059cbb146106e7578063c4d66de814610713578063d5abeb0114610739578063dd62ed3e14610741578063f2fde38b1461076f5761018b565b806384612324146105ee5780638da5cb5b146106145780638f32d59b146106385780638f50c3a21461064057806392ff0d311461067f57806395d89b41146106875761018b565b8063313ce56711610148578063313ce5671461051c578063395093511461053a5780636fcc7d571461056657806370a082311461058c578063715018a6146105b2578063782f085d146105ba5780637d21ce4d146105c25761018b565b806306fdde03146101905780630898d3851461020d578063095ea7b31461035a5780631624f6c61461039a57806318160ddd146104cc57806323b872dd146104e6575b600080fd5b610198610795565b6040805160208082528351818301528351919283929083019185019080838360005b838110156101d25781810151838201526020016101ba565b50505050905090810190601f1680156101ff5780820380516001836020036101000a031916815260200191505b509250505060405180910390f35b610358600480360360c081101561022357600080fd5b81019060208101813564010000000081111561023e57600080fd5b82018360208201111561025057600080fd5b8035906020019184600183028401116401000000008311171561027257600080fd5b91908080601f01602080910402602001604051908101604052809392919081815260200183838082843760009201919091525092959493602081019350359150506401000000008111156102c557600080fd5b8201836020820111156102d757600080fd5b803590602001918460018302840111640100000000831117156102f957600080fd5b91908080601f0160208091040260200160405190810160405280939291908181526020018383808284376000920191909152509295505050508035151591506020810135151590600160a060020a03604082013516906060013561082c565b005b6103866004803603604081101561037057600080fd5b50600160a060020a03813516906020013561092e565b604080519115158252519081900360200190f35b610358600480360360608110156103b057600080fd5b8101906020810181356401000000008111156103cb57600080fd5b8201836020820111156103dd57600080fd5b803590602001918460018302840111640100000000831117156103ff57600080fd5b91908080601f016020809104026020016040519081016040528093929190818152602001838380828437600092019190915250929594936020810193503591505064010000000081111561045257600080fd5b82018360208201111561046457600080fd5b8035906020019184600183028401116401000000008311171561048657600080fd5b91908080601f0160208091040260200160405190810160405280939291908181526020018383808284376000920191909152509295505050903560ff16915061094c9050565b6104d4610a2d565b60408051918252519081900360200190f35b610386600480360360608110156104fc57600080fd5b50600160a060020a03813581169160208101359091169060400135610a33565b610524610ac1565b6040805160ff9092168252519081900360200190f35b6103866004803603604081101561055057600080fd5b50600160a060020a038135169060200135610aca565b6104d46004803603602081101561057c57600080fd5b5035600160a060020a0316610b1e565b6104d4600480360360208110156105a257600080fd5b5035600160a060020a0316610b30565b610358610b4b565b610386610bdc565b610358600480360360408110156105d857600080fd5b50600160a060020a038135169060200135610bea565b6104d46004803603602081101561060457600080fd5b5035600160a060020a0316610cc9565b61061c610cdb565b60408051600160a060020a039092168252519081900360200190f35b610386610cea565b6106666004803603602081101561065657600080fd5b5035600160a060020a0316610d10565b6040805192835260208301919091528051918290030190f35b610386610d38565b610198610d41565b610358600480360360408110156106a557600080fd5b50600160a060020a038135169060200135610da2565b610386600480360360408110156106d157600080fd5b50600160a060020a038135169060200135610e01565b610386600480360360408110156106fd57600080fd5b50600160a060020a038135169060200135610e70565b6103586004803603602081101561072957600080fd5b5035600160a060020a0316610ea1565b6104d4610f92565b6104d46004803603604081101561075757600080fd5b50600160a060020a0381358116916020013516610f98565b6103586004803603602081101561078557600080fd5b5035600160a060020a0316610fc3565b60688054604080516020601f60026000196101006001881615020190951694909404938401819004810282018101909252828152606093909290918301828280156108215780601f106107f657610100808354040283529160200191610821565b820191906000526020600020905b81548152906001019060200180831161080457829003601f168201915b505050505090505b90565b600054610100900460ff1680610845575061084561101b565b80610853575060005460ff16155b15156108935760405160e560020a62461bcd02815260040180806020018281038252602e815260200180611820602e913960400191505060405180910390fd5b600054610100900460ff161580156108be576000805460ff1961ff0019909116610100171660011790555b6108ca8787601261094c565b60d1805460ff19168615151761ff0019166101008615159081029190911790915560d0839055600114156109135761090a83670de0b6b3a7640000611021565b61091383611106565b8015610925576000805461ff00191690555b50505050505050565b600061094261093b61114a565b848461114e565b5060015b92915050565b600054610100900460ff1680610965575061096561101b565b80610973575060005460ff16155b15156109b35760405160e560020a62461bcd02815260040180806020018281038252602e815260200180611820602e913960400191505060405180910390fd5b600054610100900460ff161580156109de576000805460ff1961ff0019909116610100171660011790555b83516109f190606890602087019061166c565b508251610a0590606990602086019061166c565b50606a805460ff191660ff84161790558015610a27576000805461ff00191690555b50505050565b60355490565b6000610a40848484611244565b610ab784610a4c61114a565b610ab285606060405190810160405280602881526020016117b860289139600160a060020a038a16600090815260346020526040812090610a8b61114a565b600160a060020a03168152602081019190915260400160002054919063ffffffff61139b16565b61114e565b5060019392505050565b606a5460ff1690565b6000610942610ad761114a565b84610ab28560346000610ae861114a565b600160a060020a03908116825260208083019390935260409182016000908120918c16815292529020549063ffffffff61143516565b60d36020526000908152604090205481565b600160a060020a031660009081526033602052604090205490565b610b53610cea565b1515610b97576040805160e560020a62461bcd02815260206004820181905260248201526000805160206117e0833981519152604482015290519081900360640190fd5b609d54604051600091600160a060020a031690600080516020611800833981519152908390a3609d805473ffffffffffffffffffffffffffffffffffffffff19169055565b60d154610100900460ff1681565b610bf2610cea565b1515610c36576040805160e560020a62461bcd02815260206004820181905260248201526000805160206117e0833981519152604482015290519081900360640190fd5b600060d0541115610cb25760d054610c5c82610c50610a2d565b9063ffffffff61143516565b1115610cb2576040805160e560020a62461bcd02815260206004820152601e60248201527f4d617820746f74616c20737570706c79206c696d697420726561636865640000604482015290519081900360640190fd5b610cbb82611106565b610cc58282611021565b5050565b60d26020526000908152604090205481565b609d54600160a060020a031690565b609d54600090600160a060020a0316610d0161114a565b600160a060020a031614905090565b600160a060020a0316600090815260d2602090815260408083205460d3909252909120549091565b60d15460ff1681565b60698054604080516020601f60026000196101006001881615020190951694909404938401819004810282018101909252828152606093909290918301828280156108215780601f106107f657610100808354040283529160200191610821565b610daa610cea565b1515610dee576040805160e560020a62461bcd02815260206004820181905260248201526000805160206117e0833981519152604482015290519081900360640190fd5b610df782611106565b610cc58282611499565b6000610942610e0e61114a565b84610ab285606060405190810160405280602581526020016118d86025913960346000610e3961114a565b600160a060020a03908116825260208083019390935260409182016000908120918d1681529252902054919063ffffffff61139b16565b60d15460009060ff161515610e8757506000610946565b610e9083611106565b610e9a8383610e70565b5092915050565b600054610100900460ff1680610eba5750610eba61101b565b80610ec8575060005460ff16155b1515610f085760405160e560020a62461bcd02815260040180806020018281038252602e815260200180611820602e913960400191505060405180910390fd5b600054610100900460ff16158015610f33576000805460ff1961ff0019909116610100171660011790555b609d805473ffffffffffffffffffffffffffffffffffffffff1916600160a060020a038481169190911791829055604051911690600090600080516020611800833981519152908290a38015610cc5576000805461ff00191690555050565b60d05481565b600160a060020a03918216600090815260346020908152604080832093909416825291909152205490565b610fcb610cea565b151561100f576040805160e560020a62461bcd02815260206004820181905260248201526000805160206117e0833981519152604482015290519081900360640190fd5b61101881611589565b50565b303b1590565b600160a060020a0382161515611081576040805160e560020a62461bcd02815260206004820152601f60248201527f45524332303a206d696e7420746f20746865207a65726f206164647265737300604482015290519081900360640190fd5b603554611094908263ffffffff61143516565b603555600160a060020a0382166000908152603360205260409020546110c0908263ffffffff61143516565b600160a060020a038316600081815260336020908152604080832094909455835185815293519293919260008051602061184e8339815191529281900390910190a35050565b600160a060020a038116600090815260d26020526040812042905561112a82610b30565b600160a060020a03909216600090815260d3602052604090209190915550565b3390565b600160a060020a03831615156111985760405160e560020a62461bcd0281526004018080602001828103825260248152602001806118b46024913960400191505060405180910390fd5b600160a060020a03821615156111e25760405160e560020a62461bcd0281526004018080602001828103825260228152602001806117706022913960400191505060405180910390fd5b600160a060020a03808416600081815260346020908152604080832094871680845294825291829020859055815185815291517f8c5be1e5ebec7d5bd14f71427d1e84f3dd0314c0f7b2291e5b200ac8c7c3b9259281900390910190a3505050565b600160a060020a038316151561128e5760405160e560020a62461bcd02815260040180806020018281038252602581526020018061188f6025913960400191505060405180910390fd5b600160a060020a03821615156112d85760405160e560020a62461bcd0281526004018080602001828103825260238152602001806117056023913960400191505060405180910390fd5b61131c816060604051908101604052806026815260200161179260269139600160a060020a038616600090815260336020526040902054919063ffffffff61139b16565b600160a060020a038085166000908152603360205260408082209390935590841681522054611351908263ffffffff61143516565b600160a060020a03808416600081815260336020908152604091829020949094558051858152905191939287169260008051602061184e83398151915292918290030190a3505050565b6000818484111561142d5760405160e560020a62461bcd0281526004018080602001828103825283818151815260200191508051906020019080838360005b838110156113f25781810151838201526020016113da565b50505050905090810190601f16801561141f5780820380516001836020036101000a031916815260200191505b509250505060405180910390fd5b505050900390565b600082820183811015611492576040805160e560020a62461bcd02815260206004820152601b60248201527f536166654d6174683a206164646974696f6e206f766572666c6f770000000000604482015290519081900360640190fd5b9392505050565b600160a060020a03821615156114e35760405160e560020a62461bcd02815260040180806020018281038252602181526020018061186e6021913960400191505060405180910390fd5b611527816060604051908101604052806022815260200161172860229139600160a060020a038516600090815260336020526040902054919063ffffffff61139b16565b600160a060020a038316600090815260336020526040902055603554611553908263ffffffff61162a16565b603555604080518281529051600091600160a060020a0385169160008051602061184e8339815191529181900360200190a35050565b600160a060020a03811615156115d35760405160e560020a62461bcd02815260040180806020018281038252602681526020018061174a6026913960400191505060405180910390fd5b609d54604051600160a060020a0380841692169060008051602061180083398151915290600090a3609d805473ffffffffffffffffffffffffffffffffffffffff1916600160a060020a0392909216919091179055565b600061149283836040805190810160405280601e81526020017f536166654d6174683a207375627472616374696f6e206f766572666c6f77000081525061139b565b828054600181600116156101000203166002900490600052602060002090601f016020900481019282601f106116ad57805160ff19168380011785556116da565b828001600101855582156116da579182015b828111156116da5782518255916020019190600101906116bf565b506116e69291506116ea565b5090565b61082991905b808211156116e657600081556001016116f056fe45524332303a207472616e7366657220746f20746865207a65726f206164647265737345524332303a206275726e20616d6f756e7420657863656564732062616c616e63654f776e61626c653a206e6577206f776e657220697320746865207a65726f206164647265737345524332303a20617070726f766520746f20746865207a65726f206164647265737345524332303a207472616e7366657220616d6f756e7420657863656564732062616c616e636545524332303a207472616e7366657220616d6f756e74206578636565647320616c6c6f77616e63654f776e61626c653a2063616c6c6572206973206e6f7420746865206f776e65728be0079c531659141344cd1fd0a4f28419497f9722a3daafe3b4186f6b6457e0436f6e747261637420696e7374616e63652068617320616c7265616479206265656e20696e697469616c697a6564ddf252ad1be2c89b69c2b068fc378daa952ba7f163c4a11628f55a4df523b3ef45524332303a206275726e2066726f6d20746865207a65726f206164647265737345524332303a207472616e736665722066726f6d20746865207a65726f206164647265737345524332303a20617070726f76652066726f6d20746865207a65726f206164647265737345524332303a2064656372656173656420616c6c6f77616e63652062656c6f77207a65726fa165627a7a723058206aed496eb039dc6747a1beb8cc5060217f10302c42e1e2af9414db8eecbe221b0029",
  "source": "pragma solidity ^0.5.3;\n\nimport \"@openzeppelin/contracts-ethereum-package/contracts/ownership/Ownable.sol\";\nimport \"@openzeppelin/upgrades/contracts/Initializable.sol\";\nimport \"@openzeppelin/contracts-ethereum-package/contracts/math/SafeMath.sol\";\nimport \"@openzeppelin/contracts-ethereum-package/contracts/token/ERC20/ERC20.sol\";\nimport \"@openzeppelin/contracts-ethereum-package/contracts/token/ERC20/ERC20Detailed.sol\";\n\n////////////////////////////////////////////////////////////////////////////////////////////\n/// @title Synaps\n/// @author Christopher Dixon\n////////////////////////////////////////////////////////////////////////////////////////////\n/**\nThe Synaps is designed to be a flexible ERC20 token that can be used by a ZDAO in multiple ways.\n**/\n\ncontract Synaps is  Initializable, ERC20, ERC20Detailed, Ownable {\n    using SafeMath for uint256;\n\n    /// @notice maxSupply is used as a cap on the tokens totalSupply\n    uint256 public maxSupply;\n    /// @notice transferable is a bool representing whether or not this rep token can be transfered by its owner\n    bool public transferable;\n    ///@notice isRep signafies whether or not the synaps being created will be used as a DAO's rep token\n    bool public isRep;\n    /// @notice tokenTimeTracker is responsible for tracking when tokens are transfered from one account to another\n    /// @dev this is important for making sure proposal voting cant be done with the same tokens using multiple\n    ///       accounts\n    mapping(address => uint256) public tokenTimeTracker;\n    /// @notice tokenSpaceTracker is used to track the amount of tokens an account has when its time is tracked by\n    ///    tokenTimeTracker\n    mapping(address => uint256) public tokenSpaceTracker;\n\n    /**\n     @notice the constructor function is fired only once during contract creation and is used to set up\n                the ZDAO rep token\n     @dev this function mints one token to the DAO creator so that they can install neurons on the DAO after\n                its creation\n     @param _tokenName is the name of the token\n     @param _tokenSym is the symbol of the token\n     @param _isTransferable is a bool representing whether of not this token is transferable\n     @param _isRep is a bool representing whether or not this token will be used as a DAO repToken\n     @param _DAOcreator is the address of the person who created the DAO that is creating this token.\n     @dev if _DAOcreator is equal to the DAO(the msg.sender) and the token is not being used as a rep token\n                then the constructor will not mint a first token\n     @param _maxSupply is the maximum supply this synaps will be capped at(uncapped == 0)\n     **/\n    function initialize(\n        string memory _tokenName,\n        string memory _tokenSym,\n        bool _isTransferable,\n        bool _isRep,\n        address _DAOcreator,\n        uint256 _maxSupply\n    ) initializer\n    public {\n      ERC20Detailed.initialize(_tokenName, _tokenSym, 18);\n        transferable = _isTransferable;\n        isRep = _isRep;\n        maxSupply = _maxSupply;\n        if (_isRep == true) {\n            _mint(_DAOcreator, 1e18);\n            tokenRelativity(_DAOcreator);\n        }\n    }\n\n    /**\n    @notice tokenRelativity is used to track which tokens where in an account when\n    @param recipient is address being localized\n    **/\n    function tokenRelativity(address recipient) internal {\n        tokenTimeTracker[recipient] = now;\n        uint256 currentHodl = balanceOf(recipient);\n        tokenSpaceTracker[recipient] = currentHodl;\n    }\n\n    /**\n     @notice transfer is an override function for the standard ERC20 transfer function\n     @dev this override function is used to check if a token allows for transfers\n     @param recipient is the address the tokens are being transfered to\n     @param amount is the amount of token being transfered\n     @return is a bool representing whether or not the transfer was successful\n    **/\n    function transfer(address recipient, uint256 amount)\n        public\n        returns (bool)\n    {\n        if (!transferable) {\n            return false;\n        } else {\n            tokenRelativity(recipient);\n            transfer(recipient, amount);\n        }\n    }\n\n    /**\n     @notice _Mint allows the owner of this token contract to mint new tokens\n     @dev this function will fail if called by anyone who isnt the contract owner\n     @param _to is the address tokens are being minted to\n     @param _amount is the amount of tokens being minted\n    **/\n    function _Mint(address _to, uint256 _amount) public onlyOwner {\n        if (maxSupply > 0) {\n            require(\n                totalSupply().add(_amount) <= maxSupply,\n                \"Max total supply limit reached\"\n            );\n        }\n        tokenRelativity(_to);\n        _mint(_to, _amount);\n    }\n\n    /**\n     @notice _Burn allows the owner of this token contract to burn tokens from an account\n     @dev this function will fail if called by anyone other than the owner\n     @param _from is the address the tokens are being burnt from\n     @param _amount is the amount of tokens being burnt\n    **/\n    function _Burn(address _from, uint256 _amount) public onlyOwner {\n        tokenRelativity(_from);\n        _burn(_from, _amount);\n    }\n\n    /**\n    @notice getRelativePosition is used by the DAO to determine the voting status of an account in DAO's where\n            the rep is transferable.\n    @dev this is needed to ensure on person cant vote multiple times by transfering his rep to seperate accounts\n    @param _account is the account whos position is being calculated\n    **/\n    function getRelativePosition(address _account)\n        public\n        view\n        returns (uint256 time, uint256 space)\n    {\n        time = tokenTimeTracker[_account];\n        space = tokenSpaceTracker[_account];\n    }\n}\n",
  "sourcePath": "/home/stan36/repos/zer0/ZDAO/contracts/Cortex/Synaps.sol",
  "compiler": {
    "name": "solc",
    "version": "0.5.3+commit.10d17f24.Emscripten.clang"
  },
  "schemaVersion": "3.3.2",
  "updatedAt": "2021-02-25T00:58:00.193Z",
  "networkType": "ethereum",
  "devdoc": {
    "methods": {
      "_Burn(address,uint256)": {
        "details": "this function will fail if called by anyone other than the owner",
        "params": {
          "_amount": "is the amount of tokens being burnt*",
          "_from": "is the address the tokens are being burnt from"
        }
      },
      "_Mint(address,uint256)": {
        "details": "this function will fail if called by anyone who isnt the contract owner",
        "params": {
          "_amount": "is the amount of tokens being minted*",
          "_to": "is the address tokens are being minted to"
        }
      },
      "allowance(address,address)": {
        "details": "See {IERC20-allowance}."
      },
      "approve(address,uint256)": {
        "details": "See {IERC20-approve}.     * Requirements:     * - `spender` cannot be the zero address."
      },
      "balanceOf(address)": {
        "details": "See {IERC20-balanceOf}."
      },
      "decimals()": {
        "details": "Returns the number of decimals used to get its user representation. For example, if `decimals` equals `2`, a balance of `505` tokens should be displayed to a user as `5,05` (`505 / 10 ** 2`).     * Tokens usually opt for a value of 18, imitating the relationship between Ether and Wei.     * NOTE: This information is only used for _display_ purposes: it in no way affects any of the arithmetic of the contract, including {IERC20-balanceOf} and {IERC20-transfer}."
      },
      "decreaseAllowance(address,uint256)": {
        "details": "Atomically decreases the allowance granted to `spender` by the caller.     * This is an alternative to {approve} that can be used as a mitigation for problems described in {IERC20-approve}.     * Emits an {Approval} event indicating the updated allowance.     * Requirements:     * - `spender` cannot be the zero address. - `spender` must have allowance for the caller of at least `subtractedValue`."
      },
      "getRelativePosition(address)": {
        "details": "this is needed to ensure on person cant vote multiple times by transfering his rep to seperate accounts",
        "params": {
          "_account": "is the account whos position is being calculated*"
        }
      },
      "increaseAllowance(address,uint256)": {
        "details": "Atomically increases the allowance granted to `spender` by the caller.     * This is an alternative to {approve} that can be used as a mitigation for problems described in {IERC20-approve}.     * Emits an {Approval} event indicating the updated allowance.     * Requirements:     * - `spender` cannot be the zero address."
      },
      "initialize(address)": {
        "details": "Initializes the contract setting the deployer as the initial owner."
      },
      "initialize(string,string,bool,bool,address,uint256)": {
        "details": "this function mints one token to the DAO creator so that they can install neurons on the DAO after its creationif _DAOcreator is equal to the DAO(the msg.sender) and the token is not being used as a rep token then the constructor will not mint a first token",
        "params": {
          "_DAOcreator": "is the address of the person who created the DAO that is creating this token.",
          "_isRep": "is a bool representing whether or not this token will be used as a DAO repToken",
          "_isTransferable": "is a bool representing whether of not this token is transferable",
          "_maxSupply": "is the maximum supply this synaps will be capped at(uncapped == 0)*",
          "_tokenName": "is the name of the token",
          "_tokenSym": "is the symbol of the token"
        }
      },
      "initialize(string,string,uint8)": {
        "details": "Sets the values for `name`, `symbol`, and `decimals`. All three of these values are immutable: they can only be set once during construction."
      },
      "isOwner()": {
        "details": "Returns true if the caller is the current owner."
      },
      "name()": {
        "details": "Returns the name of the token."
      },
      "owner()": {
        "details": "Returns the address of the current owner."
      },
      "renounceOwnership()": {
        "details": "Leaves the contract without owner. It will not be possible to call `onlyOwner` functions anymore. Can only be called by the current owner.     * > Note: Renouncing ownership will leave the contract without an owner, thereby removing any functionality that is only available to the owner."
      },
      "symbol()": {
        "details": "Returns the symbol of the token, usually a shorter version of the name."
      },
      "totalSupply()": {
        "details": "See {IERC20-totalSupply}."
      },
      "transfer(address,uint256)": {
        "details": "this override function is used to check if a token allows for transfers",
        "params": {
          "amount": "is the amount of token being transfered",
          "recipient": "is the address the tokens are being transfered to"
        },
        "return": "is a bool representing whether or not the transfer was successful*"
      },
      "transferFrom(address,address,uint256)": {
        "details": "See {IERC20-transferFrom}.     * Emits an {Approval} event indicating the updated allowance. This is not required by the EIP. See the note at the beginning of {ERC20};     * Requirements: - `sender` and `recipient` cannot be the zero address. - `sender` must have a balance of at least `amount`. - the caller must have allowance for `sender`'s tokens of at least `amount`."
      },
      "transferOwnership(address)": {
        "details": "Transfers ownership of the contract to a new account (`newOwner`). Can only be called by the current owner."
      }
    }
  },
  "userdoc": {
    "methods": {
      "_Burn(address,uint256)": {
        "notice": "_Burn allows the owner of this token contract to burn tokens from an account"
      },
      "_Mint(address,uint256)": {
        "notice": "_Mint allows the owner of this token contract to mint new tokens"
      },
      "getRelativePosition(address)": {
        "notice": "getRelativePosition is used by the DAO to determine the voting status of an account in DAO's where the rep is transferable."
      },
      "initialize(string,string,bool,bool,address,uint256)": {
        "notice": "the constructor function is fired only once during contract creation and is used to set up the ZDAO rep token"
      },
      "transfer(address,uint256)": {
        "notice": "transfer is an override function for the standard ERC20 transfer function"
      }
    },
    "notice": "The Synaps is designed to be a flexible ERC20 token that can be used by a ZDAO in multiple ways.*"
  }
}