{
  "contractName": "TokenLock",
  "abi": [
    {
      "inputs": [
        {
          "internalType": "address",
          "name": "_cortex",
          "type": "address"
        }
      ],
      "stateMutability": "nonpayable",
      "type": "constructor"
    },
    {
      "anonymous": false,
      "inputs": [
        {
          "indexed": false,
          "internalType": "address",
          "name": "_cortex",
          "type": "address"
        }
      ],
      "name": "Connected",
      "type": "event"
    },
    {
      "anonymous": false,
      "inputs": [
        {
          "indexed": true,
          "internalType": "address",
          "name": "previousOwner",
          "type": "address"
        },
        {
          "indexed": true,
          "internalType": "address",
          "name": "newOwner",
          "type": "address"
        }
      ],
      "name": "OwnershipTransferred",
      "type": "event"
    },
    {
      "inputs": [],
      "name": "cortex",
      "outputs": [
        {
          "internalType": "address",
          "name": "",
          "type": "address"
        }
      ],
      "stateMutability": "view",
      "type": "function"
    },
    {
      "inputs": [],
      "name": "isBurner",
      "outputs": [
        {
          "internalType": "bool",
          "name": "",
          "type": "bool"
        }
      ],
      "stateMutability": "view",
      "type": "function"
    },
    {
      "inputs": [],
      "name": "isDelegator",
      "outputs": [
        {
          "internalType": "bool",
          "name": "",
          "type": "bool"
        }
      ],
      "stateMutability": "view",
      "type": "function"
    },
    {
      "inputs": [],
      "name": "isMinter",
      "outputs": [
        {
          "internalType": "bool",
          "name": "",
          "type": "bool"
        }
      ],
      "stateMutability": "view",
      "type": "function"
    },
    {
      "inputs": [],
      "name": "owner",
      "outputs": [
        {
          "internalType": "address",
          "name": "",
          "type": "address"
        }
      ],
      "stateMutability": "view",
      "type": "function"
    },
    {
      "inputs": [],
      "name": "renounceOwnership",
      "outputs": [],
      "stateMutability": "nonpayable",
      "type": "function"
    },
    {
      "inputs": [
        {
          "internalType": "address",
          "name": "newOwner",
          "type": "address"
        }
      ],
      "name": "transferOwnership",
      "outputs": [],
      "stateMutability": "nonpayable",
      "type": "function"
    },
    {
      "inputs": [
        {
          "internalType": "address",
          "name": "",
          "type": "address"
        }
      ],
      "name": "vault",
      "outputs": [
        {
          "internalType": "contract IERC20",
          "name": "token",
          "type": "address"
        },
        {
          "internalType": "address",
          "name": "beneficiary",
          "type": "address"
        },
        {
          "internalType": "uint256",
          "name": "totalAmount",
          "type": "uint256"
        },
        {
          "internalType": "uint256",
          "name": "releaseCycleTime",
          "type": "uint256"
        },
        {
          "internalType": "uint256",
          "name": "amountReleasedPerCycle",
          "type": "uint256"
        },
        {
          "internalType": "uint256",
          "name": "numberOfCycles",
          "type": "uint256"
        },
        {
          "internalType": "uint256",
          "name": "amountClaimed",
          "type": "uint256"
        },
        {
          "internalType": "uint256",
          "name": "creationTimeStamp",
          "type": "uint256"
        }
      ],
      "stateMutability": "view",
      "type": "function"
    },
    {
      "inputs": [
        {
          "internalType": "address",
          "name": "_cortex",
          "type": "address"
        }
      ],
      "name": "connectNeuron",
      "outputs": [],
      "stateMutability": "nonpayable",
      "type": "function"
    },
    {
      "inputs": [
        {
          "internalType": "contract IERC20",
          "name": "_token",
          "type": "address"
        },
        {
          "internalType": "address",
          "name": "_beneficiary",
          "type": "address"
        },
        {
          "internalType": "uint256",
          "name": "_releaseCycleTime",
          "type": "uint256"
        },
        {
          "internalType": "uint256",
          "name": "_totalAmount",
          "type": "uint256"
        },
        {
          "internalType": "uint256",
          "name": "_amountPerCycle",
          "type": "uint256"
        },
        {
          "internalType": "uint256",
          "name": "_numberOfCycles",
          "type": "uint256"
        }
      ],
      "name": "vestTokens",
      "outputs": [],
      "stateMutability": "nonpayable",
      "type": "function"
    },
    {
      "inputs": [],
      "name": "claimVestedTokens",
      "outputs": [],
      "stateMutability": "nonpayable",
      "type": "function"
    },
    {
      "inputs": [
        {
          "internalType": "uint256",
          "name": "_time",
          "type": "uint256"
        },
        {
          "internalType": "uint256",
          "name": "_oneCycle",
          "type": "uint256"
        }
      ],
      "name": "calculateCyclesCompleted",
      "outputs": [
        {
          "internalType": "uint256",
          "name": "",
          "type": "uint256"
        }
      ],
      "stateMutability": "pure",
      "type": "function"
    }
  ],
  "bytecode": "0x608060405234801561001057600080fd5b50604051610cdb380380610cdb8339818101604052602081101561003357600080fd5b505160006100486001600160e01b036100aa16565b600080546001600160a01b0319166001600160a01b038316908117825560405192935091600080516020610cbb833981519152908290a350600180546001600160a01b0319166001600160a01b0383161790556100a4816100ae565b506101af565b3390565b6100bf6001600160e01b036100aa16565b6000546001600160a01b03908116911614610121576040805162461bcd60e51b815260206004820181905260248201527f4f776e61626c653a2063616c6c6572206973206e6f7420746865206f776e6572604482015290519081900360640190fd5b6001600160a01b0381166101665760405162461bcd60e51b8152600401808060200182810382526026815260200180610c956026913960400191505060405180910390fd5b600080546040516001600160a01b0380851693921691600080516020610cbb83398151915291a3600080546001600160a01b0319166001600160a01b0392909216919091179055565b610ad7806101be6000396000f3fe608060405234801561001057600080fd5b50600436106100b45760003560e01c806391bf9de91161007157806391bf9de91461015b578063923c37d014610163578063e74f3fbb14610189578063f2fde38b14610191578063f815c03d146101b7578063f84ceace1461022a576100b4565b8063185ed831146100b95780631a2fedf5146100d557806350e59eb31461011f5780635219147214610127578063715018a61461014b5780638da5cb5b14610153575b600080fd5b6100c161025f565b604080519115158252519081900360200190f35b61011d600480360360c08110156100eb57600080fd5b506001600160a01b03813581169160208101359091169060408101359060608101359060808101359060a0013561026f565b005b6100c1610414565b61012f610424565b604080516001600160a01b039092168252519081900360200190f35b61011d610433565b61012f6104d5565b6100c16104e4565b61011d6004803603602081101561017957600080fd5b50356001600160a01b03166104f4565b61011d61058b565b61011d600480360360208110156101a757600080fd5b50356001600160a01b031661069e565b6101dd600480360360208110156101cd57600080fd5b50356001600160a01b0316610796565b604080516001600160a01b03998a168152979098166020880152868801959095526060860193909352608085019190915260a084015260c083015260e08201529051908190036101000190f35b61024d6004803603604081101561024057600080fd5b50803590602001356107e8565b60408051918252519081900360200190f35b600054600160b01b900460ff1681565b6001546001600160a01b031633146102c9576040805162461bcd60e51b8152602060048201526018602482015277086c2d8d8cae440d2e640dcdee840e8d0ca40c6dee4e8caf60431b604482015290519081900360640190fd5b826102da838363ffffffff61080316565b1461032c576040805162461bcd60e51b815260206004820152601a60248201527f4572726f723a20696e707574206e756d62657273206572726f72000000000000604482015290519081900360640190fd5b6040805163a9059cbb60e01b81523060048201526024810185905290516001600160a01b0388169163a9059cbb9160448083019260209291908290030181600087803b15801561037b57600080fd5b505af115801561038f573d6000803e3d6000fd5b505050506040513d60208110156103a557600080fd5b50516103b057600080fd5b6001600160a01b0394851660008181526002602081905260409091206001810180546001600160a01b031990811690941790558054909216979096169690961786559385019190915560038401919091556004830155600582015542600790910155565b600054600160a01b900460ff1681565b6001546001600160a01b031681565b61043b61085c565b6000546001600160a01b0390811691161461048b576040805162461bcd60e51b81526020600482018190526024820152600080516020610a82833981519152604482015290519081900360640190fd5b600080546040516001600160a01b03909116907f8be0079c531659141344cd1fd0a4f28419497f9722a3daafe3b4186f6b6457e0908390a3600080546001600160a01b0319169055565b6000546001600160a01b031690565b600054600160a81b900460ff1681565b6104fc61085c565b6000546001600160a01b0390811691161461054c576040805162461bcd60e51b81526020600482018190526024820152600080516020610a82833981519152604482015290519081900360640190fd5b604080516001600160a01b038316815290517fe0361c544601bbefba1777c59f9e8e7d6400aa0b4bd8e9f563cd32b3fd4690c89181900360200190a150565b33600090815260026020526040812060078101549091906105b390429063ffffffff61086016565b905060006105c58284600301546107e8565b905060006105e084600401548361080390919063ffffffff16565b905060006105fb85600601548361086090919063ffffffff16565b6006860154909150610613908263ffffffff6108a216565b600686015584546040805163a9059cbb60e01b81523360048201526024810184905290516001600160a01b039092169163a9059cbb916044808201926020929091908290030181600087803b15801561066b57600080fd5b505af115801561067f573d6000803e3d6000fd5b505050506040513d602081101561069557600080fd5b50505050505050565b6106a661085c565b6000546001600160a01b039081169116146106f6576040805162461bcd60e51b81526020600482018190526024820152600080516020610a82833981519152604482015290519081900360640190fd5b6001600160a01b03811661073b5760405162461bcd60e51b8152600401808060200182810382526026815260200180610a3b6026913960400191505060405180910390fd5b600080546040516001600160a01b03808516939216917f8be0079c531659141344cd1fd0a4f28419497f9722a3daafe3b4186f6b6457e091a3600080546001600160a01b0319166001600160a01b0392909216919091179055565b6002602081905260009182526040909120805460018201549282015460038301546004840154600585015460068601546007909601546001600160a01b03958616979095169593949293919290919088565b60006107fa838363ffffffff6108fc16565b90505b92915050565b600082610812575060006107fd565b8282028284828161081f57fe5b04146107fa5760405162461bcd60e51b8152600401808060200182810382526021815260200180610a616021913960400191505060405180910390fd5b3390565b60006107fa83836040518060400160405280601e81526020017f536166654d6174683a207375627472616374696f6e206f766572666c6f77000081525061093e565b6000828201838110156107fa576040805162461bcd60e51b815260206004820152601b60248201527f536166654d6174683a206164646974696f6e206f766572666c6f770000000000604482015290519081900360640190fd5b60006107fa83836040518060400160405280601a81526020017f536166654d6174683a206469766973696f6e206279207a65726f0000000000008152506109d5565b600081848411156109cd5760405162461bcd60e51b81526004018080602001828103825283818151815260200191508051906020019080838360005b8381101561099257818101518382015260200161097a565b50505050905090810190601f1680156109bf5780820380516001836020036101000a031916815260200191505b509250505060405180910390fd5b505050900390565b60008183610a245760405162461bcd60e51b815260206004820181815283516024840152835190928392604490910191908501908083836000831561099257818101518382015260200161097a565b506000838581610a3057fe5b049594505050505056fe4f776e61626c653a206e6577206f776e657220697320746865207a65726f2061646472657373536166654d6174683a206d756c7469706c69636174696f6e206f766572666c6f774f776e61626c653a2063616c6c6572206973206e6f7420746865206f776e6572a2646970667358221220861f457e6f84386a2bcf6a6d2a068897167706fd81aa654bbade49fe4b0dfa7c64736f6c634300060600334f776e61626c653a206e6577206f776e657220697320746865207a65726f20616464726573738be0079c531659141344cd1fd0a4f28419497f9722a3daafe3b4186f6b6457e0",
  "immutableReferences": {},
  "source": "pragma solidity ^0.6.2;\n\nimport \"../Interfaces/CortexI.sol\";\nimport \"../Interfaces/NeuronI.sol\";\nimport \"@openzeppelin/contracts/access/Ownable.sol\";\nimport \"@openzeppelin/contracts/math/SafeMath.sol\";\nimport \"@openzeppelin/contracts/token/ERC20/IERC20.sol\";\n\n////////////////////////////////////////////////////////////////////////////////////////////\n/// @title TokenLock\n/// @author Christopher Dixon\n////////////////////////////////////////////////////////////////////////////////////////////\n/**\nThe TokenLock contract is designed to be a token vesting contract for synapses that a cortex\n      can use through voting in the FrontalLobe\n**/\n\ncontract TokenLock is Ownable, NeuronI {\n    using SafeMath for uint256;\n\n    /// @notice cortex is the address of the cortex that controls a TokenLock contract\n    address public cortex;\n    /// @notice vault is a mapping that tracks an address to a Vested struct\n    mapping(address => Vested) public vault;\n\n    event Connected(address _cortex);\n    /**\n    @notice Vested is a struct used to store a specific users vesting data\n    @param token is the ERC20 contract being vested\n    @param beneficiary is the beneficiary of the vesting\n    @param totalAmount is the total amount of token alocated to the beneficiary\n    @param releaseCycleTime is the time one release cycle takes to complete in seconds\n    @param amountReleasedPerCycle is the amount of token released to the beneficiary per cycle\n    @param numberOfCycles is the number of cycles for a certain beneficiary\n    @param amountClaimed is the amount of token the beneficiary has claimed\n    @param creationTimeStamp is the time stamp for when a vesting period begins\n    **/\n    struct Vested {\n        IERC20 token;\n        address beneficiary;\n        uint256 totalAmount;\n        uint256 releaseCycleTime;\n        uint256 amountReleasedPerCycle;\n        uint256 numberOfCycles;\n        uint256 amountClaimed;\n        uint256 creationTimeStamp;\n    }\n\n    /// @notice onlyCortex is a modifier that prevents anyone but the cortex from calling a function\n    modifier onlyCortex() {\n        require(msg.sender == cortex, \"Caller is not the cortex\");\n        _;\n    }\n\n    /**\n@notice the constructor function is fired only once during contract creation and is used to set up\n   the TokenLock contract to Its Cortex\n**/\n    constructor(address _cortex) public {\n        cortex = _cortex;\n        transferOwnership(_cortex);\n    }\n\n    /**\n    @notice connectNeuron is used to further set up a neuron\n    **/\n    function connectNeuron(address _cortex) public onlyOwner {\n        emit Connected(_cortex);\n    }\n\n    /**\n@notice vestTokens allows a Cortex DAO to lock up an ERC20 token with a release cycle period for a beneficiary\n@param _token is the ERC20 contract being vested\n@param _beneficiary is the beneficiary of the vesting\n@param _releaseCycleTime is the time one release cycle takes to complete in seconds\n@param _totalAmount is the total amount of token alocated to the beneficiary\n@param _amountPerCycle is the amount of token released to the beneficiary per cycle\n@param _numberOfCycles is the number of cycles for a certain beneficiary\n**/\n    function vestTokens(\n        IERC20 _token,\n        address _beneficiary,\n        uint256 _releaseCycleTime,\n        uint256 _totalAmount,\n        uint256 _amountPerCycle,\n        uint256 _numberOfCycles\n    ) public onlyCortex {\n        require(\n            _amountPerCycle.mul(_numberOfCycles) == _totalAmount,\n            \"Error: input numbers error\"\n        );\n        require(_token.transfer(address(this), _totalAmount));\n        Vested storage v = vault[_beneficiary];\n        v.beneficiary = _beneficiary;\n        v.token = _token;\n        v.totalAmount = _totalAmount;\n        v.releaseCycleTime = _releaseCycleTime;\n        v.amountReleasedPerCycle = _amountPerCycle;\n        v.numberOfCycles = _numberOfCycles;\n        v.creationTimeStamp = now;\n    }\n\n    /**\n@notice claimVestedTokens allows a end user to claim the vested tokens owed to the in an axon contract\n@dev this function automagically distributes the appropriate amounts, no input params required!\n**/\n    function claimVestedTokens() public {\n        Vested storage v = vault[msg.sender];\n        uint256 timeSinceCreation = now.sub(v.creationTimeStamp);\n        uint256 cyclesCompleted =\n            calculateCyclesCompleted(timeSinceCreation, v.releaseCycleTime);\n        uint256 amountEarned = cyclesCompleted.mul(v.amountReleasedPerCycle);\n        uint256 amountToPay = amountEarned.sub(v.amountClaimed);\n        v.amountClaimed = v.amountClaimed.add(amountToPay);\n        v.token.transfer(msg.sender, amountToPay);\n    }\n\n    /**\n@notice calculateCyclesCompleted\n@param _time is the amount of time the tokens have been vested\n@param _oneCycle is the amount of time in seconds that one vesting release cycle is scheduled for\n**/\n    function calculateCyclesCompleted(uint256 _time, uint256 _oneCycle)\n        public\n        pure\n        returns (uint256)\n    {\n        return _time.div(_oneCycle);\n    }\n}\n",
  "sourcePath": "/home/stan36/repos/zer0/ZDAO/contracts/CoreNuerons/TokenLock.sol",
  "compiler": {
    "name": "solc",
    "version": "0.6.6+commit.6c089d02.Emscripten.clang"
  },
  "schemaVersion": "3.3.2",
  "updatedAt": "2021-01-25T23:46:39.275Z",
  "devdoc": {
    "methods": {
      "calculateCyclesCompleted(uint256,uint256)": {
        "params": {
          "_oneCycle": "is the amount of time in seconds that one vesting release cycle is scheduled for*",
          "_time": "is the amount of time the tokens have been vested"
        }
      },
      "claimVestedTokens()": {
        "details": "this function automagically distributes the appropriate amounts, no input params required!*"
      },
      "owner()": {
        "details": "Returns the address of the current owner."
      },
      "renounceOwnership()": {
        "details": "Leaves the contract without owner. It will not be possible to call `onlyOwner` functions anymore. Can only be called by the current owner.     * NOTE: Renouncing ownership will leave the contract without an owner, thereby removing any functionality that is only available to the owner."
      },
      "transferOwnership(address)": {
        "details": "Transfers ownership of the contract to a new account (`newOwner`). Can only be called by the current owner."
      },
      "vestTokens(address,address,uint256,uint256,uint256,uint256)": {
        "params": {
          "_amountPerCycle": "is the amount of token released to the beneficiary per cycle",
          "_beneficiary": "is the beneficiary of the vesting",
          "_numberOfCycles": "is the number of cycles for a certain beneficiary*",
          "_releaseCycleTime": "is the time one release cycle takes to complete in seconds",
          "_token": "is the ERC20 contract being vested",
          "_totalAmount": "is the total amount of token alocated to the beneficiary"
        }
      }
    }
  },
  "userdoc": {
    "methods": {
      "calculateCyclesCompleted(uint256,uint256)": {
        "notice": "calculateCyclesCompleted"
      },
      "claimVestedTokens()": {
        "notice": "claimVestedTokens allows a end user to claim the vested tokens owed to the in an axon contract"
      },
      "connectNeuron(address)": {
        "notice": "connectNeuron is used to further set up a neuron*"
      },
      "constructor": "the constructor function is fired only once during contract creation and is used to set up the TokenLock contract to Its Cortex*",
      "vestTokens(address,address,uint256,uint256,uint256,uint256)": {
        "notice": "vestTokens allows a Cortex DAO to lock up an ERC20 token with a release cycle period for a beneficiary"
      }
    },
    "notice": "The TokenLock contract is designed to be a token vesting contract for synapses that a cortex can use through voting in the FrontalLobe*"
  }
}