{
  "contractName": "VotingApp",
  "abi": [
    {
      "constant": true,
      "inputs": [
        {
          "name": "",
          "type": "uint256"
        }
      ],
      "name": "proposals",
      "outputs": [
        {
          "name": "maker",
          "type": "address"
        },
        {
          "name": "target",
          "type": "address"
        },
        {
          "name": "timeCreated",
          "type": "uint256"
        },
        {
          "name": "voteWeights",
          "type": "uint256"
        },
        {
          "name": "voteID",
          "type": "uint256"
        },
        {
          "name": "amount",
          "type": "uint256"
        },
        {
          "name": "executed",
          "type": "bool"
        },
        {
          "name": "proposalPassed",
          "type": "bool"
        },
        {
          "name": "proposalHash",
          "type": "string"
        },
        {
          "name": "call_data",
          "type": "bytes"
        }
      ],
      "payable": false,
      "stateMutability": "view",
      "type": "function"
    },
    {
      "constant": true,
      "inputs": [],
      "name": "quorum",
      "outputs": [
        {
          "name": "",
          "type": "uint256"
        }
      ],
      "payable": false,
      "stateMutability": "view",
      "type": "function"
    },
    {
      "constant": true,
      "inputs": [],
      "name": "proposalTime",
      "outputs": [
        {
          "name": "",
          "type": "uint256"
        }
      ],
      "payable": false,
      "stateMutability": "view",
      "type": "function"
    },
    {
      "constant": true,
      "inputs": [],
      "name": "isDelegator",
      "outputs": [
        {
          "name": "",
          "type": "bool"
        }
      ],
      "payable": false,
      "stateMutability": "view",
      "type": "function"
    },
    {
      "constant": true,
      "inputs": [],
      "name": "isTransferable",
      "outputs": [
        {
          "name": "",
          "type": "bool"
        }
      ],
      "payable": false,
      "stateMutability": "view",
      "type": "function"
    },
    {
      "constant": true,
      "inputs": [],
      "name": "proposalID",
      "outputs": [
        {
          "name": "",
          "type": "uint256"
        }
      ],
      "payable": false,
      "stateMutability": "view",
      "type": "function"
    },
    {
      "constant": true,
      "inputs": [],
      "name": "cortex",
      "outputs": [
        {
          "name": "",
          "type": "address"
        }
      ],
      "payable": false,
      "stateMutability": "view",
      "type": "function"
    },
    {
      "constant": false,
      "inputs": [],
      "name": "renounceOwnership",
      "outputs": [],
      "payable": false,
      "stateMutability": "nonpayable",
      "type": "function"
    },
    {
      "constant": true,
      "inputs": [],
      "name": "owner",
      "outputs": [
        {
          "name": "",
          "type": "address"
        }
      ],
      "payable": false,
      "stateMutability": "view",
      "type": "function"
    },
    {
      "constant": true,
      "inputs": [],
      "name": "isOwner",
      "outputs": [
        {
          "name": "",
          "type": "bool"
        }
      ],
      "payable": false,
      "stateMutability": "view",
      "type": "function"
    },
    {
      "constant": true,
      "inputs": [],
      "name": "synaps",
      "outputs": [
        {
          "name": "",
          "type": "address"
        }
      ],
      "payable": false,
      "stateMutability": "view",
      "type": "function"
    },
    {
      "constant": false,
      "inputs": [
        {
          "name": "newOwner",
          "type": "address"
        }
      ],
      "name": "transferOwnership",
      "outputs": [],
      "payable": false,
      "stateMutability": "nonpayable",
      "type": "function"
    },
    {
      "anonymous": false,
      "inputs": [
        {
          "indexed": true,
          "name": "previousOwner",
          "type": "address"
        },
        {
          "indexed": true,
          "name": "newOwner",
          "type": "address"
        }
      ],
      "name": "OwnershipTransferred",
      "type": "event"
    },
    {
      "constant": false,
      "inputs": [
        {
          "name": "_DAO",
          "type": "address"
        }
      ],
      "name": "initialize",
      "outputs": [],
      "payable": false,
      "stateMutability": "nonpayable",
      "type": "function"
    },
    {
      "constant": false,
      "inputs": [
        {
          "name": "_synaps",
          "type": "address"
        },
        {
          "name": "_quorum",
          "type": "uint256"
        },
        {
          "name": "_proposalTime",
          "type": "uint256"
        },
        {
          "name": "_transferableRep",
          "type": "bool"
        }
      ],
      "name": "connectNeuron",
      "outputs": [],
      "payable": false,
      "stateMutability": "nonpayable",
      "type": "function"
    },
    {
      "constant": false,
      "inputs": [
        {
          "name": "_target",
          "type": "address"
        },
        {
          "name": "_amount",
          "type": "uint256"
        },
        {
          "name": "_proposalHash",
          "type": "string"
        },
        {
          "name": "_calldata",
          "type": "bytes"
        }
      ],
      "name": "newProposal",
      "outputs": [
        {
          "name": "",
          "type": "uint256"
        }
      ],
      "payable": true,
      "stateMutability": "payable",
      "type": "function"
    },
    {
      "constant": false,
      "inputs": [
        {
          "name": "_quorum",
          "type": "uint256"
        }
      ],
      "name": "setQuorum",
      "outputs": [],
      "payable": false,
      "stateMutability": "nonpayable",
      "type": "function"
    },
    {
      "constant": false,
      "inputs": [
        {
          "name": "_ProposalID",
          "type": "uint256"
        },
        {
          "name": "supportsProposal",
          "type": "bool"
        }
      ],
      "name": "vote",
      "outputs": [],
      "payable": false,
      "stateMutability": "nonpayable",
      "type": "function"
    }
  ],
  "bytecode": "0x60806040526117d9806100136000396000f3fe6080604052600436106100fb576000357c0100000000000000000000000000000000000000000000000000000000900480638da5cb5b116100a25780638da5cb5b146103435780638f32d59b146103585780638f8ff1b61461036d578063998a3d46146103b4578063b1050da5146103c9578063c1ba4e591461050b578063c4d66de814610535578063c9d27afe14610568578063f2fde38b1461059a576100fb565b8063013cf08b146101005780631703a0181461026c578063184a0ae914610293578063185ed831146102a85780632121dc75146102d1578063371fa854146102e657806352191472146102fb578063715018a61461032c575b600080fd5b34801561010c57600080fd5b5061012a6004803603602081101561012357600080fd5b50356105cd565b604051808b600160a060020a0316600160a060020a031681526020018a600160a060020a0316600160a060020a0316815260200189815260200188815260200187815260200186815260200185151515158152602001841515151581526020018060200180602001838103835285818151815260200191508051906020019080838360005b838110156101c75781810151838201526020016101af565b50505050905090810190601f1680156101f45780820380516001836020036101000a031916815260200191505b50838103825284518152845160209182019186019080838360005b8381101561022757818101518382015260200161020f565b50505050905090810190601f1680156102545780820380516001836020036101000a031916815260200191505b509c5050505050505050505050505060405180910390f35b34801561027857600080fd5b50610281610746565b60408051918252519081900360200190f35b34801561029f57600080fd5b5061028161074c565b3480156102b457600080fd5b506102bd610752565b604080519115158252519081900360200190f35b3480156102dd57600080fd5b506102bd61075b565b3480156102f257600080fd5b50610281610764565b34801561030757600080fd5b5061031061076a565b60408051600160a060020a039092168252519081900360200190f35b34801561033857600080fd5b50610341610779565b005b34801561034f57600080fd5b506103106107fd565b34801561036457600080fd5b506102bd61080d565b34801561037957600080fd5b506103416004803603608081101561039057600080fd5b50600160a060020a0381351690602081013590604081013590606001351515610833565b3480156103c057600080fd5b506103106108cf565b610281600480360360808110156103df57600080fd5b600160a060020a038235169160208101359181019060608101604082013564010000000081111561040f57600080fd5b82018360208201111561042157600080fd5b8035906020019184600183028401116401000000008311171561044357600080fd5b91908080601f016020809104026020016040519081016040528093929190818152602001838380828437600092019190915250929594936020810193503591505064010000000081111561049657600080fd5b8201836020820111156104a857600080fd5b803590602001918460018302840111640100000000831117156104ca57600080fd5b91908080601f0160208091040260200160405190810160405280939291908181526020018383808284376000920191909152509295506108e3945050505050565b34801561051757600080fd5b506103416004803603602081101561052e57600080fd5b5035610a5e565b34801561054157600080fd5b506103416004803603602081101561055857600080fd5b5035600160a060020a0316610aaf565b34801561057457600080fd5b506103416004803603604081101561058b57600080fd5b50803590602001351515610b88565b3480156105a657600080fd5b50610341600480360360208110156105bd57600080fd5b5035600160a060020a0316610fe1565b606c602090815260009182526040918290208054600180830154600280850154600386015460048701546005880154600689015460078a0180548d516101009a8216158b026000190190911697909704601f81018d90048d0288018d01909d528c8752600160a060020a03998a169c999097169a949993989297919660ff808316979390920490911694919290918301828280156106ac5780601f10610681576101008083540402835291602001916106ac565b820191906000526020600020905b81548152906001019060200180831161068f57829003601f168201915b5050505060088301805460408051602060026001851615610100026000190190941693909304601f810184900484028201840190925281815294959493509083018282801561073c5780601f106107115761010080835404028352916020019161073c565b820191906000526020600020905b81548152906001019060200180831161071f57829003601f168201915b505050505090508a565b606a5481565b60695481565b60665460ff1681565b606b5460ff1681565b60685481565b606754600160a060020a031681565b61078161080d565b15156107c5576040805160e560020a62461bcd02815260206004820181905260248201526000805160206116f2833981519152604482015290519081900360640190fd5b603354604051600091600160a060020a031690600080516020611712833981519152908390a360338054600160a060020a0319169055565b603354600160a060020a03165b90565b603354600090600160a060020a0316610824611039565b600160a060020a031614905090565b61083b61080d565b151561087f576040805160e560020a62461bcd02815260206004820181905260248201526000805160206116f2833981519152604482015290519081900360640190fd5b60668054600160a060020a039095166101000274ffffffffffffffffffffffffffffffffffffffff001990951694909417909355606b805493151560ff1990941693909317909255606a55606955565b6066546101009004600160a060020a031681565b6066546040805160e060020a6370a082310281523360048201529051600092670de0b6b3a764000092610100909104600160a060020a0316916370a0823191602480820192602092909190829003018186803b15801561094257600080fd5b505afa158015610956573d6000803e3d6000fd5b505050506040513d602081101561096c57600080fd5b505110156109c4576040805160e560020a62461bcd02815260206004820181905260248201527f596f7520617265206e6f742061206d656d626572206f6620746869732044414f604482015290519081900360640190fd5b606880546001908101918290556000918252606c602090815260408320805433600160a060020a03199182161782559281018054909316600160a060020a038a16179092556003820183905560048201839055600582019290925542600282015584519091610a3a9160078401918701906115c2565b508251610a5090600883019060208601906115c2565b505060685495945050505050565b610a6661080d565b1515610aaa576040805160e560020a62461bcd02815260206004820181905260248201526000805160206116f2833981519152604482015290519081900360640190fd5b606a55565b600054610100900460ff1680610ac85750610ac861103d565b80610ad6575060005460ff16155b1515610b165760405160e560020a62461bcd02815260040180806020018281038252602e815260200180611732602e913960400191505060405180910390fd5b600054610100900460ff16158015610b41576000805460ff1961ff0019909116610100171660011790555b610b4a82611043565b60678054600160a060020a031916600160a060020a0384161790556066805460ff191660011790558015610b84576000805461ff00191690555b5050565b6066546040805160e060020a6370a082310281523360048201529051670de0b6b3a7640000926101009004600160a060020a0316916370a08231916024808301926020929190829003018186803b158015610be257600080fd5b505afa158015610bf6573d6000803e3d6000fd5b505050506040513d6020811015610c0c57600080fd5b50511015610c64576040805160e560020a62461bcd02815260206004820181905260248201527f596f7520617265206e6f742061206d656d626572206f6620746869732044414f604482015290519081900360640190fd5b6000828152606c60209081526040808320338452600a81019092529091205460ff16151560011415610cca5760405160e560020a62461bcd0281526004018080602001828103825260278152602001806117606027913960400191505060405180910390fd5b6066546040805160e060020a6370a0823102815233600482015290516000926101009004600160a060020a0316916370a08231916024808301926020929190829003018186803b158015610d1d57600080fd5b505afa158015610d31573d6000803e3d6000fd5b505050506040513d6020811015610d4757600080fd5b5051606b5490915060ff1615610e8157606654604080517f8f50c3a200000000000000000000000000000000000000000000000000000000815233600482015281516000938493610100909104600160a060020a031692638f50c3a29260248083019392829003018186803b158015610dbf57600080fd5b505afa158015610dd3573d6000803e3d6000fd5b505050506040513d6040811015610de957600080fd5b5080516020909101519092509050828114610e385760405160e560020a62461bcd02815260040180806020018281038252603a8152602001806116b8603a913960400191505060405180910390fd5b6002840154821115610e7e5760405160e560020a62461bcd0281526004018080602001828103825260378152602001806116816037913960400191505060405180910390fd5b50505b600482015460408051606081018252851515815233602080830191825282840186815260009586526009880190915292909320905181549351600160a060020a03166101000274ffffffffffffffffffffffffffffffffffffffff001991151560ff199095169490941716929092178255516001909101556003820154610f089082611127565b6003830155336000908152600a830160209081526040808320805460ff1916600117905560665481517f18160ddd0000000000000000000000000000000000000000000000000000000081529151610100909104600160a060020a0316926318160ddd9260048082019391829003018186803b158015610f8757600080fd5b505afa158015610f9b573d6000803e3d6000fd5b505050506040513d6020811015610fb157600080fd5b50516003840154909150600090610fc8908361118d565b90508015610fd957610fd9866111cd565b505050505050565b610fe961080d565b151561102d576040805160e560020a62461bcd02815260206004820181905260248201526000805160206116f2833981519152604482015290519081900360640190fd5b61103681611422565b50565b3390565b303b1590565b600054610100900460ff168061105c575061105c61103d565b8061106a575060005460ff16155b15156110aa5760405160e560020a62461bcd02815260040180806020018281038252602e815260200180611732602e913960400191505060405180910390fd5b600054610100900460ff161580156110d5576000805460ff1961ff0019909116610100171660011790555b60338054600160a060020a031916600160a060020a038481169190911791829055604051911690600090600080516020611712833981519152908290a38015610b84576000805461ff00191690555050565b600082820183811015611184576040805160e560020a62461bcd02815260206004820152601b60248201527f536166654d6174683a206164646974696f6e206f766572666c6f770000000000604482015290519081900360640190fd5b90505b92915050565b60008061119c848460026114b6565b9050828414156111b0576001915050611187565b606a5481106111c3576001915050611187565b6000915050611187565b6000818152606c6020526040902060695460028201546111f490429063ffffffff6114eb16565b106112145760068101805461ff001960ff19909116600117169055610b84565b600681015460ff161561125b5760405160e560020a62461bcd0281526004018080602001828103825260278152602001806117876027913960400191505060405180910390fd5b600080805b600484015481116112c45760008181526009850160205260409020805460ff16156112a257600181015461129b90859063ffffffff61112716565b93506112bb565b60018101546112b890849063ffffffff61112716565b92505b50600101611260565b50808211156114055760675460018481015460058601546040517f92bd66c0000000000000000000000000000000000000000000000000000000008152600160a060020a03928316600482018181526024830184905260606044840190815260088b018054600260001999821615610100029990990116979097046064850181905295909716966392bd66c096929592939192909160840190849080156113ac5780601f10611381576101008083540402835291602001916113ac565b820191906000526020600020905b81548152906001019060200180831161138f57829003601f168201915b5050945050505050600060405180830381600087803b1580156113ce57600080fd5b505af11580156113e2573d6000803e3d6000fd5b50505060068401805461ff001960ff19909116600117166101001790555061141c565b60068301805461ff001960ff199091166001171690555b50505050565b600160a060020a038116151561146c5760405160e560020a62461bcd02815260040180806020018281038252602681526020018061165b6026913960400191505060405180910390fd5b603354604051600160a060020a0380841692169060008051602061171283398151915290600090a360338054600160a060020a031916600160a060020a0392909216919091179055565b60008082600101600a0a850290506000600a85838115156114d357fe5b046005018115156114e057fe5b049695505050505050565b600061118483836040805190810160405280601e81526020017f536166654d6174683a207375627472616374696f6e206f766572666c6f770000815250600081848411156115ba5760405160e560020a62461bcd0281526004018080602001828103825283818151815260200191508051906020019080838360005b8381101561157f578181015183820152602001611567565b50505050905090810190601f1680156115ac5780820380516001836020036101000a031916815260200191505b509250505060405180910390fd5b505050900390565b828054600181600116156101000203166002900490600052602060002090601f016020900481019282601f1061160357805160ff1916838001178555611630565b82800160010185558215611630579182015b82811115611630578251825591602001919060010190611615565b5061163c929150611640565b5090565b61080a91905b8082111561163c576000815560010161164656fe4f776e61626c653a206e6577206f776e657220697320746865207a65726f206164647265737356696f6c6174696e672052656c617469766974793a2054696d65206572726f7220746f6b656e2074696d657320646f6e74206d6174636856696f6c6174696e672052656c617469766974793a205370616365206572726f7220746f6b656e20616d6f756e747320646f6e74206d617463684f776e61626c653a2063616c6c6572206973206e6f7420746865206f776e65728be0079c531659141344cd1fd0a4f28419497f9722a3daafe3b4186f6b6457e0436f6e747261637420696e7374616e63652068617320616c7265616479206265656e20696e697469616c697a6564596f75204861766520616c726561647920766f746564206f6e20746869732070726f706f73616c546869732070726f706f73616c2068617320616c7265616479206265656e206578656375746564a165627a7a7230582006669c4099143484da42b14b099a4335e98427345276cd3ecc53d07a5d28fa570029",
  "source": "pragma solidity ^0.5.3;\n\nimport \"../Cortex/Synaps.sol\";\nimport \"../Interfaces/CortexI.sol\";\nimport \"../Interfaces/NeuronI.sol\";\nimport \"@openzeppelin/upgrades/contracts/Initializable.sol\";\nimport \"@openzeppelin/contracts-ethereum-package/contracts/ownership/Ownable.sol\";\nimport \"@openzeppelin/contracts-ethereum-package/contracts/math/SafeMath.sol\";\n\n////////////////////////////////////////////////////////////////////////////////////////////\n/// @title VotingApp\n/// @author Christopher Dixon\n////////////////////////////////////////////////////////////////////////////////////////////\n/**\nThe VotingApp contract is designed to be a simplistic voting system for a Cortex based DAO. The VotingApp\n      uses one synaps(or other ERC20) contract to determine a Cortex DAO members voting power.\n**/\n\ncontract VotingApp is Ownable, NeuronI {\n    using SafeMath for uint256;\n    /// @notice synaps is the address of the ERC20 token a zDAO is using for its reputation\n    Synaps public synaps;\n\n    CortexI public cortex;\n    /// @notice proposalID is used to track proposals\n    uint256 public proposalID;\n    /// @notice proposalTime is the time in seconds a proposal is considered active\n    uint256 public proposalTime;\n    /// @notice quorum is the minimum percentage of voteWeight needed for a vote to pass\n    uint256 public quorum;\n    /// @notice transferable is used to determine if a members position needs to be check when voting\n    bool public isTransferable;\n\n    /// @notice Proposal stores proposals\n    mapping(uint256 => Proposal) public proposals;\n\n    /**\n    @notice the modifier onlyMember requires that the function caller must be a member of the DAO to call a function\n    @dev this requires the caller to have atleast 1e18 of a token(standard 1 for ERC20's)\n    **/\n    modifier onlyMember() {\n        require(\n            synaps.balanceOf(msg.sender) >= 1e18,\n            \"You are not a member of this DAO\"\n        );\n        _;\n    }\n\n    /**\n    @notice Proposal struct stores proposal information\n    @param maker is the address of the account that made the proposal\n    @param target is the address that the call_data will be passed to as a function call\n    @param timeCreated is a blockstamp of when a proposal was created\n    @param voteWeights stores the current weight of all votes for a proposal\n    @param amount is used to store an ETH amount to be passed along with a function call\n    @param executed is a bool representing whether or not a proposal has been executed\n    @param proposalHash is an IPFS hash for a file representing a proposal\n    @param call_data is a bytes representing a function call on the target contract\n    @param votes is an array of Vote structs representing a users vote\n    @param voted is a mapping that represents whether or not an account has voted\n    **/\n    struct Proposal {\n        address maker;\n        address payable target;\n        uint256 timeCreated;\n        uint256 voteWeights;\n        uint256 voteID;\n        uint256 amount;\n        bool executed;\n        bool proposalPassed;\n        string proposalHash;\n        bytes call_data;\n        mapping(uint256 => Vote) votes;\n        mapping(address => bool) voted;\n    }\n\n    /**\n    @notice Vote is a struct used to store the information of a specific vote\n    @param inSupport is a bool representing whether a vote supports a proposal or not\n    @param voter is the address of the account that voted\n    @param voteWeight is the weight of the account who voted based off the # of rep tokens it holds\n    **/\n    struct Vote {\n        bool inSupport;\n        address voter;\n        uint256 voteWeight;\n    }\n\n    /**\n@notice the constructor function is fired only once during contract creation and is used to set up\n   the FrontalLobe contract to Its Cortex\n**/\n    function initialize(address _DAO) public initializer {\n        Ownable.initialize(_DAO);\n        cortex = CortexI(_DAO);\n        isDelegator = true;\n    }\n\n    /**\n    @notice connectNeuron is used to further set up a neuron\n    @param _synaps is the address of the synaps(or other ERC20) contract this neuron will use for voting rights/weight\n    @param _quorum is the minimum percentage threshold for a vote to pass\n    @param _proposalTime is the amount of time a proposal should remain active\n    @param _transferableRep is a bool representing whether or not the synaps used for rep is a transferable token\n    **/\n    function connectNeuron(\n        address _synaps,\n        uint256 _quorum,\n        uint256 _proposalTime,\n        bool _transferableRep\n    ) public onlyOwner {\n        synaps = Synaps(_synaps);\n        isTransferable = _transferableRep;\n        quorum = _quorum;\n        proposalTime = _proposalTime;\n    }\n\n\n    /**\n    @notice newProposaln allows a user to create a proposal\n    @param _target is the address this proposal is targeting\n    @param _proposalHash is an IPFS hash of a file representing a proposal\n    @param _calldata is a bytes representation of a function call\n    **/\n    function newProposal(\n        address payable _target,\n        uint256 _amount,\n        string memory _proposalHash,\n        bytes memory _calldata\n    ) public payable onlyMember returns (uint256) {\n        proposalID++;\n        Proposal storage p = proposals[proposalID];\n        p.maker = msg.sender;\n        p.target = _target;\n        p.amount = _amount;\n        p.voteWeights = 0;\n        p.voteID = 0;\n        p.amount = 0;\n        p.timeCreated = now;\n        p.proposalHash = _proposalHash;\n        p.call_data = _calldata;\n        return proposalID;\n    }\n\n    /**\n    @notice setQuorum allows the owner of the DAO(normally set as the the DAO itself) to change\n            the quorum used in voting\n    @notice _quorum is the input quarum number being set\n    **/\n    function setQuorum(uint256 _quorum) public onlyOwner {\n        quorum = _quorum;\n    }\n\n    /**\n    @notice percent is an internal function used to calculate the ratio between a given numerator && denominator\n    @param _numerator is the numerator of the equation\n    @param _denominator is the denominator of the equation\n    @param _precision is a precision point to ensure that decimals dont trail outside what the EVM can handle\n    **/\n    function _percent(\n        uint256 _numerator,\n        uint256 _denominator,\n        uint256 _precision\n    ) internal pure returns (uint256 quotient) {\n        // caution, check safe-to-multiply here\n        uint256 numerator = _numerator * 10**(_precision + 1);\n        // with rounding of last digit\n        uint256 _quotient = ((numerator / _denominator) + 5) / 10;\n        return (_quotient);\n    }\n\n    /**\n    @notice _checkThreshold is an internal function used by a vote counts to see if enough of the community has voted\n    @param _numOfvotes is the total  voteWeight a proposal has received\n    @param _numOfTokens is the total supply of the synaps\n    @notice this function returns a bool\n                -true if the threshold is met\n                -false if the threshold is not met\n    **/\n    function _checkThreshold(uint256 _numOfvotes, uint256 _numOfTokens)\n        internal\n        view\n        returns (bool)\n    {\n        uint256 percOfMemVoted = _percent(_numOfvotes, _numOfTokens, 2);\n        if (_numOfvotes == _numOfTokens) {\n            return true;\n        }\n        if (percOfMemVoted >= quorum) {\n            return true;\n        } else {\n            return false;\n        }\n    }\n\n    /**\n    @notice the vote function allows a DAO member to vote on proposals made to the DAO\n    @param _ProposalID is the number ID associated with the particular proposal the user wishes to vote on\n    @param  supportsProposal is a bool value(true or false) representing whether or not a member supports a proposal\n                    -true if they do support the proposal\n                    -false if they do not support the proposal\n    @dev this function will trigger the _checkThreshold function which determines if enough members have voted to\n              fire the executeProposal function.(this is temporarily removed due to what im assuming are the gas block limit)\n    **/\n    function vote(uint256 _ProposalID, bool supportsProposal)\n        public\n        onlyMember\n    {\n        Proposal storage p = proposals[_ProposalID];\n        require(\n            p.voted[msg.sender] != true,\n            \"You Have already voted on this proposal\"\n        );\n        uint256 vw = synaps.balanceOf(msg.sender);\n        if (isTransferable) {\n            (uint256 time, uint256 space) =\n                synaps.getRelativePosition(msg.sender);\n            require(\n                vw == space,\n                \"Violating Relativity: Space error token amounts dont match\"\n            );\n            require(\n                p.timeCreated >= time,\n                \"Violating Relativity: Time error token times dont match\"\n            );\n        }\n        p.voteID = p.voteID++;\n        p.votes[p.voteID] = Vote({\n            inSupport: supportsProposal,\n            voter: msg.sender,\n            voteWeight: vw\n        });\n        p.voteWeights = p.voteWeights.add(vw);\n        p.voted[msg.sender] = true;\n        uint256 ts = synaps.totalSupply();\n        //checks if enough members have voted\n        bool met = _checkThreshold(p.voteWeights, ts);\n        if(met) {\n          executeProposal(_ProposalID);\n        }\n    }\n\n    /**\n    @notice executeProposal is the function that executes the terms of a proposal\n    @dev this function is called by the vote function when the number of votes reaches the quorum\n    @param _proposalID is the ID number of the proposal being executed.\n    **/\n    function executeProposal(uint256 _proposalID)  internal {\n        Proposal storage p = proposals[_proposalID];\n\n        if (now.sub(p.timeCreated) >= proposalTime) {\n            // mark the proposal as executed and failed\n            p.executed = true;\n            p.proposalPassed = false;\n        } else {\n            // sets p equal to the specific proposalNumber\n\n            require(!p.executed, \"This proposal has already been executed\");\n\n            uint256 yea = 0;\n            uint256 nay = 0;\n\n            //this for loop cycles through each members vote and adds its value to the yea or nay tally\n            for (uint256 i = 0; i <= p.voteID; ++i) {\n                Vote storage v = p.votes[i];\n\n                if (v.inSupport) {\n                    yea = yea.add(v.voteWeight);\n                } else {\n                    nay = nay.add(v.voteWeight);\n                }\n            }\n\n            //check if the yea votes outway the nay votes\n            if (yea > nay) {\n                cortex.delegateFunctionCall(p.target, p.amount, p.call_data);\n\n                ///mark the proposal as executed and passed\n                p.executed = true;\n                p.proposalPassed = true;\n            } else {\n                // mark the proposal as executed and failed\n                p.executed = true;\n                p.proposalPassed = false;\n            }\n        }\n    }\n}\n",
  "sourcePath": "/home/stan36/repos/zer0/ZDAO/contracts/CoreNuerons/VotingApp.sol",
  "compiler": {
    "name": "solc",
    "version": "0.5.3+commit.10d17f24.Emscripten.clang"
  },
  "schemaVersion": "3.3.2",
  "updatedAt": "2021-02-25T00:58:00.181Z",
  "networkType": "ethereum",
  "devdoc": {
    "methods": {
      "connectNeuron(address,uint256,uint256,bool)": {
        "params": {
          "_proposalTime": "is the amount of time a proposal should remain active",
          "_quorum": "is the minimum percentage threshold for a vote to pass",
          "_synaps": "is the address of the synaps(or other ERC20) contract this neuron will use for voting rights/weight",
          "_transferableRep": "is a bool representing whether or not the synaps used for rep is a transferable token*"
        }
      },
      "isOwner()": {
        "details": "Returns true if the caller is the current owner."
      },
      "newProposal(address,uint256,string,bytes)": {
        "params": {
          "_calldata": "is a bytes representation of a function call*",
          "_proposalHash": "is an IPFS hash of a file representing a proposal",
          "_target": "is the address this proposal is targeting"
        }
      },
      "owner()": {
        "details": "Returns the address of the current owner."
      },
      "renounceOwnership()": {
        "details": "Leaves the contract without owner. It will not be possible to call `onlyOwner` functions anymore. Can only be called by the current owner.     * > Note: Renouncing ownership will leave the contract without an owner, thereby removing any functionality that is only available to the owner."
      },
      "transferOwnership(address)": {
        "details": "Transfers ownership of the contract to a new account (`newOwner`). Can only be called by the current owner."
      },
      "vote(uint256,bool)": {
        "details": "this function will trigger the _checkThreshold function which determines if enough members have voted to fire the executeProposal function.(this is temporarily removed due to what im assuming are the gas block limit)*",
        "params": {
          "_ProposalID": "is the number ID associated with the particular proposal the user wishes to vote on",
          "supportsProposal": "is a bool value(true or false) representing whether or not a member supports a proposal -true if they do support the proposal -false if they do not support the proposal"
        }
      }
    }
  },
  "userdoc": {
    "methods": {
      "connectNeuron(address,uint256,uint256,bool)": {
        "notice": "connectNeuron is used to further set up a neuron"
      },
      "initialize(address)": {
        "notice": "the constructor function is fired only once during contract creation and is used to set up the FrontalLobe contract to Its Cortex*"
      },
      "newProposal(address,uint256,string,bytes)": {
        "notice": "newProposaln allows a user to create a proposal"
      },
      "setQuorum(uint256)": {
        "notice": "setQuorum allows the owner of the DAO(normally set as the the DAO itself) to change the quorum used in voting_quorum is the input quarum number being set*"
      },
      "vote(uint256,bool)": {
        "notice": "the vote function allows a DAO member to vote on proposals made to the DAO"
      }
    },
    "notice": "The VotingApp contract is designed to be a simplistic voting system for a Cortex based DAO. The VotingApp uses one synaps(or other ERC20) contract to determine a Cortex DAO members voting power.*"
  }
}