{
  "contractName": "VotingAppFactory",
  "abi": [
    {
      "inputs": [
        {
          "internalType": "address",
          "name": "_DAO",
          "type": "address"
        }
      ],
      "name": "genesis",
      "outputs": [
        {
          "internalType": "address",
          "name": "",
          "type": "address"
        }
      ],
      "stateMutability": "nonpayable",
      "type": "function"
    }
  ],
  "bytecode": "0x608060405234801561001057600080fd5b50611886806100206000396000f3fe608060405234801561001057600080fd5b506004361061002b5760003560e01c80637722250914610030575b600080fd5b6100566004803603602081101561004657600080fd5b50356001600160a01b0316610072565b604080516001600160a01b039092168252519081900360200190f35b60008082604051610082906100b7565b6001600160a01b03909116815260405190819003602001906000f0801580156100af573d6000803e3d6000fd5b509392505050565b61178c806100c58339019056fe60806040523480156200001157600080fd5b506040516200178c3803806200178c833981810160405260208110156200003757600080fd5b505160006200004e6001600160e01b03620000f416565b600080546001600160a01b0319166001600160a01b0383169081178255604051929350916000805160206200176c833981519152908290a3506200009b816001600160e01b03620000f816565b600280546001600160a01b039092166001600160a01b03199092169190911790556000805460ff60b01b1960ff60a81b1960ff60a01b19909216600160a01b1791909116600160a81b1716600160b01b179055620001ff565b3390565b6200010b6001600160e01b03620000f416565b6000546001600160a01b039081169116146200016e576040805162461bcd60e51b815260206004820181905260248201527f4f776e61626c653a2063616c6c6572206973206e6f7420746865206f776e6572604482015290519081900360640190fd5b6001600160a01b038116620001b55760405162461bcd60e51b8152600401808060200182810382526026815260200180620017466026913960400191505060405180910390fd5b600080546040516001600160a01b03808516939216916000805160206200176c83398151915291a3600080546001600160a01b0319166001600160a01b0392909216919091179055565b611537806200020f6000396000f3fe6080604052600436106100e25760003560e01c8063715018a611610085578063715018a61461032f5780638da5cb5b146103465780638f8ff1b61461035b57806391bf9de9146103a2578063998a3d46146103b7578063b1050da5146103cc578063c1ba4e591461050a578063c9d27afe14610534578063f2fde38b14610566576100e9565b8063013cf08b146100ee5780631703a0181461025a578063184a0ae914610281578063185ed831146102965780632121dc75146102bf578063371fa854146102d457806350e59eb3146102e957806352191472146102fe576100e9565b366100e957005b600080fd5b3480156100fa57600080fd5b506101186004803603602081101561011157600080fd5b5035610599565b604051808b6001600160a01b03166001600160a01b031681526020018a6001600160a01b03166001600160a01b0316815260200189815260200188815260200187815260200186815260200185151515158152602001841515151581526020018060200180602001838103835285818151815260200191508051906020019080838360005b838110156101b557818101518382015260200161019d565b50505050905090810190601f1680156101e25780820380516001836020036101000a031916815260200191505b50838103825284518152845160209182019186019080838360005b838110156102155781810151838201526020016101fd565b50505050905090810190601f1680156102425780820380516001836020036101000a031916815260200191505b509c5050505050505050505050505060405180910390f35b34801561026657600080fd5b5061026f610711565b60408051918252519081900360200190f35b34801561028d57600080fd5b5061026f610717565b3480156102a257600080fd5b506102ab61071d565b604080519115158252519081900360200190f35b3480156102cb57600080fd5b506102ab61072d565b3480156102e057600080fd5b5061026f610736565b3480156102f557600080fd5b506102ab61073c565b34801561030a57600080fd5b5061031361074c565b604080516001600160a01b039092168252519081900360200190f35b34801561033b57600080fd5b5061034461075b565b005b34801561035257600080fd5b506103136107fd565b34801561036757600080fd5b506103446004803603608081101561037e57600080fd5b506001600160a01b038135169060208101359060408101359060600135151561080d565b3480156103ae57600080fd5b506102ab6108a0565b3480156103c357600080fd5b506103136108b0565b61026f600480360360808110156103e257600080fd5b6001600160a01b0382351691602081013591810190606081016040820135600160201b81111561041157600080fd5b82018360208201111561042357600080fd5b803590602001918460018302840111600160201b8311171561044457600080fd5b91908080601f0160208091040260200160405190810160405280939291908181526020018383808284376000920191909152509295949360208101935035915050600160201b81111561049657600080fd5b8201836020820111156104a857600080fd5b803590602001918460018302840111600160201b831117156104c957600080fd5b91908080601f0160208091040260200160405190810160405280939291908181526020018383808284376000920191909152509295506108bf945050505050565b34801561051657600080fd5b506103446004803603602081101561052d57600080fd5b5035610a2e565b34801561054057600080fd5b506103446004803603604081101561055757600080fd5b50803590602001351515610a8b565b34801561057257600080fd5b506103446004803603602081101561058957600080fd5b50356001600160a01b0316610e83565b600760208181526000928352604092839020805460018083015460028085015460038601546004870154600588015460068901549a890180548d51610100998216158a026000190190911696909604601f81018c90048c0287018c01909d528c86526001600160a01b039889169c989096169a939992989197909660ff808616979190950490941694919391928301828280156106775780601f1061064c57610100808354040283529160200191610677565b820191906000526020600020905b81548152906001019060200180831161065a57829003601f168201915b5050505060088301805460408051602060026001851615610100026000190190941693909304601f81018490048402820184019092528181529495949350908301828280156107075780601f106106dc57610100808354040283529160200191610707565b820191906000526020600020905b8154815290600101906020018083116106ea57829003601f168201915b505050505090508a565b60055481565b60045481565b600054600160b01b900460ff1681565b60065460ff1681565b60035481565b600054600160a01b900460ff1681565b6002546001600160a01b031681565b610763610f7b565b6000546001600160a01b039081169116146107b3576040805162461bcd60e51b81526020600482018190526024820152600080516020611494833981519152604482015290519081900360640190fd5b600080546040516001600160a01b03909116907f8be0079c531659141344cd1fd0a4f28419497f9722a3daafe3b4186f6b6457e0908390a3600080546001600160a01b0319169055565b6000546001600160a01b03165b90565b610815610f7b565b6000546001600160a01b03908116911614610865576040805162461bcd60e51b81526020600482018190526024820152600080516020611494833981519152604482015290519081900360640190fd5b600180546001600160a01b0319166001600160a01b0395909516949094179093556006805460ff191693151593909317909255600555600455565b600054600160a81b900460ff1681565b6001546001600160a01b031681565b600154604080516370a0823160e01b81523360048201529051600092670de0b6b3a7640000926001600160a01b03909116916370a0823191602480820192602092909190829003018186803b15801561091757600080fd5b505afa15801561092b573d6000803e3d6000fd5b505050506040513d602081101561094157600080fd5b50511015610996576040805162461bcd60e51b815260206004820181905260248201527f596f7520617265206e6f742061206d656d626572206f6620746869732044414f604482015290519081900360640190fd5b600380546001908101808355600090815260076020818152604083208054336001600160a01b031991821617825594810180549095166001600160a01b038c161790945593830182905560048301829055600583019190915542600283015585519192610a0a929184019190870190611364565b508251610a209060088301906020860190611364565b505060035495945050505050565b610a36610f7b565b6000546001600160a01b03908116911614610a86576040805162461bcd60e51b81526020600482018190526024820152600080516020611494833981519152604482015290519081900360640190fd5b600555565b600154604080516370a0823160e01b81523360048201529051670de0b6b3a7640000926001600160a01b0316916370a08231916024808301926020929190829003018186803b158015610add57600080fd5b505afa158015610af1573d6000803e3d6000fd5b505050506040513d6020811015610b0757600080fd5b50511015610b5c576040805162461bcd60e51b815260206004820181905260248201527f596f7520617265206e6f742061206d656d626572206f6620746869732044414f604482015290519081900360640190fd5b6000828152600760209081526040808320338452600a81019092529091205460ff16151560011415610bbf5760405162461bcd60e51b81526004018080602001828103825260278152602001806114b46027913960400191505060405180910390fd5b600154604080516370a0823160e01b815233600482015290516000926001600160a01b0316916370a08231916024808301926020929190829003018186803b158015610c0a57600080fd5b505afa158015610c1e573d6000803e3d6000fd5b505050506040513d6020811015610c3457600080fd5b505160065490915060ff1615610d4b57600154604080516347a861d160e11b8152336004820152815160009384936001600160a01b0390911692638f50c3a29260248083019392829003018186803b158015610c8f57600080fd5b505afa158015610ca3573d6000803e3d6000fd5b505050506040513d6040811015610cb957600080fd5b5080516020909101519092509050828114610d055760405162461bcd60e51b815260040180806020018281038252603a81526020018061145a603a913960400191505060405180910390fd5b8184600201541015610d485760405162461bcd60e51b81526004018080602001828103825260378152602001806114236037913960400191505060405180910390fd5b50505b6004820154604080516060810182528515158152336020808301918252828401868152600095865260098801909152929093209051815493516001600160a01b031661010002610100600160a81b031991151560ff199095169490941716929092178255516001909101556003820154610dc59082610f7f565b6003830155336000908152600a830160209081526040808320805460ff191660019081179091555481516318160ddd60e01b815291516001600160a01b0391909116926318160ddd9260048082019391829003018186803b158015610e2957600080fd5b505afa158015610e3d573d6000803e3d6000fd5b505050506040513d6020811015610e5357600080fd5b50516003840154909150600090610e6a9083610fe2565b90508015610e7b57610e7b86611022565b505050505050565b610e8b610f7b565b6000546001600160a01b03908116911614610edb576040805162461bcd60e51b81526020600482018190526024820152600080516020611494833981519152604482015290519081900360640190fd5b6001600160a01b038116610f205760405162461bcd60e51b81526004018080602001828103825260268152602001806113fd6026913960400191505060405180910390fd5b600080546040516001600160a01b03808516939216917f8be0079c531659141344cd1fd0a4f28419497f9722a3daafe3b4186f6b6457e091a3600080546001600160a01b0319166001600160a01b0392909216919091179055565b3390565b600082820183811015610fd9576040805162461bcd60e51b815260206004820152601b60248201527f536166654d6174683a206164646974696f6e206f766572666c6f770000000000604482015290519081900360640190fd5b90505b92915050565b600080610ff18484600261125f565b905082841415611005576001915050610fdc565b6005548110611018576001915050610fdc565b6000915050610fdc565b6000818152600760205260409020600454600282015461104990429063ffffffff61129016565b106110695760068101805461ff001960ff1990911660011716905561125b565b600681015460ff16156110ad5760405162461bcd60e51b81526004018080602001828103825260278152602001806114db6027913960400191505060405180910390fd5b600080805b836004015481116111165760008181526009850160205260409020805460ff16156110f45760018101546110ed90859063ffffffff610f7f16565b935061110d565b600181015461110a90849063ffffffff610f7f16565b92505b506001016110b2565b50808211156112415760028054600185810154600587015460405163024af59b60e61b81526001600160a01b03928316600482018181526024830184905260606044840190815260088c018054600019988116156101000298909801909716989098046064840181905294909616966392bd66c0969195939491929091608490910190849080156111e85780601f106111bd576101008083540402835291602001916111e8565b820191906000526020600020905b8154815290600101906020018083116111cb57829003601f168201915b5050945050505050600060405180830381600087803b15801561120a57600080fd5b505af115801561121e573d6000803e3d6000fd5b50505060068401805461ff001960ff199091166001171661010017905550611258565b60068301805461ff001960ff199091166001171690555b50505b5050565b60008082600101600a0a850290506000600a85838161127a57fe5b046005018161128557fe5b049695505050505050565b6000610fd983836040518060400160405280601e81526020017f536166654d6174683a207375627472616374696f6e206f766572666c6f7700008152506000818484111561135c5760405162461bcd60e51b81526004018080602001828103825283818151815260200191508051906020019080838360005b83811015611321578181015183820152602001611309565b50505050905090810190601f16801561134e5780820380516001836020036101000a031916815260200191505b509250505060405180910390fd5b505050900390565b828054600181600116156101000203166002900490600052602060002090601f016020900481019282601f106113a557805160ff19168380011785556113d2565b828001600101855582156113d2579182015b828111156113d25782518255916020019190600101906113b7565b506113de9291506113e2565b5090565b61080a91905b808211156113de57600081556001016113e856fe4f776e61626c653a206e6577206f776e657220697320746865207a65726f206164647265737356696f6c6174696e672052656c617469766974793a2054696d65206572726f7220746f6b656e2074696d657320646f6e74206d6174636856696f6c6174696e672052656c617469766974793a205370616365206572726f7220746f6b656e20616d6f756e747320646f6e74206d617463684f776e61626c653a2063616c6c6572206973206e6f7420746865206f776e6572596f75204861766520616c726561647920766f746564206f6e20746869732070726f706f73616c546869732070726f706f73616c2068617320616c7265616479206265656e206578656375746564a2646970667358221220fe8f48ce82d4acb192abe61392ee97cb1b81233e4a7b88b0be9f15d9d1aa9d0264736f6c634300060600334f776e61626c653a206e6577206f776e657220697320746865207a65726f20616464726573738be0079c531659141344cd1fd0a4f28419497f9722a3daafe3b4186f6b6457e0a2646970667358221220b9b714067aed15ab3994f896cc998be8f05b113321a5e65fded1bfc75b143b5e64736f6c63430006060033",
  "immutableReferences": {},
  "source": "pragma solidity ^0.6.2;\n\nimport \"../CoreNuerons/VotingApp.sol\";\nimport \"../Matrix/Hippocampus.sol\";\n\n////////////////////////////////////////////////////////////////////////////////////////////\n/// @title VotingAppFactory\n/// @author Christopher Dixon\n////////////////////////////////////////////////////////////////////////////////////////////\n/**\nThe VotingAppFactory contract is designed to produce individual VotingApp contracts\n**/\n\ncontract VotingAppFactory {\n    /**\n    @notice genesis is called to create a new VotingApp contract\n    @param _DAO is the address of the Cortex DAO that will own the created\n            VotingApp\n    **/\n    function genesis(address _DAO) public returns (address) {\n        VotingApp fl = new VotingApp(_DAO);\n        return address(fl);\n    }\n}\n",
  "sourcePath": "/home/stan36/repos/zer0/ZDAO/contracts/NeuronFactories/VotingAppFactory.sol",
  "compiler": {
    "name": "solc",
    "version": "0.6.6+commit.6c089d02.Emscripten.clang"
  },
  "schemaVersion": "3.3.2",
  "updatedAt": "2021-02-01T21:25:09.233Z",
  "devdoc": {
    "methods": {
      "genesis(address)": {
        "params": {
          "_DAO": "is the address of the Cortex DAO that will own the created VotingApp*"
        }
      }
    }
  },
  "userdoc": {
    "methods": {
      "genesis(address)": {
        "notice": "genesis is called to create a new VotingApp contract"
      }
    },
    "notice": "The VotingAppFactory contract is designed to produce individual VotingApp contracts*"
  }
}