{
  "contractName": "VotingAppFactory",
  "abi": [
    {
      "constant": true,
      "inputs": [
        {
          "name": "_salt",
          "type": "uint256"
        },
        {
          "name": "_logic",
          "type": "address"
        },
        {
          "name": "_admin",
          "type": "address"
        },
        {
          "name": "_data",
          "type": "bytes"
        },
        {
          "name": "_signature",
          "type": "bytes"
        }
      ],
      "name": "getSigner",
      "outputs": [
        {
          "name": "",
          "type": "address"
        }
      ],
      "payable": false,
      "stateMutability": "view",
      "type": "function"
    },
    {
      "constant": false,
      "inputs": [
        {
          "name": "_salt",
          "type": "uint256"
        },
        {
          "name": "_logic",
          "type": "address"
        },
        {
          "name": "_admin",
          "type": "address"
        },
        {
          "name": "_data",
          "type": "bytes"
        },
        {
          "name": "_signature",
          "type": "bytes"
        }
      ],
      "name": "deploySigned",
      "outputs": [
        {
          "name": "",
          "type": "address"
        }
      ],
      "payable": false,
      "stateMutability": "nonpayable",
      "type": "function"
    },
    {
      "constant": true,
      "inputs": [],
      "name": "votingInstance",
      "outputs": [
        {
          "name": "",
          "type": "address"
        }
      ],
      "payable": false,
      "stateMutability": "view",
      "type": "function"
    },
    {
      "constant": false,
      "inputs": [
        {
          "name": "_salt",
          "type": "uint256"
        },
        {
          "name": "_logic",
          "type": "address"
        },
        {
          "name": "_admin",
          "type": "address"
        },
        {
          "name": "_data",
          "type": "bytes"
        }
      ],
      "name": "deploy",
      "outputs": [
        {
          "name": "",
          "type": "address"
        }
      ],
      "payable": false,
      "stateMutability": "nonpayable",
      "type": "function"
    },
    {
      "constant": false,
      "inputs": [],
      "name": "renounceOwnership",
      "outputs": [],
      "payable": false,
      "stateMutability": "nonpayable",
      "type": "function"
    },
    {
      "constant": true,
      "inputs": [
        {
          "name": "_salt",
          "type": "uint256"
        },
        {
          "name": "_sender",
          "type": "address"
        }
      ],
      "name": "getDeploymentAddress",
      "outputs": [
        {
          "name": "",
          "type": "address"
        }
      ],
      "payable": false,
      "stateMutability": "view",
      "type": "function"
    },
    {
      "constant": true,
      "inputs": [],
      "name": "owner",
      "outputs": [
        {
          "name": "",
          "type": "address"
        }
      ],
      "payable": false,
      "stateMutability": "view",
      "type": "function"
    },
    {
      "constant": true,
      "inputs": [],
      "name": "isOwner",
      "outputs": [
        {
          "name": "",
          "type": "bool"
        }
      ],
      "payable": false,
      "stateMutability": "view",
      "type": "function"
    },
    {
      "constant": false,
      "inputs": [
        {
          "name": "_logic",
          "type": "address"
        },
        {
          "name": "_data",
          "type": "bytes"
        }
      ],
      "name": "deployMinimal",
      "outputs": [
        {
          "name": "proxy",
          "type": "address"
        }
      ],
      "payable": false,
      "stateMutability": "nonpayable",
      "type": "function"
    },
    {
      "constant": false,
      "inputs": [
        {
          "name": "newOwner",
          "type": "address"
        }
      ],
      "name": "transferOwnership",
      "outputs": [],
      "payable": false,
      "stateMutability": "nonpayable",
      "type": "function"
    },
    {
      "anonymous": false,
      "inputs": [
        {
          "indexed": false,
          "name": "proxy",
          "type": "address"
        }
      ],
      "name": "ProxyCreated",
      "type": "event"
    },
    {
      "anonymous": false,
      "inputs": [
        {
          "indexed": true,
          "name": "previousOwner",
          "type": "address"
        },
        {
          "indexed": true,
          "name": "newOwner",
          "type": "address"
        }
      ],
      "name": "OwnershipTransferred",
      "type": "event"
    },
    {
      "constant": false,
      "inputs": [
        {
          "name": "_Matrix",
          "type": "address"
        },
        {
          "name": "_VotingInstance",
          "type": "address"
        }
      ],
      "name": "initialize",
      "outputs": [],
      "payable": false,
      "stateMutability": "nonpayable",
      "type": "function"
    },
    {
      "constant": false,
      "inputs": [
        {
          "name": "sender",
          "type": "address"
        }
      ],
      "name": "initialize",
      "outputs": [],
      "payable": false,
      "stateMutability": "nonpayable",
      "type": "function"
    },
    {
      "constant": false,
      "inputs": [
        {
          "name": "_DAO",
          "type": "address"
        }
      ],
      "name": "genesis",
      "outputs": [
        {
          "name": "",
          "type": "address"
        }
      ],
      "payable": false,
      "stateMutability": "nonpayable",
      "type": "function"
    }
  ],
  "bytecode": "0x6080604081905261001060a061002c565b818103601f190182526040528051602090910120606655610039565b61098a80611aa483390190565b611a5c806100486000396000f3fe608060405234801561001057600080fd5b50600436106100dc576000357c0100000000000000000000000000000000000000000000000000000000900480637722250911610099578063772225091461049d57806381ae1f5b146104c35780638da5cb5b146104ef5780638f32d59b146104f7578063b3eeb5e214610513578063c4d66de8146105c9578063f2fde38b146105ef576100dc565b8063290f8f56146100e1578063332d66261461024a578063485cc955146103975780635462733e146103c75780636150864c146103cf578063715018a614610495575b600080fd5b61022e600480360360a08110156100f757600080fd5b813591600160a060020a0360208201358116926040830135909116919081019060808101606082013564010000000081111561013257600080fd5b82018360208201111561014457600080fd5b8035906020019184600183028401116401000000008311171561016657600080fd5b91908080601f01602080910402602001604051908101604052809392919081815260200183838082843760009201919091525092959493602081019350359150506401000000008111156101b957600080fd5b8201836020820111156101cb57600080fd5b803590602001918460018302840111640100000000831117156101ed57600080fd5b91908080601f016020809104026020016040519081016040528093929190818152602001838380828437600092019190915250929550610615945050505050565b60408051600160a060020a039092168252519081900360200190f35b61022e600480360360a081101561026057600080fd5b813591600160a060020a0360208201358116926040830135909116919081019060808101606082013564010000000081111561029b57600080fd5b8201836020820111156102ad57600080fd5b803590602001918460018302840111640100000000831117156102cf57600080fd5b91908080601f016020809104026020016040519081016040528093929190818152602001838380828437600092019190915250929594936020810193503591505064010000000081111561032257600080fd5b82018360208201111561033457600080fd5b8035906020019184600183028401116401000000008311171561035657600080fd5b91908080601f01602080910402602001604051908101604052809392919081815260200183838082843760009201919091525092955061070d945050505050565b6103c5600480360360408110156103ad57600080fd5b50600160a060020a038135811691602001351661078c565b005b61022e6107b8565b61022e600480360360808110156103e557600080fd5b813591600160a060020a0360208201358116926040830135909116919081019060808101606082013564010000000081111561042057600080fd5b82018360208201111561043257600080fd5b8035906020019184600183028401116401000000008311171561045457600080fd5b91908080601f0160208091040260200160405190810160405280939291908181526020018383808284376000920191909152509295506107c7945050505050565b6103c56107df565b61022e600480360360208110156104b357600080fd5b5035600160a060020a0316610875565b61022e600480360360408110156104d957600080fd5b5080359060200135600160a060020a0316610902565b61022e610982565b6104ff610991565b604080519115158252519081900360200190f35b61022e6004803603604081101561052957600080fd5b600160a060020a03823516919081019060408101602082013564010000000081111561055457600080fd5b82018360208201111561056657600080fd5b8035906020019184600183028401116401000000008311171561058857600080fd5b91908080601f0160208091040260200160405190810160405280939291908181526020018383808284376000920191909152509295506109b7945050505050565b6103c5600480360360208110156105df57600080fd5b5035600160a060020a0316610b1e565b6103c56004803603602081101561060557600080fd5b5035600160a060020a0316610c03565b6000806106f687878787306040516020018086815260200185600160a060020a0316600160a060020a0316606060020a02815260140184600160a060020a0316600160a060020a0316606060020a02815260140183805190602001908083835b602083106106945780518252601f199092019160209182019101610675565b6001836020036101000a03801982511681845116808217855250505050505090500182600160a060020a0316600160a060020a0316606060020a0281526014019550505050505060405160208183030381529060405280519060200120610c6d565b90506107028184610cbe565b979650505050505050565b60008061071d8787878787610615565b9050600160a060020a038116151561077f576040805160e560020a62461bcd02815260206004820152601160248201527f496e76616c6964207369676e6174757265000000000000000000000000000000604482015290519081900360640190fd5b6107028787878785610dad565b61079582610b1e565b60678054600160a060020a031916600160a060020a039290921691909117905550565b606754600160a060020a031681565b60006107d68585858533610dad565b95945050505050565b6107e7610991565b151561083d576040805160e560020a62461bcd02815260206004820181905260248201527f4f776e61626c653a2063616c6c6572206973206e6f7420746865206f776e6572604482015290519081900360640190fd5b603354604051600091600160a060020a0316906000805160206119e3833981519152908390a360338054600160a060020a0319169055565b60408051600160a060020a038084166024808401919091528351808403909101815260449092019092526020810180517bffffffffffffffffffffffffffffffffffffffffffffffffffffffff167fbf9027590000000000000000000000000000000000000000000000000000000017905260675460009283916108fa9116836109b7565b949350505050565b60008061090f8484610ef7565b606654604080517fff00000000000000000000000000000000000000000000000000000000000000602080830191909152606060020a3081026021840152603583019590955260558083019490945282518083039094018452607590910190915281519101208102049150505b92915050565b603354600160a060020a031690565b603354600090600160a060020a03166109a8610f33565b600160a060020a031614905090565b6040517f3d602d80600a3d3981f3363d3d373d3d3d363d730000000000000000000000008152606060020a8302601482018190527f5af43d82803e903d91602b57fd5bf30000000000000000000000000000000000602883015260009160378184f060408051600160a060020a038316815290519194507efffc2da0b561cae30d9826d37709e9421c4725faebc226cbbb7ef5fc5e7349925081900360200190a1600083511115610b1757600082600160a060020a0316846040518082805190602001908083835b60208310610a9e5780518252601f199092019160209182019101610a7f565b6001836020036101000a0380198251168184511680821785525050505050509050019150506000604051808303816000865af19150503d8060008114610b00576040519150601f19603f3d011682016040523d82523d6000602084013e610b05565b606091505b50509050801515610b1557600080fd5b505b5092915050565b600054610100900460ff1680610b375750610b37610f37565b80610b45575060005460ff16155b1515610b855760405160e560020a62461bcd02815260040180806020018281038252602e815260200180611a03602e913960400191505060405180910390fd5b600054610100900460ff16158015610bb0576000805460ff1961ff0019909116610100171660011790555b60338054600160a060020a031916600160a060020a0384811691909117918290556040519116906000906000805160206119e3833981519152908290a38015610bff576000805461ff00191690555b5050565b610c0b610991565b1515610c61576040805160e560020a62461bcd02815260206004820181905260248201527f4f776e61626c653a2063616c6c6572206973206e6f7420746865206f776e6572604482015290519081900360640190fd5b610c6a81610f3d565b50565b604080517f19457468657265756d205369676e6564204d6573736167653a0a333200000000602080830191909152603c8083019490945282518083039094018452605c909101909152815191012090565b8051600090604114610cd25750600061097c565b60208201516040830151606084015160001a7f7fffffffffffffffffffffffffffffff5d576e7357a4501ddfe92f46681b20a0821115610d18576000935050505061097c565b8060ff16601b14158015610d3057508060ff16601c14155b15610d41576000935050505061097c565b6040805160008152602080820180845289905260ff8416828401526060820186905260808201859052915160019260a0808401939192601f1981019281900390910190855afa158015610d98573d6000803e3d6000fd5b5050604051601f190151979650505050505050565b600080610dba8784610fd1565b60408051600160a060020a038316815290519192507efffc2da0b561cae30d9826d37709e9421c4725faebc226cbbb7ef5fc5e7349919081900360200190a16040517fcf7a1d77000000000000000000000000000000000000000000000000000000008152600160a060020a038781166004830190815287821660248401526060604484019081528751606485015287519285169363cf7a1d77938b938b938b939192909160840190602085019080838360005b83811015610e86578181015183820152602001610e6e565b50505050905090810190601f168015610eb35780820380516001836020036101000a031916815260200191505b50945050505050600060405180830381600087803b158015610ed457600080fd5b505af1158015610ee8573d6000803e3d6000fd5b50929998505050505050505050565b60408051602080820194909452600160a060020a0392909216606060020a02828201528051808303603401815260549092019052805191012090565b3390565b303b1590565b600160a060020a0381161515610f875760405160e560020a62461bcd0281526004018080602001828103825260268152602001806119bd6026913960400191505060405180910390fd5b603354604051600160a060020a038084169216906000805160206119e383398151915290600090a360338054600160a060020a031916600160a060020a0392909216919091179055565b600080606060405180602001610fe690611025565b601f19828203018252604052905060006110008686610ef7565b9050808251602084016000f59250823b151561101b57600080fd5b5090949350505050565b61098a806110338339019056fe608060405234801561001057600080fd5b5061096a806100206000396000f3fe60806040526004361061007c577c010000000000000000000000000000000000000000000000000000000060003504633659cfe681146100865780634f1ef286146100b95780635c60da1b146101395780638f2839701461016a578063cf7a1d771461019d578063d1f578941461025c578063f851a44014610312575b610084610327565b005b34801561009257600080fd5b50610084600480360360208110156100a957600080fd5b5035600160a060020a0316610341565b610084600480360360408110156100cf57600080fd5b600160a060020a0382351691908101906040810160208201356401000000008111156100fa57600080fd5b82018360208201111561010c57600080fd5b8035906020019184600183028401116401000000008311171561012e57600080fd5b50909250905061037b565b34801561014557600080fd5b5061014e61042a565b60408051600160a060020a039092168252519081900360200190f35b34801561017657600080fd5b506100846004803603602081101561018d57600080fd5b5035600160a060020a0316610467565b610084600480360360608110156101b357600080fd5b600160a060020a0382358116926020810135909116918101906060810160408201356401000000008111156101e757600080fd5b8201836020820111156101f957600080fd5b8035906020019184600183028401116401000000008311171561021b57600080fd5b91908080601f016020809104026020016040519081016040528093929190818152602001838380828437600092019190915250929550610526945050505050565b6100846004803603604081101561027257600080fd5b600160a060020a03823516919081019060408101602082013564010000000081111561029d57600080fd5b8201836020820111156102af57600080fd5b803590602001918460018302840111640100000000831117156102d157600080fd5b91908080601f0160208091040260200160405190810160405280939291908181526020018383808284376000920191909152509295506105a4945050505050565b34801561031e57600080fd5b5061014e6106d7565b61032f610702565b61033f61033a61075c565b61076f565b565b610349610793565b600160a060020a031633600160a060020a031614156103705761036b816107a6565b610378565b610378610327565b50565b610383610793565b600160a060020a031633600160a060020a0316141561041d576103a5836107a6565b600083600160a060020a031683836040518083838082843760405192019450600093509091505080830381855af49150503d8060008114610402576040519150601f19603f3d011682016040523d82523d6000602084013e610407565b606091505b5050905080151561041757600080fd5b50610425565b610425610327565b505050565b6000610434610793565b600160a060020a031633600160a060020a0316141561045c5761045561075c565b9050610464565b610464610327565b90565b61046f610793565b600160a060020a031633600160a060020a0316141561037057600160a060020a03811615156104d25760405160e560020a62461bcd02815260040180806020018281038252603681526020018061088e6036913960400191505060405180910390fd5b7f7e644d79422f17c01e4894b5f4f588d331ebfa28653d42ae832dc59e38c9798f6104fb610793565b60408051600160a060020a03928316815291841660208301528051918290030190a161036b816107e6565b600061053061075c565b600160a060020a03161461054357600080fd5b61054d83826105a4565b604080517f656970313936372e70726f78792e61646d696e00000000000000000000000000815290519081900360130190206000805160206108c48339815191526000199091011461059b57fe5b610425826107e6565b60006105ae61075c565b600160a060020a0316146105c157600080fd5b604080517f656970313936372e70726f78792e696d706c656d656e746174696f6e000000008152905190819003601c0190206000805160206108e48339815191526000199091011461060f57fe5b610618826107f8565b6000815111156106d357600082600160a060020a0316826040518082805190602001908083835b6020831061065e5780518252601f19909201916020918201910161063f565b6001836020036101000a038019825116818451168082178552505050505050905001915050600060405180830381855af49150503d80600081146106be576040519150601f19603f3d011682016040523d82523d6000602084013e6106c3565b606091505b5050905080151561042557600080fd5b5050565b60006106e1610793565b600160a060020a031633600160a060020a0316141561045c57610455610793565b61070a610793565b600160a060020a03163314156107545760405160e560020a62461bcd02815260040180806020018281038252603281526020018061085c6032913960400191505060405180910390fd5b61033f61033f565b6000805160206108e48339815191525490565b3660008037600080366000845af43d6000803e80801561078e573d6000f35b3d6000fd5b6000805160206108c48339815191525490565b6107af816107f8565b604051600160a060020a038216907fbc7cd75a20ee27fd9adebab32041f755214dbc6bffa90cc0225b39da2e5c2d3b90600090a250565b6000805160206108c483398151915255565b61080181610853565b15156108415760405160e560020a62461bcd02815260040180806020018281038252603b815260200180610904603b913960400191505060405180910390fd5b6000805160206108e483398151915255565b6000903b119056fe43616e6e6f742063616c6c2066616c6c6261636b2066756e6374696f6e2066726f6d207468652070726f78792061646d696e43616e6e6f74206368616e6765207468652061646d696e206f6620612070726f787920746f20746865207a65726f2061646472657373b53127684a568b3173ae13b9f8a6016e243e63b6e8ee1178d6a717850b5d6103360894a13ba1a3210667c828492db98dca3e2076cc3735a920a3ca505d382bbc43616e6e6f742073657420612070726f787920696d706c656d656e746174696f6e20746f2061206e6f6e2d636f6e74726163742061646472657373a165627a7a72305820ea329dc3282934e7818225b822eefad1ce16ff1ab9e1362e9ed72221f03b980f00294f776e61626c653a206e6577206f776e657220697320746865207a65726f20616464726573738be0079c531659141344cd1fd0a4f28419497f9722a3daafe3b4186f6b6457e0436f6e747261637420696e7374616e63652068617320616c7265616479206265656e20696e697469616c697a6564a165627a7a723058205aff24b0b57e051417fe79cd67d053dea2cbb1d3db4bdc02011ca7a8a8ee6bbc0029608060405234801561001057600080fd5b5061096a806100206000396000f3fe60806040526004361061007c577c010000000000000000000000000000000000000000000000000000000060003504633659cfe681146100865780634f1ef286146100b95780635c60da1b146101395780638f2839701461016a578063cf7a1d771461019d578063d1f578941461025c578063f851a44014610312575b610084610327565b005b34801561009257600080fd5b50610084600480360360208110156100a957600080fd5b5035600160a060020a0316610341565b610084600480360360408110156100cf57600080fd5b600160a060020a0382351691908101906040810160208201356401000000008111156100fa57600080fd5b82018360208201111561010c57600080fd5b8035906020019184600183028401116401000000008311171561012e57600080fd5b50909250905061037b565b34801561014557600080fd5b5061014e61042a565b60408051600160a060020a039092168252519081900360200190f35b34801561017657600080fd5b506100846004803603602081101561018d57600080fd5b5035600160a060020a0316610467565b610084600480360360608110156101b357600080fd5b600160a060020a0382358116926020810135909116918101906060810160408201356401000000008111156101e757600080fd5b8201836020820111156101f957600080fd5b8035906020019184600183028401116401000000008311171561021b57600080fd5b91908080601f016020809104026020016040519081016040528093929190818152602001838380828437600092019190915250929550610526945050505050565b6100846004803603604081101561027257600080fd5b600160a060020a03823516919081019060408101602082013564010000000081111561029d57600080fd5b8201836020820111156102af57600080fd5b803590602001918460018302840111640100000000831117156102d157600080fd5b91908080601f0160208091040260200160405190810160405280939291908181526020018383808284376000920191909152509295506105a4945050505050565b34801561031e57600080fd5b5061014e6106d7565b61032f610702565b61033f61033a61075c565b61076f565b565b610349610793565b600160a060020a031633600160a060020a031614156103705761036b816107a6565b610378565b610378610327565b50565b610383610793565b600160a060020a031633600160a060020a0316141561041d576103a5836107a6565b600083600160a060020a031683836040518083838082843760405192019450600093509091505080830381855af49150503d8060008114610402576040519150601f19603f3d011682016040523d82523d6000602084013e610407565b606091505b5050905080151561041757600080fd5b50610425565b610425610327565b505050565b6000610434610793565b600160a060020a031633600160a060020a0316141561045c5761045561075c565b9050610464565b610464610327565b90565b61046f610793565b600160a060020a031633600160a060020a0316141561037057600160a060020a03811615156104d25760405160e560020a62461bcd02815260040180806020018281038252603681526020018061088e6036913960400191505060405180910390fd5b7f7e644d79422f17c01e4894b5f4f588d331ebfa28653d42ae832dc59e38c9798f6104fb610793565b60408051600160a060020a03928316815291841660208301528051918290030190a161036b816107e6565b600061053061075c565b600160a060020a03161461054357600080fd5b61054d83826105a4565b604080517f656970313936372e70726f78792e61646d696e00000000000000000000000000815290519081900360130190206000805160206108c48339815191526000199091011461059b57fe5b610425826107e6565b60006105ae61075c565b600160a060020a0316146105c157600080fd5b604080517f656970313936372e70726f78792e696d706c656d656e746174696f6e000000008152905190819003601c0190206000805160206108e48339815191526000199091011461060f57fe5b610618826107f8565b6000815111156106d357600082600160a060020a0316826040518082805190602001908083835b6020831061065e5780518252601f19909201916020918201910161063f565b6001836020036101000a038019825116818451168082178552505050505050905001915050600060405180830381855af49150503d80600081146106be576040519150601f19603f3d011682016040523d82523d6000602084013e6106c3565b606091505b5050905080151561042557600080fd5b5050565b60006106e1610793565b600160a060020a031633600160a060020a0316141561045c57610455610793565b61070a610793565b600160a060020a03163314156107545760405160e560020a62461bcd02815260040180806020018281038252603281526020018061085c6032913960400191505060405180910390fd5b61033f61033f565b6000805160206108e48339815191525490565b3660008037600080366000845af43d6000803e80801561078e573d6000f35b3d6000fd5b6000805160206108c48339815191525490565b6107af816107f8565b604051600160a060020a038216907fbc7cd75a20ee27fd9adebab32041f755214dbc6bffa90cc0225b39da2e5c2d3b90600090a250565b6000805160206108c483398151915255565b61080181610853565b15156108415760405160e560020a62461bcd02815260040180806020018281038252603b815260200180610904603b913960400191505060405180910390fd5b6000805160206108e483398151915255565b6000903b119056fe43616e6e6f742063616c6c2066616c6c6261636b2066756e6374696f6e2066726f6d207468652070726f78792061646d696e43616e6e6f74206368616e6765207468652061646d696e206f6620612070726f787920746f20746865207a65726f2061646472657373b53127684a568b3173ae13b9f8a6016e243e63b6e8ee1178d6a717850b5d6103360894a13ba1a3210667c828492db98dca3e2076cc3735a920a3ca505d382bbc43616e6e6f742073657420612070726f787920696d706c656d656e746174696f6e20746f2061206e6f6e2d636f6e74726163742061646472657373a165627a7a72305820ea329dc3282934e7818225b822eefad1ce16ff1ab9e1362e9ed72221f03b980f0029",
  "source": "pragma solidity ^0.5.3;\n\n\nimport \"@openzeppelin/contracts-ethereum-package/contracts/ownership/Ownable.sol\";\nimport \"@openzeppelin/upgrades/contracts/Initializable.sol\";\nimport '@openzeppelin/upgrades/contracts/upgradeability/ProxyFactory.sol';\n////////////////////////////////////////////////////////////////////////////////////////////\n/// @title VotingAppFactory\n/// @author Christopher Dixon\n////////////////////////////////////////////////////////////////////////////////////////////\n/**\nThe VotingAppFactory contract is designed to produce individual VotingApp contracts\n**/\n\ncontract VotingAppFactory is Initializable, Ownable, ProxyFactory {\n  address public votingInstance;\n\n  function initialize(address _Matrix, address _VotingInstance) public {\n    Ownable.initialize(_Matrix);\n    votingInstance = _VotingInstance;\n  }\n    /**\n    @notice genesis is called to create a new VotingApp contract\n    @param _DAO is the address of the Cortex DAO that will own the created\n            VotingApp\n    **/\n    function genesis(address _DAO) public returns (address) {\n        bytes memory payload = abi.encodeWithSignature(\"initialize(address _DAO)\", _DAO);\n        address fl = deployMinimal(votingInstance, payload);\n        return address(fl);\n    }\n}\n",
  "sourcePath": "/home/stan36/repos/zer0/ZDAO/contracts/NeuronFactories/VotingAppFactory.sol",
  "compiler": {
    "name": "solc",
    "version": "0.5.3+commit.10d17f24.Emscripten.clang"
  },
  "schemaVersion": "3.3.2",
  "updatedAt": "2021-02-25T00:58:00.177Z",
  "networkType": "ethereum",
  "devdoc": {
    "methods": {
      "genesis(address)": {
        "params": {
          "_DAO": "is the address of the Cortex DAO that will own the created VotingApp*"
        }
      },
      "initialize(address)": {
        "details": "Initializes the contract setting the deployer as the initial owner."
      },
      "isOwner()": {
        "details": "Returns true if the caller is the current owner."
      },
      "owner()": {
        "details": "Returns the address of the current owner."
      },
      "renounceOwnership()": {
        "details": "Leaves the contract without owner. It will not be possible to call `onlyOwner` functions anymore. Can only be called by the current owner.     * > Note: Renouncing ownership will leave the contract without an owner, thereby removing any functionality that is only available to the owner."
      },
      "transferOwnership(address)": {
        "details": "Transfers ownership of the contract to a new account (`newOwner`). Can only be called by the current owner."
      }
    }
  },
  "userdoc": {
    "methods": {
      "genesis(address)": {
        "notice": "genesis is called to create a new VotingApp contract"
      }
    },
    "notice": "The VotingAppFactory contract is designed to produce individual VotingApp contracts*"
  }
}