{
  "contractName": "ZDAOFactory",
  "abi": [
    {
      "anonymous": false,
      "inputs": [
        {
          "indexed": true,
          "internalType": "address",
          "name": "previousOwner",
          "type": "address"
        },
        {
          "indexed": true,
          "internalType": "address",
          "name": "newOwner",
          "type": "address"
        }
      ],
      "name": "OwnershipTransferred",
      "type": "event"
    },
    {
      "inputs": [
        {
          "internalType": "string",
          "name": "",
          "type": "string"
        }
      ],
      "name": "daoTokenTracker",
      "outputs": [
        {
          "internalType": "address",
          "name": "",
          "type": "address"
        }
      ],
      "stateMutability": "view",
      "type": "function"
    },
    {
      "inputs": [
        {
          "internalType": "string",
          "name": "",
          "type": "string"
        }
      ],
      "name": "daoTracker",
      "outputs": [
        {
          "internalType": "address",
          "name": "",
          "type": "address"
        }
      ],
      "stateMutability": "view",
      "type": "function"
    },
    {
      "inputs": [
        {
          "internalType": "string",
          "name": "",
          "type": "string"
        }
      ],
      "name": "nameTaken",
      "outputs": [
        {
          "internalType": "bool",
          "name": "",
          "type": "bool"
        }
      ],
      "stateMutability": "view",
      "type": "function"
    },
    {
      "inputs": [],
      "name": "owner",
      "outputs": [
        {
          "internalType": "address",
          "name": "",
          "type": "address"
        }
      ],
      "stateMutability": "view",
      "type": "function"
    },
    {
      "inputs": [],
      "name": "renounceOwnership",
      "outputs": [],
      "stateMutability": "nonpayable",
      "type": "function"
    },
    {
      "inputs": [
        {
          "internalType": "address",
          "name": "newOwner",
          "type": "address"
        }
      ],
      "name": "transferOwnership",
      "outputs": [],
      "stateMutability": "nonpayable",
      "type": "function"
    },
    {
      "inputs": [
        {
          "internalType": "string",
          "name": "_daoName",
          "type": "string"
        },
        {
          "internalType": "string",
          "name": "_tokenName",
          "type": "string"
        },
        {
          "internalType": "string",
          "name": "_tokenSym",
          "type": "string"
        },
        {
          "internalType": "address",
          "name": "_existingToken",
          "type": "address"
        },
        {
          "internalType": "bool",
          "name": "transferableRep",
          "type": "bool"
        },
        {
          "internalType": "uint256",
          "name": "_quorum",
          "type": "uint256"
        },
        {
          "internalType": "uint256",
          "name": "_proposalTime",
          "type": "uint256"
        }
      ],
      "name": "createZDAO",
      "outputs": [],
      "stateMutability": "nonpayable",
      "type": "function"
    },
    {
      "inputs": [
        {
          "internalType": "string",
          "name": "_daoName",
          "type": "string"
        }
      ],
      "name": "retrieveZDAO",
      "outputs": [
        {
          "internalType": "address",
          "name": "",
          "type": "address"
        }
      ],
      "stateMutability": "view",
      "type": "function"
    },
    {
      "inputs": [
        {
          "internalType": "string",
          "name": "_daoName",
          "type": "string"
        }
      ],
      "name": "retrieveZDAOToken",
      "outputs": [
        {
          "internalType": "address",
          "name": "",
          "type": "address"
        }
      ],
      "stateMutability": "view",
      "type": "function"
    },
    {
      "inputs": [
        {
          "internalType": "string",
          "name": "_daoName",
          "type": "string"
        }
      ],
      "name": "isDAOnameTaken",
      "outputs": [
        {
          "internalType": "bool",
          "name": "",
          "type": "bool"
        }
      ],
      "stateMutability": "view",
      "type": "function"
    }
  ],
  "bytecode": "0x608060405260006100176001600160e01b0361006616565b600080546001600160a01b0319166001600160a01b0383169081178255604051929350917f8be0079c531659141344cd1fd0a4f28419497f9722a3daafe3b4186f6b6457e0908290a35061006a565b3390565b614225806100796000396000f3fe60806040523480156200001157600080fd5b5060043610620000ac5760003560e01c8063b4a883ce116200006f578063b4a883ce1462000421578063b903439b14620004cb578063dd8465751462000575578063e5344fe2146200061f578063f2fde38b14620006c957620000ac565b806337a57ab814620000b1578063715018a614620002895780638da5cb5b146200029357806391fc437e14620002b9578063adbfd92f1462000377575b600080fd5b62000287600480360360e0811015620000c957600080fd5b810190602081018135600160201b811115620000e457600080fd5b820183602082011115620000f757600080fd5b803590602001918460018302840111600160201b831117156200011957600080fd5b91908080601f0160208091040260200160405190810160405280939291908181526020018383808284376000920191909152509295949360208101935035915050600160201b8111156200016c57600080fd5b8201836020820111156200017f57600080fd5b803590602001918460018302840111600160201b83111715620001a157600080fd5b91908080601f0160208091040260200160405190810160405280939291908181526020018383808284376000920191909152509295949360208101935035915050600160201b811115620001f457600080fd5b8201836020820111156200020757600080fd5b803590602001918460018302840111600160201b831117156200022957600080fd5b91908080601f016020809104026020016040519081016040528093929190818152602001838380828437600092019190915250929550506001600160a01b0383351693505050602081013515159060408101359060600135620006f2565b005b6200028762000dfc565b6200029d62000eb3565b604080516001600160a01b039092168252519081900360200190f35b6200036360048036036020811015620002d157600080fd5b810190602081018135600160201b811115620002ec57600080fd5b820183602082011115620002ff57600080fd5b803590602001918460018302840111600160201b831117156200032157600080fd5b91908080601f01602080910402602001604051908101604052809392919081815260200183838082843760009201919091525092955062000ec2945050505050565b604080519115158252519081900360200190f35b6200029d600480360360208110156200038f57600080fd5b810190602081018135600160201b811115620003aa57600080fd5b820183602082011115620003bd57600080fd5b803590602001918460018302840111600160201b83111715620003df57600080fd5b91908080601f01602080910402602001604051908101604052809392919081815260200183838082843760009201919091525092955062000ee2945050505050565b62000363600480360360208110156200043957600080fd5b810190602081018135600160201b8111156200045457600080fd5b8201836020820111156200046757600080fd5b803590602001918460018302840111600160201b831117156200048957600080fd5b91908080601f01602080910402602001604051908101604052809392919081815260200183838082843760009201919091525092955062000f55945050505050565b6200029d60048036036020811015620004e357600080fd5b810190602081018135600160201b811115620004fe57600080fd5b8201836020820111156200051157600080fd5b803590602001918460018302840111600160201b831117156200053357600080fd5b91908080601f01602080910402602001604051908101604052809392919081815260200183838082843760009201919091525092955062000fc2945050505050565b6200029d600480360360208110156200058d57600080fd5b810190602081018135600160201b811115620005a857600080fd5b820183602082011115620005bb57600080fd5b803590602001918460018302840111600160201b83111715620005dd57600080fd5b91908080601f01602080910402602001604051908101604052809392919081815260200183838082843760009201919091525092955062000fe8945050505050565b6200029d600480360360208110156200063757600080fd5b810190602081018135600160201b8111156200065257600080fd5b8201836020820111156200066557600080fd5b803590602001918460018302840111600160201b831117156200068757600080fd5b91908080601f0160208091040260200160405190810160405280939291908181526020018383808284376000920191909152509295506200100e945050505050565b6200028760048036036020811015620006e157600080fd5b50356001600160a01b031662001043565b6003876040518082805190602001908083835b60208310620007265780518252601f19909201916020918201910162000705565b51815160001960209485036101000a0190811690199190911617905292019485525060405193849003019092205460ff1615156001141591506200079e90505760405162461bcd60e51b815260040180806020018281038252602a815260200180620041c6602a913960400191505060405180910390fd5b6001600160a01b0384161562000ac5576000878787600033888888604051620007c79062001156565b6001600160a01b0380871660608301528516608082015283151560a082015260c0810183905260e08101829052610100808252895190820152885181906020808301916040840191610120850191908e019080838360005b83811015620008395781810151838201526020016200081f565b50505050905090810190601f168015620008675780820380516001836020036101000a031916815260200191505b5084810383528b5181528b516020918201918d019080838360005b838110156200089c57818101518382015260200162000882565b50505050905090810190601f168015620008ca5780820380516001836020036101000a031916815260200191505b5084810382528a5181528a516020918201918c019080838360005b83811015620008ff578181015183820152602001620008e5565b50505050905090810190601f1680156200092d5780820380516001836020036101000a031916815260200191505b509b505050505050505050505050604051809103906000f08015801562000958573d6000803e3d6000fd5b509050806001896040518082805190602001908083835b60208310620009905780518252601f1990920191602091820191016200096f565b51815160209384036101000a600019018019909216911617905292019485525060408051948590038201852080546001600160a01b0319166001600160a01b03978816179055630a40d29760e21b855251948616946329034a5c9460048082019550929350909190829003018186803b15801562000a0d57600080fd5b505afa15801562000a22573d6000803e3d6000fd5b505050506040513d602081101562000a3957600080fd5b505160405189516002918b91819060208401908083835b6020831062000a715780518252601f19909201916020918201910162000a50565b51815160209384036101000a6000190180199092169116179052920194855250604051938490030190922080546001600160a01b0319166001600160a01b0394909416939093179092555062000d80915050565b836002886040518082805190602001908083835b6020831062000afa5780518252601f19909201916020918201910162000ad9565b6001836020036101000a038019825116818451168082178552505050505050905001915050908152602001604051809103902060006101000a8154816001600160a01b0302191690836001600160a01b031602179055506000878787873388888860405162000b699062001156565b6001600160a01b0380871660608301528516608082015283151560a082015260c0810183905260e08101829052610100808252895190820152885181906020808301916040840191610120850191908e019080838360005b8381101562000bdb57818101518382015260200162000bc1565b50505050905090810190601f16801562000c095780820380516001836020036101000a031916815260200191505b5084810383528b5181528b516020918201918d019080838360005b8381101562000c3e57818101518382015260200162000c24565b50505050905090810190601f16801562000c6c5780820380516001836020036101000a031916815260200191505b5084810382528a5181528a516020918201918c019080838360005b8381101562000ca157818101518382015260200162000c87565b50505050905090810190601f16801562000ccf5780820380516001836020036101000a031916815260200191505b509b505050505050505050505050604051809103906000f08015801562000cfa573d6000803e3d6000fd5b509050806001896040518082805190602001908083835b6020831062000d325780518252601f19909201916020918201910162000d11565b51815160209384036101000a6000190180199092169116179052920194855250604051938490030190922080546001600160a01b0319166001600160a01b0394909416939093179092555050505b60016003886040518082805190602001908083835b6020831062000db65780518252601f19909201916020918201910162000d95565b51815160209384036101000a60001901801990921691161790529201948552506040519384900301909220805460ff191693151593909317909255505050505050505050565b62000e0662001152565b6000546001600160a01b0390811691161462000e69576040805162461bcd60e51b815260206004820181905260248201527f4f776e61626c653a2063616c6c6572206973206e6f7420746865206f776e6572604482015290519081900360640190fd5b600080546040516001600160a01b03909116907f8be0079c531659141344cd1fd0a4f28419497f9722a3daafe3b4186f6b6457e0908390a3600080546001600160a01b0319169055565b6000546001600160a01b031690565b805160208183018101805160038252928201919093012091525460ff1681565b60006002826040518082805190602001908083835b6020831062000f185780518252601f19909201916020918201910162000ef7565b51815160209384036101000a60001901801990921691161790529201948552506040519384900301909220546001600160a01b0316949350505050565b60006003826040518082805190602001908083835b6020831062000f8b5780518252601f19909201916020918201910162000f6a565b51815160209384036101000a600019018019909216911617905292019485525060405193849003019092205460ff16949350505050565b80516020818301810180516002825292820191909301209152546001600160a01b031681565b80516020818301810180516001825292820191909301209152546001600160a01b031681565b60006001826040518082805190602001908083836020831062000f185780518252601f19909201916020918201910162000ef7565b6200104d62001152565b6000546001600160a01b03908116911614620010b0576040805162461bcd60e51b815260206004820181905260248201527f4f776e61626c653a2063616c6c6572206973206e6f7420746865206f776e6572604482015290519081900360640190fd5b6001600160a01b038116620010f75760405162461bcd60e51b8152600401808060200182810382526026815260200180620041a06026913960400191505060405180910390fd5b600080546040516001600160a01b03808516939216917f8be0079c531659141344cd1fd0a4f28419497f9722a3daafe3b4186f6b6457e091a3600080546001600160a01b0319166001600160a01b0392909216919091179055565b3390565b61303b80620011658339019056fe60806040523480156200001157600080fd5b506040516200303b3803806200303b83398181016040526101008110156200003857600080fd5b81019080805160405193929190846401000000008211156200005957600080fd5b9083019060208201858111156200006f57600080fd5b82516401000000008111828201881017156200008a57600080fd5b82525081516020918201929091019080838360005b83811015620000b95781810151838201526020016200009f565b50505050905090810190601f168015620000e75780820380516001836020036101000a031916815260200191505b50604052602001805160405193929190846401000000008211156200010b57600080fd5b9083019060208201858111156200012157600080fd5b82516401000000008111828201881017156200013c57600080fd5b82525081516020918201929091019080838360005b838110156200016b57818101518382015260200162000151565b50505050905090810190601f168015620001995780820380516001836020036101000a031916815260200191505b5060405260200180516040519392919084640100000000821115620001bd57600080fd5b908301906020820185811115620001d357600080fd5b8251640100000000811182820188101715620001ee57600080fd5b82525081516020918201929091019080838360005b838110156200021d57818101518382015260200162000203565b50505050905090810190601f1680156200024b5780820380516001836020036101000a031916815260200191505b5060409081526020820151908201516060830151608084015160a09094015192955090935091906000620002876001600160e01b036200048816565b600080546001600160a01b0319166001600160a01b0383169081178255604051929350917f8be0079c531659141344cd1fd0a4f28419497f9722a3daafe3b4186f6b6457e0908290a3506001600160a01b03851662000432576000878785600188604051620002f6906200048d565b831515604082015282151560608201526001600160a01b038216608082015260a08082528651908201528551819060208083019160c08401918a019080838360005b838110156200035257818101518382015260200162000338565b50505050905090810190601f168015620003805780820380516001836020036101000a031916815260200191505b50838103825287518152875160209182019189019080838360005b83811015620003b55781810151838201526020016200039b565b50505050905090810190601f168015620003e35780820380516001836020036101000a031916815260200191505b50975050505050505050604051809103906000f0801580156200040a573d6000803e3d6000fd5b50600180546001600160a01b0319166001600160a01b0392909216919091179055506200044e565b600180546001600160a01b0319166001600160a01b0387161790555b8751620004639060029060208b01906200049b565b506006805460ff191693151593909317909255600555600455506200053d9350505050565b335b90565b6116e9806200195283390190565b828054600181600116156101000203166002900490600052602060002090601f016020900481019282601f10620004de57805160ff19168380011785556200050e565b828001600101855582156200050e579182015b828111156200050e578251825591602001919060010190620004f1565b506200051c92915062000520565b5090565b6200048a91905b808211156200051c576000815560010162000527565b611405806200054d6000396000f3fe6080604052600436106100d75760003560e01c8063489769361161007a5780634897693614610359578063715018a6146103e35780638ae17fc0146103fa5780638da5cb5b1461053b578063c1ba4e5914610550578063c9d27afe1461057a578063da368ac1146105ac578063f2fde38b146105df576100de565b8063013cf08b146100e35780631703a01814610248578063184a0ae91461026f5780632121dc751461028457806329034a5c146102ad5780633123ca97146102de57806335d7004c14610311578063371fa85414610344576100de565b366100de57005b600080fd5b3480156100ef57600080fd5b5061010d6004803603602081101561010657600080fd5b5035610612565b604051808a6001600160a01b03166001600160a01b03168152602001896001600160a01b03166001600160a01b0316815260200188815260200187815260200186815260200185151515158152602001841515151581526020018060200180602001838103835285818151815260200191508051906020019080838360005b838110156101a457818101518382015260200161018c565b50505050905090810190601f1680156101d15780820380516001836020036101000a031916815260200191505b50838103825284518152845160209182019186019080838360005b838110156102045781810151838201526020016101ec565b50505050905090810190601f1680156102315780820380516001836020036101000a031916815260200191505b509b50505050505050505050505060405180910390f35b34801561025457600080fd5b5061025d610795565b60408051918252519081900360200190f35b34801561027b57600080fd5b5061025d61079b565b34801561029057600080fd5b506102996107a1565b604080519115158252519081900360200190f35b3480156102b957600080fd5b506102c26107aa565b604080516001600160a01b039092168252519081900360200190f35b3480156102ea57600080fd5b506102996004803603602081101561030157600080fd5b50356001600160a01b03166107b9565b34801561031d57600080fd5b506102996004803603602081101561033457600080fd5b50356001600160a01b03166107ce565b34801561035057600080fd5b5061025d6107e3565b34801561036557600080fd5b5061036e6107e9565b6040805160208082528351818301528351919283929083019185019080838360005b838110156103a8578181015183820152602001610390565b50505050905090810190601f1680156103d55780820380516001836020036101000a031916815260200191505b509250505060405180910390f35b3480156103ef57600080fd5b506103f8610874565b005b61025d6004803603608081101561041057600080fd5b6001600160a01b038235169190810190604081016020820135600160201b81111561043a57600080fd5b82018360208201111561044c57600080fd5b803590602001918460018302840111600160201b8311171561046d57600080fd5b91908080601f01602080910402602001604051908101604052809392919081815260200183838082843760009201919091525092958435959094909350604081019250602001359050600160201b8111156104c757600080fd5b8201836020820111156104d957600080fd5b803590602001918460018302840111600160201b831117156104fa57600080fd5b91908080601f016020809104026020016040519081016040528093929190818152602001838380828437600092019190915250929550610916945050505050565b34801561054757600080fd5b506102c2610a8a565b34801561055c57600080fd5b506103f86004803603602081101561057357600080fd5b5035610a9a565b34801561058657600080fd5b506103f86004803603604081101561059d57600080fd5b50803590602001351515610af7565b3480156105b857600080fd5b50610299600480360360208110156105cf57600080fd5b50356001600160a01b0316610ded565b3480156105eb57600080fd5b506103f86004803603602081101561060257600080fd5b50356001600160a01b0316610e02565b600a818154811061061f57fe5b6000918252602091829020600a90910201805460018083015460028085015460038601546004870154600588015460068901805460408051601f6000199b8416156101009081029c909c01909316989098049182018d90048d0288018d0190528087526001600160a01b03998a169c50969098169993989297919660ff80831697919092049091169492938301828280156106fb5780601f106106d0576101008083540402835291602001916106fb565b820191906000526020600020905b8154815290600101906020018083116106de57829003601f168201915b5050505060078301805460408051602060026001851615610100026000190190941693909304601f810184900484028201840190925281815294959493509083018282801561078b5780601f106107605761010080835404028352916020019161078b565b820191906000526020600020905b81548152906001019060200180831161076e57829003601f168201915b5050505050905089565b60055481565b60045481565b60065460ff1681565b6001546001600160a01b031681565b60086020526000908152604090205460ff1681565b60076020526000908152604090205460ff1681565b60035481565b6002805460408051602060018416156101000260001901909316849004601f8101849004840282018401909252818152929183018282801561086c5780601f106108415761010080835404028352916020019161086c565b820191906000526020600020905b81548152906001019060200180831161084f57829003601f168201915b505050505081565b61087c610efa565b6000546001600160a01b039081169116146108cc576040805162461bcd60e51b81526020600482018190526024820152600080516020611389833981519152604482015290519081900360640190fd5b600080546040516001600160a01b03909116907f8be0079c531659141344cd1fd0a4f28419497f9722a3daafe3b4186f6b6457e0908390a3600080546001600160a01b0319169055565b600154604080516370a0823160e01b81523360048201529051600092670de0b6b3a7640000926001600160a01b03909116916370a0823191602480820192602092909190829003018186803b15801561096e57600080fd5b505afa158015610982573d6000803e3d6000fd5b505050506040513d602081101561099857600080fd5b505110156109ed576040805162461bcd60e51b815260206004820181905260248201527f596f7520617265206e6f742061206d656d626572206f6620746869732044414f604482015290519081900360640190fd5b6003805460010190819055600a8054600092908110610a0857fe5b6000918252602091829020600a91909102018054336001600160a01b03199182161782556001820180549091166001600160a01b038a16179055600281018690554260038201558651909250610a66916006840191908801906112ca565b508251610a7c90600783019060208601906112ca565b505060035495945050505050565b6000546001600160a01b03165b90565b610aa2610efa565b6000546001600160a01b03908116911614610af2576040805162461bcd60e51b81526020600482018190526024820152600080516020611389833981519152604482015290519081900360640190fd5b600555565b600154604080516370a0823160e01b81523360048201529051670de0b6b3a7640000926001600160a01b0316916370a08231916024808301926020929190829003018186803b158015610b4957600080fd5b505afa158015610b5d573d6000803e3d6000fd5b505050506040513d6020811015610b7357600080fd5b50511015610bc8576040805162461bcd60e51b815260206004820181905260248201527f596f7520617265206e6f742061206d656d626572206f6620746869732044414f604482015290519081900360640190fd5b6000600a8381548110610bd757fe5b600091825260208083203384526009600a90930201918201905260409091205490915060ff16151560011415610c0c57600080fd5b600881015460018054604080516370a0823160e01b8152336004820152905192909301926000926001600160a01b03909216916370a0823191602480820192602092909190829003018186803b158015610c6557600080fd5b505afa158015610c79573d6000803e3d6000fd5b505050506040513d6020811015610c8f57600080fd5b5051604080516060810182528615158152336020820152908101829052600885018054929350909184908110610cc157fe5b600091825260209182902083516002909202018054928401516001600160a01b031661010002610100600160a81b031992151560ff1990941693909317919091169190911781556040909101516001909101556004830154610d29908263ffffffff610efe16565b6004808501919091553360009081526009850160209081526040808320805460ff191660019081179091555481516318160ddd60e01b81529151939485946001600160a01b0392909216936318160ddd9380830193919290829003018186803b158015610d9557600080fd5b505afa158015610da9573d6000803e3d6000fd5b505050506040513d6020811015610dbf57600080fd5b50516004860154909150610dd39082610f61565b91508115610de457610de487610f8f565b50505050505050565b60096020526000908152604090205460ff1681565b610e0a610efa565b6000546001600160a01b03908116911614610e5a576040805162461bcd60e51b81526020600482018190526024820152600080516020611389833981519152604482015290519081900360640190fd5b6001600160a01b038116610e9f5760405162461bcd60e51b81526004018080602001828103825260268152602001806113636026913960400191505060405180910390fd5b600080546040516001600160a01b03808516939216917f8be0079c531659141344cd1fd0a4f28419497f9722a3daafe3b4186f6b6457e091a3600080546001600160a01b0319166001600160a01b0392909216919091179055565b3390565b600082820183811015610f58576040805162461bcd60e51b815260206004820152601b60248201527f536166654d6174683a206164646974696f6e206f766572666c6f770000000000604482015290519081900360640190fd5b90505b92915050565b600080610f70848460026111c5565b90506005548110610f85576001915050610f5b565b6000915050610f5b565b6000600a8281548110610f9e57fe5b90600052602060002090600a02019050600454610fc88260030154426111f690919063ffffffff16565b10610fe85760058101805461ff001960ff199091166001171690556111c1565b600581015460ff161561102c5760405162461bcd60e51b81526004018080602001828103825260278152602001806113a96027913960400191505060405180910390fd5b600080805b60088401548110156110aa57600084600801828154811061104e57fe5b60009182526020909120600290910201805490915060ff161561108857600181015461108190859063ffffffff610efe16565b93506110a1565b600181015461109e90849063ffffffff610efe16565b92505b50600101611031565b50808211156111a7576001808401546002808601546040516007880180546000966060966001600160a01b03169592939283928592600019908216156101000201160480156111305780601f1061110e576101008083540402835291820191611130565b820191906000526020600020905b81548152906001019060200180831161111c575b505091505060006040518083038185875af1925050503d8060008114611172576040519150601f19603f3d011682016040523d82523d6000602084013e611177565b606091505b50915091508161118657600080fd5b505060058301805461ff001960ff19909116600117166101001790556111be565b60058301805461ff001960ff199091166001171690555b50505b5050565b60008082600101600a0a850290506000600a8583816111e057fe5b04600501816111eb57fe5b049695505050505050565b6000610f5883836040518060400160405280601e81526020017f536166654d6174683a207375627472616374696f6e206f766572666c6f770000815250600081848411156112c25760405162461bcd60e51b81526004018080602001828103825283818151815260200191508051906020019080838360005b8381101561128757818101518382015260200161126f565b50505050905090810190601f1680156112b45780820380516001836020036101000a031916815260200191505b509250505060405180910390fd5b505050900390565b828054600181600116156101000203166002900490600052602060002090601f016020900481019282601f1061130b57805160ff1916838001178555611338565b82800160010185558215611338579182015b8281111561133857825182559160200191906001019061131d565b50611344929150611348565b5090565b610a9791905b80821115611344576000815560010161134e56fe4f776e61626c653a206e6577206f776e657220697320746865207a65726f20616464726573734f776e61626c653a2063616c6c6572206973206e6f7420746865206f776e6572546869732070726f706f73616c2068617320616c7265616479206265656e206578656375746564a26469706673582212207b369a6694b01b804fd7bb084ffeed5f3b2e2dfd85d5c6906115d3a7907086c364736f6c6343000606003360806040523480156200001157600080fd5b50604051620016e9380380620016e9833981810160405260a08110156200003757600080fd5b81019080805160405193929190846401000000008211156200005857600080fd5b9083019060208201858111156200006e57600080fd5b82516401000000008111828201881017156200008957600080fd5b82525081516020918201929091019080838360005b83811015620000b85781810151838201526020016200009e565b50505050905090810190601f168015620000e65780820380516001836020036101000a031916815260200191505b50604052602001805160405193929190846401000000008211156200010a57600080fd5b9083019060208201858111156200012057600080fd5b82516401000000008111828201881017156200013b57600080fd5b82525081516020918201929091019080838360005b838110156200016a57818101518382015260200162000150565b50505050905090810190601f168015620001985780820380516001836020036101000a031916815260200191505b50604090815260208201519082015160609092015190935090915084846000620001ca6001600160e01b03620002b716565b600080546001600160a01b0319166001600160a01b0383169081178255604051929350917f8be0079c531659141344cd1fd0a4f28419497f9722a3daafe3b4186f6b6457e0908290a3508151620002299060049060208501906200043f565b5080516200023f9060059060208401906200043f565b505060068054601260ff199091161761ff001916610100861515021762ff00001916620100008515150217905550336001600160a01b038216148015906200028957506001821515145b15620002ac57620002ac81670de0b6b3a76400006001600160e01b03620002bc16565b5050505050620004e1565b335b90565b6001600160a01b03821662000318576040805162461bcd60e51b815260206004820152601f60248201527f45524332303a206d696e7420746f20746865207a65726f206164647265737300604482015290519081900360640190fd5b6200032f600083836001600160e01b03620003d816565b6200034b81600354620003dd60201b62000d371790919060201c565b6003556001600160a01b0382166000908152600160209081526040909120546200038091839062000d37620003dd821b17901c565b6001600160a01b03831660008181526001602090815260408083209490945583518581529351929391927fddf252ad1be2c89b69c2b068fc378daa952ba7f163c4a11628f55a4df523b3ef9281900390910190a35050565b505050565b60008282018381101562000438576040805162461bcd60e51b815260206004820152601b60248201527f536166654d6174683a206164646974696f6e206f766572666c6f770000000000604482015290519081900360640190fd5b9392505050565b828054600181600116156101000203166002900490600052602060002090601f016020900481019282601f106200048257805160ff1916838001178555620004b2565b82800160010185558215620004b2579182015b82811115620004b257825182559160200191906001019062000495565b50620004c0929150620004c4565b5090565b620002b991905b80821115620004c05760008155600101620004cb565b6111f880620004f16000396000f3fe608060405234801561001057600080fd5b50600436106101375760003560e01c80637d21ce4d116100b857806395d89b411161007c57806395d89b41146103ae57806396615aa3146103b6578063a457c2d7146103e2578063a9059cbb1461040e578063dd62ed3e1461043a578063f2fde38b1461046857610137565b80637d21ce4d146102f1578063846123241461031d5780638da5cb5b146103435780638f50c3a21461036757806392ff0d31146103a657610137565b806339509351116100ff57806339509351146102675780636fcc7d571461029357806370a08231146102b9578063715018a6146102df578063782f085d146102e957610137565b806306fdde031461013c578063095ea7b3146101b957806318160ddd146101f957806323b872dd14610213578063313ce56714610249575b600080fd5b61014461048e565b6040805160208082528351818301528351919283929083019185019080838360005b8381101561017e578181015183820152602001610166565b50505050905090810190601f1680156101ab5780820380516001836020036101000a031916815260200191505b509250505060405180910390f35b6101e5600480360360408110156101cf57600080fd5b506001600160a01b038135169060200135610524565b604080519115158252519081900360200190f35b610201610542565b60408051918252519081900360200190f35b6101e56004803603606081101561022957600080fd5b506001600160a01b03813581169160208101359091169060400135610548565b6102516105d5565b6040805160ff9092168252519081900360200190f35b6101e56004803603604081101561027d57600080fd5b506001600160a01b0381351690602001356105de565b610201600480360360208110156102a957600080fd5b50356001600160a01b0316610632565b610201600480360360208110156102cf57600080fd5b50356001600160a01b0316610644565b6102e761065f565b005b6101e5610701565b6102e76004803603604081101561030757600080fd5b506001600160a01b038135169060200135610710565b6102016004803603602081101561033357600080fd5b50356001600160a01b0316610780565b61034b610792565b604080516001600160a01b039092168252519081900360200190f35b61038d6004803603602081101561037d57600080fd5b50356001600160a01b03166107a1565b6040805192835260208301919091528051918290030190f35b6101e56107c9565b6101446107d7565b6102e7600480360360408110156103cc57600080fd5b506001600160a01b038135169060200135610838565b6101e5600480360360408110156103f857600080fd5b506001600160a01b0381351690602001356108a4565b6101e56004803603604081101561042457600080fd5b506001600160a01b038135169060200135610912565b6102016004803603604081101561045057600080fd5b506001600160a01b0381358116916020013516610936565b6102e76004803603602081101561047e57600080fd5b50356001600160a01b0316610961565b60048054604080516020601f600260001961010060018816150201909516949094049384018190048102820181019092528281526060939092909183018282801561051a5780601f106104ef5761010080835404028352916020019161051a565b820191906000526020600020905b8154815290600101906020018083116104fd57829003601f168201915b5050505050905090565b6000610538610531610a59565b8484610a5d565b5060015b92915050565b60035490565b6000610555848484610b49565b6105cb84610561610a59565b6105c6856040518060600160405280602881526020016110cc602891396001600160a01b038a1660009081526002602052604081209061059f610a59565b6001600160a01b03168152602081019190915260400160002054919063ffffffff610ca016565b610a5d565b5060019392505050565b60065460ff1690565b60006105386105eb610a59565b846105c685600260006105fc610a59565b6001600160a01b03908116825260208083019390935260409182016000908120918c16815292529020549063ffffffff610d3716565b60086020526000908152604090205481565b6001600160a01b031660009081526001602052604090205490565b610667610a59565b6000546001600160a01b039081169116146106b7576040805162461bcd60e51b815260206004820181905260248201526000805160206110f4833981519152604482015290519081900360640190fd5b600080546040516001600160a01b03909116907f8be0079c531659141344cd1fd0a4f28419497f9722a3daafe3b4186f6b6457e0908390a3600080546001600160a01b0319169055565b60065462010000900460ff1681565b610718610a59565b6000546001600160a01b03908116911614610768576040805162461bcd60e51b815260206004820181905260248201526000805160206110f4833981519152604482015290519081900360640190fd5b6107728282610d98565b61077c8282610def565b5050565b60076020526000908152604090205481565b6000546001600160a01b031690565b6001600160a01b03166000908152600760209081526040808320546008909252909120549091565b600654610100900460ff1681565b60058054604080516020601f600260001961010060018816150201909516949094049384018190048102820181019092528281526060939092909183018282801561051a5780601f106104ef5761010080835404028352916020019161051a565b610840610a59565b6000546001600160a01b03908116911614610890576040805162461bcd60e51b815260206004820181905260248201526000805160206110f4833981519152604482015290519081900360640190fd5b61089a8282610d98565b61077c8282610edb565b60006105386108b1610a59565b846105c68560405180606001604052806025815260200161119e60259139600260006108db610a59565b6001600160a01b03908116825260208083019390935260409182016000908120918d1681529252902054919063ffffffff610ca016565b600654600090610100900460ff1661092c5750600061053c565b61053c8383610d98565b6001600160a01b03918216600090815260026020908152604080832093909416825291909152205490565b610969610a59565b6000546001600160a01b039081169116146109b9576040805162461bcd60e51b815260206004820181905260248201526000805160206110f4833981519152604482015290519081900360640190fd5b6001600160a01b0381166109fe5760405162461bcd60e51b815260040180806020018281038252602681526020018061105e6026913960400191505060405180910390fd5b600080546040516001600160a01b03808516939216917f8be0079c531659141344cd1fd0a4f28419497f9722a3daafe3b4186f6b6457e091a3600080546001600160a01b0319166001600160a01b0392909216919091179055565b3390565b6001600160a01b038316610aa25760405162461bcd60e51b815260040180806020018281038252602481526020018061117a6024913960400191505060405180910390fd5b6001600160a01b038216610ae75760405162461bcd60e51b81526004018080602001828103825260228152602001806110846022913960400191505060405180910390fd5b6001600160a01b03808416600081815260026020908152604080832094871680845294825291829020859055815185815291517f8c5be1e5ebec7d5bd14f71427d1e84f3dd0314c0f7b2291e5b200ac8c7c3b9259281900390910190a3505050565b6001600160a01b038316610b8e5760405162461bcd60e51b81526004018080602001828103825260258152602001806111556025913960400191505060405180910390fd5b6001600160a01b038216610bd35760405162461bcd60e51b81526004018080602001828103825260238152602001806110196023913960400191505060405180910390fd5b610bde838383610fd1565b610c21816040518060600160405280602681526020016110a6602691396001600160a01b038616600090815260016020526040902054919063ffffffff610ca016565b6001600160a01b038085166000908152600160205260408082209390935590841681522054610c56908263ffffffff610d3716565b6001600160a01b03808416600081815260016020908152604091829020949094558051858152905191939287169260008051602061111483398151915292918290030190a3505050565b60008184841115610d2f5760405162461bcd60e51b81526004018080602001828103825283818151815260200191508051906020019080838360005b83811015610cf4578181015183820152602001610cdc565b50505050905090810190601f168015610d215780820380516001836020036101000a031916815260200191505b509250505060405180910390fd5b505050900390565b600082820183811015610d91576040805162461bcd60e51b815260206004820152601b60248201527f536166654d6174683a206164646974696f6e206f766572666c6f770000000000604482015290519081900360640190fd5b9392505050565b6001600160a01b0382166000908152600760205260408120429055610dbc83610644565b9050610dce828263ffffffff610d3716565b6001600160a01b039093166000908152600860205260409020929092555050565b6001600160a01b038216610e4a576040805162461bcd60e51b815260206004820152601f60248201527f45524332303a206d696e7420746f20746865207a65726f206164647265737300604482015290519081900360640190fd5b610e5660008383610fd1565b600354610e69908263ffffffff610d3716565b6003556001600160a01b038216600090815260016020526040902054610e95908263ffffffff610d3716565b6001600160a01b03831660008181526001602090815260408083209490945583518581529351929391926000805160206111148339815191529281900390910190a35050565b6001600160a01b038216610f205760405162461bcd60e51b81526004018080602001828103825260218152602001806111346021913960400191505060405180910390fd5b610f2c82600083610fd1565b610f6f8160405180606001604052806022815260200161103c602291396001600160a01b038516600090815260016020526040902054919063ffffffff610ca016565b6001600160a01b038316600090815260016020526040902055600354610f9b908263ffffffff610fd616565b6003556040805182815290516000916001600160a01b038516916000805160206111148339815191529181900360200190a35050565b505050565b6000610d9183836040518060400160405280601e81526020017f536166654d6174683a207375627472616374696f6e206f766572666c6f770000815250610ca056fe45524332303a207472616e7366657220746f20746865207a65726f206164647265737345524332303a206275726e20616d6f756e7420657863656564732062616c616e63654f776e61626c653a206e6577206f776e657220697320746865207a65726f206164647265737345524332303a20617070726f766520746f20746865207a65726f206164647265737345524332303a207472616e7366657220616d6f756e7420657863656564732062616c616e636545524332303a207472616e7366657220616d6f756e74206578636565647320616c6c6f77616e63654f776e61626c653a2063616c6c6572206973206e6f7420746865206f776e6572ddf252ad1be2c89b69c2b068fc378daa952ba7f163c4a11628f55a4df523b3ef45524332303a206275726e2066726f6d20746865207a65726f206164647265737345524332303a207472616e736665722066726f6d20746865207a65726f206164647265737345524332303a20617070726f76652066726f6d20746865207a65726f206164647265737345524332303a2064656372656173656420616c6c6f77616e63652062656c6f77207a65726fa2646970667358221220ca31122442aca697e569b5944b0bb251c6cdbc7e5ad0d58461888a384553388f64736f6c634300060600334f776e61626c653a206e6577206f776e657220697320746865207a65726f20616464726573734e616d65204572726f723a20546869732044414f206e616d6520697320616c72656164792074616b656ea2646970667358221220840432aedc2a58b78084a2246ff80e51cb12c76adb5bf672b8c14c014531299f64736f6c63430006060033",
  "immutableReferences": {},
  "source": "pragma solidity ^0.6.2;\n\nimport \"./ZDAO.sol\";\nimport \"@openzeppelin/contracts/access/Ownable.sol\";\n\n////////////////////////////////////////////////////////////////////////////////////////////\n/// @title ZDAOFactory\n/// @author Christopher Dixon\n////////////////////////////////////////////////////////////////////////////////////////////\n/**\nThe ZDAOFactory contract is designed to produce and track individual ZDAO contracts\n**/\n\ncontract ZDAOFactory is Ownable {\n    /// @notice daoTracker is used to track a DAO's name to its address\n    mapping(string => address) public daoTracker;\n    /// @notice daoTokenTracker is used to track a DAO's rep token to the DAO's name\n    mapping(string => address) public daoTokenTracker;\n    /// @notice nameTaken is used to track whether or not a DAO exists with a certain name\n    mapping(string => bool) public nameTaken;\n\n    /**\n     @notice createZDAO is a public function that allows a user to create their own zDAO\n     @dev this function can create a rep token for the new DAO OR use an existing ERC20 token\n     @param _daoName is the name of the DAO being created\n     @param _tokenName is the name of the DAO's rep token(leave blank if using an existing token)\n     @param _tokenSym is the symbol of the DAO's rep token(leave blank if using an existing token)\n     @param _existingToken is the address of an existing ERC20 token that can represent the DAO's rep\n                (this would be set to 0x0 if not applicapble)\n     @param transferableRep is a bool representing whether or not the rep token is transferable\n     @param _quorum is the minimum percentage of voteWeight needed for a vote to pass\n     @param _proposalTime is the time in seconds that a proposal will be active for\n    **/\n    function createZDAO(\n        string memory _daoName,\n        string memory _tokenName,\n        string memory _tokenSym,\n        address _existingToken,\n        bool transferableRep,\n        uint256 _quorum,\n        uint256 _proposalTime\n    ) public {\n        require(\n            nameTaken[_daoName] != true,\n            \"Name Error: This DAO name is already taken\"\n        );\n        if (_existingToken != 0x0000000000000000000000000000000000000000) {\n            ZDAO dao =\n                new ZDAO(\n                    _daoName,\n                    _tokenName,\n                    _tokenSym,\n                    0x0000000000000000000000000000000000000000,\n                    msg.sender,\n                    transferableRep,\n                    _quorum,\n                    _proposalTime\n                );\n            daoTracker[_daoName] = address(dao);\n            daoTokenTracker[_daoName] = address(dao.repToken());\n        } else {\n            daoTokenTracker[_daoName] = _existingToken;\n            ZDAO dao =\n                new ZDAO(\n                    _daoName,\n                    _tokenName,\n                    _tokenSym,\n                    _existingToken,\n                    msg.sender,\n                    transferableRep,\n                    _quorum,\n                    _proposalTime\n                );\n            daoTracker[_daoName] = address(dao);\n        }\n\n        nameTaken[_daoName] = true;\n    }\n\n    /**\n     @notice retrieveZDAO is used to retrieve a DAO's address by its name\n     @dev this is a view only function for front end use\n     @param _daoName is the name of the DAO who's address is being retrieved\n     @return the address of the DAO\n    **/\n    function retrieveZDAO(string memory _daoName)\n        public\n        view\n        returns (address)\n    {\n        return daoTracker[_daoName];\n    }\n\n    /**\n     @notice retrieveZDAOToken is used to retrieve a DAO's rep token address by its name\n     @dev this is a view only function for front end use\n     @param _daoName is the name of the DAO who's token address is being retrieved\n     @return the address of the DAO rep token\n    **/\n    function retrieveZDAOToken(string memory _daoName)\n        public\n        view\n        returns (address)\n    {\n        return daoTokenTracker[_daoName];\n    }\n\n    /**\n     @notice isDAOnameTaken is used to determine if a name for a DAO is currently in use\n     @dev this is a view only function for front end use\n     @param _daoName is the proposed name of a DAO\n     @return a bool(true/false) for whether or not a DAO with the input name exists\n    **/\n    function isDAOnameTaken(string memory _daoName)\n        public\n        view\n        returns (bool)\n    {\n        return nameTaken[_daoName];\n    }\n}\n",
  "sourcePath": "/home/stan36/repos/zer0/ZDAO/contracts/ZDAOFactory.sol",
  "compiler": {
    "name": "solc",
    "version": "0.6.6+commit.6c089d02.Emscripten.clang"
  },
  "schemaVersion": "3.3.2",
  "updatedAt": "2021-01-18T23:48:19.611Z",
  "devdoc": {
    "methods": {
      "createZDAO(string,string,string,address,bool,uint256,uint256)": {
        "details": "this function can create a rep token for the new DAO OR use an existing ERC20 token",
        "params": {
          "_daoName": "is the name of the DAO being created",
          "_existingToken": "is the address of an existing ERC20 token that can represent the DAO's rep (this would be set to 0x0 if not applicapble)",
          "_proposalTime": "is the time in seconds that a proposal will be active for*",
          "_quorum": "is the minimum percentage of voteWeight needed for a vote to pass",
          "_tokenName": "is the name of the DAO's rep token(leave blank if using an existing token)",
          "_tokenSym": "is the symbol of the DAO's rep token(leave blank if using an existing token)",
          "transferableRep": "is a bool representing whether or not the rep token is transferable"
        }
      },
      "isDAOnameTaken(string)": {
        "details": "this is a view only function for front end use",
        "params": {
          "_daoName": "is the proposed name of a DAO"
        },
        "returns": {
          "_0": "a bool(true/false) for whether or not a DAO with the input name exists*"
        }
      },
      "owner()": {
        "details": "Returns the address of the current owner."
      },
      "renounceOwnership()": {
        "details": "Leaves the contract without owner. It will not be possible to call `onlyOwner` functions anymore. Can only be called by the current owner.     * NOTE: Renouncing ownership will leave the contract without an owner, thereby removing any functionality that is only available to the owner."
      },
      "retrieveZDAO(string)": {
        "details": "this is a view only function for front end use",
        "params": {
          "_daoName": "is the name of the DAO who's address is being retrieved"
        },
        "returns": {
          "_0": "the address of the DAO*"
        }
      },
      "retrieveZDAOToken(string)": {
        "details": "this is a view only function for front end use",
        "params": {
          "_daoName": "is the name of the DAO who's token address is being retrieved"
        },
        "returns": {
          "_0": "the address of the DAO rep token*"
        }
      },
      "transferOwnership(address)": {
        "details": "Transfers ownership of the contract to a new account (`newOwner`). Can only be called by the current owner."
      }
    }
  },
  "userdoc": {
    "methods": {
      "createZDAO(string,string,string,address,bool,uint256,uint256)": {
        "notice": "createZDAO is a public function that allows a user to create their own zDAO"
      },
      "isDAOnameTaken(string)": {
        "notice": "isDAOnameTaken is used to determine if a name for a DAO is currently in use"
      },
      "retrieveZDAO(string)": {
        "notice": "retrieveZDAO is used to retrieve a DAO's address by its name"
      },
      "retrieveZDAOToken(string)": {
        "notice": "retrieveZDAOToken is used to retrieve a DAO's rep token address by its name"
      }
    },
    "notice": "The ZDAOFactory contract is designed to produce and track individual ZDAO contracts*"
  }
}