{
  "contractName": "ZToken",
  "abi": [
    {
      "inputs": [
        {
          "internalType": "string",
          "name": "_tokenName",
          "type": "string"
        },
        {
          "internalType": "string",
          "name": "_tokenSym",
          "type": "string"
        },
        {
          "internalType": "bool",
          "name": "_isTransferable",
          "type": "bool"
        },
        {
          "internalType": "bool",
          "name": "_isRep",
          "type": "bool"
        },
        {
          "internalType": "address",
          "name": "_DAOcreator",
          "type": "address"
        }
      ],
      "stateMutability": "nonpayable",
      "type": "constructor"
    },
    {
      "anonymous": false,
      "inputs": [
        {
          "indexed": true,
          "internalType": "address",
          "name": "owner",
          "type": "address"
        },
        {
          "indexed": true,
          "internalType": "address",
          "name": "spender",
          "type": "address"
        },
        {
          "indexed": false,
          "internalType": "uint256",
          "name": "value",
          "type": "uint256"
        }
      ],
      "name": "Approval",
      "type": "event"
    },
    {
      "anonymous": false,
      "inputs": [
        {
          "indexed": true,
          "internalType": "address",
          "name": "previousOwner",
          "type": "address"
        },
        {
          "indexed": true,
          "internalType": "address",
          "name": "newOwner",
          "type": "address"
        }
      ],
      "name": "OwnershipTransferred",
      "type": "event"
    },
    {
      "anonymous": false,
      "inputs": [
        {
          "indexed": true,
          "internalType": "address",
          "name": "from",
          "type": "address"
        },
        {
          "indexed": true,
          "internalType": "address",
          "name": "to",
          "type": "address"
        },
        {
          "indexed": false,
          "internalType": "uint256",
          "name": "value",
          "type": "uint256"
        }
      ],
      "name": "Transfer",
      "type": "event"
    },
    {
      "inputs": [
        {
          "internalType": "address",
          "name": "owner",
          "type": "address"
        },
        {
          "internalType": "address",
          "name": "spender",
          "type": "address"
        }
      ],
      "name": "allowance",
      "outputs": [
        {
          "internalType": "uint256",
          "name": "",
          "type": "uint256"
        }
      ],
      "stateMutability": "view",
      "type": "function"
    },
    {
      "inputs": [
        {
          "internalType": "address",
          "name": "spender",
          "type": "address"
        },
        {
          "internalType": "uint256",
          "name": "amount",
          "type": "uint256"
        }
      ],
      "name": "approve",
      "outputs": [
        {
          "internalType": "bool",
          "name": "",
          "type": "bool"
        }
      ],
      "stateMutability": "nonpayable",
      "type": "function"
    },
    {
      "inputs": [
        {
          "internalType": "address",
          "name": "account",
          "type": "address"
        }
      ],
      "name": "balanceOf",
      "outputs": [
        {
          "internalType": "uint256",
          "name": "",
          "type": "uint256"
        }
      ],
      "stateMutability": "view",
      "type": "function"
    },
    {
      "inputs": [],
      "name": "decimals",
      "outputs": [
        {
          "internalType": "uint8",
          "name": "",
          "type": "uint8"
        }
      ],
      "stateMutability": "view",
      "type": "function"
    },
    {
      "inputs": [
        {
          "internalType": "address",
          "name": "spender",
          "type": "address"
        },
        {
          "internalType": "uint256",
          "name": "subtractedValue",
          "type": "uint256"
        }
      ],
      "name": "decreaseAllowance",
      "outputs": [
        {
          "internalType": "bool",
          "name": "",
          "type": "bool"
        }
      ],
      "stateMutability": "nonpayable",
      "type": "function"
    },
    {
      "inputs": [
        {
          "internalType": "address",
          "name": "spender",
          "type": "address"
        },
        {
          "internalType": "uint256",
          "name": "addedValue",
          "type": "uint256"
        }
      ],
      "name": "increaseAllowance",
      "outputs": [
        {
          "internalType": "bool",
          "name": "",
          "type": "bool"
        }
      ],
      "stateMutability": "nonpayable",
      "type": "function"
    },
    {
      "inputs": [],
      "name": "isRep",
      "outputs": [
        {
          "internalType": "bool",
          "name": "",
          "type": "bool"
        }
      ],
      "stateMutability": "view",
      "type": "function"
    },
    {
      "inputs": [],
      "name": "name",
      "outputs": [
        {
          "internalType": "string",
          "name": "",
          "type": "string"
        }
      ],
      "stateMutability": "view",
      "type": "function"
    },
    {
      "inputs": [],
      "name": "owner",
      "outputs": [
        {
          "internalType": "address",
          "name": "",
          "type": "address"
        }
      ],
      "stateMutability": "view",
      "type": "function"
    },
    {
      "inputs": [],
      "name": "renounceOwnership",
      "outputs": [],
      "stateMutability": "nonpayable",
      "type": "function"
    },
    {
      "inputs": [],
      "name": "symbol",
      "outputs": [
        {
          "internalType": "string",
          "name": "",
          "type": "string"
        }
      ],
      "stateMutability": "view",
      "type": "function"
    },
    {
      "inputs": [
        {
          "internalType": "address",
          "name": "",
          "type": "address"
        }
      ],
      "name": "tokenSpaceTracker",
      "outputs": [
        {
          "internalType": "uint256",
          "name": "",
          "type": "uint256"
        }
      ],
      "stateMutability": "view",
      "type": "function"
    },
    {
      "inputs": [
        {
          "internalType": "address",
          "name": "",
          "type": "address"
        }
      ],
      "name": "tokenTimeTracker",
      "outputs": [
        {
          "internalType": "uint256",
          "name": "",
          "type": "uint256"
        }
      ],
      "stateMutability": "view",
      "type": "function"
    },
    {
      "inputs": [],
      "name": "totalSupply",
      "outputs": [
        {
          "internalType": "uint256",
          "name": "",
          "type": "uint256"
        }
      ],
      "stateMutability": "view",
      "type": "function"
    },
    {
      "inputs": [
        {
          "internalType": "address",
          "name": "sender",
          "type": "address"
        },
        {
          "internalType": "address",
          "name": "recipient",
          "type": "address"
        },
        {
          "internalType": "uint256",
          "name": "amount",
          "type": "uint256"
        }
      ],
      "name": "transferFrom",
      "outputs": [
        {
          "internalType": "bool",
          "name": "",
          "type": "bool"
        }
      ],
      "stateMutability": "nonpayable",
      "type": "function"
    },
    {
      "inputs": [
        {
          "internalType": "address",
          "name": "newOwner",
          "type": "address"
        }
      ],
      "name": "transferOwnership",
      "outputs": [],
      "stateMutability": "nonpayable",
      "type": "function"
    },
    {
      "inputs": [],
      "name": "transferable",
      "outputs": [
        {
          "internalType": "bool",
          "name": "",
          "type": "bool"
        }
      ],
      "stateMutability": "view",
      "type": "function"
    },
    {
      "inputs": [
        {
          "internalType": "address",
          "name": "recipient",
          "type": "address"
        },
        {
          "internalType": "uint256",
          "name": "amount",
          "type": "uint256"
        }
      ],
      "name": "transfer",
      "outputs": [
        {
          "internalType": "bool",
          "name": "",
          "type": "bool"
        }
      ],
      "stateMutability": "nonpayable",
      "type": "function"
    },
    {
      "inputs": [
        {
          "internalType": "address",
          "name": "_to",
          "type": "address"
        },
        {
          "internalType": "uint256",
          "name": "_amount",
          "type": "uint256"
        }
      ],
      "name": "_Mint",
      "outputs": [],
      "stateMutability": "nonpayable",
      "type": "function"
    },
    {
      "inputs": [
        {
          "internalType": "address",
          "name": "_from",
          "type": "address"
        },
        {
          "internalType": "uint256",
          "name": "_amount",
          "type": "uint256"
        }
      ],
      "name": "_Burn",
      "outputs": [],
      "stateMutability": "nonpayable",
      "type": "function"
    },
    {
      "inputs": [
        {
          "internalType": "address",
          "name": "_account",
          "type": "address"
        }
      ],
      "name": "getRelativePosition",
      "outputs": [
        {
          "internalType": "uint256",
          "name": "time",
          "type": "uint256"
        },
        {
          "internalType": "uint256",
          "name": "space",
          "type": "uint256"
        }
      ],
      "stateMutability": "view",
      "type": "function"
    }
  ],
  "bytecode": "0x60806040523480156200001157600080fd5b50604051620016e9380380620016e9833981810160405260a08110156200003757600080fd5b81019080805160405193929190846401000000008211156200005857600080fd5b9083019060208201858111156200006e57600080fd5b82516401000000008111828201881017156200008957600080fd5b82525081516020918201929091019080838360005b83811015620000b85781810151838201526020016200009e565b50505050905090810190601f168015620000e65780820380516001836020036101000a031916815260200191505b50604052602001805160405193929190846401000000008211156200010a57600080fd5b9083019060208201858111156200012057600080fd5b82516401000000008111828201881017156200013b57600080fd5b82525081516020918201929091019080838360005b838110156200016a57818101518382015260200162000150565b50505050905090810190601f168015620001985780820380516001836020036101000a031916815260200191505b50604090815260208201519082015160609092015190935090915084846000620001ca6001600160e01b03620002b716565b600080546001600160a01b0319166001600160a01b0383169081178255604051929350917f8be0079c531659141344cd1fd0a4f28419497f9722a3daafe3b4186f6b6457e0908290a3508151620002299060049060208501906200043f565b5080516200023f9060059060208401906200043f565b505060068054601260ff199091161761ff001916610100861515021762ff00001916620100008515150217905550336001600160a01b038216148015906200028957506001821515145b15620002ac57620002ac81670de0b6b3a76400006001600160e01b03620002bc16565b5050505050620004e1565b335b90565b6001600160a01b03821662000318576040805162461bcd60e51b815260206004820152601f60248201527f45524332303a206d696e7420746f20746865207a65726f206164647265737300604482015290519081900360640190fd5b6200032f600083836001600160e01b03620003d816565b6200034b81600354620003dd60201b62000d371790919060201c565b6003556001600160a01b0382166000908152600160209081526040909120546200038091839062000d37620003dd821b17901c565b6001600160a01b03831660008181526001602090815260408083209490945583518581529351929391927fddf252ad1be2c89b69c2b068fc378daa952ba7f163c4a11628f55a4df523b3ef9281900390910190a35050565b505050565b60008282018381101562000438576040805162461bcd60e51b815260206004820152601b60248201527f536166654d6174683a206164646974696f6e206f766572666c6f770000000000604482015290519081900360640190fd5b9392505050565b828054600181600116156101000203166002900490600052602060002090601f016020900481019282601f106200048257805160ff1916838001178555620004b2565b82800160010185558215620004b2579182015b82811115620004b257825182559160200191906001019062000495565b50620004c0929150620004c4565b5090565b620002b991905b80821115620004c05760008155600101620004cb565b6111f880620004f16000396000f3fe608060405234801561001057600080fd5b50600436106101375760003560e01c80637d21ce4d116100b857806395d89b411161007c57806395d89b41146103ae57806396615aa3146103b6578063a457c2d7146103e2578063a9059cbb1461040e578063dd62ed3e1461043a578063f2fde38b1461046857610137565b80637d21ce4d146102f1578063846123241461031d5780638da5cb5b146103435780638f50c3a21461036757806392ff0d31146103a657610137565b806339509351116100ff57806339509351146102675780636fcc7d571461029357806370a08231146102b9578063715018a6146102df578063782f085d146102e957610137565b806306fdde031461013c578063095ea7b3146101b957806318160ddd146101f957806323b872dd14610213578063313ce56714610249575b600080fd5b61014461048e565b6040805160208082528351818301528351919283929083019185019080838360005b8381101561017e578181015183820152602001610166565b50505050905090810190601f1680156101ab5780820380516001836020036101000a031916815260200191505b509250505060405180910390f35b6101e5600480360360408110156101cf57600080fd5b506001600160a01b038135169060200135610524565b604080519115158252519081900360200190f35b610201610542565b60408051918252519081900360200190f35b6101e56004803603606081101561022957600080fd5b506001600160a01b03813581169160208101359091169060400135610548565b6102516105d5565b6040805160ff9092168252519081900360200190f35b6101e56004803603604081101561027d57600080fd5b506001600160a01b0381351690602001356105de565b610201600480360360208110156102a957600080fd5b50356001600160a01b0316610632565b610201600480360360208110156102cf57600080fd5b50356001600160a01b0316610644565b6102e761065f565b005b6101e5610701565b6102e76004803603604081101561030757600080fd5b506001600160a01b038135169060200135610710565b6102016004803603602081101561033357600080fd5b50356001600160a01b0316610780565b61034b610792565b604080516001600160a01b039092168252519081900360200190f35b61038d6004803603602081101561037d57600080fd5b50356001600160a01b03166107a1565b6040805192835260208301919091528051918290030190f35b6101e56107c9565b6101446107d7565b6102e7600480360360408110156103cc57600080fd5b506001600160a01b038135169060200135610838565b6101e5600480360360408110156103f857600080fd5b506001600160a01b0381351690602001356108a4565b6101e56004803603604081101561042457600080fd5b506001600160a01b038135169060200135610912565b6102016004803603604081101561045057600080fd5b506001600160a01b0381358116916020013516610936565b6102e76004803603602081101561047e57600080fd5b50356001600160a01b0316610961565b60048054604080516020601f600260001961010060018816150201909516949094049384018190048102820181019092528281526060939092909183018282801561051a5780601f106104ef5761010080835404028352916020019161051a565b820191906000526020600020905b8154815290600101906020018083116104fd57829003601f168201915b5050505050905090565b6000610538610531610a59565b8484610a5d565b5060015b92915050565b60035490565b6000610555848484610b49565b6105cb84610561610a59565b6105c6856040518060600160405280602881526020016110cc602891396001600160a01b038a1660009081526002602052604081209061059f610a59565b6001600160a01b03168152602081019190915260400160002054919063ffffffff610ca016565b610a5d565b5060019392505050565b60065460ff1690565b60006105386105eb610a59565b846105c685600260006105fc610a59565b6001600160a01b03908116825260208083019390935260409182016000908120918c16815292529020549063ffffffff610d3716565b60086020526000908152604090205481565b6001600160a01b031660009081526001602052604090205490565b610667610a59565b6000546001600160a01b039081169116146106b7576040805162461bcd60e51b815260206004820181905260248201526000805160206110f4833981519152604482015290519081900360640190fd5b600080546040516001600160a01b03909116907f8be0079c531659141344cd1fd0a4f28419497f9722a3daafe3b4186f6b6457e0908390a3600080546001600160a01b0319169055565b60065462010000900460ff1681565b610718610a59565b6000546001600160a01b03908116911614610768576040805162461bcd60e51b815260206004820181905260248201526000805160206110f4833981519152604482015290519081900360640190fd5b6107728282610d98565b61077c8282610def565b5050565b60076020526000908152604090205481565b6000546001600160a01b031690565b6001600160a01b03166000908152600760209081526040808320546008909252909120549091565b600654610100900460ff1681565b60058054604080516020601f600260001961010060018816150201909516949094049384018190048102820181019092528281526060939092909183018282801561051a5780601f106104ef5761010080835404028352916020019161051a565b610840610a59565b6000546001600160a01b03908116911614610890576040805162461bcd60e51b815260206004820181905260248201526000805160206110f4833981519152604482015290519081900360640190fd5b61089a8282610d98565b61077c8282610edb565b60006105386108b1610a59565b846105c68560405180606001604052806025815260200161119e60259139600260006108db610a59565b6001600160a01b03908116825260208083019390935260409182016000908120918d1681529252902054919063ffffffff610ca016565b600654600090610100900460ff1661092c5750600061053c565b61053c8383610d98565b6001600160a01b03918216600090815260026020908152604080832093909416825291909152205490565b610969610a59565b6000546001600160a01b039081169116146109b9576040805162461bcd60e51b815260206004820181905260248201526000805160206110f4833981519152604482015290519081900360640190fd5b6001600160a01b0381166109fe5760405162461bcd60e51b815260040180806020018281038252602681526020018061105e6026913960400191505060405180910390fd5b600080546040516001600160a01b03808516939216917f8be0079c531659141344cd1fd0a4f28419497f9722a3daafe3b4186f6b6457e091a3600080546001600160a01b0319166001600160a01b0392909216919091179055565b3390565b6001600160a01b038316610aa25760405162461bcd60e51b815260040180806020018281038252602481526020018061117a6024913960400191505060405180910390fd5b6001600160a01b038216610ae75760405162461bcd60e51b81526004018080602001828103825260228152602001806110846022913960400191505060405180910390fd5b6001600160a01b03808416600081815260026020908152604080832094871680845294825291829020859055815185815291517f8c5be1e5ebec7d5bd14f71427d1e84f3dd0314c0f7b2291e5b200ac8c7c3b9259281900390910190a3505050565b6001600160a01b038316610b8e5760405162461bcd60e51b81526004018080602001828103825260258152602001806111556025913960400191505060405180910390fd5b6001600160a01b038216610bd35760405162461bcd60e51b81526004018080602001828103825260238152602001806110196023913960400191505060405180910390fd5b610bde838383610fd1565b610c21816040518060600160405280602681526020016110a6602691396001600160a01b038616600090815260016020526040902054919063ffffffff610ca016565b6001600160a01b038085166000908152600160205260408082209390935590841681522054610c56908263ffffffff610d3716565b6001600160a01b03808416600081815260016020908152604091829020949094558051858152905191939287169260008051602061111483398151915292918290030190a3505050565b60008184841115610d2f5760405162461bcd60e51b81526004018080602001828103825283818151815260200191508051906020019080838360005b83811015610cf4578181015183820152602001610cdc565b50505050905090810190601f168015610d215780820380516001836020036101000a031916815260200191505b509250505060405180910390fd5b505050900390565b600082820183811015610d91576040805162461bcd60e51b815260206004820152601b60248201527f536166654d6174683a206164646974696f6e206f766572666c6f770000000000604482015290519081900360640190fd5b9392505050565b6001600160a01b0382166000908152600760205260408120429055610dbc83610644565b9050610dce828263ffffffff610d3716565b6001600160a01b039093166000908152600860205260409020929092555050565b6001600160a01b038216610e4a576040805162461bcd60e51b815260206004820152601f60248201527f45524332303a206d696e7420746f20746865207a65726f206164647265737300604482015290519081900360640190fd5b610e5660008383610fd1565b600354610e69908263ffffffff610d3716565b6003556001600160a01b038216600090815260016020526040902054610e95908263ffffffff610d3716565b6001600160a01b03831660008181526001602090815260408083209490945583518581529351929391926000805160206111148339815191529281900390910190a35050565b6001600160a01b038216610f205760405162461bcd60e51b81526004018080602001828103825260218152602001806111346021913960400191505060405180910390fd5b610f2c82600083610fd1565b610f6f8160405180606001604052806022815260200161103c602291396001600160a01b038516600090815260016020526040902054919063ffffffff610ca016565b6001600160a01b038316600090815260016020526040902055600354610f9b908263ffffffff610fd616565b6003556040805182815290516000916001600160a01b038516916000805160206111148339815191529181900360200190a35050565b505050565b6000610d9183836040518060400160405280601e81526020017f536166654d6174683a207375627472616374696f6e206f766572666c6f770000815250610ca056fe45524332303a207472616e7366657220746f20746865207a65726f206164647265737345524332303a206275726e20616d6f756e7420657863656564732062616c616e63654f776e61626c653a206e6577206f776e657220697320746865207a65726f206164647265737345524332303a20617070726f766520746f20746865207a65726f206164647265737345524332303a207472616e7366657220616d6f756e7420657863656564732062616c616e636545524332303a207472616e7366657220616d6f756e74206578636565647320616c6c6f77616e63654f776e61626c653a2063616c6c6572206973206e6f7420746865206f776e6572ddf252ad1be2c89b69c2b068fc378daa952ba7f163c4a11628f55a4df523b3ef45524332303a206275726e2066726f6d20746865207a65726f206164647265737345524332303a207472616e736665722066726f6d20746865207a65726f206164647265737345524332303a20617070726f76652066726f6d20746865207a65726f206164647265737345524332303a2064656372656173656420616c6c6f77616e63652062656c6f77207a65726fa2646970667358221220ca31122442aca697e569b5944b0bb251c6cdbc7e5ad0d58461888a384553388f64736f6c63430006060033",
  "immutableReferences": {},
  "source": "pragma solidity ^0.6.2;\n\nimport \"@openzeppelin/contracts/access/Ownable.sol\";\nimport \"@openzeppelin/contracts/math/SafeMath.sol\";\nimport \"@openzeppelin/contracts/token/ERC20/ERC20.sol\";\n\n////////////////////////////////////////////////////////////////////////////////////////////\n/// @title ZToken\n/// @author Christopher Dixon\n////////////////////////////////////////////////////////////////////////////////////////////\n/**\nThe ZToken is designed to be a flexible ERC20 token that can be used by a ZDAO in multiple ways.\n**/\n\ncontract ZToken is Ownable, ERC20 {\n    using SafeMath for uint256;\n\n    /// @notice transferable is a bool representing whether or not this rep token can be transfered by its owner\n    bool public transferable;\n    ///@notice\n    bool public isRep;\n\n    /// @notice tokenTimeTracker is responsible for tracking when tokens are transfered from one account to another\n    /// @dev this is important for making sure proposal voting cant be done with the same tokens using multiple\n    ///       accounts\n    mapping(address => uint256) public tokenTimeTracker;\n    /// @notice tokenSpaceTracker is used to track the amount of tokens an account has when its time is tracked by\n    ///    tokenTimeTracker\n    mapping(address => uint256) public tokenSpaceTracker;\n\n    /**\n     @notice the constructor function is fired only once during contract creation and is used to set up\n                the ZDAO rep token\n     @dev this function mints one token to the DAO creator so that they can install neurons on the DAO after\n                its creation\n     @param _tokenName is the name of the token\n     @param _tokenSym is the symbol of the token\n     @param _isTransferable is a bool representing whether of not this token is transferable\n     @param _isRep is a bool representing whether or not this token will be used as a DAO repToken\n     @param _DAOcreator is the address of the person who created the DAO that is creating this token.\n     @dev if _DAOcreator is equal to the DAO(the msg.sender) and the token is not being used as a rep token\n                then the constructor will not mint a first token\n     **/\n    constructor(\n        string memory _tokenName,\n        string memory _tokenSym,\n        bool _isTransferable,\n        bool _isRep,\n        address _DAOcreator\n    ) public ERC20(_tokenName, _tokenSym) {\n        transferable = _isTransferable;\n        isRep = _isRep;\n        if (_DAOcreator != msg.sender && _isRep == true) {\n            _mint(_DAOcreator, 1e18);\n        }\n    }\n\n    function tokenRelativity(address recipient, uint256 amount) internal {\n        tokenTimeTracker[recipient] = now;\n        uint256 currentHodl = balanceOf(recipient);\n        tokenSpaceTracker[recipient] = amount.add(currentHodl);\n    }\n\n    /**\n     @notice transfer is an override function for the standard ERC20 transfer function\n     @dev this override function is used to check if a token allows for transfers\n     @param recipient is the address the tokens are being transfered to\n     @param amount is the amount of token being transfered\n     @return is a bool representing whether or not the transfer was successful\n    **/\n    function transfer(address recipient, uint256 amount)\n        public\n        override\n        returns (bool)\n    {\n        if (!transferable) {\n            return false;\n        } else {\n            tokenRelativity(recipient, amount);\n        }\n    }\n\n    /**\n     @notice _Mint allows the owner of this token contract to mint new tokens\n     @dev this function will fail if called by anyone who isnt the contract owner\n     @param _to is the address tokens are being minted to\n     @param _amount is the amount of tokens being minted\n    **/\n    function _Mint(address _to, uint256 _amount) public onlyOwner {\n        tokenRelativity(_to, _amount);\n        _mint(_to, _amount);\n    }\n\n    /**\n     @notice _Burn allows the owner of this token contract to burn tokens from an account\n     @dev this function will fail if called by anyone other than the owner\n     @param _from is the address the tokens are being burnt from\n     @param _amount is the amount of tokens being burnt\n    **/\n    function _Burn(address _from, uint256 _amount) public onlyOwner {\n        tokenRelativity(_from, _amount);\n        _burn(_from, _amount);\n    }\n\n    /**\n    @notice getRelativePosition is used by the DAO to determine the voting status of an account in DAO's where\n            the rep is transferable.\n    @dev this is needed to ensure on person cant vote multiple times by transfering his rep to seperate accounts\n    @param _account is the account whos position is being calculated\n    **/\n    function getRelativePosition(address _account)\n        public\n        view\n        returns (uint256 time, uint256 space)\n    {\n        time = tokenTimeTracker[_account];\n        space = tokenSpaceTracker[_account];\n    }\n}\n",
  "sourcePath": "/home/stan36/repos/zer0/ZDAO/contracts/ZToken.sol",
  "compiler": {
    "name": "solc",
    "version": "0.6.6+commit.6c089d02.Emscripten.clang"
  },
  "schemaVersion": "3.3.2",
  "updatedAt": "2021-01-18T23:48:19.614Z",
  "devdoc": {
    "methods": {
      "_Burn(address,uint256)": {
        "details": "this function will fail if called by anyone other than the owner",
        "params": {
          "_amount": "is the amount of tokens being burnt*",
          "_from": "is the address the tokens are being burnt from"
        }
      },
      "_Mint(address,uint256)": {
        "details": "this function will fail if called by anyone who isnt the contract owner",
        "params": {
          "_amount": "is the amount of tokens being minted*",
          "_to": "is the address tokens are being minted to"
        }
      },
      "allowance(address,address)": {
        "details": "See {IERC20-allowance}."
      },
      "approve(address,uint256)": {
        "details": "See {IERC20-approve}.     * Requirements:     * - `spender` cannot be the zero address."
      },
      "balanceOf(address)": {
        "details": "See {IERC20-balanceOf}."
      },
      "constructor": {
        "details": "this function mints one token to the DAO creator so that they can install neurons on the DAO after its creationif _DAOcreator is equal to the DAO(the msg.sender) and the token is not being used as a rep token then the constructor will not mint a first token*",
        "params": {
          "_DAOcreator": "is the address of the person who created the DAO that is creating this token.",
          "_isRep": "is a bool representing whether or not this token will be used as a DAO repToken",
          "_isTransferable": "is a bool representing whether of not this token is transferable",
          "_tokenName": "is the name of the token",
          "_tokenSym": "is the symbol of the token"
        }
      },
      "decimals()": {
        "details": "Returns the number of decimals used to get its user representation. For example, if `decimals` equals `2`, a balance of `505` tokens should be displayed to a user as `5,05` (`505 / 10 ** 2`).     * Tokens usually opt for a value of 18, imitating the relationship between Ether and Wei. This is the value {ERC20} uses, unless {_setupDecimals} is called.     * NOTE: This information is only used for _display_ purposes: it in no way affects any of the arithmetic of the contract, including {IERC20-balanceOf} and {IERC20-transfer}."
      },
      "decreaseAllowance(address,uint256)": {
        "details": "Atomically decreases the allowance granted to `spender` by the caller.     * This is an alternative to {approve} that can be used as a mitigation for problems described in {IERC20-approve}.     * Emits an {Approval} event indicating the updated allowance.     * Requirements:     * - `spender` cannot be the zero address. - `spender` must have allowance for the caller of at least `subtractedValue`."
      },
      "getRelativePosition(address)": {
        "details": "this is needed to ensure on person cant vote multiple times by transfering his rep to seperate accounts",
        "params": {
          "_account": "is the account whos position is being calculated*"
        }
      },
      "increaseAllowance(address,uint256)": {
        "details": "Atomically increases the allowance granted to `spender` by the caller.     * This is an alternative to {approve} that can be used as a mitigation for problems described in {IERC20-approve}.     * Emits an {Approval} event indicating the updated allowance.     * Requirements:     * - `spender` cannot be the zero address."
      },
      "name()": {
        "details": "Returns the name of the token."
      },
      "owner()": {
        "details": "Returns the address of the current owner."
      },
      "renounceOwnership()": {
        "details": "Leaves the contract without owner. It will not be possible to call `onlyOwner` functions anymore. Can only be called by the current owner.     * NOTE: Renouncing ownership will leave the contract without an owner, thereby removing any functionality that is only available to the owner."
      },
      "symbol()": {
        "details": "Returns the symbol of the token, usually a shorter version of the name."
      },
      "totalSupply()": {
        "details": "See {IERC20-totalSupply}."
      },
      "transfer(address,uint256)": {
        "details": "this override function is used to check if a token allows for transfers",
        "params": {
          "amount": "is the amount of token being transfered",
          "recipient": "is the address the tokens are being transfered to"
        },
        "returns": {
          "_0": "is a bool representing whether or not the transfer was successful*"
        }
      },
      "transferFrom(address,address,uint256)": {
        "details": "See {IERC20-transferFrom}.     * Emits an {Approval} event indicating the updated allowance. This is not required by the EIP. See the note at the beginning of {ERC20}.     * Requirements:     * - `sender` and `recipient` cannot be the zero address. - `sender` must have a balance of at least `amount`. - the caller must have allowance for ``sender``'s tokens of at least `amount`."
      },
      "transferOwnership(address)": {
        "details": "Transfers ownership of the contract to a new account (`newOwner`). Can only be called by the current owner."
      }
    }
  },
  "userdoc": {
    "methods": {
      "_Burn(address,uint256)": {
        "notice": "_Burn allows the owner of this token contract to burn tokens from an account"
      },
      "_Mint(address,uint256)": {
        "notice": "_Mint allows the owner of this token contract to mint new tokens"
      },
      "constructor": "the constructor function is fired only once during contract creation and is used to set up the ZDAO rep token",
      "getRelativePosition(address)": {
        "notice": "getRelativePosition is used by the DAO to determine the voting status of an account in DAO's where the rep is transferable."
      },
      "transfer(address,uint256)": {
        "notice": "transfer is an override function for the standard ERC20 transfer function"
      }
    },
    "notice": "The ZToken is designed to be a flexible ERC20 token that can be used by a ZDAO in multiple ways.*"
  }
}